:020000040800F2
:108800000000012085C4000865BF00086DBF000896
:1088100075BF00087DBF000885BF0008000000008C
:10882000000000000000000000000000CDC40008AF
:108830008DBF000800000000258A0008BDFC00086C
:10884000CDC40008CDC40008CDC40008CDC40008C4
:10885000CDC40008CDC4000899BF0008A7BF000818
:10886000CDC40008CDC40008CDC40008CDC40008A4
:10887000CDC40008CDC40008CDC40008B5BF0008B1
:10888000CDC40008CDC40008CDC40008CDC4000884
:10889000CDC40008CDC40008CDC40008C9BF00087D
:1088A000CDC40008CDC40008CDC40008CDC4000864
:1088B000DDBF0008CDC40008CDC40008CDC4000849
:1088C000CDC40008CDC40008CDC40008CDC4000844
:1088D000CDC40008CDC40008CDC40008CDC4000834
:1088E000CDC40008CDC40008CDC40008CDC4000824
:1088F000CDC40008CDC40008CDC40008CDC4000814
:10890000CDC40008CDC40008CDC40008CDC4000803
:10891000CDC40008CDC40008CDC40008CDC40008F3
:10892000CDC40008CDC40008CDC40008CDC40008E3
:108930000000000000000000000000000000000037
:108940000000000000000000000000000000000027
:108950000000000000000000000000000000000017
:108960000000000000000000000000000000000007
:1089700000000000000000000000000000000000F7
:1089800000000000000000000000000000000000E7
:1089900000000000000000000000000000000000D7
:1089A00000000000000000000000000000000000C7
:1089B00000000000000000000000000000000000B7
:1089C00000000000000000000000000000000000A7
:1089D0000000000000000000000000000000000097
:0489E0005FF8E0F16B
:1089E40010B5054C237833B9044B13B10448AFF3E5
:1089F40000800123237010BD9000002000000000BF
:108A0400EC30010808B5034B1BB103490348AFF32D
:108A1400008008BD0000000094000020EC30010834
:108A240041488168002904BF08B007E0EFF30982D8
:108A3400A2F128024A60036882E8F84F3B4988475C
:108A4400816899B14A6892E8F84F036002F12802FC
:108A540082F3098890693649884202DB354A90429C
:108A640003DB4FF0000181F311887047324833492A
:108A74000968401A80F308884FF08071C161304959
:108A840081617FF0060E704701BC2E488047204666
:108A940002BC88475DF804EB2B490847002807D03F
:108AA400EFF314816A46734680E8FE0F2748804737
:108AB400274822490968401A20F0070080F30888F3
:108AC4004FF000011848417081F3118862B62149C2
:108AD4004FF080520A60BFF34F8FBFF36F8FFEE7F2
:108AE40090E8FE0F81F31488BFF36F8F95469E467E
:108AF400704703680CB44FF00001417081F3118892
:108B040014494FF080520A60BFF34F8FBFF36F8F49
:108B14000CBC036070470F494FF080520A60BFF3EA
:108B24004F8FBFF36F8F704788300020990E010874
:108B3400F78A0008188B000850390020F43D01081A
:108B44009DFE0008690E0108850E0108310E01081A
:108B54007039002004ED00E0034613F8012B002ACD
:108B6400FBD1181A0138704781F0004102E000BFC0
:108B740083F0004330B54FEA41044FEA430594EAD9
:108B8400050F08BF90EA020F1FBF54EA000C55EA14
:108B9400020C7FEA645C7FEA655C00F0E2804FEAE5
:108BA4005454D4EB5555B8BF6D420CDD2C4480EAC7
:108BB400020281EA030382EA000083EA010180EAF7
:108BC400020281EA0303362D88BF30BD11F0004F45
:108BD4004FEA01314FF4801C4CEA113102D040427B
:108BE40061EB410113F0004F4FEA03334CEA1333B6
:108BF40002D0524263EB430394EA050F00F0A780CE
:108C0400A4F10104D5F1200E0DDB02FA0EFC22FAC8
:108C140005F2801841F1000103FA0EF2801843FABC
:108C240005F359410EE0A5F120050EF1200E012AAD
:108C340003FA0EFC28BF4CF0020C43FA05F3C018EB
:108C440051EBE37101F0004507D54FF0000EDCF164
:108C5400000C7EEB00006EEB0101B1F5801F1BD30D
:108C6400B1F5001F0CD349085FEA30004FEA3C0C11
:108C740004F101044FEA445212F5800F80F09A8007
:108C8400BCF1004F08BF5FEA500C50F1000041EB0B
:108C9400045141EA050130BD5FEA4C0C404141EB0F
:108CA4000101013C28BFB1F5801FE9D291F0000F0A
:108CB40004BF01460020B1FA81F308BF2033A3F1B9
:108CC4000B03B3F120020CDA0C3208DD02F1140CB0
:108CD400C2F10C0201FA0CF021FA02F10CE002F1EB
:108CE4001402D8BFC2F1200C01FA02F120FA0CFCE4
:108CF400DCBF41EA0C019040E41AA2BF01EB04512D
:108D0400294330BD6FEA04041F3C1CDA0C340EDC2A
:108D140004F11404C4F1200220FA04F001FA02F36D
:108D240040EA030021FA04F345EA030130BDC4F12B
:108D34000C04C4F1200220FA02F001FA04F340EA20
:108D44000300294630BD21FA04F0294630BD94F0D1
:108D5400000F83F4801306BF81F480110134013DB8
:108D64004EE77FEA645C18BF7FEA655C29D094EA29
:108D7400050F08BF90EA020F05D054EA000C04BFA7
:108D84001946104630BD91EA030F1EBF0021002092
:108D940030BD5FEA545C05D14000494128BF41F031
:108DA400004130BD14F580043CBF01F5801130BD95
:108DB40001F0004545F0FE4141F470014FF0000020
:108DC40030BD7FEA645C1ABF194610467FEA655CD1
:108DD4001CBF0B46024650EA013406BF52EA033573
:108DE40091EA030F41F4002130BD00BF90F0000F61
:108DF40004BF0021704730B54FF4806404F132049D
:108E04004FF000054FF0000150E700BF90F0000F55
:108E140004BF0021704730B54FF4806404F132047C
:108E240010F0004548BF40424FF000013EE700BF4C
:108E340042004FEAE2014FEA31014FEA02701FBFDC
:108E440012F07F4393F07F4F81F06051704732F00E
:108E54007F4208BF704793F07F4F04BF41F4002165
:108E6400704730B54FF4607401F0004521F00041C3
:108E74001CE700BF50EA010208BF704730B54FF04D
:108E840000050AE050EA010208BF704730B511F04E
:108E9400004502D5404261EB41014FF4806404F186
:108EA40032045FEA915C3FF4D8AE4FF003025FEA0C
:108EB400DC0C18BF03325FEADC0C18BF033202EB90
:108EC400DC02C2F1200300FA03FC20FA02F001FAEA
:108ED40003FE40EA0E0021FA02F11444BDE600BF8D
:108EE40070B54FF0FF0C4CF4E06C1CEA11541DBF3C
:108EF4001CEA135594EA0C0F95EA0C0F00F0DEF807
:108F04002C4481EA030621EA4C5123EA4C5350EAEB
:108F1400013518BF52EA033541F4801143F480133C
:108F240038D0A0FB02CE4FF00005E1FB02E506F0CD
:108F34000042E0FB03E54FF00006E1FB03569CF022
:108F4400000F18BF4EF0010EA4F1FF04B6F5007F28
:108F540064F5407404D25FEA4E0E6D4146EB06069A
:108F640042EAC62141EA55514FEAC52040EA5E5023
:108F74004FEACE2EB4F1FD0C88BFBCF5E06F1ED8CD
:108F8400BEF1004F08BF5FEA500E50F1000041EB04
:108F9400045170BD06F0004646EA010140EA0200B1
:108FA40081EA0301B4EB5C04C2BFD4EB0C0541EAD3
:108FB400045170BD41F480114FF0000E013C00F3E8
:108FC400AB8014F1360FDEBF002001F0004170BD0C
:108FD400C4F10004203C35DA0C341BDC04F1140425
:108FE400C4F1200500FA05F320FA04F001FA05F2B1
:108FF40040EA020001F0004221F0004110EBD3707E
:1090040021FA04F642EB06015EEA430E08BF20EAA9
:10901400D37070BDC4F10C04C4F1200500FA04F34C
:1090240020FA05F001FA04F240EA020001F00041DE
:1090340010EBD37041F100015EEA430E08BF20EA51
:10904400D37070BDC4F1200500FA05F24EEA020E99
:1090540020FA04F301FA05F243EA020321FA04F0C8
:1090640001F0004121FA04F220EA020000EBD3707F
:109074005EEA430E08BF20EAD37070BD94F0000F7F
:109084000FD101F00046400041EB010111F4801FB3
:1090940008BF013CF7D041EA060195F0000F18BF64
:1090A400704703F00046520043EB030313F4801FA0
:1090B40008BF013DF7D043EA0603704794EA0C0F5A
:1090C4000CEA135518BF95EA0C0F0CD050EA410670
:1090D40018BF52EA4306D1D181EA030101F00041ED
:1090E4004FF0000070BD50EA410606BF1046194615
:1090F40052EA430619D094EA0C0F02D150EA013621
:1091040013D195EA0C0F05D152EA03361CBF104661
:1091140019460AD181EA030101F0004141F0FE4100
:1091240041F470014FF0000070BD41F0FE4141F484
:10913400780170BD70B54FF0FF0C4CF4E06C1CEA84
:1091440011541DBF1CEA135594EA0C0F95EA0C0F39
:1091540000F0A7F8A4EB050481EA030E52EA0335F4
:109164004FEA013100F088804FEA03334FF0805515
:1091740045EA131343EA12634FEA022245EA111542
:1091840045EA10654FEA00260EF000419D4208BFF3
:10919400964244F1FD0404F5407402D25B084FEAA0
:1091A4003202B61A65EB03055B084FEA32024FF44C
:1091B40080104FF4002CB6EB020E75EB030E22BFA9
:1091C400B61A754640EA0C005B084FEA3202B6EB69
:1091D400020E75EB030E22BFB61A754640EA5C0018
:1091E4005B084FEA3202B6EB020E75EB030E22BFA8
:1091F400B61A754640EA9C005B084FEA3202B6EBA9
:10920400020E75EB030E22BFB61A754640EADC0067
:1092140055EA060E18D04FEA051545EA16754FEAC9
:1092240006164FEAC30343EA52734FEAC2025FEAE7
:109234001C1CC0D111F4801F0BD141EA00014FF076
:1092440000004FF0004CB6E711F4801F04BF014347
:109254000020B4F1FD0C88BFBCF5E06F3FF6AFAE63
:10926400B5EB030C04BFB6EB020C5FEA500C50F1F3
:10927400000041EB045170BD0EF0004E4EEA113176
:1092840014EB5C04C2BFD4EB0C0541EA045170BD7D
:1092940041F480114FF0000E013C90E645EA060EC1
:1092A4008DE60CEA135594EA0C0F08BF95EA0C0FEF
:1092B4003FF43BAF94EA0C0F0AD150EA01347FF437
:1092C40034AF95EA0C0F7FF425AF104619462CE70E
:1092D40095EA0C0F06D152EA03353FF4FDAE104671
:1092E400194622E750EA410618BF52EA43067FF4C2
:1092F400C5AE50EA41047FF40DAF52EA43057FF452
:10930400EBAE12E74A0011D212F5001211D20DD5BC
:109314006FF47873B3EB62520ED44FEAC12343F077
:10932400004343EA505323FA02F070474FF0000021
:10933400704750EA013002D14FF0FF3070474FF0D0
:109344000000704780B582B000AF0346FB71FB7923
:10935400062B57D801A252F823F000BF7D930008D2
:1093640091930008A5930008B9930008CD930008D1
:10937400E1930008F5930008012000F0CBF80120E8
:1093840000F0E4F8012000F0FBF845E0012000F0D3
:10939400C1F8002000F0DAF8002000F0F1F83BE01A
:1093A400002000F0B7F8012000F0D0F8002000F011
:1093B400E7F831E0002000F0ADF8002000F0C6F836
:1093C400012000F0DDF827E0002000F0A3F80120E0
:1093D40000F0BCF8012000F0D3F81DE0012000F0FB
:1093E40099F8002000F0B2F8012000F0C9F813E069
:1093F400012000F08FF8012000F0A8F8002000F010
:10940400BFF809E0002000F085F8002000F09EF885
:10941400002000F0B5F800BF00BF0837BD4680BD8E
:1094240080B582B000AF0346FB71FB79002B05D0F9
:1094340001220821064804F046F805E0002208212C
:10944400034804F040F800BF0837BD4680BD00BFA4
:109454000010014080B582B000AF0346FB71FB7978
:10946400002B05D001222021064804F02CF805E049
:1094740000222021034804F026F800BF0837BD4627
:1094840080BD00BF0010014090B583B000AFC02381
:10949400FB714FF480511C4803F0FEFF03461C4649
:1094A4004FF40051184803F0F7FF03465B001C43D8
:1094B4004FF48041144803F0EFFF03469B001C4324
:1094C4004FF40041104803F0E7FF0346DB001C4360
:1094D4004FF400710D4803F0DFFF03461B011C43EA
:1094E4004FF480710A4803F0D7FF03465B0123431E
:1094F4005AB297F9073013435BB2FB71FB791846F4
:109504000C37BD4690BD00BF000C01400010014067
:109514000008014080B582B000AF0346FB71FB79BF
:10952400002B06D000224FF48071074803F0CBFFD4
:1095340006E001224FF48071034803F0C4FF00BF2A
:109544000837BD4680BD00BF000C014080B582B025
:1095540000AF0346FB71FB79002B05D000222021CC
:10956400064803F0B0FF05E001222021034803F080
:10957400AAFF00BF0837BD4680BD00BF000C0140F4
:1095840080B582B000AF0346FB71FB79002B06D097
:1095940000224FF40071074803F095FF06E0012212
:1095A4004FF40071034803F08EFF00BF0837BD4637
:1095B40080BD00BF000C014080B400AFBFF34F8FEB
:1095C40000BF064BDB6803F4E0620449044B134319
:1095D400CB60BFF34F8F00BF00BFFDE700ED00E09D
:1095E4000400FA0580B582B000AF0346FB7105485C
:1095F40004F0B6FDFB7927221946AC2000F0E2FE08
:10960400FFF7DAFF8809002080B5A2B000AF7860C8
:109614000A221A49786808F058FD0346002B1FD126
:1096240007F1080300221649184608F0EBFC07F17D
:1096340008031D221946786808F047FD0346002BED
:1096440018D1104B1B78002B06D17B681D331946AB
:10965400012000F01FF80DE00B4801F065F809E067
:109664000A4801F061F8786801F05EF8084801F0F2
:109674005BF800BF00BF8837BD4680BD04310108D8
:109684001031010895020020303101085C310108D5
:109694008031010890B5B9B002AF03463960FB715F
:1096A4007149386800F0CEFD7049386800F0CAFD91
:1096B4006F49386800F0C6FD6E49386800F0C2FD95
:1096C4000023C7F8D4306C49386808F03FFDC7F868
:1096D400D40010220021D7F8D40008F04FFB034631
:1096E400DAB2664B1A70654B1B78012B40F0B280DE
:1096F4006149002008F02AFDC7F8D400D7F8D41037
:109704005F4808F018FE5C49002008F01FFDC7F808
:10971400D4000A220021D7F8D40008F02FFB034616
:109724009AB2584B1A805449002008F00FFDC7F82C
:10973400D4000A220021D7F8D40008F097FB03468E
:10974400514A13604C49002008F000FDC7F8D400CA
:1097540010220021D7F8D40008F088FB03464B4AB6
:109764001360464B1B78002B70D0464B1B88002B94
:109774006CD0454B1B68002B68D0444B1B68002BF6
:1097840064D000F0E1FD0346012B5BD1404B002285
:109794001A70404804F0E4FC384B1B781A4607F171
:1097A4000C033D49184608F02DFC07F10C0334491D
:1097B400184608F0BCFC07F10C031846FFF7CCF977
:1097C40003461A4607F10C031344344A118892786D
:1097D40019809A7007F10C03184600F0A5FF294B75
:1097E4001B881946274B1B881C46274B1B68274A96
:1097F400126807F10C000192009323460A46284997
:1098040008F000FC07F10C03184600F08DFF254812
:1098140000F08AFF1F4804F0A3FC234800F084FFF3
:109824001A222149214800F0D1FB0346002B15D10F
:109834001F4800F079FF1C4800F076FF174800F03D
:1098440073FF0BE01B4800F06FFF07E0194800F0BE
:109854006BFF05E0184800F067FF00E000BF00BFA1
:10986400DC37BD4690BD00BF843101088831010852
:109874008C310108903101089431010895020020CF
:10988400A4020020B40200209C020020A0020020B8
:1098940094020020880900209831010880310108D1
:1098A400C43101081C32010848320108F8050020BF
:1098B400643201089C320108C832010890B59FB097
:1098C40000AF78600B467B80002387F87730002355
:1098D400A7F874307868FFF73FF9034603F00103F3
:1098E400002B2CD10023A7F8723020E00023A7F826
:1098F4007030B7F872307A6813441B781B021AB2BE
:10990400B7F87230013379680B441B781BB21343E8
:109914001BB2A7F87030B7F87420B7F87030534012
:10992400A7F87430B7F872300233A7F87230B7F87A
:1099340072407868FFF710F903469C42D6D3B7F813
:1099440074207B889A4203D1012387F877300CE096
:10995400B7F874207B8807F10C00074908F052FB24
:1099640007F10C03184600F0DFFE97F8773018462D
:109974007C37BD4690BD00BFF4320108B0B5BCB021
:1099840000AF78607B68C7F8E4300023C7F8E030A4
:109994000023FB6607F1700360220021184608F0DB
:1099A400BEFBC649D7F8E40000F04CFCC449D7F824
:1099B400E40000F047FCC349D7F8E40000F042FC9F
:1099C400C149D7F8E40000F03DFCC049D7F8E400F1
:1099D40000F038FCBE49D7F8E40008F0B7FBC7F83C
:1099E400E0000A220021D7F8E00008F0C7F9034696
:1099F400A7F8DE30B649002008F0A8FBC7F8E0005D
:109A040010220021D7F8E00008F0B8F90346A7F8BF
:109A1400DC30AF49002008F099FBC7F8E000D7F824
:109A2400E030C7F8D830B7F8DC301946D7F8D8009A
:109A3400FFF744FF034687F8D73097F8D730012B58
:109A440033D0B7F8DE2007F10803A249184608F01E
:109A5400D9FAA14B1B885A1C07F16C039F4918467D
:109A640008F0D0FA07F16C03184600F05DFE07F128
:109A74006C031846FFF770F8034601331A4607F1E2
:109A84006C031946964800F0A1FA0346002B40F0F7
:109A94007782944800F048FE07F16C03184600F002
:109AA40043FE914800F040FE6AE2904B1B88B7F8F1
:109AB400DE209A422ED08E4800F036FE864B1B885C
:109AC4005A1C07F16C038549184608F09BFA07F104
:109AD4006C03184600F028FE07F16C031846FFF7E4
:109AE4003BF8034601331A4607F16C0319467C48D8
:109AF40000F06CFA0346002B40F03B82794800F0FA
:109B040013FE07F16C03184600F00EFE764800F0D1
:109B14000BFE2EE2774B00221A80D7F8D800FFF70D
:109B24001BF8034603F00103002B46D10023C7F8BA
:109B3400EC3038E0704804F013FB704B1B781B01C9
:109B44005CB2D7F8D820D7F8EC3013441B78184609
:109B540000F06EFA03465BB223435BB2DAB2674BA2
:109B64001A70674B1B780133DAB2654B1A70644B79
:109B74001B78022B12D15F4B1B881A465F4B197856
:109B8400604B99545B4B1B8801339AB2594B1A8032
:109B94005A4B00221A705A4B00221A70D7F8EC3034
:109BA4000133C7F8EC30D7F8D800FEF7D5FF0246EA
:109BB400D7F8EC309342BDD32EE0534800F0B4FD07
:109BC400454B1B885A1C07F16C034449184608F09E
:109BD40019FA07F16C03184600F0A6FD07F16C03AF
:109BE4001846FEF7B9FF034601331A4607F16C0322
:109BF40019463B4800F0EAF90346002B40F0BB81CC
:109C0400384800F091FD07F16C03184600F08CFD14
:109C1400354800F089FDAEE1D7F8D800FEF79CFF87
:109C2400034603F00103002B74D1D7F8D800FEF7E4
:109C340093FF03465B0803F00103002B6AD1002362
:109C4400A7F8EA302EE02C4804F08AFAB7F8EA3094
:109C540003332C4AD35C1A06B7F8EA300233294995
:109C6400CB5C1B041A43B7F8EA3001332549CB5CBB
:109C74001B021343B7F8EA2022498A5C1343C7F84E
:109C8400D030224B1A68224B1344B7F8EA2013440D
:109C9400D7F8D010184600F01FFBB7F8EA300433A9
:109CA400A7F8EA30B7F8EA40D7F8D800FEF754FF2F
:109CB40003465B089C42C6D35BE000BF84310108C5
:109CC400883101088C3101089031010820330108E2
:109CD400943101082433010896020020543301080A
:109CE400F8050020643201088031010800000020DA
:109CF400703301088C02002088090020B60200207D
:109D0400B7020020AC00002090330108900200202C
:109D1400000404089C4800F007FD9C4B1B885A1C57
:109D240007F16C039A49184608F06CF907F16C03C3
:109D3400184600F0F9FC07F16C031846FEF70CFF17
:109D4400034601331A4607F16C031946914800F0A3
:109D54003DF90346002B40F010818F4800F0E4FCED
:109D640007F16C03184600F0DFFC8C4800F0DCFCC3
:109D740003E1D7F8D800FEF7EFFE03465B08884AF4
:109D8400126813441A46864B1A60804B1B880133B1
:109D94009AB27E4B1A807D4B1A88824B1B889A425A
:109DA40054D1814B00221A80784B00221A8014224D
:109DB4000121AC2000F006FB7C4B1B68DBB21522B2
:109DC4001946AC2000F0FEFA784B1B681B0ADBB284
:109DD40016221946AC2000F0F5FA744B1B681B0CD4
:109DE400DBB217221946AC2000F0ECFA6F4B1B686B
:109DF4001B0EDBB218221946AC2000F0E3FA6C4BC0
:109E04001B68DBB219221946AC2000F0DBFA684B60
:109E14001B681B0ADBB21A221946AC2000F0D2FAE6
:109E2400634B1B681B0CDBB21B221946AC2000F0F1
:109E3400C9FA5F4B1B681B0EDBB21C221946AC200F
:109E440000F0C0FA0220FFF7CDFB99E0594B1A88C5
:109E5400544B1B889A4200F09280564B1B88013366
:109E64009AB2544B1A80534B1B881A4607F16C0361
:109E74004749184608F0C6F84E4B1B881846FEF7AB
:109E8400B5FF04460D46474B1B881846FEF7AEFF48
:109E940002460B4620462946FFF74CF902460B467C
:109EA400104619464FF00002434BFFF719F80246DB
:109EB4000B4610461946FFF725FA034687F8D630B5
:109EC4003E4B1B7897F8D6209A4217D03B4A97F816
:109ED400D63013702D4B1B881A46324B1B8807F162
:109EE4000800374908F08EF807F10803184600F017
:109EF4001BFC07F16C03184600F016FC97F8D630EB
:109F040003F00103DBB2002B0BD12E4B05221A7098
:109F14002D4B05221A702B4B1B781846FFF712FAAB
:109F24000AE0284B06221A70274B06221A70254B8A
:109F34001B781846FFF706FA07F16C031846FEF77C
:109F44000BFE034601331A4607F16C031946114808
:109F540000F03CF80346002B11D10F4800F0E4FB5D
:109F640007F16C03184600F0DFFB0C4800F0DCFB43
:109F740005E000BF04E000BF02E000BF00E000BF56
:109F8400F037BD46B0BD00BFBC33010896020020C7
:109F940054330108F80500206432010880310108B7
:109FA40090020020B402002098020020A0020020A9
:109FB4009C02002000000020000059409402002070
:109FC400E8330108B8020020B902002080B586B049
:109FD40000AFF860B9607A60094804F0C1F87B68A2
:109FE4001A46B968F86806F081FD78617B69002B30
:109FF40001D1012300E0002318461837BD4680BD77
:10A004008809002080B584B000AF78600023FB602D
:10A0140007F10C031946786806F0B4FC0346002BDC
:10A0240001D10023FB60FB6818461037BD4680BD94
:10A0340080B485B000AF0346FB71FF23FB73FB794B
:10A04400302B3FD0FB79312B3CD0FB79322B39D0EC
:10A05400FB79332B36D0FB79342B33D0FB79352B7A
:10A0640030D0FB79362B2DD0FB79372B2AD0FB79D6
:10A07400382B27D0FB79392B24D0FB79612B21D0C5
:10A08400FB79412B1ED0FB79622B1BD0FB79422B31
:10A0940018D0FB79632B15D0FB79432B12D0FB79B5
:10A0A400642B0FD0FB79442B0CD0FB79652B09D0A2
:10A0B400FB79452B06D0FB79662B03D0FB79462B25
:10A0C40040F0B980FB79303B362B00F2B38001A21B
:10A0D40052F823F0B5A10008BBA10008C1A10008F3
:10A0E400C7A10008CDA10008D3A10008D9A1000888
:10A0F400DFA10008E5A10008EBA1000839A20008CF
:10A1040039A2000839A2000839A2000839A20008BF
:10A1140039A2000839A20008F7A1000803A2000828
:10A124000FA200081BA2000827A2000833A20008FF
:10A1340039A2000839A2000839A2000839A200088F
:10A1440039A2000839A2000839A2000839A200087F
:10A1540039A2000839A2000839A2000839A200086F
:10A1640039A2000839A2000839A2000839A200085F
:10A1740039A2000839A2000839A2000839A200084F
:10A1840039A2000839A2000839A2000839A200083F
:10A1940039A2000839A20008F1A10008FDA10008B5
:10A1A40009A2000815A2000821A200082DA2000897
:10A1B4000023FB733FE00123FB733CE00223FB73AA
:10A1C40039E00323FB7336E00423FB7333E00523F8
:10A1D400FB7330E00623FB732DE00723FB732AE0B7
:10A1E4000823FB7327E00923FB7324E00A23FB7392
:10A1F40021E00A23FB731EE00B23FB731BE00B23FC
:10A20400FB7318E00C23FB7315E00C23FB7312E0C3
:10A214000D23FB730FE00D23FB730CE00E23FB7384
:10A2240009E00E23FB7306E00F23FB7303E00F2307
:10A23400FB7300E000BFFB7B18461437BD4680BCAF
:10A24400704700BF90B585B000AF7860396038685A
:10A25400FEF782FCB860BB68002B1AD07B68FB60F9
:10A264000FE0FA68BB68D418FA68BB681344184650
:10A27400FEF772FC034601331A462146F86807F0DC
:10A2840034FF3968F86807F0BDFFF860FB68002BFD
:10A29400E7D17B6818461437BD4690BD80B582B0BF
:10A2A40000AF0C4B5B690B4A43F001035361094B4C
:10A2B4005B6903F001037B607B6800220D210F20A2
:10A2C40002F0EBF90F2002F004FA00BF0837BD4694
:10A2D40080BD00BF00100240B0B584B000AF78600C
:10A2E4003960164B3422DA600123FB730123BB73FC
:10A2F40002F0AEFD0346BB73BB7B002B16D13B685B
:10A3040000221C46154622462B467968022002F09C
:10A314002FFD0346FB7302F0C1FD0346BB73BB7BF9
:10A32400002B06D0064800F0FFF902E0054800F0D3
:10A33400FBF9FB7B18461037BD46B0BD0020024038
:10A34400143401085434010880B586B000AF1948AC
:10A3540000F0EAF90123FB7502F07AFD0346BB75B0
:10A36400BB7D002B17D100237B60134BFB60642360
:10A374003B613A463B1D1146184602F051FE034626
:10A38400002B05D00D4800F0CFF90023FB7502E047
:10A394000B4800F0C9F902F081FD0346BB75BB7D93
:10A3A400002B01D00023FB75FB7D18461837BD46F2
:10A3B40080BD00BF8C34010800040408C8340108BF
:10A3C400F834010880B588B004AF0346FB710B462E
:10A3D400BB711346BB800123FB730023BB812EE0BA
:10A3E400FB7999B24FF4FA7301221A4803F0DAFAAE
:10A3F4000346FB73FB7B002B18D10123FB73FB7912
:10A4040099B2BA884FF4FA73029301230193BB1DE6
:10A41400009302230F4803F0CBF90346FB73FB7B45
:10A42400002B09D00C4800F07FF905E0BB89002B14
:10A4340002D10A4800F078F9BB890133BB81FB7B68
:10A44400002B02D0BB89C72BCAD9FB7B1846103717
:10A45400BD4680BD340900205C35010894350108EF
:10A4640080B588B000AF07F1100300221A605A606B
:10A474009A60DA60594B9B69584A43F02003936110
:10A48400564B9B6903F02003FB60FB68534B9B69AD
:10A49400524A43F010039361504B9B6903F010033D
:10A4A400BB60BB684D4B9B694C4A43F0040393610A
:10A4B4004A4B9B6903F004037B607B68474B9B69B1
:10A4C400464A43F008039361444B9B6903F0080335
:10A4D4003B603B6800222821414802F0F4FF01223E
:10A4E4004FF448713F4802F0EEFF03233B613E4BBB
:10A4F4007B610023BB6107F110031946384802F061
:10A5040037FE4FF401733B6100237B610123BB6180
:10A5140007F110031946324802F02AFE28233B6152
:10A5240001237B610223BB610223FB6107F110035A
:10A5340019462B4802F01CFE60233B612A4B7B61C9
:10A544000023BB6107F110031946284802F010FEEE
:10A554004FF4C0733B6100237B610123BB6107F1AE
:10A5640010031946214802F003FE4FF470433B6187
:10A5740000237B610123BB6107F1100319461948CD
:10A5840002F0F6FD4FF448733B6101237B61012324
:10A59400BB610223FB6107F110031946114802F065
:10A5A400E7FD00220E21062002F077F8062002F0D3
:10A5B40090F800220E21072002F06FF8072002F025
:10A5C40088F800220E21172002F067F8172002F005
:10A5D40080F800BF2037BD4680BD00BF0010024098
:10A5E40000100140000C014000002110000801404F
:10A5F40080B500AF124B134A1A60114B124A5A60CD
:10A604000F4B00229A600E4B0022DA600C4B4FF481
:10A6140080421A610A4B00225A61094B00229A6156
:10A62400074B0022DA61064B00221A62044802F04A
:10A634007BFF0346002B01D001F0DDFB00BF80BD92
:10A644003409002000540040A086010080B588B081
:10A6540000AF786007F1100300221A605A609A6014
:10A66400DA607B681B68154A934223D1144B9B69BB
:10A67400134A43F008039361114B9B6903F00803E9
:10A68400FB60FB68C0233B6112237B610323FB61F6
:10A6940007F1100319460B4802F06AFD084BDB6909
:10A6A400074A43F40013D361054BDB6903F4001339
:10A6B400BB60BB6800BF2037BD4680BD005400406E
:10A6C40000100240000C014080B500AF094B0A4A5B
:10A6D4001A60084B04225A60064B40F253729A6087
:10A6E400044803F0FBFC0346002B01D001F083FB7C
:10A6F40000BF80BD880900200030004080B400AF56
:10A70400BFF34F8F00BF064BDB6803F4E0620449DC
:10A71400044B1343CB60BFF34F8F00BF00BFFDE773
:10A7240000ED00E00400FA0580B582B000AF786067
:10A734007868FEF711FA03469AB24FF4FA7379680F
:10A74400034804F01DFC00BF0837BD4680BD00BFB0
:10A75400942F002080B582B000AF78607868FEF74F
:10A76400FBF903469BB201339AB24FF4FA7379684A
:10A77400034804F005FC00BF0837BD4680BD00BF98
:10A784004C2F002080B584B000AF0346FB7100233A
:10A79400FB730023BB7300237B7300233B73FB79A0
:10A7A40003F00703DBB207F10E0207F10F011846AD
:10A7B40000F01AF8FB795B09DBB207F10C0207F130
:10A7C4000D01184600F02AF8FB7BBA7B11461846A7
:10A7D40000F086F87B7B3A7B1146184600F028F996
:10A7E40000BF1037BD4680BD80B485B000AF0346BE
:10A7F400B9607A60FB73FB7B012B02D0022B04D07F
:10A8040007E0BB6801221A7003E07B6801221A701A
:10A8140000BF00BF1437BD4680BC704780B485B00C
:10A8240000AF0346B9607A60FB73FB7B012B02D057
:10A83400022B04D007E0BB6801221A7003E07B6896
:10A8440001221A7000BF00BF1437BD4680BC704798
:10A8540080B582B000AF0346FB71FB79002B12D0A8
:10A864000B4805F0F7FE0346002B0CD1094B492297
:10A874001A70084B31225A70064B00229A70044811
:10A8840005F010FF00BF00BF0837BD4680BD00BF04
:10A89400382A0020642B002080B582B000AF034624
:10A8A400FB71FB79002B12D00B4805F0D3FE034655
:10A8B400002B0CD1094B49221A70084B32225A70D2
:10A8C400064B00229A70044805F0ECFE00BF00BF5E
:10A8D4000837BD4680BD00BF602A0020F42B00204D
:10A8E40080B582B000AF03460A46FB711346BB71C4
:10A8F400474B1B78002B40F08680FB79002B02D15C
:10A90400BB79002B7FD0434B1B78002B7BD1424873
:10A9140005F0A0FE0346002B75D1404B1B78002B9D
:10A924003DD03F4805F0BEFEFB79002B0BD03D4BDC
:10A934001B781A463C4B302199543A4B1B7801330F
:10A94400DAB2384B1A70BB79002B0BD0354B1B781D
:10A954001A46354B31219954324B1B780133DAB204
:10A96400304B1A70314B1B7802332E4A12789342C3
:10A9740049DA2C4B1B781A462B4B00219954294B4E
:10A984001B780133DAB2274B1A70214B01221A705B
:10A99400234805F0D3FE204805F084FE33E01F4B26
:10A9A40001221A701E4805F07DFE1E4B00221A700B
:10A9B4001D4B50221A701C4B31225A701A4B5722CD
:10A9C4009A70184B03221A70FB79002B0BD0154B8D
:10A9D4001B781A46144B30219954124B1B780133BF
:10A9E400DAB2104B1A70BB79002B0CD00D4B1B78CC
:10A9F4001A460D4B312199540A4B1B780133DAB2B4
:10AA0400084B1A7000BF00BF0837BD4680BD00BFA9
:10AA1400DD2A0020DA2A00204C2A0020DC2A00202B
:10AA2400102A0020672B0020E02A002002000020CA
:10AA340080B582B000AF03460A46FB711346BB7172
:10AA4400474B1B78002B40F08680FB79002B02D10A
:10AA5400BB79002B7FD0434B1B78002B7BD1424822
:10AA640005F0F8FD0346002B75D1404B1B78002BF5
:10AA74003DD03F4805F016FEFB79002B0BD03D4B33
:10AA84001B781A463C4B302199543A4B1B780133BE
:10AA9400DAB2384B1A70BB79002B0BD0354B1B78CC
:10AAA4001A46354B31219954324B1B780133DAB2B3
:10AAB400304B1A70314B1B7802332E4A1278934272
:10AAC40049DA2C4B1B781A462B4B00219954294BFD
:10AAD4001B780133DAB2274B1A70214B01221A700A
:10AAE400234805F02BFE204805F0DCFD33E01F4B26
:10AAF40001221A701E4805F0D5FD1E4B00221A7063
:10AB04001D4B50221A701C4B32225A701A4B57227A
:10AB14009A70184B03221A70FB79002B0BD0154B3B
:10AB24001B781A46144B30219954124B1B7801336D
:10AB3400DAB2104B1A70BB79002B0CD00D4B1B787A
:10AB44001A460D4B312199540A4B1B780133DAB262
:10AB5400084B1A7000BF00BF0837BD4680BD00BF58
:10AB64006D2B00206A2B0020742A00206C2B0020FF
:10AB7400242A0020F72B0020702B00200400002042
:10AB840080B582B000AFFEF77FFC0346FB71154829
:10AB940003F0E6FA144B1B78FA799A421DD0124A54
:10ABA400FB791370FB791A461049114807F02AFA09
:10ABB4000E220F490F48FFF709FA0346002B08D16C
:10ABC4000D48FFF7B1FD0A48FFF7AEFD0B48FFF74C
:10ABD400ABFD044803F0C4FA00BF00BF0837BD460C
:10ABE40080BD00BF8809002016000020043701083A
:10ABF40008000020F8050020143701084437010834
:10AC040080B582B000AF0421154802F045FC03462C
:10AC1400FB718021134802F03FFC0346BB71124BC9
:10AC24001B78FA799A4208D00F4AFB791370FB79A2
:10AC3400002B02D10120FFF70BFE0C4B1B78BA79D5
:10AC44009A4209D0094ABB791370BB79002B03D10E
:10AC54000120FFF721FE00BF00BF0837BD4680BDBD
:10AC640000100140000801401700002018000020D7
:10AC740080B5A0B000AF7860A54B1B78012B11D133
:10AC84000A22A449786807F020FA0346002B05D16C
:10AC94007B680A331846FEF771FE46E29E48FFF7CA
:10ACA40043FD42E20B229D49786807F00EFA034601
:10ACB400002B19D19A4B01221A70994B1A78994B8F
:10ACC4001B789A4200F03182954B1A78954B1A7092
:10ACD4009548FFF729FD924B1B781846FEF7A0FB19
:10ACE400924803F03DFA20E20C229149786807F07B
:10ACF400ECF90346002B19D1894B00221A70884BBA
:10AD04001A78884B1B789A4200F00F82844B1A7889
:10AD1400844B1A708748FFF707FD814B1B78184650
:10AD2400FEF77EFB814803F01BFAFEE10B22824909
:10AD3400786807F0CAF90346002B19D17F4B01222A
:10AD44001A707E4B1A787E4B1B789A4200F0ED8184
:10AD54007A4B1A787A4B1A707A48FFF7E5FC774BEE
:10AD64001B781846FEF776FB704803F0F9F9DCE12E
:10AD74000C227549786807F0A8F90346002B19D10D
:10AD84006E4B00221A706D4B1A786D4B1B789A42E9
:10AD940000F0CB81694B1A78694B1A706B48FFF746
:10ADA400C3FC664B1B781846FEF754FB5F4803F060
:10ADB400D7F9BAE10B226649786807F086F90346A9
:10ADC400002B14D1634B01221A70624B1A78624B28
:10ADD4001B789A4200F0A9815E4B1A785E4B1A7078
:10ADE4005E48FFF7A1FC514803F0BAF99DE10D223A
:10ADF4005B49786807F069F90346002B14D1554B79
:10AE040000221A70534B1A78534B1B789A4200F065
:10AE14008C81504B1A78504B1A705248FFF784FCBF
:10AE2400424803F09DF980E10B224F49786807F00E
:10AE34004CF90346002B14D14C4B01221A704B4B96
:10AE44001A784B4B1B789A4200F06F81474B1A7863
:10AE5400474B1A704748FFF767FC344803F080F902
:10AE640063E10D224449786807F02FF90346002B6B
:10AE740014D13E4B00221A703C4B1A783C4B1B7881
:10AE84009A4200F05281394B1A78394B1A703B4878
:10AE9400FFF74AFC254803F063F946E10D223849DF
:10AEA400786807F012F90346002B71D100233B6741
:10AEB40033497868FFF7C6F938671C4803F050F93E
:10AEC400386F06F005FE0346DAB22E4B1A701748A7
:10AED40003F046F92B4B1A782B4B1B789A4200F05F
:10AEE4002481284B1A78284B1A70264B1B781A4653
:10AEF40007F10C032549184607F084F807F10C0301
:10AF04001846FFF711FC094803F02AF90DE100BFC8
:10AF14009502002048370108543701088437010896
:10AF2400D82A0020D92A0020903701088809002057
:10AF3400A0370108B0370108C0370108682B00208A
:10AF4400692B0020CC370108DC370108EC370108F5
:10AF5400FC370108DA2A0020DB2A0020083801081F
:10AF64001838010828380108383801086A2B0020ED
:10AF74006B2B002044380108543801086438010858
:10AF840074380108020000200300002084380108FE
:10AF94000D226849786807F098F80346002B30D1F1
:10AFA40000237B6763497868FFF74CF97867624848
:10AFB40003F0D6F8786F06F08BFD0346DAB25F4BE8
:10AFC4001A705D4803F0CCF85C4B1A785C4B1B7824
:10AFD4009A4200F0AA80594B1A78594B1A70574B71
:10AFE4001B781A4607F10C035649184607F00AF86D
:10AFF40007F10C031846FFF797FB4F4803F0B0F82E
:10B0040093E007225049786807F05FF80346002B65
:10B0140045D14E4805F046FB0023FB674A49786852
:10B02400FFF710F9F867444803F09AF80A22002160
:10B03400F86F06F0A3FE0346BB673F4803F090F8A1
:10B04400BB6FDAB2424B1A70414B1A78414B1B78F2
:10B054009A426AD03E4B1A783E4B1A703C4B1B788E
:10B06400062B05D93A4B01221A703A4B01221A7069
:10B07400374B1B781A4607F10C033749184606F07C
:10B08400C1FF07F10C031846FFF74EFB304B1B784A
:10B094001846FEF757F9284803F062F845E00822FD
:10B0A4002E49786807F011F80346002B04D1224892
:10B0B40003F056F8FFF722FB0A222949786807F0C3
:10B0C40004F80346002B06D12648FFF743FB1A4831
:10B0D40003F046F829E00A222349786806F0F5FFD0
:10B0E4000346002B14D12148FFF71EFB184B052201
:10B0F4001A70184B05221A70154B1B781846FEF768
:10B1040021F97868FEF780FA0B4803F029F80CE07F
:10B114001748FFF709FB7868FFF706FB1548FFF7A8
:10B1240003FB054803F01CF800BF00BF8037BD4691
:10B1340080BD00BF98380108880900200400002061
:10B1440005000020A8380108BC380108FC290020AB
:10B15400B8020020B9020020C4380108D838010818
:10B16400E4380108F0380108003901080C390108F5
:10B174002C3901084437010880B584B004AF01F0CC
:10B18400A5F900F045F8FFF76BF9FFF787F801F030
:10B1940099F801F06DF8FFF72BFAFFF795FA05F02F
:10B1A400E3FF04F00FFE022302934FF400530193D4
:10B1B400134B0093134B4FF4C8721349134804F014
:10B1C400A9FF06F007F903464CF67122934202D018
:10B1D400FD2004F0F3FC06F047F805F0C5FF04F089
:10B1E400F1FD06F0F7F803464CF67122934202D0C3
:10B1F400FD2004F0E3FC06F037F800BFFDE700BFD4
:10B20400E809002045B500084439010894090020E4
:10B2140080B590B000AF07F118032822002118462A
:10B2240006F07DFF3B1D00221A605A609A60DA60C6
:10B234001A610923BB614FF48033FB6100233B6235
:10B244000123BB6201233B6302237B634FF48033FE
:10B25400BB634FF4E013FB6307F11803184602F0D5
:10B264008FFF0346002B01D000F0C5FD0F237B6048
:10B274000223BB600023FB604FF480633B61002327
:10B284007B613B1D0221184603F0FCF90346002BA9
:10B2940001D000F0B0FD00BF4037BD4680BD0000C6
:10B2A40080B500AF2F48FFF73FFA2F4802F058FF50
:10B2B4002E48FFF739FA2C4802F052FF2C48FFF7CA
:10B2C40033FA294802F04CFF2A48FFF72DFA2648A2
:10B2D40002F046FF2848FFF727FA234802F040FF10
:10B2E4002648FFF721FA204802F03AFF4FF446724D
:10B2F4002349244805F0D8FA4FF4467222492348DA
:10B3040005F0D2FA01222249224803F0BCFE164875
:10B3140002F026FF204B01221A70204B01221A70E2
:10B324001D4B1B781846FEF70DF80F4802F018FF66
:10B3340000F038F800F078F80B4802F011FF00F044
:10B3440091FB094802F00CFF00F07AFB064802F07A
:10B3540007FF00F0BFF91248FFF7E6F962B600BF35
:10B3640000BF80BD5039010888090020B0390108A8
:10B37400103A0108783A01089C3A0108BC3A0108DD
:10B38400E0020020BC0200201C060020F80500207A
:10B39400C42A00204C2F0020B8020020B90200204B
:10B3A400E03A010880B500AF174B00221A70174B22
:10B3B40000221A70164802F0D3FE164B00221A70AF
:10B3C400154B00221A70124802F0CAFE4FF40072A4
:10B3D4000021124806F0A3FE0D4802F0C1FE4FF40E
:10B3E400467200210E4806F09AFE094802F0B8FEA3
:10B3F4004FF4467200210B4806F091FE044802F017
:10B40400AFFE00BF80BD00BFE02A0020642B0020F7
:10B4140088090020702B0020F42B0020FC2C002035
:10B42400E00200201C06002080B500AF0A222D494E
:10B434002D4805F0B7F82D4802F092FE4FF47A72C9
:10B444002B492C4805F0AEF8284802F089FE642206
:10B4540029492A4805F0A6F8244802F081FE64220E
:10B464002749284805F09EF8204802F079FE0A2270
:10B474002549264805F096F81C4802F071FE0A2278
:10B484002349244805F08EF8184802F069FE0A2280
:10B494002149224805F086F8144802F061FE0A2288
:10B4A4001F49204805F07EF8104802F059FE642236
:10B4B4001D491E4805F076F80C4802F051FE322270
:10B4C4001B491C4805F06EF8084802F049FEC822E2
:10B4D40019491A4805F066F8044802F041FE00BF15
:10B4E40080BD00BF1DB60008E8290020880900209F
:10B4F400D9B60008FC2900205DB70008102A0020F6
:10B5040021B80008242A0020E5B80008382A0020C1
:10B5140031B900084C2A002095B90008602A00209F
:10B52400E1B90008742A002045BA0008882A0020DE
:10B5340069BA00089C2A002089BA0008B02A0020B1
:10B5440080B500AFFFF7ACFE00F00AF8034802F044
:10B5540007FE0A2004F090FE00BFF5E788090020EA
:10B5640080B582B000AF00237B602548FEF74AFD1A
:10B57400786022E0234802F0F3FD7868FFF7EAF8E8
:10B584000A222149786806F0A0FD0346002B08D062
:10B594001E48FFF7C9F87868FFF7C6F81C48FFF79C
:10B5A400C3F8174805F03EFA0A2004F065FE0023AC
:10B5B4007B601348FEF726FD78607B68002BD9D1A9
:10B5C40000233B601348FEF71DFD386011E00D4871
:10B5D40002F0C6FD3868FFF74BFB0E4805F022FA6F
:10B5E4000A2004F049FE00233B600A48FEF70AFDE6
:10B5F40038603B68002BEAD100BF0837BD4680BDE8
:10B60400F805002088090020403B01084C3B010854
:10B6140044370108BC02002080B5A0B000AF244B21
:10B624001B88013B234AD35C002B13D1204B1B887E
:10B634001A4620492048FEF7C9FC0346002B28D1AE
:10B644001E48FFF771F81B48FFF76EF81C48FFF718
:10B654006BF81EE01B4B1B6801331A4A1360194B2D
:10B664001A683B461849184606F0CCFC1748FFF701
:10B674005BF81748FFF758F83B461846FFF754F8AD
:10B684000C48FFF751F80E48FFF74EF80F48FFF744
:10B694004BF8074B1B881A460021064806F03FFD6D
:10B6A400034B00221A8000BF8037BD4680BD00BF17
:10B6B400F82C0020F82B0020BC020020683B010875
:10B6C40044370108D42A0020A43B0108C03B0108E8
:10B6D400E03B010880B5C0B000AF194805F02EF872
:10B6E400184B1B78002B23D1174B01221A70164BD1
:10B6F4001A78164B1B789A421AD0134B1A78134BAC
:10B704001A70114B1B781846FDF71CFE0E4B1B7864
:10B714001A463B460E49184606F074FC0D4802F0E2
:10B724001FFD3B461846FEF7FFFF0A4802F018FDCE
:10B73400034804F0B7FF00BF07F58077BD4680BD1E
:10B74400FC29002095020020B8020020B902002044
:10B75400FC3B01088809002080B5C2B002AF224832
:10B7640004F0ECFF214B1B680133204A13601F4B8C
:10B774001A681F4B1B6813441E4A13601B4B1A683C
:10B784001B4B19681B4B1B68384600930B461A4920
:10B7940006F038FC1948FEF7C7FF1948FEF7C4FF46
:10B7A4001848FEF7C1FF1848FEF7BEFF174802F01D
:10B7B400D7FC3B461846FEF7B7FF1048FEF7B4FF28
:10B7C400124802F0CDFC124B00221A70114B0022D9
:10B7D4001A700C4B00221A700F4B00221A7000BF13
:10B7E40007F58077BD4680BD102A0020C82A0020B6
:10B7F400CC2A0020D02A0020283C0108C03B0108A4
:10B80400783C0108E02A0020443701088809002018
:10B81400672B0020DC2A0020DD2A002080B5C2B07E
:10B8240002AF224804F08AFF214B1B680133204AEF
:10B834001360204B1A681E4B1B6813441E4A136086
:10B844001C4B1A681A4B19681B4B1B68384600932B
:10B854000B461A4906F0D6FB1948FEF765FF19484E
:10B86400FEF762FF1848FEF75FFF1848FEF75CFF1B
:10B87400174802F075FC3B461846FEF755FF104882
:10B88400FEF752FF124802F06BFC124B00221A70B2
:10B89400114B00221A700C4B00221A700F4B00221D
:10B8A4001A7000BF07F58077BD4680BD242A0020AA
:10B8B400CC2A0020C82A0020D02A0020283C0108D5
:10B8C400C03B0108983C0108702B00204437010854
:10B8D40088090020F72B00206C2B00206D2B002002
:10B8E40080B500AF03220D490D48FEF76FFB0346F8
:10B8F400002B08D10B48FEF717FF0848FEF714FF8A
:10B904000948FEF711FF054B00221A70034B002271
:10B914005A70024B00229A7000BF80BD642B002035
:10B92400F8050020B83C01084437010880B500AF91
:10B93400104B1B781A4610491048FEF747FB034684
:10B94400002B08D10E48FEF7EFFE0B48FEF7ECFE85
:10B954000C48FEF7E9FE074B00221A700A4B00223E
:10B964001A70054B00221A70084B00221A7000BF8F
:10B9740080BD00BF672B0020E02A0020F8050020CE
:10B98400FC3C010844370108DC2A0020DD2A0020A1
:10B9940080B500AF03220D490D48FEF717FB03469F
:10B9A400002B08D10B48FEF7BFFE0848FEF7BCFE8B
:10B9B4000948FEF7B9FE054B00221A70034B00221A
:10B9C4005A70024B00229A7000BF80BDF42B0020F5
:10B9D400F8050020403D01084437010880B500AF58
:10B9E400104B1B781A4610491048FEF7EFFA03462D
:10B9F400002B08D10E48FEF797FE0B48FEF794FE85
:10BA04000C48FEF791FE074B00221A700A4B0022E5
:10BA14001A70054B00221A70084B00221A7000BFDE
:10BA240080BD00BFF72B0020702B0020F8050020FC
:10BA3400843D0108443701086C2B00206D2B002045
:10BA440080B500AF054804F079FE054802F088FB94
:10BA5400024804F027FE00BF80BD00BF882A0020F2
:10BA64008809002080B500AF054804F067FEFFF7A1
:10BA740087F8FFF7C5F8024804F014FE00BF80BD44
:10BA84009C2A002080B582B000AF0023FB7108E03F
:10BA9400FB790A4AD35C1846FEF774FEFB7901333E
:10BAA400FB71FB799AB2064B1B889A42F0D3044B84
:10BAB40000221A8000BF0837BD4680BDFC2C002040
:10BAC400FC2E002080B582B000AF7860504B93F814
:10BAD4007830002B02D1A52004F070F84C4B93F879
:10BAE40077300133DAB24A4B83F8772005F058F8FF
:10BAF400802383F31188464B1B78DBB20133DAB21F
:10BB0400434B1A70424B5B78DBB20133DAB2404BE1
:10BB14005A703F4BDB6B002B03D03D4BDB6B1B6838
:10BB240098477B681B683B4A934216D13A4804F015
:10BB3400B9FD3A4B1B685968394B1B881A46C9B280
:10BB4400384B9954364B1B8801339AB2344B1A80C4
:10BB540001223549314803F096FA2D4B1B78DBB2AC
:10BB6400012B0CD12A4B5B68002B08D0284BDB6BD4
:10BB7400002B0CD0264BDB6B9B68984707E0244BCB
:10BB8400DB6B002B03D0224BDB6B5B689847204BAD
:10BB94005B78DBB2013BDAB21D4B5A701C4B1B784D
:10BBA400DBB2012B16D11A4B5B68002B12D0184B59
:10BBB40093F87730002B02D1982003F0FFFF144B49
:10BBC40093F87730013BDAB2114B83F87720FCF716
:10BBD400A2FF0FE00E4B93F87730002B02D1982090
:10BBE40003F0ECFF0A4B93F87730013BDAB2084BD1
:10BBF40083F87720064B1B78DBB2013BDAB2044BA7
:10BC04001A70002383F3118800BF0837BD4680BD36
:10BC14008830002000380140E82900204C2F002003
:10BC2400F82C0020F82B0020C42A002090B583B003
:10BC340000AF0346FB80624B93F87830002B02D1AF
:10BC4400A52003F0BBFF5E4B93F877300133DAB2E3
:10BC54005B4B83F8772004F0A3FF802383F31188E0
:10BC6400574B1B78DBB20133DAB2554B1A70544B85
:10BC74005B78DBB20133DAB2514B5A70504BDB6B59
:10BC8400002B03D04E4BDB6B1B6898474D4804F0E8
:10BC940009FD01214C4801F0FFFB0346002B0CBFBA
:10BCA40001230023DBB25CB20221474801F0F4FB1C
:10BCB4000346002B01D1022300E0002323435CB29E
:10BCC4002021424801F0E8FB0346002B01D1202348
:10BCD40000E0002323435CB240213C4801F0DCFB3C
:10BCE4000346002B01D1402300E00023234359B233
:10BCF400374B1B881A46C9B2364B9954344B1B88B0
:10BD040001339AB2324B1A802D4B1B78DBB2012BD4
:10BD14000CD12B4B5B68002B08D0294BDB6B002B21
:10BD24000CD0274BDB6B9B68984707E0244BDB6BFD
:10BD3400002B03D0224BDB6B5B689847204B5B786E
:10BD4400DBB2013BDAB21E4B5A701D4B1B78DBB2DF
:10BD5400012B16D11A4B5B68002B12D0184B93F8A9
:10BD64007730002B02D1982003F028FF144B93F86E
:10BD74007730013BDAB2124B83F87720FCF7CBFE25
:10BD84000FE00F4B93F87730002B02D1982003F08B
:10BD940015FF0B4B93F87730013BDAB2084B83F86D
:10BDA4007720074B1B78DBB2013BDAB2044B1A70E5
:10BDB400002383F3118800BF0C37BD4690BD00BF3C
:10BDC40088300020B02A0020001001400008014003
:10BDD400FC2E0020FC2C002080B582B000AF7860DF
:10BDE4007B681B68B3F1804F01D100F085FB00BF75
:10BDF4000837BD4680BD80B400AF72B600BF00BF37
:10BE0400FDE7000080B485B000AF154B9B69144A70
:10BE140043F001039361124B9B6903F00103BB6080
:10BE2400BB680F4BDB690E4A43F08053D3610C4B64
:10BE3400DB6903F080537B607B680A4B5B68FB60C3
:10BE4400FB6823F0E063FB60FB6843F00073FB6076
:10BE5400044AFB68536000BF1437BD4680BC70477A
:10BE6400001002400000014080B58EB000AF786041
:10BE74000023FB620023BB62002387F83330344B7A
:10BE8400DB69334A43F00103D361314BDB6903F0CF
:10BE94000103FB60FB6807F1100207F1140311466C
:10BEA400184602F05FFD3B6AFB62FB6A002B03D17C
:10BEB40002F030FD786304E002F02CFD03465B00E1
:10BEC4007B637B6B234AA2FB03239B0C013BBB627A
:10BED400214B4FF080421A601F4B40F2E732DA6088
:10BEE4001D4ABB6A53601C4B00221A611A4B002284
:10BEF4009A60194B00229A61174802F081FD0346AB
:10BF040087F8333097F83330002B1BD1124802F0F6
:10BF1400CFFD034687F8333097F83330002B11D127
:10BF24001C2000F0D6FB7B680F2B08D80022796810
:10BF34001C2000F0B2FB094A7B68136002E0012375
:10BF440087F8333097F8333018463837BD4680BD0C
:10BF54000010024083DE1B43002F0020200000203D
:10BF640080B400AF00BFFDE780B400AF00BFFDE7C1
:10BF740080B400AF00BFFDE780B400AF00BFFDE7B1
:10BF840080B400AF00BFFDE780B400AF00BFBD4682
:10BF940080BC704780B500AF012001F0ADFA00BF4E
:10BFA40080BD80B500AF022001F0A6FA00BF80BDBD
:10BFB40080B500AF024800F071FC00BF80BD00BF37
:10BFC400DC2F002080B500AF202001F095FA40203E
:10BFD40001F092FA00BF80BD80B500AF024802F0C4
:10BFE400C7FD00BF80BD00BF002F002080B400AF9C
:10BFF40001231846BD4680BC704780B582B000AFAF
:10C004007860396006F06AF9034616221A604FF028
:10C01400FF3318460837BD4680BD80B582B000AFF7
:10C0240078604FF0FF317868FFF7E7FF00BFFDE766
:10C0340080B586B000AFF860B9607A6000237B6198
:10C044000AE0AFF300800146BB685A1CBA60CAB26A
:10C054001A707B6901337B617A697B689A42F0DBF1
:10C064007B6818461837BD4680BD80B586B000AFE2
:10C07400F860B9607A6000237B6109E0BB685A1CF0
:10C08400BA601B781846AFF300807B6901337B618B
:10C094007A697B689A42F1DB7B6818461837BD469B
:10C0A40080BD80B483B000AF78604FF0FF33184692
:10C0B4000C37BD4680BC704780B483B000AF786055
:10C0C40039603B684FF400525A60002318460C371D
:10C0D400BD4680BC704780B483B000AF7860012354
:10C0E40018460C37BD4680BC704780B485B000AF9D
:10C0F400F860B9607A60002318461437BD4680BCE6
:10C104007047000080B586B000AF7860144A154BC4
:10C11400D31A7B617B693B61134B1B68002B02D1F3
:10C12400114B124A1A60104B1A687B6813443A691F
:10C134009A4207D206F0D2F803460C221A604FF056
:10C14400FF3309E0084B1B68FB60074B1A687B68E8
:10C154001344054A1360FB6818461837BD4680BD72
:10C164000000012000040000482F0020703300204C
:10C1740080B400AF034B044A9A6000BFBD4680BC44
:10C18400704700BF00ED00E00088000880B485B06F
:10C1940000AF0023FB600023BB6000237B602F4BB8
:10C1A4005B6803F00C03FB60FB68082B11D0FB6891
:10C1B400082B3AD8FB68002B03D0FB68042B04D06F
:10C1C40033E0274B274A1A6033E0254B254A1A608F
:10C1D4002FE0224B5B6803F47013BB601F4B5B685A
:10C1E40003F480337B60BB689B0C0233BB607B68C9
:10C1F400002B06D1BB681C4A02FB03F3184A1360E8
:10C2040017E0164B5B6803F40033002B06D0BB68C1
:10C21400154A02FB03F3124A13600AE0BB68114A91
:10C2240002FB03F30E4A136003E00D4B0D4A1A6040
:10C2340000BF0A4B5B681B0903F00F030B4AD35C76
:10C24400FB60074B1A68FB6822FA03F3044A136085
:10C2540000BF1437BD4680BC704700BF00100240C9
:10C264001C00002000127A0000093D00C83D0108AE
:10C2740080B500AF114B124A1A60104B4FF4614263
:10C284005A600E4B00229A600C4B0022DA600B4B72
:10C2940000221A61094B0C225A61084B00229A6150
:10C2A400064B0022DA61054802F01AFE0346002B11
:10C2B40001D0FFF7A0FD00BF80BD00BF4C2F0020C0
:10C2C4000038014080B500AF114B124A1A60104B80
:10C2D4004FF461425A600E4B00229A600C4B0022CC
:10C2E400DA600B4B00221A61094B0C225A61084B8D
:10C2F40000229A61064B0022DA61054802F0F0FD43
:10C304000346002B01D0FFF776FD00BF80BD00BFC0
:10C31400942F00200048004080B58AB000AF7860B8
:10C3240007F1180300221A605A609A60DA607B6889
:10C334001B684C4A934259D14B4B9B694A4A43F47C
:10C3440080439361484B9B6903F480437B617B6921
:10C35400454B9B69444A43F004039361424B9B69F8
:10C3640003F004033B613B694FF40073BB61022398
:10C37400FB6103237B6207F1180319463B4800F075
:10C38400F7FE4FF48063BB610023FB6100233B6233
:10C3940007F118031946354800F0EAFE344B354AD4
:10C3A4001A60334B00225A60314B00229A60304BA2
:10C3B4008022DA602E4B00221A612D4B00225A6132
:10C3C4002B4B00229A612A4B4FF44052DA612848E1
:10C3D40000F08EF90346002B01D0FFF70CFD7B68BB
:10C3E400234ADA63224A7B68536236E07B681B681F
:10C3F400214A934231D11C4BDB691B4A43F480230D
:10C40400D361194BDB6903F48023FB60FB68164B93
:10C414009B69154A43F008039361134B9B6903F02E
:10C424000803BB60BB684FF48063BB610223FB61FC
:10C4340003237B6207F118031946104800F098FEA5
:10C444004FF40063BB610023FB6100233B6207F1EF
:10C4540018031946094800F08BFE00BF2837BD4673
:10C4640080BD00BF003801400010024000080140B8
:10C47400DC2F00205800024000480040000C01401E
:10C48400FFF776FE0B480C490C4A002302E0D4580F
:10C49400C4500433C4188C42F9D3094A094C00230C
:10C4A40001E013600432A242FBD305F01DFFFEF746
:10C4B40063FE7047000000208C0000204440010807
:10C4C4009000002070330020FEE7000080B500AF2C
:10C4D400084B1B68074A43F010031360032000F065
:10C4E400D1F80F20FFF7C0FCFFF78CFC002318469F
:10C4F40080BD00BF0020024080B400AF054B1B7814
:10C504001A46054B1B681344034A136000BFBD461B
:10C5140080BC7047240000202030002080B400AF8D
:10C52400024B1B681846BD4680BC70472030002073
:10C5340080B485B000AF78607B6803F00703FB60CC
:10C544000C4BDB68BB60BA684FF6FF031340BB605B
:10C55400FB681A02BB68134343F0BF6343F4003320
:10C56400BB60044ABB68D36000BF1437BD4680BCBF
:10C57400704700BF00ED00E080B400AF044BDB68FF
:10C584001B0A03F007031846BD4680BC704700BF72
:10C5940000ED00E080B483B000AF0346FB7197F96F
:10C5A4000730002B0BDBFB7903F01F02064997F9D8
:10C5B40007305B09012000FA02F241F8232000BF92
:10C5C4000C37BD4680BC704700E100E080B483B006
:10C5D40000AF03463960FB7197F90730002B0ADB83
:10C5E4003B68DAB20C4997F907301201D2B20B4416
:10C5F40083F800230AE03B68DAB20849FB7903F0C8
:10C604000F03043B1201D2B20B441A7600BF0C375D
:10C61400BD4680BC704700BF00E100E000ED00E0D3
:10C6240080B489B000AFF860B9607A60FB6803F049
:10C634000703FB61FB69C3F10703042B28BF042331
:10C64400BB61FB690433062B02D9FB69033B00E0A1
:10C6540000237B614FF0FF32BB6902FA03F3DA4334
:10C66400BB681A407B699A404FF0FF317B6901FA3D
:10C6740003F3D9437B680B40134318462437BD4664
:10C6840080BC704780B582B000AF78607868FFF7EF
:10C694004FFF00BF0837BD4680BD80B586B000AFF0
:10C6A4000346B9607A60FB7300237B61FFF764FF84
:10C6B40078617A68B9687869FFF7B2FF024697F93A
:10C6C4000F3011461846FFF781FF00BF1837BD46EB
:10C6D40080BD80B582B000AF0346FB7197F9073087
:10C6E4001846FFF757FF00BF0837BD4680BD00005E
:10C6F40080B485B000AF78600023FB607B68002BBA
:10C7040001D1012359E07B681B681A462D4B9A42DC
:10C714000FD87B681B681A462B4B13442B4AA2FB89
:10C7240003231B099A007B681A647B68284ADA632E
:10C734000EE07B681B681A46264B1344234AA2FB6F
:10C7440003231B099A007B681A647B68224ADA6314
:10C754007B68022283F821207B681B681B68FB60CE
:10C76400FB6823F47F5323F03003FB607B685A6833
:10C774007B689B681A437B68DB681A437B681B6988
:10C784001A437B685B691A437B689B691A437B681D
:10C79400DB691343FA681343FB607B681B68FA6820
:10C7A4001A607B6800229A637B68012283F8212047
:10C7B4007B68002283F82020002318461437BD46E6
:10C7C40080BC704707040240F8FFFDBFCDCCCCCC41
:10C7D40000000240F8FBFDBF0004024080B586B0B3
:10C7E40000AFF860B9607A603B600023FB75FB68BA
:10C7F40093F82030012B01D102234BE0FB68012286
:10C8040083F82020FB6893F82130DBB2012B3AD166
:10C81400FB68022283F82120FB6800229A63FB68EC
:10C824001B681A68FB681B6822F001021A603B68E7
:10C834007A68B968F86800F06DFAFB68DB6A002B67
:10C8440008D0FB681B681A68FB681B6842F00E027C
:10C854001A600FE0FB681B681A68FB681B6822F00B
:10C8640004021A60FB681B681A68FB681B6842F0C4
:10C874000A021A60FB681B681A68FB681B6842F0AE
:10C8840001021A6005E0FB68002283F820200223DD
:10C89400FB75FB7D18461837BD4680BD80B584B056
:10C8A40000AF78607B68DB6B1B68FB607B681B6890
:10C8B4001B68BB607B681B6C04229A40FB681340B6
:10C8C400002B00F0F180BB6803F00403002B00F0A0
:10C8D400EB807B681B681B6803F02003002B07D1E7
:10C8E4007B681B681A687B681B6822F004021A6064
:10C8F4007B681B681A465F4B9A4258D97B681B6851
:10C904005D4A93424FD07B681B685C4A934248D08F
:10C914007B681B685A4A934240D07B681B68594A1B
:10C92400934238D07B681B68574A934230D07B6867
:10C934001B68564A934228D07B681B684D4A934231
:10C9440020D07B681B68524A934219D07B681B68CD
:10C95400504A934212D07B681B684F4A93420AD0D4
:10C964007B681B684D4A934202D14FF480431BE01D
:10C974004FF4802318E04FF4806315E0402313E064
:10C98400042311E04FF080630EE04FF480030BE0CA
:10C994004FF4802308E04FF4804305E04FF48063B4
:10C9A40002E0402300E004233D4A536057E07B68E3
:10C9B4001B68314A93424FD07B681B682F4A9342CD
:10C9C40048D07B681B682E4A934240D07B681B6822
:10C9D4002C4A934238D07B681B682B4A934230D050
:10C9E4007B681B68294A934228D07B681B68214ACC
:10C9F400934220D07B681B68254A934219D07B68F8
:10CA04001B68244A934212D07B681B68224A9342D3
:10CA14000AD07B681B68214A934202D14FF48043B9
:10CA24001BE04FF4802318E04FF4806315E04023AB
:10CA340013E0042311E04FF080630EE04FF4800311
:10CA44000BE04FF4802308E04FF4804305E04FF4FB
:10CA5400806302E0402300E00423124A53607B68B1
:10CA6400DB6A002B00F036817B68DB6A78689847C4
:10CA740030E100BF80000240080002401C00024078
:10CA84003000024044000240580002406C00024062
:10CA9400080402401C0402403004024044040240E2
:10CAA40000040240000002407B681B6C02229A4092
:10CAB400FB681340002B00F0DD80BB6803F0020329
:10CAC400002B00F0D7807B681B681B6803F02003F1
:10CAD400002B0BD17B681B681A687B681B6822F0EB
:10CAE4000A021A607B68012283F821207B681B6894
:10CAF4001A467B4B9A4258D97B681B68794A934201
:10CB04004FD07B681B68784A934248D07B681B6887
:10CB1400764A934240D07B681B68754A934238D06A
:10CB24007B681B68734A934230D07B681B68724AE7
:10CB3400934228D07B681B68694A934220D07B6863
:10CB44001B686E4A934219D07B681B686C4A9342F7
:10CB540012D07B681B686B4A93420AD07B681B68BF
:10CB6400694A934202D14FF400531BE04FF400335F
:10CB740018E04FF4007315E0202313E0022311E0C2
:10CB84004FF000730EE04FF400130BE04FF400334A
:10CB940008E04FF4005305E04FF4007302E0202353
:10CBA40000E00223594A536057E07B681B684D4AF2
:10CBB40093424FD07B681B684B4A934248D07B68B2
:10CBC4001B684A4A934240D07B681B68484A934298
:10CBD40038D07B681B68474A934230D07B681B6817
:10CBE400454A934228D07B681B683D4A934220D033
:10CBF4007B681B68414A934219D07B681B68404A92
:10CC0400934212D07B681B683E4A93420AD07B68E9
:10CC14001B683D4A934202D14FF400531BE04FF48A
:10CC2400003318E04FF4007315E0202313E00223CF
:10CC340011E04FF000730EE04FF400130BE04FF4DB
:10CC4400003308E04FF4005305E04FF4007302E0B2
:10CC5400202300E002232E4A53607B68002283F8DD
:10CC640020207B689B6A002B34D07B689B6A7868A1
:10CC740098472FE07B681B6C08229A40FB6813409E
:10CC8400002B28D0BB6803F00803002B23D07B685B
:10CC94001B681A687B681B6822F00E021A607B68A6
:10CCA4001A6C7B68DB6B012101FA02F25A607B6823
:10CCB40001229A637B68012283F821207B68002289
:10CCC40083F820207B681B6B002B04D07B681B6BD4
:10CCD4007868984700BF00BF1037BD4680BD00BFCD
:10CCE40080000240080002401C0002403000024064
:10CCF40044000240580002406C0002400804024014
:10CD04001C04024030040240440402400004024077
:10CD14000000024080B485B000AFF860B9607A606A
:10CD24003B60FB681A6CFB68DB6B012101FA02F2C1
:10CD34005A60FB681B683A685A60FB685B68102B92
:10CD440008D1FB681B687A689A60FB681B68BA683C
:10CD5400DA6007E0FB681B68BA689A60FB681B68C6
:10CD64007A68DA6000BF1437BD4680BC70470000A3
:10CD7400F0B587B000AFF860B960C7E900230123BC
:10CD8400FB750023BB7500237B752F4B1B7E012B8A
:10CD940001D1022354E02C4B01221A764CF250307C
:10CDA40000F0A8F80346FB75FB7D002B44D1FB681B
:10CDB400012B02D101237B7507E0FB68022B02D112
:10CDC40002237B7501E004237B750023BB752DE0F2
:10CDD400BB7D5A00BB6802EB030CBB7D1901D7E98C
:10CDE4000023C1F12006A1F1200022FA01F403FA84
:10CDF40006F6344323FA00F0044323FA01F5A3B200
:10CE04001946604600F05AF84CF2503000F072F8BF
:10CE14000346FB750D4B1B690C4A23F00103136198
:10CE2400FB7D002B07D1BB7D0133BB75BA7D7B7DB8
:10CE34009A42CDD300E000BF034B00221A76FB7D5B
:10CE440018461C37BD46F0BD2830002000200240A3
:10CE540080B483B000AF0023FB710D4B1B6903F05A
:10CE64008003002B0DD00A4B0A4A5A60084B0A4A29
:10CE74005A60074B1B6903F08003002B01D0012388
:10CE8400FB71FB7918460C37BD4680BC704700BF68
:10CE94000020024023016745AB89EFCD80B400AF89
:10CEA400054B1B69044A43F08003136100231846B1
:10CEB400BD4680BC704700BF0020024080B483B0F0
:10CEC40000AF78600B467B80084B0022DA61084B88
:10CED4001B69074A43F0010313617B687A881A804F
:10CEE40000BF0C37BD4680BC704700BF283000200F
:10CEF4000020024080B584B000AF7860FFF70EFBDD
:10CF0400F86010E07B68B3F1FF3F0CD07B68002B26
:10CF140007D0FFF703FB0246FB68D31A7A689A42EC
:10CF240001D2032325E0154BDB6803F00103002B3A
:10CF3400E8D1124BDB6803F02003002B02D00F4B27
:10CF44002022DA600D4BDB6803F01003002B0BD1B9
:10CF54000A4BDB6903F00103002B05D1074BDB68A7
:10CF640003F00403002B03D000F00AF8012300E0CF
:10CF7400002318461037BD4680BD00BF0020024084
:10CF840080B483B000AF00237B60234BDB6803F0E5
:10CF94001003002B09D0214BDB6943F002031F4A25
:10CFA400D3617B6843F010037B601B4BDB6803F0A9
:10CFB4000403002B09D0194BDB6943F00103174A22
:10CFC400D3617B6843F004037B60134BDB6903F09C
:10CFD4000103002B0BD0114BDB6943F004030F4A10
:10CFE400D3610D4BDB690C4A23F00103D3617B68E9
:10CFF40040F20112934206D1074BDB69064A23F043
:10D004000103D36102E0044A7B68D36000BF0C379C
:10D01400BD4680BC704700BF00200240283000207D
:10D0240080B584B000AF786039600123FB730023BE
:10D03400BB602F4B1B7E012B01D1022353E02C4BF1
:10D0440001221A767B681B68022B16D14CF25030F1
:10D05400FFF750FF0346002B41D1012000F04CF8AC
:10D064004CF25030FFF746FF0346FB73214B1B691C
:10D07400204A23F00403136131E04CF25030FFF7EF
:10D0840039FF0346002B2AD13B684FF0FF321A6068
:10D094007B689B68BB6019E0B86800F049F84CF203
:10D0A4005030FFF727FF0346FB73124B1B69114AED
:10D0B40023F002031361FB7B002B03D03B68BA68A7
:10D0C4001A600CE0BB6803F50063BB607B68DB6837
:10D0D400DA027B689B681344BA689A42DCD3044B37
:10D0E40000221A76FB7B18461037BD4680BD00BF70
:10D0F400283000200020024080B483B000AF786064
:10D10400094B0022DA61094B1B69084A43F0040306
:10D114001361064B1B69054A43F04003136100BFCA
:10D124000C37BD4680BC70472830002000200240E8
:10D1340080B483B000AF78600B4B0022DA610B4BF4
:10D144001B690A4A43F002031361084A7B6853616E
:10D15400064B1B69054A43F04003136100BF0C37BB
:10D16400BD4680BC704700BF28300020002002402C
:10D1740080B48BB000AF7860396000237B620023F9
:10D184003B6279E101227B6A02FA03F3FB613B68AB
:10D194001B68FA691340BB61BA69FB699A4240F0A3
:10D1A40068813B685B68964A93425ED0944A934296
:10D1B40075D8944A934258D0924A93426FD8924A6F
:10D1C400934252D0904A934269D8904A93424CD0A9
:10D1D4008E4A934263D88E4A934246D08C4A9342F5
:10D1E4005DD8122B2AD8122B59D801A252F823F059
:10D1F4006FD2000849D200085BD200089DD2000813
:10D20400A3D20008A3D20008A3D20008A3D2000826
:10D21400A3D20008A3D20008A3D20008A3D2000816
:10D22400A3D20008A3D20008A3D20008A3D2000806
:10D23400A3D2000851D2000865D20008754A93426F
:10D2440013D02CE03B68DB683B6229E03B68DB6879
:10D2540004333B6224E03B68DB6808333B621FE035
:10D264003B68DB680C333B621AE03B689B68002B2D
:10D2740002D104233B6213E03B689B68012B05D178
:10D2840008233B627B68FA691A6109E008233B6260
:10D294007B68FA695A6103E000233B6200E000BF47
:10D2A400BB69FF2B01D87B6801E07B6804337B6199
:10D2B400BB69FF2B02D87B6A9B0002E07B6A083BB8
:10D2C4009B003B617B691A680F213B6901FA03F3F8
:10D2D400DB431A40396A3B6901FA03F31A437B6959
:10D2E4001A603B685B6803F08053002B00F0C18038
:10D2F400494B9B69484A43F001039361464B9B6940
:10D3040003F00103BB60BB68444A7B6A9B08023399
:10D3140052F82330FB607B6A03F003039B000F2267
:10D3240002FA03F3DB43FA681340FB607B683C4A70
:10D3340093421FD07B683B4A934219D07B683A4A98
:10D34400934213D07B68394A93420DD07B68384AA4
:10D35400934207D07B68374A934201D105230AE000
:10D36400062308E0042306E0032304E0022302E08A
:10D37400012300E000237A6A02F003029200934042
:10D38400FA681343FB6025497B6A9B080233FA68F9
:10D3940041F823203B685B6803F48013002B06D01C
:10D3A400254B9A682449BB6913438B6006E0224BE2
:10D3B4009A68BB69DB43204913408B603B685B6818
:10D3C40003F40013002B06D01B4BDA681A49BB691F
:10D3D4001343CB6006E0184BDA68BB69DB4316499C
:10D3E4001340CB603B685B6803F40033002B25D00B
:10D3F400114B5A681049BB6913434B6025E000BFC9
:10D404000000321000003110000022100000211032
:10D414000000121000001110001002400000014032
:10D4240000080140000C01400010014000140140BC
:10D4340000180140001C014000040140154B5A68CB
:10D44400BB69DB43134913404B603B685B6803F4DF
:10D454008033002B06D00F4B1A680E49BB69134367
:10D464000B6006E00B4B1A68BB69DB4309491340A8
:10D474000B607B6A01337B623B681A687B6A22FA21
:10D4840003F3002B7FF47EAE00BF00BF2C37BD46F4
:10D4940080BC70470004014080B485B000AF786060
:10D4A4000B467B807B689A687B881340002B02D0F4
:10D4B4000123FB7301E00023FB73FB7B1846143745
:10D4C400BD4680BC704780B483B000AF78600B4623
:10D4D4007B8013467B707B78002B03D07A887B6833
:10D4E4001A6103E07B881A047B681A6100BF0C3759
:10D4F400BD4680BC7047000080B582B000AF0346D3
:10D50400FB80084B5A69FB881340002B06D0054A60
:10D51400FB885361FB881846FEF788FB00BF083779
:10D52400BD4680BD0004014080B584B000AF786082
:10D534007B68002B01D101232BE17B6893F83D30FC
:10D54400DBB2002B06D17B68002283F83C2078688C
:10D55400FDF77CF87B68242283F83D207B681B68F8
:10D564001A687B681B6822F001021A607B681B68DA
:10D574001A687B681B6842F400421A607B681B6867
:10D584001A687B681B6822F400421A6001F0C2F931
:10D59400F8607B685B68814A934207D8FB68804ADD
:10D5A400934294BF01230023DBB206E0FB687D4A6B
:10D5B400934294BF01230023DBB2002B01D001234B
:10D5C400E7E0FB68784AA2FB03239B0CBB607B6803
:10D5D4001B685B6823F03F017B681B68BA680A43D9
:10D5E4005A607B681B681B6A23F03F017B685B6899
:10D5F4006A4A934202D8BB68013309E0BB684FF41E
:10D60400967202FB03F3694AA2FB03239B090133CD
:10D614007A6812680B4313627B681B68DB6923F426
:10D624004F4222F0FF027B685B685C498B4219D849
:10D63400FB68591E7B685B685B00B1FBF3F3591C04
:10D6440040F6FC730B40002B0AD0FB68591E7B6824
:10D654005B685B00B1FBF3F30133C3F30B0351E0ED
:10D6640004234FE07B689B68002B11D1FB68581E94
:10D674007B6859680B465B000B44B0FBF3F3013342
:10D68400C3F30B03002B0CBF01230023DBB212E016
:10D69400FB68581E7B6859680B469B000B44990035
:10D6A4000B44B0FBF3F30133C3F30B03002B0CBFA8
:10D6B40001230023DBB2002B01D0012322E07B688D
:10D6C4009B68002B0ED1FB68581E7B6859680B467B
:10D6D4005B000B44B0FBF3F30133C3F30B0343F4DC
:10D6E40000430FE0FB68581E7B6859680B469B009B
:10D6F4000B4499000B44B0FBF3F30133C3F30B0366
:10D7040043F44043796809681343CB617B681B6821
:10D714001B6823F0C0017B68DA697B681B6A1A43C3
:10D724007B681B680A431A607B681B689B6823F448
:10D73400034323F0FF037A6811697A68D2681143BE
:10D744007A6812680B4393607B681B68DB6823F07C
:10D75400FF017B685A697B689B691A437B681B6875
:10D764000A43DA607B681B681A687B681B6842F0AE
:10D7740001021A607B6800221A647B68202283F805
:10D784003D207B6800221A637B68002283F83E20D8
:10D79400002318461037BD4680BD00BFA086010097
:10D7A4007F841E00FF083D0083DE1B43D34D6210BF
:10D7B40080B588B002AFF860084611461A460346A1
:10D7C4007B810B463B811346FB80FEF7A7FE786105
:10D7D400FB6893F83D30DBB2202B40F0D9807B69A5
:10D7E4000093192301226D49F86800F09FFA03465B
:10D7F400002B01D00223CCE0FB6893F83C30012BD2
:10D8040001D10223C5E0FB68012283F83C20FB68B8
:10D814001B681B6803F00103012B07D0FB681B681E
:10D824001A68FB681B6842F001021A60FB681B68F7
:10D834001A68FB681B6822F400621A60FB682122E4
:10D8440083F83D20FB68402283F83E20FB680022D9
:10D854001A64FB683A6A5A62FB68BA8C5A85FB6898
:10D864005B8D9AB2FB681A85FB684D4ADA62F888C8
:10D874003A8979897B690193BB6A00930346F86806
:10D8840000F0BEF90346002B52D0012381E07A69EF
:10D89400B96AF86800F064FB0346002B0DD0FB68FE
:10D8A4001B6C042B07D1FB681B681A68FB681B6898
:10D8B40042F400721A6001236BE0FB685B6A1A7819
:10D8C400FB681B681A61FB685B6A5A1CFB685A6236
:10D8D400FB681B8D013B9AB2FB681A85FB685B8D64
:10D8E4009BB2013B9AB2FB685A85FB681B685B6973
:10D8F40003F00403042B1BD1FB681B8D002B17D0F2
:10D90400FB685B6A1A78FB681B681A61FB685B6AD0
:10D914005A1CFB685A62FB681B8D013B9AB2FB6878
:10D924001A85FB685B8D9BB2013B9AB2FB685A85F2
:10D93400FB681B8D002BAAD17A69B96AF86800F0DC
:10D9440057FB0346002B0DD0FB681B6C042B07D13F
:10D95400FB681B681A68FB681B6842F400721A6053
:10D96400012316E0FB681B681A68FB681B6842F415
:10D9740000721A60FB68202283F83D20FB680022B5
:10D9840083F83E20FB68002283F83C20002300E05B
:10D99400022318461837BD4680BD00BF02001000A0
:10D9A4000000FFFF80B58AB002AFF8607A603B6088
:10D9B4000B467B81FEF7B2FDF8610023BB61FB6877
:10D9C40093F83D30DBB2202B40F01181FB690093CA
:10D9D400192301228849F86800F0A8F90346002BAE
:10D9E40001D0022304E1FB6893F83C30012B01D100
:10D9F4000223FDE0FB68012283F83C20FB681B68DE
:10DA04001B6803F00103012B07D0FB681B681A682D
:10DA1400FB681B6842F001021A60FB681B681A6805
:10DA2400FB681B6822F400621A60FB68242283F8F6
:10DA34003D20FB6800221A64FB68704ADA62FB68C6
:10DA44001B681A68FB681B6842F480721A60FB69E1
:10DA540000933B6800224FF00111F86800F066F96A
:10DA64000346002B0DD0FB681B681B6803F480730E
:10DA7400B3F5807F03D1FB684FF400721A6403236B
:10DA8400B6E07B89DBB21A46FB681B6802F0FE0233
:10DA94001A61FEF743FDF861FB681B685B6903F0DC
:10DAA4000203022B0CBF01230023DBB2FB75FB68CE
:10DAB4001B685B6903F48063B3F5806F0CBF0123BB
:10DAC4000023DBB2BB7525E0FEF728FD0246FB69A7
:10DAD400D31A3A689A4202D33B68002B03D1FB68FD
:10DAE400A02283F83D20FB681B685B6903F00203F6
:10DAF400022B0CBF01230023DBB2FB75FB681B6800
:10DB04005B6903F48063B3F5806F0CBF01230023CA
:10DB1400DBB2BB75FB6893F83D30DBB2A02B05D0BC
:10DB2400FB7D002B02D1BB7D002BCDD0FB682022D6
:10DB340083F83D20FB681B685B6903F00203022B3A
:10DB440029D1FB681B681A68FB681B6842F40072E1
:10DB54001A6000233B61FB681B685B693B61FB68DF
:10DB64001B689B693B613B69FB6900931923012294
:10DB74002149F86800F0DAF80346002B01D00123AC
:10DB840036E0FB68202283F83D20FB68002283F8FE
:10DB94003C2000232CE0FB681B681A68FB681B68A8
:10DBA40042F400721A60FB681B686FF480625A6169
:10DBB400FB690093192301220F49F86800F0B6F8B5
:10DBC4000346002B01D0012312E0BB690133BB6182
:10DBD400BA697B689A42FFF432AFFB68202283F86B
:10DBE4003D20FB68002283F83C20012300E002234F
:10DBF40018462037BD4680BD020010000000FFFF1C
:10DC040080B588B002AFF860084611461A4603464C
:10DC14007B810B463B811346FB80FB681B681A68BB
:10DC2400FB681B6842F480721A607B6A00933B6A4B
:10DC340000224FF00111F86800F078F80346002B39
:10DC44000DD0FB681B681B6803F48073B3F5807FF9
:10DC540003D1FB684FF400721A6403235FE07B89ED
:10DC6400DBB21A46FB681B6802F0FE021A617B6A8B
:10DC74003A6A2D49F86800F0D3F80346002B01D026
:10DC840001234CE000237B61FB681B685B697B61BB
:10DC9400FB681B689B697B617B697A6A396AF868EF
:10DCA40000F05EF90346002B0DD0FB681B6C042BBF
:10DCB40007D1FB681B681A68FB681B6842F4007292
:10DCC4001A6001232BE0FB88012B05D13B89DAB2D2
:10DCD400FB681B681A6121E03B891B0A9BB2DAB21C
:10DCE400FB681B681A617A6A396AF86800F038F9C7
:10DCF4000346002B0DD0FB681B6C042B07D1FB687B
:10DD04001B681A68FB681B6842F400721A600123DE
:10DD140005E03B89DAB2FB681B681A6100231846E8
:10DD24001837BD4680BD00BF0200010080B584B035
:10DD340000AFF860B9603B601346FB7148E03B6894
:10DD4400B3F1FF3F44D0FEF7E9FB0246BB69D31AA7
:10DD54003A689A4202D33B68002B39D1BB681B0C4A
:10DD6400DBB2012B0DD1FB681B685B69DA43BB682E
:10DD740013409BB2002B0CBF01230023DBB21A46D5
:10DD84000CE0FB681B689B69DA43BB6813409BB2D9
:10DD9400002B0CBF01230023DBB21A46FB799A4205
:10DDA40016D1FB6800221A63FB68202283F83D2009
:10DDB400FB68002283F83E20FB681B6C43F02002C2
:10DDC400FB681A64FB68002283F83C20012323E0EB
:10DDD400BB681B0CDBB2012B0DD1FB681B685B69B4
:10DDE400DA43BB6813409BB2002B0CBF0123002312
:10DDF400DBB21A460CE0FB681B689B69DA43BB681C
:10DE040013409BB2002B0CBF01230023DBB21A4644
:10DE1400FB799A4293D0002318461037BD4680BD43
:10DE240080B584B000AFF860B9607A603B6071E09F
:10DE3400FB681B685B6903F48063B3F5806F23D1CF
:10DE4400FB681B681A68FB681B6842F400721A605E
:10DE5400FB681B686FF480625A61FB6800221A63D6
:10DE6400FB68202283F83D20FB68002283F83E20D3
:10DE7400FB681B6C43F00402FB681A64FB68002215
:10DE840083F83C20012367E07B68B3F1FF3F41D076
:10DE9400FEF744FB02463B68D31A7A689A4202D3DF
:10DEA4007B68002B36D1BB681B0CDBB2012B0CD179
:10DEB400FB681B685B69DA43BB6813409BB2002BA9
:10DEC40014BF01230023DBB20BE0FB681B689B69D2
:10DED400DA43BB6813409BB2002B14BF0123002319
:10DEE400DBB2002B16D0FB6800221A63FB682022E9
:10DEF40083F83D20FB68002283F83E20FB681B6CFE
:10DF040043F02002FB681A64FB68002283F83C207B
:10DF1400012321E0BB681B0CDBB2012B0CD1FB6895
:10DF24001B685B69DA43BB6813409BB2002B14BFC8
:10DF340001230023DBB20BE0FB681B689B69DA4317
:10DF4400BB6813409BB2002B14BF01230023DBB238
:10DF5400002B7FF46DAF002318461037BD4680BDFB
:10DF640080B584B000AFF860B9607A6034E0F868D6
:10DF740000F086F80346002B01D0012334E0BB688F
:10DF8400B3F1FF3F28D0FEF7C9FA02467B68D31AE3
:10DF9400BA689A4202D3BB68002B1DD1FB681B6888
:10DFA4005B6903F08003802B16D0FB6800221A63A0
:10DFB400FB68202283F83D20FB68002283F83E2082
:10DFC400FB681B6C43F02002FB681A64FB680022A8
:10DFD40083F83C20012307E0FB681B685B6903F0BE
:10DFE4008003802BC3D1002318461037BD4680BD63
:10DFF40080B584B000AFF860B9607A6034E0F86846
:10E0040000F03EF80346002B01D0012334E0BB6846
:10E01400B3F1FF3F28D0FEF781FA02467B68D31A9A
:10E02400BA689A4202D3BB68002B1DD1FB681B68F7
:10E034005B6903F00403042B16D0FB6800221A6307
:10E04400FB68202283F83D20FB68002283F83E20F1
:10E05400FB681B6C43F02002FB681A64FB68002217
:10E0640083F83C20012307E0FB681B685B6903F02D
:10E074000403042BC3D1002318461037BD4680BDCA
:10E0840080B483B000AF78607B681B685B6903F47D
:10E094008063B3F5806F1BD17B681B686FF480626B
:10E0A4005A617B6800221A637B68202283F83D2032
:10E0B4007B68002283F83E207B681B6C43F00402DB
:10E0C4007B681A647B68002283F83C20012300E00B
:10E0D400002318460C37BD4680BC704780B584B019
:10E0E40000AF78607B68002B01D1012334E07B68AA
:10E0F4001B684CF6CC421A607B681B6845F255528B
:10E104001A607B681B687A6852685A607B681B686F
:10E114007A6892689A60FEF701FAF8600FE0FEF7F9
:10E12400FDF90246FB68D31A272B08D97B681B68C4
:10E13400DB6803F00303002B01D003230CE07B68AE
:10E144001B68DB6803F00303002BE8D17B681B68C2
:10E154004AF6AA221A60002318461037BD4680BD2D
:10E1640080B483B000AF78607B681B684AF6AA224B
:10E174001A60002318460C37BD4680BC7047000067
:10E1840080B586B000AF78607B68002B01D1012395
:10E1940072E27B681B6803F00103002B00F08780A8
:10E1A400924B5B6803F00C03042B0CD08F4B5B6821
:10E1B40003F00C03082B12D18C4B5B6803F48033FF
:10E1C400B3F5803F0BD1894B1B6803F40033002B5C
:10E1D4006CD07B685B68002B68D101234CE27B68C0
:10E1E4005B68B3F5803F06D1804B1B687F4A43F4DC
:10E1F400803313602EE07B685B68002B0CD17B4B73
:10E204001B687A4A23F480331360784B1B68774A7F
:10E2140023F4802313601DE07B685B68B3F5A02FB3
:10E224000CD1724B1B68714A43F4802313606F4B0B
:10E234001B686E4A43F4803313600BE06B4B1B681E
:10E244006A4A23F480331360684B1B68674A23F4DB
:10E25400802313607B685B68002B13D0FEF75EF9A4
:10E26400386108E0FEF75AF902463B69D31A642B79
:10E2740001D9032300E25D4B1B6803F40033002B38
:10E28400F0D014E0FEF74AF9386108E0FEF746F9E9
:10E2940002463B69D31A642B01D90323ECE1534BA7
:10E2A4001B6803F40033002BF0D100E000BF7B684F
:10E2B4001B6803F00203002B63D04C4B5B6803F034
:10E2C4000C03002B0BD0494B5B6803F00C03082BA9
