:400000000080002011000000A1050000A105000008B5054B1A6803F53F5302331A6000F0C1FB00F0DDFA00BFFA46004010B5054C237833B9044B13B10448AFF30080012307
:40004000237010BD4881FF1F000000006C1E0000084B10B51BB108490848AFF300800848036803B910BD074B002BFBD0BDE81040184700BF000000004C81FF1F6C1E0000F4
:40008000C880FF1F0000000041EA00410B6882B001930198C0B202B0704708B500F08CFFB0FA80F0400908BD08B558B1042801D1054803E009280CBF0448054800F0DEFE0C
:4000C000002008BD012008BD701E00008F1E0000A61E00002DE9F04300240646A0462546C3B0B442A0B200F082802302671C03F580710DF1080C8B425FFA83FE09D29AB20E
:4001000042F40032126801330192019A0CF80E20F1E701F07BF84FF07E5100F0C7FF8146304601F077F80146484601F07BF9324901F0C4F801F012FA1422C0B2B0FBF2F315
:4001400002FB130313F0FF0F19D11FFA80F9C84516D0904201D129480EE0282801D128480AE03C2801D1274806E0502801D1264802E0642804D1254800F080FE00E0C14625
:40018000192000F079FC00F097FBDFF88480F8B9731EA34202AA08D1FF21032000F020FCFFF782FF80B9012513E0B8F8001098F8020000F015FCFFF777FF0028F3D0B8F826
:4001C00000300133A8F800300A2000F055FC00E00225B8F800200E4BB2F5807F04D100221A809A7801329A703C46C84679E7284643B0BDE8F08300BF0000C842B01E0000AA
:40020000BF1E0000CE1E0000DD1E0000EC1E00006481FF1FF7B562B600F0CBFE00F0EEFD5C4800F02BFE5C4B12211878FFF735FF702000F011FF0746742000F00DFF05468C
:40024000732000F009FF000440EA0565722000F003FF0646712000F0FFFE504C284340EA06206060782000F0F7FE0546772000F0F3FE000440EA0565762000F0EDFE064661
:40028000752000F0E9FE284340EA0626792000F0E3FE05467A2000F0DFFE40EA052080B2208001903B4662683D4900963D4801F0B5F93C4800F0E2FD012F57D14FF6FF7752
:4002C000394800F0DBFD00250222B54211D03DB1B5FBF7F3C3EB03439D4204BF0132D2B2A9B21046FFF7D0FEA36801351844A060EBE7A268636852422C492A48A26001F098
:400300008DF9284800F0BAFD294800F0B7FDC5F30F20FFF7DFFE7021034638B9FFF7BDFE13210220FFF7B9FE22481CE0012B4FF0000007D1FFF7B1FE13210D20FFF7ADFE82
:400340001D4810E0022B07D1FFF7A7FE13210D20FFF7A3FE194806E0FFF79FFE13210D20FFF79BFE164800F089FD06E0154800F085FD4FF47A7000F07FFB134800F07EFDE0
:400380004FF47A7000F078FB002000F057FA002003B0F0BDFC1E0000C080FF1F6481FF1F451F00009081FF1FA21F000002200000282000003720000092200000FA20000070
:4003C00071210000D32100001A220000F8B572B65D4A5E4D1378002443F004031370062606FB045300219A881868013401F00DF9092CF5D180225649564801F0FBF8002255
:400400001146554C04F1380554F8210005EB420320F0FF06C0B2024405EB4200013303300233834206D013F8037C13F802EC07F806E0F5E701310E29E6D1484A484C1378A5
:40044000484F43F002031370137C192643F0020313742378A2F5863243F040032370413A1378002543F0100313703F4B02F6FE525968186803C2198911803C4953F80A2FA2
:400480000A605A684A603A4A0321137843F008031370384B61221A70A3F5F06333221A8018229A70022283F8802208224FF040231A7083F80012304B30491B78DBB20B7011
:4004C0002F4B1A8041F2512223F8022C3B784FF4F07003F0010343EA450500F0D1FD013E05F003052FD0032DF0D1264B4FF480721A80254907221A70482000220A708870EE
:400500001A70022203F8032C204A214D137843F001031370174B81221A7003F5F723012204331A701B4B1C4A1B78DBB203F007011B0911705370194B44221A7094E80F0013
:4005400007C52B80F8BDFEE7E8460040642200009A220000801601401C23000003500140A043004025420040AC25000012510040224300400048004008010049A14600402C
:40058000224200400440004006400040A2430040B0430040CF0100496E5800407658004008B500F0FBFF03680C2B00D1FEE7FEE7094908B50B68094A1844821AB2F5006F41
:4005C00001DC086005E000F0E9FF0C2303604FF0FF33184608BD00BFCC80FF1FB086FF1F80B51148114B0025C0B1A3F1100192C922460439161BB74204D051F8046F42F83D
:40060000046BF7E7114653F8046C8C1AA64202D041F8045BF9E701381033E5E700F0C4FFFFF7F8FDFEE700BF0100000028260000104A114B10B41A60104A114C136811482B
:4006400043F4007313600023032B98BF54F823204FEA830188BF0C4A0133302B4250F3D10A4B1A780A4B1A700A4B064A10BC1A60FFF7ACBE0004FA050CED00E014ED00E019
:40068000000000000080FF1FA1050000BC760040C080FF1F08ED00E0004770B5C0B06A4620F0FF035C1E03F1FF05D31A14F8016FAC421E55FAD1C3B2D45C8C4208D0D1543C
:4006C000C0F30721C0F3074000F08AF900F0F2F940B070BD01380B284FD8DFE800F0060C12181E24302A363C42480902C1F57F3101F5707147E00902C1F57F3101F2C131D7
:4007000044E00902C1F57F3101F2C53136E00902C1F57F3101F2C93138E00902C1F57F3101F574712FE00902C1F57F3101F2D13129E00902C1F57F3101F2D6311EE0090271
:40074000C1F57F3101F2D23118E00902C1F57F3101F5757112E00902C1F57F3101F5767114E00902C1F57F3101F577710BE00902C1F57F3101F5787108E000210B784878CE
:4007800043EA002070470878C0B270470B784A788878000440EA02201843CB7840EA03607047000010B50B4A137803F0C003802B0ED10024147021460220FFF78BFF38B196
:4007C00021460220FFF786FFBDE81040FFF764BF10BD00BFFA460040F8B5014606460320FFF778FF314605460420FFF773FF013500EB052531460320FFF76CFF00242746E6
:4008000001300002854209D910F8012B531EDBB2FD2B144498BF0127E4B2F3E731460120FFF758FF6442E4B2844204D1002F0CBF06200020F8BD0620F8BD0000022838B598
:400840000546094C0AD0FFF7C7FF38B9B5FA85F106484909FFF721FF802300E000232370BDE8384000F000B9FA460040D0FF030038B500F059F900F01BFAC0B900F052FA3C
:400880000728044610D10B4D2A780A4B910703D4012000F007F9F7E71A78920704D51B789B0814BF0724002400F022FA00E00424204638BD2247004070B5FFF7D9FF044680
:4008C00010BB00F031F900F0F3F9E0B9012000F0D5F907280AD10D4D02210D4800F036F902280A4E05D02B789B07F5D54FF0FF3406E033789A0703D4012000F0D3F8F8E728
:4009000000F0F6F900E00424204670BD22470040F481FF1F41282DE9F04105460E46174698460AD8441F3A2C8CBF002401243F2804D8B1F5807F30D806E00124812E28BFA7
:400940000124B8F1100F28D13FB334BB00F0B0F928BB43463A463146284600F04BF9072834D1DFF8748098F800201B4B12F0020F1F4603D1012000F095F8F4E71A7890070F
:4009800006D51B789B080CD002E01A78920719D44FF0FF3400F0ACF91AE0012418E0042416E00E4A314653782846127800F046F907280BD13A78084B9107E6D4012000F0E0
:4009C00071F8F7E71B789B08E4D0E1E70446E1E72046BDE8F08100BF22470040F481FF1F3F288CBF10234FF48073FFF793BF000008B500F04DFB0F4A137843F00803137078
:400A0000137C43F0080313740B4BC8221A700B4A137843F010031370137C43F01003137402F5557213789B06FCD5BDE8084000F033BB00BFA043004001470040AC43004074
:400A4000044B1A7842F001021A701A789207FCD5704700BF02470040024A137803F0FE031370704702470040024A137843F0010313707047F646004038B50446084DB4F554
:400A8000004F05D9286800F0FBFAA4F50044F6E7034B58686043BDE8384000F0F1BA00BFD080FF1F024B1B7A584300F0E9BA00BFD080FF1F08B500F0EBFA00BF00BF00BF38
:400AC00000BF00BF00BF00BF00BF00BF00BF00BF00BF00BF00BF00BF00BF064A13889BB243F0040313801388BFF36F8FBDE8084000F0D2BA00480040054A00F01F0012682A
:400B000000F1100352F8230042F82310704700BF08ED00E000F01F0000F16040490100F56440C9B20170704708B500F0B1FA064A137843F008031370137C43F0080313741E
:400B4000BDE8084000F0A8BAA04300402DE9F0410E464B1E0A4FDFF82C80451EC418A5420BD03B78DB0703D40120FFF79BFFF8E798F8003005F8013FF1E73046BDE8F081D5
:400B800022470040204700403E2870B501D81F2B02E03F2823D00F2B21D8144D2C78A6071FD5134CB6262670D4262670012626702D78AD0717D42070C1F300202070104676
:400BC000C9B22170591EC9B22170811AC9B28B4203D910F8011B2170F7E7072070BD012070BD042070BD092070BD00BF224700402047004030B50F4C21788D0715D50E490E
:400C0000B6250D70D5250D7002250D702478A4070DD414460870A01A80B2834203D914F8010B0870F7E7072030BD042030BD092030BD00BF224700402047004070B50D4D83
:400C40002C78A60712D50C4CB6262670D8262670052626702D78AD070AD42070080AC9B22070217022702370072070BD042070BD092070BD22470040204700400A4A137859
:400C800099070CD5094BB6211970E12119700E2119701278920704D4187007207047042070470920704700BF224700402047004038B500F0EDF90C4A147874B901250B4945
:400CC00015700B682B400AD00B6823F001030B6000BF00BF00BF556002E0042400E01C4600F0DAF9204638BD7481FF1F0400084010B500F0CDF9094B00215A681970012AA1
:400D000008D1074C226842F00102226000BF00BF00BF5960BDE8104000F0BEB97481FF1F04000840074B1B789B0708D5064BB6221A70E0221A700D221A7007207047042037
:400D4000704700BF224700402047004008B511490020FFF7D1FE07210020FFF7DBFE0E4B00221A700D4B72221A70202203F8022C0B490120FFF7C0FE07210120FFF7CAFE84
:400D8000084B06221A7047221A74022283F85F2008BD00BF9D0E00007C81FF1F876500403D0F00002565004010B500F071F904460E4A0F49137843F02003137012F8023CC8
:400DC00043F0100302F8023C0A4A012313600B7843F010030B70084902230B60136000F0D5F82046BDE8104000F056B9976500409465004000E100E080E200E010B5054C4D
:400E000063781BB9FFF7A2FF01236370BDE81040FFF7CABF7C81FF1F10B5134C637A227AD2B2934202D2511E994201E0991AC62914BF002101210029F1D193420B4A05D14E
:400E40001178490702D40A4B187010BDC72B094928BF0023C8540133637213789B0742BF054B02221A6010BD7C81FF1F6465004044650040DE85FF1F00E200E038B5064B2F
:400E800005465B783BB10024A3B2E85C013410B1FFF7C2FFF8E738BD7C81FF1F2DE9F0431E491F4C0A4625461E4E1F481F4FDFF884E0DFF884C03378DBB213F01E091EBF23
:400EC00090F8008049EA080880F800809B0623D597F800800B885FFA88F89BB20EF80380237813B101238CF80030138801339BB2138013889BB2B3F57A7F24BF00230B80C5
:400F00000B4BB2F800801B881FFA88F89BB29845D1D101232B70CEE7BDE8F0838081FF1F8281FF1F656500407C81FF1F476500407E81FF1FF681FF1F8381FF1F0E4AF0B57B
:400F400011460E4C0E480F4D0F4E137827789F4211D0037813F004030DD11778C62F88BF13700B78DBB2EB5CDBB233700B780133DBB20B70E9E7F0BD8481FF1F8581FF1F0A
:400F800064650040DE85FF1F44650040044A137843F001031370137C43F0010313747047A243004008B5FFF787FCBDE80840FFF71FBDFFF7F7BF000037B50C468DF8070097
:400FC000FFF7B2FDB4F5006F24D2FFF771FE18BB04F00F0101230DF107024020FFF7D4FD07284FEA141504460FD1194A1378184C13F0020FFAD02378980702D44FF0FF3443
:4010000005E023789B0809D0F8E70128F6D1FFF76FFE1AE0012418E0042416E00D4A2946537840201278FFF709FE0728E6D12278074B9107FBD51A789207DFD51B789B0886
:4010400014BF4FF0FF340024E1E7204603B030BD22470040F481FF1F38B5044600F018F80546FFF7EDFC04F1804303F500431C78FFF7F2FCE4B2284600F00EF8204638BDDC
:401080000230800803D000BF01380046FCD17047EFF3108072B6704780F31088704700BF80F0004002E000BF81F0004142001FBF5FEA410392EA030F7FEA226C7FEA236CE2
:4010C0006AD04FEA1262D2EB1363C1BFD218414048404140B8BF5B42192B88BF704710F0004F40F4000020F07F4018BF404211F0004F41F4000121F07F4118BF494292EAAC
:40110000030F3FD0A2F1010241FA03FC10EB0C00C3F1200301FA03F100F0004302D5494260EB4000B0F5000F13D3B0F1807F06D340084FEA310102F10102FE2A51D2B1F128
:40114000004F40EBC25008BF20F0010040EA03007047490040EB000010F4000FA2F10102EDD1B0FA80FCACF1080CB2EB0C0200FA0CF0AABF00EBC25052421843BCBFD040F4
:401180001843704792F0000F81F4000106BF80F400000132013BB5E74FEA41037FEA226C18BF7FEA236C21D092EA030F04D092F0000F08BF0846704790EA010F1CBF00205A
:4011C000704712F07F4F04D1400028BF40F00040704712F100723CBF00F50000704700F0004343F0FE4040F4000070477FEA226216BF08467FEA23630146420206BF5FEA02
:40120000412390EA010F40F4800070474FF0000304E000BF10F0004348BF40425FEA000C08BF704743F0964301464FF000001CE050EA010208BF70474FF000030AE000BF9D
:4012400050EA010208BF704711F0004302D5404261EB41015FEA010C02BF84460146002043F0B64308BFA3F18053A3F50003BCFA8CF2083AA3EBC25310DB01FA02FC6344A7
:4012800000FA02FCC2F12002BCF1004F20FA02F243EB020008BF20F00100704702F1200201FA02FCC2F1200250EA4C0021FA02F243EB020008BF20EADC7070474FF0FF0CD2
:4012C0001CEAD0521EBF1CEAD15392EA0C0F93EA0C0F6FD01A4480EA010C400218BF5FEA41211ED04FF0006343EA501043EA5111A0FB01310CF00040B1F5000F3EBF490008
:4013000041EAD3715B0040EA010062F17F02FD2A1DD8B3F1004F40EBC25008BF20F00100704790F0000F0CF0004C08BF49024CEA502040EA51207F3AC2BFD2F1FF0340EAB6
:40134000C250704740F400004FF00003013A5DDC12F1190FDCBF00F000407047C2F10002410021FA02F1C2F1200200FA02FC5FEA310040F1000053EA4C0308BF20EADC70E8
:40138000704792F0000F00F0004C02BF400010F4000F013AF9D040EA0C0093F0000F01F0004C02BF490011F4000F013BF9D041EA0C018FE70CEAD15392EA0C0F18BF93EAB6
:4013C0000C0F0AD030F0004C18BF31F0004CD8D180EA010000F00040704790F0000F17BF90F0004F084691F0000F91F0004F14D092EA0C0F01D142020FD193EA0C0F03D18E
:401400004B0218BF084608D180EA010000F0004040F0FE4040F40000704740F0FE4040F4400070474FF0FF0C1CEAD0521EBF1CEAD15392EA0C0F93EA0C0F69D0A2EB030261
:4014400080EA010C49024FEA402037D04FF0805343EA111143EA10130CF000408B4238BF5B0042F17D024FF4000C8B4224BF5B1A40EA0C00B3EB510F24BFA3EB510340EAB5
:401480005C00B3EB910F24BFA3EB910340EA9C00B3EBD10F24BFA3EBD10340EADC001B0118BF5FEA1C1CE0D1FD2A3FF650AF8B4240EBC25008BF20F0010070470CF0004C9D
:4014C0004CEA50207F32C2BFD2F1FF0340EAC250704740F400004FF00003013A37E792F0000F00F0004C02BF400010F4000F013AF9D040EA0C0093F0000F01F0004C02BFE2
:40150000490011F4000F013BF9D041EA0C0195E70CEAD15392EA0C0F08D142027FF47DAF93EA0C0F7FF470AF084676E793EA0C0F04D14B023FF44CAF08466EE730F0004C5C
:4015400018BF31F0004CCAD130F000427FF45CAF31F000437FF43CAF5FE700BF42000ED2B2F1FE4F0BD34FF09E03B3EB126209D44FEA002343F0004323FA02F070474FF04F
:401580000000704712F1610F01D1420202D14FF0FF3070474FF00000704700BF014B1868704700BF4081FF1F0E4B70B51E460E4C0025E41AA410A54204D056F825309847CD
:4015C0000135F8E701F016F8084B094C1E46E41AA4100025A54204D056F8253098470135F8E770BD0026000000260000002600000826000010B5431E0A44914204D011F8B1
:40160000014B03F8014FF8E710BD03460244934202D003F8011BFAE7704700000EB400B54FF402719CB0ADF814106FF00041049107914FF6FF711DAB02900690084853F833
:40164000042BADF81610006802A9019300F064F8029B00221A701CB05DF804EB03B070474081FF1F2DE9F0478E6882469E420C46914698463ED88A8912F4906F3AD0256824
:40168000096902236F1A656905EB450595FBF3F57B1C43449D4238BF1D4653050FD5294600F040FB064698B13A462169FFF7A2FFA38923F4906343F08003A38113E02A46B4
:4016C00000F08EFB064670B92169504600F0DEFA0C23CAF80030A3894FF0FF3043F04003A381BDE8F08726613E44266046466561ED1BA560464528BF464649463246206828
:4017000000F0A8FAA36800209B1BA36023681E442660BDE8F08700002DE9F04F9DB003938B8980461C060D4616460DD50B695BB9402100F0F7FA2860286118B90C23C8F844
:401740000030CDE040236B610023099320238DF82930DFF89CB130238DF82A3037463C4614F8013B1BB9B7EB060910D003E0252BF9D02746F3E74B46324629464046FFF744
:4017800071FF013000F0A780099B4B4409933B78002B00F0A08000234FF0FF3204930793059206938DF853301A930126052221784E4800F041FA671C049B38B14B4A3C4641
:4017C000801A06FA00F018430490EFE7D90644BF20228DF853201A0744BF2B228DF8532022782A2A03D0079A00210A200BE0039A111D12680391002A10DA524243F00200C7
:40180000079204900BE027463B780134303B092B03D800FB02320121F5E701B107923B782E2B1ED17B782A2B0AD1039B02371A1D1B680392002BB8BF4FF0FF33059310E06A
:40184000002319460593781C0A2407463A780130303A092A03D804FB01210123F5E703B1059103223978224800F0E6F940B14023CBEB000003FA00F0049B013718430490AD
:40188000397806221B487E1C8DF8281000F0D4F988B1194B33B9039B073323F007030833039314E003AB00932A46144B04A94046AFF3008007E003AB00932A460F4B04A991
:4018C000404600F093F8B0F1FF3F824603D0099B5344099342E7AB895B0601D4099801E04FF0FF301DB0BDE8F08F00BFC0250000C6250000CA250000000000006516000029
:401900002DE9F04791461F460A698B6806469342B8BF1346C9F8003091F843200C46DDF8208012B10133C9F800302368990642BFD9F800300233C9F80030256815F006054C
:4019400010D104F1190A07E00123524639463046C04701301AD00135E368D9F800209B1A9D42F1DB94F843302268003318BF012392060FD5E118302081F843005A1C94F8A8
:4019800045102244023382F8431003E04FF0FF30BDE8F08704F1430239463046C0470130F4D02268D9F80050E36802F00602042A08BF5D1B2269A3680CBF25EAE575002586
:4019C0009342C4BF9B1AED184FF000091A344D4509D00123224639463046C0470130D5D009F10109F3E70020BDE8F0872DE9F04317460A7E85B06E2A984606460C460C9B3E
:401A000001F1430E00F0AE8011D8632A22D009D8002A00F0BB80582A40F0CA8081F84520834955E0642A1ED0692A1CD0C0E0732A00F0B08009D86F2A2ED0702A40F0B880FA
:401A40000A6842F020020A603EE0752A24D0782A3AD0ADE01A6801F14205111D1960136884F84230A8E021681A6811F0800F02D0111D196008E011F0400F02F1040119603C
:401A800002D0B2F9003000E01368002B3CDA2D225B4284F8432037E021681A6811F0800F02D0111D196007E011F0400F02F10401196001D0138800E01368227E5C496F2A9A
:401AC00014BF0A2208221BE078225A4984F845202268186812F0800F00F104051D6003D1550601D5038800E00368D00744BF42F0200222601BB9226822F0200222601022C1
:401B0000002084F8430001E049490A226568002DA56008DB206820F0040020602BB9002D7DD175460CE0002B79D07546B3FBF2F002FB1033CB5C05F8013D03460028F5D18B
:401B4000082A0BD12368DA0708D5236962689A42DEBF302305F8013C05F1FF35C5EB0E0323612EE008681A6810F0800F496903D0101D1860136808E010F0400F02F10400E1
:401B80001860136801D0198000E0196000232361754616E01A68111D1960156800216268284600F049F808B1401B6060636804E004F1420584F8422001232361002384F803
:401BC0004330CDF800803B4603AA21463046FFF797FE013002D14FF0FF3026E023692A4639463046C0470130F5D023689B0710D5002504F1190907E001234A463946304653
:401C0000C0470130E7D00135E368039A9B1A9D42F2DBE068039B9842B8BF184605E00B7804F1420584F842308AE705B0BDE8F083D1250000E225000010B5C9B2024490427C
:401C4000034605D01C7801308C42F8D1184610BD002010BD884210B501EB020301D8421E0BE09842FBD28118D21AD34204D013F8014D01F8014DF8E710BD994204D011F815
:401C8000014B02F8014FF8E710BD000038B50546002944D051F8043C0C1F002BB8BFE41800F0D4F81E4A1368114613B96360146030E0A3420DD92268A018834201BF186800
:401CC0005B681218226063600C6023E0A24203D813465A68002AF9D118681918A1420BD12168014458188242196013D110685268014419605A600DE002D90C232B6009E091
:401D000021686018824201BF106852680918216062605C602846BDE8384000F098B838BD8C81FF1F70B5CD1C25F0030508350C2D38BF0C25002D064601DBA94202D90C23CE
:401D4000336046E000F082F8234B1C681A462146A1B10B685B1B0ED40B2B03D90B60CC18CD501EE08C420BBF63684B681360636018BF0C4615E00C464968E9E7174C2368C3
:401D80001BB9304600F052F820602946304600F04DF8431C18D0C41C24F00304A0420DD12560304600F053F804F10B00231D20F00700C31A0ED05A42E25070BD211A30460F
:401DC00000F034F80130EBD10C233360304600F03EF8002070BD00BF8C81FF1F8881FF1FF8B5074615460E4621B91146BDE8F840FFF798BF1AB9FFF749FF2846F8BD00F0F6
:401E000027F885420ED929463846FFF78BFF044650B131462A46FFF7EDFB31463846FFF735FF01E03046F8BD2046F8BD38B5064C0023054608462360FEF7BAFB431C02D1B8
:401E4000236803B12B6038BDA886FF1F7047704751F8040C0028BEBF091851F8043CC01804387047002700001100000000000000466C6173682077726974696E6720616C3F
:401E8000726561647920696E207573650D0A00436F6D6D616E64206E6F742061636365707465640D0A004661696C7572650D0A0057726974696E673A203230250D0A0057E0
:401EC000726974696E673A203430250D0A0057726974696E673A203630250D0A0057726974696E673A203830250D0A0057726974696E673A20313030250D0A000D0A2D2D1D
:401F00002D2D2D2D2D2D2D2D2D2D2D2D2D2D2D2D2D2D262626262620426F6F746C6F616465722053746172742026262626262D2D2D2D2D2D2D2D2D2D2D2D2D2D2D2D2D2D58
:401F40002D2D0D0A004170706C69636174696F6E20435243206F6E2045323A2030782530386C580D0A426F6F746C6F61646572205374617475733A3078253032580D0A41BE
:401F800070702053697A653A20256C640D0A666972737420526F7749443A20253034580D0A000D0A2D2D2D2D2D2D2D2D2D2D2D2D2D2D2D2D2D2D2D2D262626262620537481
:401FC0006172742057726974696E67204E65772041707020746F20496E7465726E616C20466C6173682026262626262D2D2D2D2D2D2D2D2D2D2D2D2D2D2D2D2D2D2D2D0D2E
:402000000A000D0A6E65774352433A2030782530386C58202C204170704352433A2030782530386C580D0A004352437320617265204F4B210D0A000D0A2D2D2D2D2D2D2D54
:402040002D2D2D2D2D2D2D2D2D2D2D2D2D262626262620426F6F746C6F616465722050726F6772616D6D6564205375636365737366756C6C792026262626262D2D2D2D2D1C
:402080002D2D2D2D2D2D2D2D2D2D2D2D2D2D2D0D0A000D0A2D2D2D2D2D2D2D2D2D2D2D2D2D2D2D2D2D2D2D2D262626262620426F6F746C6F616465722050726F6772616DEA
:4020C0006D6564204661696C757265202D2D3E20726F77206E6F742077726974652026262626262D2D2D2D2D2D2D2D2D2D2D2D2D2D2D2D2D2D2D2D0D0A000D0A2D2D2D2D92
:402100002D2D2D2D2D2D2D2D2D2D2D2D2D2D2D2D262626262620426F6F746C6F616465722050726F6772616D6D6564204661696C757265202D2D3E20437953657454656DEA
:4021400070282920213D2043595245545F535543434553532026262626262D2D2D2D2D2D2D2D2D2D2D2D2D2D2D2D2D2D2D2D0D0A000D0A2D2D2D2D2D2D2D2D2D2D2D2D2D28
:402180002D2D2D2D2D2D2D262626262620426F6F746C6F616465722050726F6772616D6D6564204661696C757265202D2D3E20556E6B6E6F776E2026262626262D2D2D2D8B
:4021C0002D2D2D2D2D2D2D2D2D2D2D2D2D2D2D2D0D0A000D0A2D2D2D2D2D2D2D2D2D2D2D2D2D2D2D2D2D2D2D2D2626262626204E6F204E65772050726F6772616D20262614
:402200002626262D2D2D2D2D2D2D2D2D2D2D2D2D2D2D2D2D2D2D2D0D0A000D0A2D2D2D2D2D2D2D2D2D2D2D2D2D2D2D2D2D2D2D2D262626262620426F6F746C6F616465720D
:402240002046696E6973682026262626262D2D2D2D2D2D2D2D2D2D2D2D2D2D2D2D2D2D2D2D0D0A00005100401000205100405000F05100401000000001400010001401408B
:40228000800200170140000500400140000A004C014000020050014020000110000073E70C181F0860001C3C63C2020000047FFF000003C0000000442300080000E304182C
:4022C00000000C1C00E100800000101F2C000F3840C080002802000001002403060001E00C0006FFFFFF62A0F0410C00000000000213040404040000000100000000000086
:402300004002001030100010101200000000000000000000000000000000000001520040036500406A140140561501401616014037170140034001400241014002420140AA
:4023400002430140054801400A49014002500140015101406401840F853887720053020C045305080604073409180C0A0E540F01142015181B012208248025102615270C40
:4023800028032A142B02300F3120322033183410350136C0370638803A023E143F504013410245EB46E0470C481B49FF4AFF4BFF4EF04F44500C54015604580459045A0468
:4023C0005B045F0166C06A406B02801082AC830884148A038B138CDC8E229131930696209C109D2C9E409F03A009A2D0A30CA531A70EA80CAA71B21FB4E0B530B70FB920AA
:40240000BA20BB80BF10C003C540C9FFCA07CBFFCC40CD20CEF0CF05D008D418D604D804D904DA04DB04DF01E040E1A8E240E320010203210410050A07010B200F2110285B
:4024400011011320141015091610171019261B801C101F2020012114220126802709281029102D012FA031203204340235023680388039103B083F214002422043304708D2
:4024800049094F0150085310542056205710588059055B205F02620266826704808081208202840185508680870489408B049080911092089411960299109B029D409E10E4
:4024C000A160A401A602B001B210C0FDC2A4C45ECAC6CC96CEAED04ED68FD8B103010408060208100C040E0218021A0C2301240F280F2C013001340E361037013A083E4060
:402500003F40580459045F0100860308041005400610088109080A040E0410A81594180419011B881D181E441F402088212023422540288129042B082F8031583201382496
:402540003A023B403F0140854108424048044B015040590169946A0870B87104720286028B40C0EFC24FC4EECA8FCC0FCE8FD00FD204D601E68031103720CC309D109F208A
:402580009D109F209D109F2087208B109D109F20E240128073108110868093109D10C410DC80E410E62010011A01000F02000102020002000000000B0B00000000004300B0
:4025C000232D302B2000686C4C00656667454647003031323334353637383941424344454600303132333435363738396162636465660000F8B500BFF8BC08BC9E46704769
:402600005100000031060000F8B500BFF8BC08BC9E4670472D00000028260000C880FF1F800000006805000000000000B086FF1F0000E02EC05D00001800000000366E0189
:402640000000000000000000000000000000000000000000000000000000000000000000BE2500000000000000000000000000000000000000000000000000000000000077
:402680000000000000000000000000000000000000000000000000000000000000000000E080FF1F000000000000000000000000000000000000000000000000000000009C
:4026C00000000000000000000000000000000000000000000000000000000000000000000000000000000000000000000000000000000000000000000000000000000000DA
:40270000A8E1FF1F11270000054100000541000008B501F0FFFC00BF10B5054C237833B9044B13B10448AFF300800123237010BD6081FF1F00000000146F0000084B10B58A
:402740001BB108490848AFF300800848036803B910BD074B002BFBD0BDE81040184700BF000000006481FF1F146F0000C880FF1F0000000010B5054C204604F033F802F0B2
:40278000D7F92046BDE8104004F004B8C8A4FF1F70B5154CC2B0154804F024F894E80A000131CE18124D0A4621600096114902A8A66002F02BFC284601F06AFD0E4801F0BB
:4027C00067FD02F0B5F902A801F062FD284601F05FFD02F0ADF9094A002323736373A373137042B070BD00BF7C81FF1FF482FF1F686F0000186F0000886F000044A4FF1F25
:4028000070B5154CC2B0154803F0ECFF6168226801318E18124D0B4661600096114902A8A66002F0F3FB284601F032FD0E4801F02FFD02F07DF902A801F02AFD284601F0BF
:4028400027FD02F075F9094A0023E37323746374137042B070BD00BF7C81FF1F1CA4FF1F686F0000186F0000A86F00000CA5FF1F10B50A4C03222146094800F0B5FF40B967
:40288000084801F005FD204601F002FD064801F0FFFC002323706370A37010BDE0A4FF1F78C8FF1FC86F00000073000038B50B4C0B4D227B29460B4800F096FF40B90A4867
:4028C00001F0E6FC284601F0E3FC084801F0E0FC0023237363732B70A37338BD7C81FF1F44A4FF1F78C8FF1F0C7000000073000010B50A4C03222146094800F075FF40B9B2
:40290000084801F0C5FC204601F0C2FC064801F0BFFC002323706370A37010BDDCA4FF1F78C8FF1F507000000073000038B50B4C0B4DE27B29460B4800F056FF40B90A48A3
:4029400001F0A6FC284601F0A3FC084801F0A0FC0023E37323742B70637438BD7C81FF1F0CA5FF1F78C8FF1F947000000073000010B51148C0B003F035FF104B1B78B3B9A4
:402980000F4A012311780F4C994223700FD01846137000F0EDFE22780B49684602F036FB02F0C6F8684601F073FC02F0C1F8024803F0F0FE40B010BDE082FF1F0282FF1F7B
:4029C000EC81FF1FED81FF1FD870000070B54FF0800080F3118800BF00BF154C154D237815480133DBB2237063780133DBB2637003F0D0FE6E6901F08BFD63786A69013B91
:402A0000DBB2637023780D490132012B88556A6108D02378013BDBB223704FF0000080F3118870BD6368002BF3D003F010FDF0E75082FF1F7C81FF1F08A3FF1FA4A5FF1F2C
:402A4000F8B54FF0800080F3118800BF00BF184C184D2378184F0133DBB2237063780133DBB2637001F0BCFE144803F093FE2E8B01F0AEFEC04363782A8B013BDBB26370C2
:402A8000217800F00300531C0129B8552B8308D02378013BDBB223704FF0000080F31188F8BD6368002BF3D003F0D1FCF0E700BF5082FF1F7C81FF1F1CA3FF1FF8A4FF1FB6
:402AC000F8B54FF0800080F3118800BF00BF184C184D2378184F0133DBB2237063780133DBB2637001F08CFE144803F053FE6E8B01F07EFEC04363786A8B013BDBB2637062
:402B0000217800F00300531C0129B8556B8308D02378013BDBB223704FF0000080F31188F8BD6368002BF3D003F091FCF0E700BF5082FF1F7C81FF1F18AAFF1F90A5FF1F99
:402B400030B51D4C1D4D6269A1B0AB1813F8013C6BB929461A4800F047FE18B362690021164802F04AFA0023636121B030BDE369144901331A466846E36102F047FA1248A0
:402B800001F086FB114801F083FB684601F080FB284601F07DFB0E4801F07AFB0A4801F077FBDBE70B4801F073FB284601F070FB074801F06DFBD1E77C81FF1FA4A5FF1F59
:402BC00064BFFF1F40710000686F00005C7100000073000004710000F8B5244C0646637B0D4633B3224803F0D5FD002E3CD0227B2049531C3020DBB2885423732DB11D4966
:402C000031205A1CC854D3B223731B4A127802329A4226DA174D591C002601221448EE542173A27303F0DEFDBDE8F840134803F0B1BD01230E48637303F0ACFD0D4A50270D
:402C400031205721032317705070917023734EB130210423D1702373052115B131202173D054F8BD0421F8E7237BC7E77C81FF1FF482FF1F44A4FF1FCC80FF1FF0A9FF1F69
:402C8000F8B5244C0646237C0D4633B3224803F081FD002E3CD0E27B2049531C3020DBB28854E3732DB11D4931205A1CC854D3B2E3731B4A527802329A4226DA174D591C60
:402CC000002601221448EE54E173627403F08AFDBDE8F840134803F05DBD01230E48237403F058FD0D4A5027322057210323177050709170E3734EB130210423D170E37341
:402D0000052115B13120E173D054F8BD0421F8E7E37BC7E77C81FF1F1CA4FF1F0CA5FF1FCC80FF1FE4A4FF1F30B50C229BB0B449044602F02DF940B9B24B93F8211083F857
:402D40002000002937D11BB030BD0B22AE49204602F01EF998B9AB4B012293F8231083F822209142EFD0104683F8232001F05CFDA64801F08DFA01F0DBFE1BB030BD0C22CC
:402D8000A349204602F004F900B30B22A149204602F0FEF858BB9B4B012293F8251083F824209142CFD09C4883F8252001F070FA01F0BEFEC7E783F8210001F029FD9748C1
:402DC00001F066FA01F0B4FE1BB030BD8D4B93F8231083F822000029B5D083F8230001F023FD8F4801F054FA01F0A2FEABE70D228C49204602F0CCF80346A8B10B228A499C
:402E0000204602F0C5F8F0B97E4B012293F8271083F82620914296D0844883F8272001F037FA01F085FE8EE7764A92F8251082F82400002987D07E4882F8253001F028FA4E
:402E400001F076FE7FE70D227A49204602F0A0F8034678B96B4A92F8271082F8260000293FF471AF744882F8273001F011FA01F05FFE68E70D227149204602F089F8002889
:402E800034D00D226E49204602F082F800284CD007226C49204602F07BF8002864D008226949204602F074F8002800F09C800A226649204602F06CF8002800F099800A2245
:402EC0006349204602F064F800287BD001F05EFB01F0D6FB5F4801F0DBF9204601F0D8F95D4801F0D5F901F023FE2CE75349204600F05CFC044601F01BFE204602F018F8D0
:402F0000564C207001F014FE2378A2789A423FF41AAF1A46524901A8A37002F077F801A801F0B6F901F004FE0DE74549204600F03DFC044601F0FCFD204601F0F9FF474C54
:402F4000607001F0F5FD6378E2789A423FF4FBAE1A46444901A8E37002F058F801A801F097F901F0E5FDEEE63F4803F013FC3549204600F01BFC044601F0DAFD0A220021E2
:402F8000204602F07FF9044601F0D2FD374AE3B21178374D99422B703FF4D5AE062B137002D901232B701370287800F0E1FB2A78304901A802F02AF801A801F069F901F0E6
:402FC000B7FDC0E62C4801F063F905232849274A18460B70137000F0CBFB204600F010FD01F0A6FDAFE601F0A3FD01F04DFDAAE60D21224801F0ECFA01F09AFDA3E600BF73
:40300000787100007C81FF1F98710000A4710000B4710000D4710000E071000088710000C4710000F0710000107200001C720000007200002C7200003C7200004C72000098
:403040007072000094720000B0720000BC720000D87200000473000000730000CC80FF1F5C72000080720000E082FF1FEC81FF1FED81FF1F9C720000E4720000C872000085
:403080002DE9F843184E338B33B33746DFF86090002407E0022801D1B07B08B30134E4B29C4219D219F804000128F3D1B17B0029F4D18846054696F82420002AEED10B48AD
:4030C00003F066FB18B941462846FFF785FD3B8B0134E4B29C42E5D300233383BDE8F88305464FF00108E6E77C81FF1FF0A9FF1F1CA3FF1F2DE9F843184E738B33B33746F7
:40310000DFF86090002407E0022801D1707C08B30134E4B29C4219D219F804000128F3D1717C0029F4D18846054696F82620002AEED10B4803F02CFB18B941462846FFF7AA
:403140009FFD7B8B0134E4B29C42E5D300237383BDE8F88305464FF00108E6E77C81FF1FE4A4FF1F18AAFF1F70B5384803F03AFB01F05AFE044601F05FFE0546E4002D0107
:4031800005F0100504F008042C44314D01F0D0FC64F0180401F0CCFC2B79E4B2A34210D022462C4905F108002C7101F02FFF0E2205F10801284800F017FB00283BD001F0D6
:4031C000B7FC01F095FE064601F09AFE6B7D0446B3421F4A01D05675EEB1AB7D1C4AA34201D0947524B1BDE87040184803F0D2BA1A4803F0CDFA0028F5D1194B4921322276
:4032000016489C7019705A7003F0C4FABDE870400E4803F0BFBA134803F0BAFA03460028DBD1114A492631210E4893701670517003F0B0FAD1E70D4801F02AF805F1080073
:4032400001F026F80A4801F023F8B8E7A4A9FF1FCC80FF1F1C73000078C8FF1F04AAFF1FDCA4FF1F18ABFF1FE0A4FF1F2C7300000073000008B5074801F0AAFD064B042266
:403280001A60064801F0BAFDBDE80840044801F0D7BA00BFCD29000000E100E0412A0000C12A00001548F8B50024154B4FF48075144F154E21462A46047014481C703C70AC
:4032C000347001F09AFE01F033FC2A462146104801F093FE01F02CFC214641F228420D4801F08BFE01F024FC21464FF446720A4801F083FEBDE8F84001F01ABC44A4FF1F03
:40330000DCA4FF1FE0A4FF1F0CA5FF1F1CA3FF1F18AAFF1F2CABFF1F84BFFF1F08B50A222A492B4803F029FA01F002FC4FF47A722849294803F021FA01F0FAFB962227496A
:40334000274803F01AFA01F0F3FB96222549264803F013FA01F0ECFB0A222449244803F00CFA01F0E5FB0A222249234803F005FA01F0DEFB0A222149214803F0FEF901F025
:40338000D7FB0A221F49204803F0F7F901F0D0FB64221E491E4803F0F0F901F0C9FB32221C491D4803F0E9F901F0C2FBC8221B491B4803F0E2F901F0BBFBC82219491A4847
:4033C00003F0DBF9BDE8084001F0B2BB412B000008A3FF1F71290000E082FF1F91270000F482FF1F012800001CA4FF1F7128000018ABFF1FAD280000F0A9FF1FF1280000FA
:4034000004AAFF1F2D290000E4A4FF1F75270000C8A4FF1F69310000A4A9FF1F81300000F8A4FF1FF530000090A5FF1F70B5394800F0EAF9044658B925E0364803F09EFAD4
:403440000A2003F0F1F8334800F0DEF90446D0B101F06EFB204601F00EFE411C89B2204601F0B6F80A222C49204601F091FD0028E3D02A4800F00CFF204600F009FF284843
:4034800000F006FFD9E7274800F0BEF9044600283ED0254D254E1AE096F8212086F820309A4209D0184686F8213001F0B1F9204800F0EEFE01F03CFB1A4803F05FFA0A2084
:4034C00003F0B2F8174800F09FF90446F8B101F02FFB2B780B22012B164909D0204601F057FD01230028D7D02046FFF71DFCE3E70A221149204601F04BFD20B904F10A002C
:4035000000F02AFBD8E70D4800F0C2FED4E770BD70BD00BF78C8FF1FB4730000C07300000073000064BFFF1F0282FF1F7C81FF1FA4730000987300005C73000068730000E9
:4035400008B5FFF773FF01F0F3FA0A2003F06CF8F7E700BF70B584B062B60024274E284D03F082FC00F0BCF800F060F8204634702C7000F0FDF8FFF77DFEFFF7CFFEFFF799
:4035800091FE204800F084FE00F060F91E4800F07FFE1E4B02214FF400520291019200934FF4C8721A4B1B491B4803F001F841F228421A491A4803F09BF94FF446721949D1
:4035C000194803F095F90123184633702B7000F0CFF82146032001F08BFA01F0A9FAFFF7C9F801F0A5FAFFF7BFFD00F0CFFF01F047F803F063FC204604B070BDED81FF1FD2
:40360000EC81FF1FDC730000307400000883FF1F4135000098740000B8A9FF1F2CABFF1F64BFFF1F84BFFF1F78C8FF1F08B500F0CFFD00F00DFFBDE8084001F003BC00BF9C
:4036400002F026BF02F038BF094A0346106858B1084903448B4201D813607047064B0C221A604FF0FF307047044908461160EFE7E481FF1FA8DDFF1FA4D9FF1FA8D9FF1FA5
:40368000014B9868704700BF10E000E0024B586800F08060704700BF00ED00E010B50F4C23780133DBB2237002F0EEFF4FF0800080F3118800BF00BF2378012B08D02378E7
:4036C000013BDBB223704FF0000080F3118810BD6368002BF3D002F0BAFEF0E75082FF1FF0B587B04FF0800080F3118800BF00BF184E194973780E200133DBB2737001F091
:403700001DFA16490F2001F019FA4CF24F31144B144AE024144D5960072082F82340C021002701AC9F60186082F823100FCD0FC42B6801A8236002F0CFFE7378013BDBB289
:40374000737073781BB94FF0000080F3118807B0F0BD00BF5082FF1F516300009D36000010E000E000ED00E0A4740000FEE700BF062805D8DFE800F0040D101316070A004C
:40378000002001F075B8022001F072B8042001F06FB8062001F06CB8052001F069B8032001F066B8012001F063B800BF2DE9F041804608460F4601F05EFC90B106464446B0
:4037C00007E0284601F057FC2946421C204601F0F9FB2046394601F056FC044685190028EFD14046BDE8F08170B504460D46164601F09EF932462946204603F0F7F8B0FA05
:4038000080F0400970BD00BF00B583B002A9002341F8043D03F090F800B1019803B05DF804FB00BFA0F13003DBB2092B08D920F020004138052801D9FF207047362BFBD808
:40384000014AD05C704700BFBC740000084B1B78082B09D0202B04D003B17047054800F017BD054800F014BD044800F011BD00BFC080FF1F0475000084750000447500003E
:40388000F0B50C46B5B04A492046FFF78FFF20464849FFF78BFF20464749FFF787FF20464649FFF783FF2046454901F007FC1022002101F0E7FC434CC0B20128207004D03C
:4038C000414800F0E5FC35B0F0BD3D49002001F0F5FB01463D4801F0C6FB3949002001F0EDFB0A22002101F0CDFC394D34492880002001F0E3FB0A22002101F04BFD354EB2
:403900002F493060002001F0D9FB1022002101F041FD314F2378386023B12B8813B1336803B120B92D4800F0B3FC35B0F0BD2C4B00221A7001F0FCF822782A4902A801F09C
:4039400065FB02A801F097FB02AB2049184401F081FB0346244C02A82188A27819809A7000F096FC2B8839683268019100921F491A4602A801F04AFB02A800F089FC1C4853
:4039800000F086FC01F0D4F81A4800F081FC1A2218491948FFF728FF002894D1174800F077FC144800F074FC204600F071FC8AE7C4750000C8750000CC750000D0750000B3
:4039C000D47500000282FF1F0C77000054BFFF1FF281FF1FF881FF1FF481FF1FE07600000482FF1FD87500000073000004760000607600008C76000078C8FF1FA8760000E5
:403A000010B50A22A0B01549044601F0C1FAA0B902461349684601F0F9FA69461D22204601F0B6FA38B90F4B1B788BB904F11D010120FFF725FF20B010BD0B4800F028FCF9
:403A4000204600F025FC094800F022FC20B010BD074800F01DFC20B010BD00BFD8720000387700000282FF1F84770000007300005877000030B52F4DDBB0691D4FF48072A0
:403A80001AA82D4C01F093FA192002F0CDFD638883B100F019FF30B302206388264AB3F5807F05D1254900240B78548001330B705BB030BD7921687800F0D6F950B37A21ED
:403AC000A87800F0D1F908B3AB786A781C4943EA022201A801F09AFA01A800F0D9FB00F0F3FE0028D8D1154B1AAA1878618800F03DFF114A054688B1042817D009280CBF72
:403B00001048114800F0C4FB0120C6E70F4800F0BFFBD9E70E4800F0BBFBD0E753880A200133538002F080FD2846B6E7094800F0AFFBE9E798C8FF1F0482FF1FE680FF1FFC
:403B40002C7800006C78000084780000FC770000D47700004C7800002DE9F04F0446B3B064220021684601F048FAA2492046FFF71DFEA1492046FFF719FEA0492046FFF7B1
:403B800015FE9F492046FFF711FE9E492046FFF70DFE9D49204601F091FA0A22002101F071FB99490646002001F088FA1022002101F068FB94491FFA80F8002001F07EFA80
:403BC000054601F058FA10F001071DD1002800F0D68039463A46EB195C78EB5D023189B244EA03246240884292B20F46F3D890450DD1DFF84CA2B6B2BAF80030B34235D065
:403C0000824800F045FB0FE000229045F1D08049434619A801F0FAF919A800F039FB19A8B2B27C4901F0F2F97B4B7C491A886846013201F0EBF9684600F02AFB684601F0FC
:403C40001AFA6946421C7648FFF7CEFD10B133B0BDE8F08F734800F01BFB684600F018FB714800F015FB33B0BDE8F08FDFF8D89100232846A9F8043001F0FDF910F0010418
:403C80002CD105F1FF38694F694E02E001F0F3F90134844224D200F04BFF3B7818F8010F1B014FFA83FBFFF7BDFD32784BEA00000132D2B2C3B2022A3B7032702846E5D173
:403CC000B9F804205B494FF0000E8B540132A9F8042087F800E086F800E0D7E7564890E7FFF7C8FE024600284BD14B4C534D2388298801339BB28B42238044D0BAF80030D5
:403D00004F4E9942A3D001339BB21A4643496846338001F07BF9308802F072F82F88824638468B4602F06CF802460B465046594602F006FA434B002202F0D8F802F0E8FA27
:403D400099F80030C5B2AB423F4E0CD03B4622883E4919A8357001F059F919A800F098FA684600F095FAEB0754BF052306233849384A18460B701370FFF7FAFC5EE70246BC
:403D800043E735483DE7354B354D7021012022801A8000F069F82878712100F065F868787221304C00F060F8A878732100F05CF8E878742100F058F82078752100F054F8AA
:403DC0006078762100F050F8A078772100F04CF8E078782100F048F81321022000F044F84FF4FA7000F058FE00F0A2FE00F04CFE2DE700BFC4750000C8750000CC7500004E
:403E0000D075000090780000D4750000E0780000A8770000947800000082FF1FC478000078C8FF1FA876000000730000EF81FF1FEE81FF1F98C8FF1F00790000F281FF1FFB
:403E4000E480FF1F000059400482FF1F58790000ED81FF1FEC81FF1F2C790000FE81FF1FF481FF1FF881FF1F08B500F0F3FFB0FA80F0400908BD00BFF8B572B6834E844A35
:403E800035461378002443F00403137004EB4403AA8856F813000134002101F0AEF8072C05F10605F2D17B4E80227B497B4801F07EF8002506F1580E06F15C0756F8043FA8
:403EC00013F0FF0C23F0FF0414D00CF1FF3C5FFA8CFC0CEB050007EB400007EB45030330013313F8012C13F8021B83421155F8D1013565447645E1D1694A6A49137841F20E
:403F0000512743F0020313700B78A2F5863243F002030B70633A1378A1F5863143F04003137051390A78604C604B614D42F010020A7003CB2060616093E8070003C5DFF85C
:403F4000B8C103F1140E03F10C061E342A8003CECCF80000CCF804109EE8070003C4983D03F12001228007C903C5DFF890E103F12C06383434332A8003CECEF80000CEF883
:403F8000041093E8070003C44A4922800B784A4A43F008030B70494D61231370484C672348482B80484E1825DFF854C12570A2F5C06203804FF0060E4FF040200824522188
:403FC000424B8CF8005086F800E0047011701A783F49404BD2B24FF4E26486F8A123A0F822420F801C784FF4F07004F001041E4600F08EFF01E0032C0DD033784FF4F07042
:4040000003F0010343EA440400F082FF013D04F00304F0D1FEE7304A3049314D314E32484FF480770724178000231470482702240B70377013702B70047091F89C3300F521
:40404000F820033043F00303C1260124274A81F89C3385F8F7670470137801F5C351DBB2A0F5F420A0F29670093105F5C35503F007071F4A1B091F4C07700D350B70442662
:404080000FCA2E7007C42380F8BD00BF84790000E84600402C7A0000B079000000140140035001401350014002510040E47F0000C05100402243004000480040804000406C
:4040C0008240004084400040004300400F01004920420040254200400440004006400040094000400840004001400040CF010049A0430040B0430040125100405251004004
:404100008640004008B500F017FF03680C2B00D0FEE7FEE780B5134FF7B1134E002556F80C0C56F8084C56F8102C03463CB1043A52F8041F43F8041B191AA142F8D156F8BB
:40414000040C1A4620B142F8045BD11A8842FAD1013F06F11006E2D100F0F4FEFFF7FAF9FEE700BF01000000CC8100000E4B0F4A0F491A600B680F4A43F400730E480B606D
:404180000023032B94BF50F823100C490133302B42F8041FF5D10A4B0A4918780A4A0B4B08701A60FFF768BE0CED00E00004FA0514ED00E0FC7FFF1F002700000541000026
:4041C000BC760040C080FF1F0080FF1F08ED00E0F8B5234D2C780CBB2249204600F0BAFC2046072100F0C4FC1F4B20492022722008701A701E4901206C7000F0ABFC072173
:40420000012000F0B5FC1B4E1B481C4A06274724022101233770047011702B7000F080FE0546174C17492378174A43F0200323700B78012043F010030B70106014F8FD3CF9
:40424000124843F01003022104F8FD3C0160116000F01AFB2846BDE8F84000F065BE00BF1882FF1F414300008765004084650040E1430000276500403765004087640040CA
:40428000946500409765004000E100E080E200E02DE9F04F254D2B78002B3DD080460078002839D040F2FF37DFF88890DFF888C0DFF888B04FF0000E4FF0020A69892A89B3
:4042C0000C4692B2561E8B1A761ADB1BB6FA86F6B3FA83F376095B098A4288BF3346002BEDD18A421AD0B1F5806F28BF002409F804009CF800303ABF013189B201219B0799
:40430000698148BFCBF800A00EF1010E1FFA8EFE18F80E000028D1D1BDE8F08F9CF800305A07E0D4024B1870EEE700BF1882FF1F47640040A0CDFF1F6764004000E200E02D
:404340002DE9F0431E481F491F4F204A204E214CDFF888C0204D4FF0010E0378DBB213F01E0905D091F8008049EA080881F800809B0601D4BDE8F08397F8008013885FFABC
:4043800088F89BB206F8038023784FF000080BB18CF800E0138801339BB2138013889BB2B3F5806F28BFA2F80080B2F800802B881FFA88F89BB29845CFD184F800E0CCE72F
:4043C000676500401982FF1F446500401C82FF1FA0C9FF1F1E82FF1F1A82FF1F1F82FF1F164A1748138801889BB2994224D0F0B514490B7803F0040303F0FF06DBB917462E
:40440000114D124C02E00B785B0714D413889BB2B3F5806F28BF3E8013889BB2EB5CDBB223701388B0F800E001339BB2138013889BB29E45E7D1F0BD704700BF2082FF1F01
:404440002282FF1F67640040A0CDFF1F47640040F8B5234C25780DBB2249022000F07AFB0721022000F084FB1F4B20492022722008701A701E490320657000F06BFB072147
:40448000032000F075FB1B4E1B481C4A0627472502210123377005701170237000F040FD0546174C17492378174A43F0200323700B78042043F010030B70106094F804317E
:4044C000124843F01003082184F804310160116000F0EAF92846BDE8F84000F025BD00BF2682FF1FC14600008564004082640040614700002664004036640040866500402E
:40450000926400409564004000E100E080E200E010B4184B184A0421196051889388907989B210B99BB2994213D04B1C9BB2B3F5806F124828BF0023405C538093790E4C52
:40454000C0B20BB10023A3710D4B04221A6010BC70470C4B1B78DBB203F0200202F0FF00002AF1D0084A13F01E0F107818BF0020EAE700BF80E100E02682FF1FA0D1FF1FCC
:4045800000E100E0656400404564004010B500F0C7FC0B4B0B4C1A7842F001021A701A7802F0FE021A7000F0BFFC074B00220421064821605A809A809A71DA71016010BD39
:4045C0009564004080E100E02682FF1F00E100E02DE9F04F254C2378002B3ED000293CD040F2FF3601F1FF3C1FFA8CFCDFF88490DFF88480DFF884B08444471E4FF0080A67
:4046000017F8015F61892289084692B202F1FF3E8B1AC1EB0E0E9B1BBEFA8EFEB3FA83F34FEA5E1E5B098A4288BF7346002BEAD18A4214D0B1F5806F28BF002009F80050C2
:4046400098F800303ABF013189B201219B07618148BFCBF800A0BC45D2D1BDE8F08F98F800305A07E6D4024B1D70F4E72682FF1F46650040A0D5FF1F6665004000E200E09B
:4046800010B500F04DFC0A4B0A4C1A7842F001021A701A7802F0FE021A7000F045FC064A064808230021236051811181036010BD9665004080E100E02682FF1F00E100E0BD
:4046C0002DE9F0431E481F491F4F204A204E214CDFF888C0204D4FF0010E0378DBB213F01E0905D091F8008049EA080881F800809B0601D4BDE8F08397F8008013885FFA39
:4047000088F89BB206F8038023784FF000080BB18CF800E0138801339BB2138013889BB2B3F5806F28BFA2F80080B2F800802B881FFA88F89BB29845CFD184F800E0CCE7AB
:40474000656400402782FF1F456400402A82FF1FA0D1FF1F2C82FF1F2882FF1F2D82FF1F164A1748138801889BB2994224D0F0B514490B7803F0040303F0FF06DBB917465F
:40478000114D124C02E00B785B0714D413889BB2B3F5806F28BF3E8013889BB2EB5CDBB223701388B0F800E001339BB2138013889BB29E45E7D1F0BD704700BF2E82FF1F70
:4047C0003082FF1F66650040A0D5FF1F46650040024B1878C0F34100704700BF21510040024B1878C0F34100704700BF82450040024B1878C0F30110704700BF6151004010
:40480000024B1878C0F30110704700BF86450040044A8001137800F0400003F0BF0318431070704720510040044A00F00100137803F0FE0318431070704700BF50510040E4
:4048400070B4074B074E1D6807494FF48063C024064A3360A8660C7070BC1360704700BF08ED00E080E100E00AE400E000E100E0044A0001137800F0700003F08F0318434D
:4048800010707047005100400549064A0B7843F002030B70137843F002031370704700BFA2430040B24300400549064A0B7843F001030B70137843F001031370704700BFB8
:4048C000A2430040B243004038B500F05BF900F02FFA10B10424204638BD00F065FA072804462BD000F046FA002CF4D100F04AF900F01EFA0028EDD1012000F0FDF9072895
:4049000005D04FF0FF3400F035FA204638BD154C02E023789B07F4D40221134800F048F90228F6D10F4C2378990705D4012000F0D7F823789A07F9D50024E4E7094D2B788D
:404940009B0705D4012000F0CBF82B789807F9D5044B1A789507D6D51B789B08D3D100F009FAC3E722470040A0D9FF1FF0B53F2883B00AD8441F3A2C8CBF00240124B1F5D5
:40498000807F17D9012003B0F0BD412894BF00240124812928BF01241027002AF2D0002CF0D116460D46044600F0C2F928B1042003B0F0BD4FF48077EFE73B463246294643
:4049C000204600F04DF9072804D0019000F0D2F90198EDE7164E33789B0705D4012000F07FF833789807F9D5114E33789F071BD533789B0818D10F4A2946537820461278DB
:404A000000F056F90728E0D102E0012000F068F833789907F9D5064B1A78920704D51B789B0801D11846D0E74FF0FF30CDE700BF22470040A0D9FF1F38B500F071FA0F4AB7
:404A40000F4913780F4C43F0080313700B78C82543F008030B702570137B43F0100313730B7B02F5587243F010030B7313789B06FCD5BDE8384000F057BA00BFA043004017
:404A8000B043004001470040024A137843F0010313707047F6460040B0F5004F70B506461AD904460D4DA4F50044686800F030FAB4F5004FF7D8A6F50043013B23F4FF437A
:404AC00023F07F03A6F50046F61AA86800FB06F0BDE8704000F01CBA004DF6E7E880FF1F024B1B7800FB03F000F012BAE880FF1F0E4B00F003001A78490102F0FC021043E9
:404B000018701A7801F0600142F080021A701A7802F07F021A701A7802F09F02114319701A7842F010021A70704700BF83430040014B01221A70704784430040044B00F068
:404B40000F021B6853F8220043F82210704700BF08ED00E0054B00F01F001A6800F1100352F8230042F82310704700BF08ED00E000F01F0000F16040490100F56440C9B274
:404B80000170704708B500F0CBF90749074A0B7843F008030B70137843F008031370BDE8084000F0C1B900BFA0430040B04300402DE9F0410F4699B14E1EF6B20644451E20
:404BC000094CDFF8288002E00120FFF789FF2378DB07F9D598F8003005F8013FB542F6D13846BDE8F08100BF22470040204700403E28F0B408D81F2B0AD8174D2C78A607EC
:404C000009D40420F0BC70473F2801D00F2BF4D9F0BC01207047114CB6262670D4270126277026702D78AD0702D5F0BC092070475D1EC1F30026EDB2C9B22070267021704D
:404C4000257033B15119013A12F8013F8A422370FAD10720D6E700BF2247004020470040F0B4114C21788D071AD51049B627D52602250F700E700D702478A4070DD4087020
:404C800043B1581E80B21044013A12F8013F82420B70FAD10720F0BC70470920F0BC70470420F0BC704700BF2247004020470040F0B40F4D2C78A60716D50E4CB6262670C1
:404CC000D8270526277026702D78AD0709D40D0AC9B2207025702170227023700720F0BC70470920F0BC70470420F0BC704700BF22470040204700400B4A1378990711D5A8
:404D000030B40A4BB625E1240E211D701C7019701278920703D4187030BC07207047092030BC704704207047224700402047004038B500F0F5F80D4A137823B1042400F0AE
:404D4000F3F8204638BD0125094915700C682C40F5D00C6824F001040C6000BF00BF00BF1C46556000F0E0F8204638BD3482FF1F0400084010B500F0D3F8094B0022596804
:404D80001A70012908D1074C216841F00101216000BF00BF00BF5A60BDE8104000F0C4B83482FF1F04000840074B1B789B0708D5064BB620E0210D221870197007201A70E1
:404DC00070470420704700BF224700402047004070B4064B064E1D6806491023E024064A336028650C7070BC1360704708ED00E080E100E004E400E000E100E070B4064BE8
:404E0000064E1D6806494023C024064A3360A8650C7070BC1360704708ED00E080E100E006E400E000E100E0024B1878C0F30010704700BF21510040014B1878C00970477C
:404E40002151004008B5FFF73FFDBDE80840FFF7F3BD00BF10B50C4682B08DF80700FFF791FEB4F5006F02D3012002B010BDFFF75FFF10B1042002B010BD04F00F01012378
:404E80000DF107024020FFF7B3FE07284FEA141108D0012801D04FF0FF300090FFF76AFF0098E2E7104A13780F4C9B07FBD523789807F0D523789B08EDD10C4A4020537899
:404EC0001278FFF7F5FE0728E5D12378064A9907FBD513789B07DED513789B0814BF4FF0FF300020D9E700BF22470040A0D9FF1F024B1878C0F3C000704700BF2151004059
:404F0000024B1878C0F38010704700BF615100400230800803D000BF01380046FCD17047EFF3108072B6704780F31088704700BF0A22002100F0A6B9014B1868704700BFEA
:404F40005881FF1F0E4B70B51E460E4C0025E41AA410A54204D056F8253098470135F8E703F01AF9084B094C1E46E41AA4100025A54204D056F8253098470135F8E770BD6D
:404F8000A4810000A4810000A4810000AC81000010B501390244904207D010F8013B11F8014FA342F7D0181B10BD002010BD10B5431E0A44914204D011F8014B03F8014F76
:404FC000F8E710BD884210B501EB020301D8421E0BE09842FBD28118D21AD34204D013F8014D01F8014DF8E710BD994204D011F8014B02F8014FF8E710BD034602449342A2
:4050000002D003F8011BFAE7704700000EB400B54FF402719CB0ADF814106FF00041049107914FF6FF711DAB02900690084853F8042BADF81610006802A9019300F0C0FA55
:40504000029B00221A701CB05DF804EB03B070475881FF1F034611F8012B184603F8012B002AF8D17047034611F8012B03F8012B002AF9D17047034613F8012B002AFBD103
:40508000181A01387047F0B5037863B90B78002B18BF0020F0BD15F8012F62B114F8017F30469742F7D00346461C007810B14D1E5C1EF0E7F0BD1846F0BD0000174B2DE97E
:4050C000F0411D680646AC6D0F46FCB9502000F06BF9A8658460AB6D046044601C61DC60AB6D9C615C61AB6DDC629C62AB6D5C631C63AB6DDC639C63AB6D5C641C64AB6DBB
:40510000DC649C64AB6D1C77AB6D5C62AA6D39463046BDE8F041012300F002B85881FF1FF0B548B9106838B9F0BD17F8016B5EB1B542FAD12BB1204604460F4614F8015BB6
:40514000F3E714600370F0BD4DB915602846F0BD17F8016BB54207D0002EF9D11C4623460F4613F8015BF3E715B10021217000E02B461360F0BD00002DE9F0470F46804638
:405180003F48D0F800903D4615F8014B09EB0400407800F0080000F0FF0608B12F46F2E72D2C03D1BD1C7C78012603E02B2C04BF7C78BD1C13B1102B0AD15BE0302C57D10C
:4051C000287800F0DF0058284DD16C7810230235002E14BF4FF0004C6FF0004CBCFBF3FA0027384603FB1ACC09EB040E9EF801E01EF0040F01D0303C0BE01EF0030E1BD020
:40520000BEF1010F0CBF4FF0370E4FF0570ECEEB0404A34210DDB7F1FF3F0AD0504506D801D1644503DC03FB0040012701E04FF0FF3715F8014BD7E77B1C0CD1002E4FF0E8
:40524000220314BF4FF000406FF00040C8F800302AB9BDE8F08706B1404272B107B1691E1160BDE8F0873024002BB1D10823AFE70A23ADE7302CA3D0AAE7BDE8F08700BF43
:405280005C81FF1F13460A46014602480068FFF773BF00BF5881FF1F2DE9F0470E4680463B48D0F80090354615F8014B09EB0400407800F0080000F0FF0708B12E46F2E7B9
:4052C0002D2C03D1B51C7478012703E02B2C04BF7478B51C13B1102B0AD153E0302C4FD1287800F0DF00582845D16C78102302354FF0FF3CBCFBF3FC03FB0CFA00266FEA63
:405300000A0A304609EB040E9EF801E01EF0040F01D0303C0BE01EF0030E1AD0BEF1010F0CBF4FF0370E4FF0570ECEEB0404A3420FDD002E08DB604506D801D1544503DCF2
:4053400003FB0040012601E04FF0FF3615F8014BD8E7002E07DA2223C8F800304FF0FF302AB9BDE8F08707B1404272B106B1691E1160BDE8F0873024002BB9D10823B7E7B0
:405380000A23B5E7302CABD0B2E7BDE8F08700BF5C81FF1F13460A46014602480068FFF77BBF00BF5881FF1F024B0146186800F04FB800BF5881FF1F38B50546002944D020
:4053C00051F8043C0C1F002BB8BFE418FEF738F91E4A1368114613B96360146030E0A3420DD92268A018834201BF18685B681218226063600C6023E0A24203D813465A685B
:40540000002AF9D118681918A1420BD12168014458188242196013D110685268014419605A600DE002D90C232B6009E021686018824201BF106852680918216062605C60BD
:405440002846BDE83840FEF7FDB838BD4082FF1F70B5CD1C25F0030508350C2D38BF0C25002D064601DBA94202D90C23336046E0FEF7E6F8234B1C681A462146A1B10B6805
:405480005B1B0ED40B2B03D90B60CC18CD501EE08C420BBF63684B681360636018BF0C4615E00C464968E9E7174C23681BB9304600F016FB20602946304600F011FB431CE2
:4054C00018D0C41C24F00304A0420DD125603046FEF7B8F804F10B00231D20F00700C31A0ED05A42E25070BD211A304600F0F8FA0130EBD10C2333603046FEF7A3F80020F4
:4055000070BD00BF4082FF1F3C82FF1F2DE9F0478E6882469E420C46914698463ED88A8912F4906F3AD02568096902236F1A656905EB450595FBF3F57B1C43449D4238BF78
:405540001D4653050FD52946FFF782FF064698B13A462169FFF72BFDA38923F4906343F08003A38113E02A4600F0D8FA064670B921695046FFF720FF0C23CAF80030A389BD
:405580004FF0FF3043F04003A381BDE8F08726613E44266046466561ED1BA560464528BF4646494632462068FFF70CFDA36800209B1BA36023681E442660BDE8F0870000DA
:4055C0002DE9F04F9DB003938B8980461C060D4616460DD50B695BB94021FFF739FF2860286118B90C23C8F80030CDE040236B610023099320238DF82930DFF89CB130239B
:405600008DF82A3037463C4614F8013B1BB9B7EB060910D003E0252BF9D02746F3E74B46324629464046FFF771FF013000F0A780099B4B4409933B78002B00F0A080002310
:405640004FF0FF3204930793059206938DF853301A930126052221784E4800F051FA671C049B38B14B4A3C46801A06FA00F018430490EFE7D90644BF20228DF853201A073E
:4056800044BF2B228DF8532022782A2A03D0079A00210A200BE0039A111D12680391002A10DA524243F00200079204900BE027463B780134303B092B03D800FB023201211C
:4056C000F5E701B107923B782E2B1ED17B782A2B0AD1039B02371A1D1B680392002BB8BF4FF0FF33059310E0002319460593781C0A2407463A780130303A092A03D804FB21
:4057000001210123F5E703B1059103223978224800F0F6F940B14023CBEB000003FA00F0049B013718430490397806221B487E1C8DF8281000F0E4F988B1194B33B9039B9A
:40574000073323F007030833039314E003AB00932A46144B04A94046AFF3008007E003AB00932A460F4B04A9404600F093F8B0F1FF3F824603D0099B5344099342E7AB895A
:405780005B0601D4099801E04FF0FF301DB0BDE8F08F00BF2D8100003381000037810000000000000D5500002DE9F04791461F460A698B6806469342B8BF1346C9F80030C6
:4057C00091F843200C46DDF8208012B10133C9F800302368990642BFD9F800300233C9F80030256815F0060510D104F1190A07E00123524639463046C04701301AD0013536
:40580000E368D9F800209B1A9D42F1DB94F843302268003318BF012392060FD5E118302081F843005A1C94F845102244023382F8431003E04FF0FF30BDE8F08704F143022E
:4058400039463046C0470130F4D02268D9F80050E36802F00602042A08BF5D1B2269A3680CBF25EAE57500259342C4BF9B1AED184FF000091A344D4509D0012322463946CD
:405880003046C0470130D5D009F10109F3E70020BDE8F0872DE9F04317460A7E85B06E2A984606460C460C9B01F1430E00F0AE8011D8632A22D009D8002A00F0BB80582ADC
:4058C00040F0CA8081F84520834955E0642A1ED0692A1CD0C0E0732A00F0B08009D86F2A2ED0702A40F0B8800A6842F020020A603EE0752A24D0782A3AD0ADE01A6801F1EF
:405900004205111D1960136884F84230A8E021681A6811F0800F02D0111D196008E011F0400F02F10401196002D0B2F9003000E01368002B3CDA2D225B4284F8432037E0A0
:4059400021681A6811F0800F02D0111D196007E011F0400F02F10401196001D0138800E01368227E5C496F2A14BF0A2208221BE078225A4984F845202268186812F0800FE9
:4059800000F104051D6003D1550601D5038800E00368D00744BF42F0200222601BB9226822F0200222601022002084F8430001E049490A226568002DA56008DB206820F0A7
:4059C000040020602BB9002D7DD175460CE0002B79D07546B3FBF2F002FB1033CB5C05F8013D03460028F5D1082A0BD12368DA0708D5236962689A42DEBF302305F8013CD2
:405A000005F1FF35C5EB0E0323612EE008681A6810F0800F496903D0101D1860136808E010F0400F02F104001860136801D0198000E0196000232361754616E01A68111DD7
:405A40001960156800216268284600F059F808B1401B6060636804E004F1420584F8422001232361002384F84330CDF800803B4603AA21463046FFF797FE013002D14FF021
:405A8000FF3026E023692A4639463046C0470130F5D023689B0710D5002504F1190907E001234A4639463046C0470130E7D00135E368039A9B1A9D42F2DBE068039B9842B7
:405AC000B8BF184605E00B7804F1420584F842308AE705B0BDE8F0833E8100004F81000038B5064C0023054608462360FDF7ACFD431C02D1236803B12B6038BDA4D9FF1FCB
:405B000010B5C9B202449042034605D01C7801308C42F8D1184610BD002010BDF8B5074615460E4621B91146BDE8F840FFF790BC1AB9FFF741FC2846F8BD00F015F8854295
:405B40000ED929463846FFF783FC044650B131462A46FFF72CFA31463846FFF72DFC01E03046F8BD2046F8BD51F8040C0028BEBF091851F8043CC0180438704781F000412E
:405B800002E000BF83F0004330B54FEA41044FEA430594EA050F08BF90EA020F1FBF54EA000C55EA020C7FEA645C7FEA655C00F0E2804FEA5454D4EB5555B8BF6D420CDD53
:405BC0002C4480EA020281EA030382EA000083EA010180EA020281EA0303362D88BF30BD11F0004F4FEA01314FF4801C4CEA113102D0404261EB410113F0004F4FEA033350
:405C00004CEA133302D0524263EB430394EA050F00F0A780A4F10104D5F1200E0DDB02FA0EFC22FA05F2801841F1000103FA0EF2801843FA05F359410EE0A5F120050EF1DF
:405C4000200E012A03FA0EFC28BF4CF0020C43FA05F3C01851EBE37101F0004507D54FF0000EDCF1000C7EEB00006EEB0101B1F5801F1BD3B1F5001F0CD349085FEA300059
:405C80004FEA3C0C04F101044FEA445212F5800F80F09A80BCF1004F08BF5FEA500C50F1000041EB045141EA050130BD5FEA4C0C404141EB010111F4801FA4F10104E9D1EA
:405CC00091F0000F04BF01460020B1FA81F308BF2033A3F10B03B3F120020CDA0C3208DD02F1140CC2F10C0201FA0CF021FA02F10CE002F11402D8BFC2F1200C01FA02F10E
:405D000020FA0CFCDCBF41EA0C019040E41AA2BF01EB0451294330BD6FEA04041F3C1CDA0C340EDC04F11404C4F1200220FA04F001FA02F340EA030021FA04F345EA030175
:405D400030BDC4F10C04C4F1200220FA02F001FA04F340EA0300294630BD21FA04F0294630BD94F0000F83F4801306BF81F480110134013D4EE77FEA645C18BF7FEA655C6E
:405D800029D094EA050F08BF90EA020F05D054EA000C04BF1946104630BD91EA030F1EBF0021002030BD5FEA545C05D14000494128BF41F0004130BD14F580043CBF01F58D
:405DC000801130BD01F0004545F0FE4141F470014FF0000030BD7FEA645C1ABF194610467FEA655C1CBF0B46024650EA013406BF52EA033591EA030F41F4002130BD00BF1D
:405E000090F0000F04BF0021704730B54FF4806404F132044FF000054FF0000150E700BF90F0000F04BF0021704730B54FF4806404F1320410F0004548BF40424FF0000118
:405E40003EE700BF42004FEAE2014FEA31014FEA02701FBF12F07F4393F07F4F81F06051704792F0000F14BF93F07F4F704730B54FF4607401F0004521F0004120E700BF48
:405E800050EA010208BF704730B54FF000050AE050EA010208BF704730B511F0004502D5404261EB41014FF4806404F132045FEA915C3FF4DCAE4FF003025FEADC0C18BFB6
:405EC00003325FEADC0C18BF033202EBDC02C2F1200300FA03FC20FA02F001FA03FE40EA0E0021FA02F11444C1E600BF70B54FF0FF0C4CF4E06C1CEA11541DBF1CEA1355DA
:405F000094EA0C0F95EA0C0F00F0DEF82C4481EA030621EA4C5123EA4C5350EA013518BF52EA033541F4801143F4801338D0A0FB02CE4FF00005E1FB02E506F00042E0FB58
:405F400003E54FF00006E1FB03569CF0000F18BF4EF0010EA4F1FF04B6F5007F64F5407404D25FEA4E0E6D4146EB060642EAC62141EA55514FEAC52040EA5E504FEACE2EBC
:405F8000B4F1FD0C88BFBCF5E06F1ED8BEF1004F08BF5FEA500E50F1000041EB045170BD06F0004646EA010140EA020081EA0301B4EB5C04C2BFD4EB0C0541EA045170BD95
:405FC00041F480114FF0000E013C00F3AB8014F1360FDEBF002001F0004170BDC4F10004203C35DA0C341BDC04F11404C4F1200500FA05F320FA04F001FA05F240EA02006D
:4060000001F0004221F0004110EBD37021FA04F642EB06015EEA430E08BF20EAD37070BDC4F10C04C4F1200500FA04F320FA05F001FA04F240EA020001F0004110EBD3704E
:4060400041F100015EEA430E08BF20EAD37070BDC4F1200500FA05F24EEA020E20FA04F301FA05F243EA020321FA04F001F0004121FA04F220EA020000EBD3705EEA430EA6
:4060800008BF20EAD37070BD94F0000F0FD101F00046400041EB010111F4801F08BF013CF7D041EA060195F0000F18BF704703F00046520043EB030313F4801F08BF013D5A
:4060C000F7D043EA0603704794EA0C0F0CEA135518BF95EA0C0F0CD050EA410618BF52EA4306D1D181EA030101F000414FF0000070BD50EA410606BF1046194652EA43069C
:4061000019D094EA0C0F02D150EA013613D195EA0C0F05D152EA03361CBF104619460AD181EA030101F0004141F0FE4141F470014FF0000070BD41F0FE4141F4780170BDF7
:4061400070B54FF0FF0C4CF4E06C1CEA11541DBF1CEA135594EA0C0F95EA0C0F00F0A7F8A4EB050481EA030E52EA03354FEA013100F088804FEA03334FF0805545EA1313EA
:4061800043EA12634FEA022245EA111545EA10654FEA00260EF000419D4208BF964244F1FD0404F5407402D25B084FEA3202B61A65EB03055B084FEA32024FF480104FF436
:4061C000002CB6EB020E75EB030E22BFB61A754640EA0C005B084FEA3202B6EB020E75EB030E22BFB61A754640EA5C005B084FEA3202B6EB020E75EB030E22BFB61A75466D
:4062000040EA9C005B084FEA3202B6EB020E75EB030E22BFB61A754640EADC0055EA060E18D04FEA051545EA16754FEA06164FEAC30343EA52734FEAC2025FEA1C1CC0D197
:4062400011F4801F0BD141EA00014FF000004FF0004CB6E711F4801F04BF01430020B4F1FD0C88BFBCF5E06F3FF6AFAEB5EB030C04BFB6EB020C5FEA500C50F1000041EB86
:40628000045170BD0EF0004E4EEA113114EB5C04C2BFD4EB0C0541EA045170BD41F480114FF0000E013C90E645EA060E8DE60CEA135594EA0C0F08BF95EA0C0F3FF43BAF48
:4062C00094EA0C0F0AD150EA01347FF434AF95EA0C0F7FF425AF104619462CE795EA0C0F06D152EA03353FF4FDAE1046194622E750EA410618BF52EA43067FF4C5AE50EA3E
:4063000041047FF40DAF52EA43057FF4EBAE12E74A0011D212F5001211D20DD56FF47873B3EB62520ED44FEAC12343F0004343EA505323FA02F070474FF00000704750EA7A
:40634000013002D14FF0FF3070474FF00000704743488168002904BF08B007E0EFF30982A2F128024A60036882E8F84F3D498847816899B14A6892E8F84F036002F1280294
:4063800082F3098890693849884202DB374A904203DB4FF0000181F311887047344835490968401A80F308884FF08071C161324981617FF0060E704701BC3048804720466E
:4063C00002BC88475DF804EB2D4908472448C068002807D0EFF314816A46734680E8FE0F28488047284823490968401A20F0070080F308884FF000011948417081F31188C8
:4064000062B622494FF080520A60BFF34F8FBFF36F8FFEE71248C06890E8FE0F81F31488BFF36F8F95469E46704703680CB44FF00001417081F3118814494FF080520A60FB
:40644000BFF34F8FBFF36F8F0CBC036070470F494FF080520A60BFF34F8FBFF36F8F70475082FF1F0D6C00002B6400004C64000088E1FF1FB87400006D370000E16B0000E5
:40648000FD6B0000B16B0000A8E1FF1F04ED00E0074A1368591C11604BB9064BEFF3118119604FF0800080F3118800BF00BF70474882FF1F4482FF1F054A1368013B1360A7
:4064C0002BB9044B196881F3118800BF00BF70474882FF1F4482FF1F70B5204E054634460FCD0FC42B682360B0FBF1F3044673614FF47A713346E0B94FF47A72B2FBF1F211
:40650000B4FBF1F12046D96115499A61C0B9144AB2FBF1F2B4FBF1F11A62124A596210462146A1B9B0FBF2F0B4FBF2F29862DA6270BDB1FBF0F200FB121201461046DAE7A1
:40654000B1FBF0F200FB121201461046DEE7B2FBF1F501FB15250A462946E2E7B082FF1F40420F0000CA9A3B014BD86A704700BF5082FF1F10B50D4B044693F85A202AB9F8
:40658000FFF7F2FF001B0028FADB10BD4FF0800080F3118800BF00BF04229B6883F83420DC60BDE8104000F04FBA00BF5082FF1F2DE9F0470446DDE90858174689463822B2
:4065C00000211E46DDF828A0FEF717FDC4E90477134B05EB080093F85E3020F0070084F834306FF0020384F836A0C4F8249040F8343C0C4B002140F8183C4FF0807340F8A6
:406600000C6CA0F15802023640F8086C40F8581C40F8143C62602046BDE8F04700F090BA5082FF1FB963000010B5041E06DDFFF79BFF2044BDE81040FFF79CBF10BD0000C4
:4066400038B5104C2378013BDBB22370237803F0FF05ABB963689BB14FF0800080F3118800BF00BF63682BB1012320462370FFF7DCFE257063781BB94FF0000080F3118861
:4066800038BD00BF5082FF1F154B10B59A6B32B1012283F85B205A715C6CECB910BDD3E904100131DA6A40F10000C3E90410196B0132DA62521A002AA4BF01225A7193F86F
:4066C0005C20002AE8D0013AD2B283F85C20002AE2D101221A71DFE7636898472468DCE75082FF1F114B8268D96A30B51144012202741A6A81605AB902600D4A18629A6249
:406700001A6A91681A6B8A1A002AB8BF196330BD03F1200594680C1B002C03DD15461268002AF7D102602860EAE700BF5082FF1F3567000038B504460025236A0BB9A362E2
:4067400018E09968E26A8A1A002A12DC1A68636222621D749D604FF0000080F31188636A5B6898474FF0800080F3118800BF00BFE3E721630023636238BD38B50D461446F7
:4067800000211422FEF739FCC0E90244456038BD007C704710B50346104C00B9636A4FF0800080F3118800BF00BF1A7C32B1226A0B491AB19A420DD11A680A60DA681846F9
:4067C0009A60FFF78FFF63781BB94FF0000080F3118810BD11461268EBE700BF5082FF1F7082FF1F01464FF0800080F3118800BF00BF0B7C0E4A83B100230B74D06A8B6880
:406800001B1A10468B6050F8203F1BB18B420BD11B680360136A03B9936253781BB94FF0000080F31188704718461B68EDE700BF5082FF1F0331C26821F0030110B5043140
:406840000AB342694468A3580432002BB8BF5B42033323F00303134402699A420CD28068C01A88420DD28A4215D304284FF0000200D9E250134604E0D21A8A4238BF4FF007
:40688000FF33184610BD836802618B424FF0FF3328BF0023F5E74FF0FF33F2E7F8B504461D466361C36846680133C3605342735183691746013383610C4B06EB050C5B788B
:4068C0001BB94FF0000080F311883A460CF10400FEF76DFB4FF0800080F3118800BF00BF7751A369013BA361F8BD00BF5082FF1F38B515460C4611F003021CBF043D0334E7
:4069000003461CBFAD1824F003044FF0800080F3118800BF00BF202218460021FEF76DFB044BC0E901455B781BB94FF0000080F3118838BD5082FF1F10B502464FF080000B
:4069400080F3118800BF00BFD3685BB154681369E018E358002BA3BF0430086001210023A8BF1177044A52781AB94FF0000080F31188184610BD00BF5082FF1F38B5044637
:406980004FF0800080F3118800BF00BF22696568E068AB580138033323F00301131DA2680B44D21A042AE06023610ED80023236100232377236873B100F05AF8204600F06D
:4069C000A5F8BDE83840FFF73BBE0028F0D0EB58002BEBD0ECE7044B5B781BB94FF0000080F3118838BD00BF5082FF1F70B505460E46144600F03CF84FF0800080F3118818
:406A000000BF00BF21462846FFF714FF031E0EDB224631462846FFF741FF2C6844B1284600F074F80024FFF70BFE204670BD0124044B5B78002BF6D14FF0000080F31188E0
:406A4000F1E700BF5082FF1F38B5084C25782046EDB26B1CDBB22370FFF7E7FC257063781BB94FF0000080F3118838BD5082FF1F024A13780133DBB2137070475082FF1FF6
:406A80008268D2E9003203B15A601360002383607047000038B58368014623B11A4BDB6AC360FFF7EDFF91F8343003F0030381F834309BB9144CE2699AB9E16122780123AA
:406AC00002F0FF055AB910482370FFF7AEFC257063781BB94FF0000080F3118838BD6371F6E7086913699842E7D89142E6D09842F4D10B461B68002BEAD01D69A842E7D13E
:406B00009A42F7D1D9E700BF5082FF1F10B504464FF0800080F3118800BF00BF236823B12368D868FFF7B6FFF2E7044B5B781BB94FF0000080F3118810BD00BF5082FF1F7F
:406B400010B50446FFF794FF026949B9174951F8183F33B11869904203D919461B68F8E70B68236021620C6043B11C621B69934214BF002394F8363084F8353094F83430D3
:406B80007BB94FF0800080F3118800BF00BF2046FFF780FF054B5B781BB94FF0000080F31188BDE81040FFF74BBD00BF5082FF1F70B500F091F9094E0446F3685D6800F049
:406BC0008FF9F368421B196B2244914205D32946BDE87040D86AFEF7EAB970BD5082FF1F054B596D19B19A6891620021D1621B6D03B11847704700BF5082FF1FFEE7026A8A
:406C00000368136003B11A62704700002DE9F04101230025934C657023704FF0800080F3118800BF00BF626B62B163780133DBB2637090476378C4E90D55013BDBB284F81A
:406C40005B5063704FF0000080F31188A36853B19A6A42B1586803F128052B681B6898476D68002DF9D194F85D30002B3CD0A36894F85C2083F835202379002B34D04FF066
:406C8000800080F3118800BF00BF0022A36822714FF0000080F3118813B31A6802B31869116988421CD1116811B10D69A8425AD04FF0800080F3118800BF00BFE169186A36
:406CC0008B42196808BFE1610160086211681A62196001B10B62136092F8363082F835304FF0000080F31188E369BBB14FF0800080F3118800BF00BFE569ADB195F834608A
:406D000096B1720736D5EB68E26A9A1A002A2CDC2846FFF7BFFE95F834305BBB4FF0800080F3118800BF00BF00266FF00047DFF83481637903F0FF02002B5FD06671E36AEC
:406D40003B442363A36A0BB1404698474FF0000080F31188A56915BB4FF0800080F3118800BF00BFE5E70A469DE7226B9A1A002AB8BF236306F0FB06102E09D1AB689B6841
:406D80005B6893F834201AB91A692B699A42C5D12B68E3614FF0000080F31188A6E74FF0800080F3118800BF00BFE3691BB12A691B699A42BDD395F834305B070AD5E26AC4
:406DC000EB689B1A002B0BDDEA68236BD31A002B00DA22634FF0000080F311882D68BAE72846FFF757FE4FF0800080F3118800BF00BF95F83430002BE6D19AE76260E1693E
:406E000031B391F8343063B18B689B685D682846FFF7F5FE0B692B6101236370FFF790FEE561E3699A6AA36042B1586803F128052B685B6898476D68002DF9D1A36893F8DC
:406E4000353084F85C3084F85D300648BDE8F081A4F85C10A16021704FF0000080F31188F3E700BF5082FF1F38B50F4B1B681B78532BFDD10D4B9B79002BFDD10C4B1A68E3
:406E80004CF691139A42FDD16FF000430124094D2B63094BC3E90644C3E90A44C3E9084400F026F82C7038BD7C81000060810000788100005082FF1FB082FF1F4FF08000E6
:406EC00080F3118800BF00BF0122024B83F85A20FFF77CBA5082FF1F00487047A8DDFF1F014B0248C01A7047A8DDFF1FA8E1FF1F82B001AAEFF31081116072B604490B68CB
:406F000043F47F030B60116881F3108802B0704720ED00E000000000726561645F6661696C7572655F706F727431203D20256C752C20726561645F6661696C7572655F7099
:406F40006F727432203D20256C752C20726561645F6661696C7572655F746F74616C203D20256C750D0A00002A2A2A2A2A2A2A2A2A2A2A2A2A2A2A2A2A2A2A2A2A2A2A2ACB
:406F80002A2A2A2A0D0A000054696D65725F526561645F575F506F7274315F43616C6C6261636B0D0A00000054696D65725F526561645F575F506F7274325F43616C6C62C3
:406FC00061636B0D0A00000054696D65725F4166746572526561645F496E707574315F43616C6C6261636B203E3E206661696C656420746F2070757420746F205F51756527
:4070000075655F53656E64203E3E200054696D65725F4166746572526561645F506F7274315F43616C6C6261636B203E3E206661696C656420746F2070757420746F205F43
:4070400051756575655F53656E64203E3E20000054696D65725F4166746572526561645F496E707574325F43616C6C6261636B203E3E206661696C656420746F20707574EE
:4070800020746F205F51756575655F53656E64203E3E200054696D65725F4166746572526561645F506F7274325F43616C6C6261636B203E3E206661696C656420746F20F0
:4070C00070757420746F205F51756575655F53656E64203E3E20000054696D65725F5247425F4C45445F43616C6C6261636B202D2D3E205247425F436F6C6F72203D20257D
:40710000640D0A0048414C5F554152545F527843706C7443616C6C6261636B203E3E206661696C656420746F2070757420746F205F51756575655F4D61696E203E3E2000D7
:407140006C696E75785F756172745F6661696C757265203D20256C750D0A000054696D65725F526561645F4C696E75785F43616C6C6261636B0D0A00506F727420312043BC
:407180006C6F736500000000506F7274203120436C6F73650D0A0000506F72742032204F70656E00506F72742032204F70656E0D0A000000506F7274203220436C6F736583
:4071C00000000000506F7274203220436C6F73650D0A0000506F72742031204C6F636B00506F72742031204C6F636B0D0A000000506F7274203120556E4C6F636B000000B4
:40720000506F7274203120556E4C6F636B0D0A00506F72742032204C6F636B00506F72742032204C6F636B0D0A000000506F7274203220556E4C6F636B000000506F727476
