:020000040800F2
:100000000000012031120008751000087D10000862
:10001000851000088D1000089510000800000000F1
:100020000000000000000000000000009D1000081B
:10003000A910000800000000B5100008C110000859
:100040007912000879120008791200087912000864
:100050007912000879120008791200087912000854
:100060007912000879120008791200087912000844
:100070007912000879120008791200087912000834
:100080007912000879120008791200087912000824
:100090007912000879120008791200087912000814
:1000A0007912000879120008791200087912000804
:1000B00079120008791200087912000879120008F4
:1000C00079120008791200087912000879120008E4
:1000D00079120008791200087912000879120008D4
:1000E00079120008791200087912000879120008C4
:1000F00079120008791200087912000879120008B4
:1001000079120008791200087912000879120008A3
:100110007912000879120008791200087912000893
:100120007912000879120008791200087912000883
:1001300000000000000000000000000000000000BF
:1001400000000000000000000000000000000000AF
:10015000000000000000000000000000000000009F
:10016000000000000000000000000000000000008F
:10017000000000000000000000000000000000007F
:10018000000000000000000000000000000000006F
:10019000000000000000000000000000000000005F
:1001A000000000000000000000000000000000004F
:1001B000000000000000000000000000000000003F
:1001C000000000000000000000000000000000002F
:1001D000000000000000000000000000000000001F
:0401E0005FF8E0F1F3
:1001E40010B5054C237833B9044B13B10448AFF36D
:1001F40000800123237010BD600000200000000077
:100204000C46000808B5034B1BB103490348AFF380
:10021400008008BD00000000640000200C460008B7
:10022400034613F8012B002AFBD1181A0138704732
:1002340080F0004002E000BF81F0004142001FBF97
:100244005FEA410392EA030F7FEA226C7FEA236CA0
:100254006AD04FEA1262D2EB1363C1BFD218414095
:1002640048404140B8BF5B42192B88BF704710F02B
:10027400004F40F4000020F07F4018BF404211F0CE
:10028400004F41F4000121F07F4118BF494292EA36
:10029400030F3FD0A2F1010241FA03FC10EB0C0062
:1002A400C3F1200301FA03F100F0004302D54942EF
:1002B40060EB4000B0F5000F13D3B0F1807F06D39C
:1002C40040084FEA310102F10102FE2A51D2B1F194
:1002D400004F40EBC25008BF20F0010040EA030089
:1002E4007047490040EB0000013A28BFB0F5000F09
:1002F400EDD2B0FA80FCACF1080CB2EB0C0200FABF
:100304000CF0AABF00EBC25052421843BCBFD0400D
:100314001843704792F0000F81F4000106BF80F487
:1003240000000132013BB5E74FEA41037FEA226C4A
:1003340018BF7FEA236C21D092EA030F04D092F015
:10034400000F08BF0846704790EA010F1CBF002049
:10035400704712F07F4F04D1400028BF40F00040A6
:10036400704712F100723CBF00F50000704700F0C6
:10037400004343F0FE4040F4000070477FEA2262ED
:1003840016BF08467FEA23630146420206BF5FEABE
:10039400412390EA010F40F4800070474FF00003BE
:1003A40004E000BF10F0004348BF40425FEA000C85
:1003B40008BF704743F0964301464FF000001CE02D
:1003C40050EA010208BF70474FF000030AE000BF83
:1003D40050EA010208BF704711F0004302D54042C1
:1003E40061EB41015FEA010C02BF84460146002033
:1003F40043F0B64308BFA3F18053A3F50003BCFA4E
:100404008CF2083AA3EBC25310DB01FA02FC6344FA
:1004140000FA02FCC2F12002BCF1004F20FA02F201
:1004240043EB020008BF20F00100704702F12002F4
:1004340001FA02FCC2F1200250EA4C0021FA02F255
:1004440043EB020008BF20EADC7070474FF0FF0C5A
:100454001CEAD0521EBF1CEAD15392EA0C0F93EA55
:100464000C0F6FD01A4480EA010C400218BF5FEAF7
:1004740041211ED04FF0006343EA501043EA51116A
:10048400A0FB01310CF00040B1F5000F3EBF490064
:1004940041EAD3715B0040EA010062F17F02FD2A68
:1004A4001DD8B3F1004F40EBC25008BF20F001004B
:1004B400704790F0000F0CF0004C08BF49024CEA62
:1004C400502040EA51207F3AC2BFD2F1FF0340EAF4
:1004D400C250704740F400004FF00003013A5DDC65
:1004E40012F1190FDCBF00F000407047C2F10002A6
:1004F400410021FA02F1C2F1200200FA02FC5FEA93
:10050400310040F1000053EA4C0308BF20EADC70DC
:10051400704792F0000F00F0004C02BF400010F44E
:10052400000F013AF9D040EA0C0093F0000F01F0FB
:10053400004C02BF490011F4000F013BF9D041EA1D
:100544000C018FE70CEAD15392EA0C0F18BF93EA1F
:100554000C0F0AD030F0004C18BF31F0004CD8D149
:1005640080EA010000F00040704790F0000F17BFD0
:1005740090F0004F084691F0000F91F0004F14D016
:1005840092EA0C0F01D142020FD193EA0C0F03D16E
:100594004B0218BF084608D180EA010000F0004071
:1005A40040F0FE4040F40000704740F0FE4040F44C
:1005B400400070474FF0FF0C1CEAD0521EBF1CEAEB
:1005C400D15392EA0C0F93EA0C0F69D0A2EB030209
:1005D40080EA010C49024FEA402037D04FF08053A3
:1005E40043EA111143EA10130CF000408B4238BF68
:1005F4005B0042F17D024FF4000C8B4224BF5B1A76
:1006040040EA0C00B3EB510F24BFA3EB510340EAC3
:100614005C00B3EB910F24BFA3EB910340EA9C0071
:10062400B3EBD10F24BFA3EBD10340EADC001B01E1
:1006340018BF5FEA1C1CE0D1FD2A3FF650AF8B4285
:1006440040EBC25008BF20F0010070470CF0004C92
:100654004CEA50207F32C2BFD2F1FF0340EAC250BD
:10066400704740F400004FF00003013A37E792F07E
:10067400000F00F0004C02BF400010F4000F013ADC
:10068400F9D040EA0C0093F0000F01F0004C02BFD7
:10069400490011F4000F013BF9D041EA0C0195E740
:1006A4000CEAD15392EA0C0F08D142027FF47DAFD9
:1006B40093EA0C0F7FF470AF084676E793EA0C0FC9
:1006C40004D14B023FF44CAF08466EE730F0004CC7
:1006D40018BF31F0004CCAD130F000427FF45CAF57
:1006E40031F000437FF43CAF5FE700BF4FEA4002C4
:1006F400B2F1FE4F0FD34FF09E03B3EB12620DD94C
:100704004FEA002343F0004310F0004F23FA02F0B5
:1007140018BF404270474FF00000704712F1610F5C
:1007240001D1420205D110F0004008BF6FF0004033
:1007340070474FF00000704780B588B000AF07F1F4
:10074400100300221A605A609A60DA602E4B9B698B
:100754002D4A43F0100393612B4B9B6903F0100364
:10076400FB60FB68284B9B69274A43F02003936195
:10077400254B9B6903F02003BB60BB68224B9B693C
:10078400214A43F0080393611F4B9B6903F008035C
:100794007B607B681C4B9B691B4A43F00403936199
:1007A400194B9B6903F004033B603B6801224FF43F
:1007B4000051164801F05EFA01224FF440711448CA
:1007C40001F058FA4FF400533B6101237B6101238C
:1007D400BB610223FB6107F1100319460B4801F0CA
:1007E400B5F84FF440733B6101237B610123BB6186
:1007F4000223FB6107F110031946054801F0A6F82E
:1008040000BF2037BD4680BD0010024000100140EB
:10081400000C014080B500AF124B134A1A60114B13
:10082400124A5A600F4B00229A600E4B0022DA6083
:100834000C4B4FF480421A610A4B00225A61094B57
:1008440000229A61074B0022DA61064B00221A62E9
:10085400044801F027FA0346002B01D000F0D0FB36
:1008640000BF80BD7C00002000540040A086010031
:1008740080B588B000AF786007F1100300221A60D9
:100884005A609A60DA607B681B68154A934223D1E8
:10089400144B9B69134A43F008039361114B9B6902
:1008A40003F00803FB60FB68C0233B6112237B61F8
:1008B4000323FB6107F1100319460B4801F046F8C6
:1008C400084BDB69074A43F40013D361054BDB692A
:1008D40003F40013BB60BB6800BF2037BD4680BD76
:1008E4000054004000100240000C014080B483B06A
:1008F40000AF0346FB7197F90730002B0CDBFB7943
:1009040003F01F02074997F907305B09012000FA39
:1009140002F2603341F8232000BF0C37BD4680BC8F
:10092400704700BF00E100E080B400AFBFF34F8F19
:1009340000BF064BDB6803F4E0620449044B134335
:10094400CB60BFF34F8F00BF00BFFDE700ED00E0B9
:100954000400FA0580B582B000AF78600B46FB70E6
:100964007868FFF75DFC03469AB24FF4FA7379682E
:10097400034803F019F800BF0837BD4680BD00BF27
:10098400D400002080B588B004AF03463960FB7101
:100994001346BB800123FB730023BB8119E0FB7961
:1009A40099B2BA884FF4FA730293012301933B6816
:1009B400009302230D4801F0B3FB0346FB73FB7B5A
:1009C400002B03D000210A48FFF7C4FFBB89013381
:1009D400BB81FB7B002B03D0BB89B3F57A7FDED3CD
:1009E400FB7B18461037BD4680BD00BF7C0000204D
:1009F4002446000880B588B004AF0346FB710B465B
:100A0400BB711346BB800123FB730023BB812BE026
:100A1400FB7999B24FF4FA730122194801F0E8FD09
:100A24000346FB73FB7B002B1BD10123FB73FB7978
:100A340099B2BA884FF4FA73029301230193BB1D50
:100A4400009302230E4801F071FA0346FB73FB7B0B
:100A5400002B03D000210B48FFF77CFF052000F09A
:100A64006DFCBB890133BB81FB7B002B02D0BB89AE
:100A7400C72BCDD9FB7B18461037BD4680BD00BFC0
:100A84007C0000205846000880B584B000AF786030
:100A940039600121F973396800200A4603467968F0
:100AA400022000F053FD0346FB73FB7B184610370E
:100AB400BD4680BD80B485B000AF78607B681B689C
:100AC400FB60FB689BB218461437BD4680BC704778
:100AD40080B500AF00F0D0FB00F01CF8FFF72CFE4F
:100AE400FFF798FE00F02CFB62B600BF0021074818
:100AF400FFF730FF00F054F800210548FFF72AFF04
:100B04004FF47A7000F01AFC00BFF5E73C47000888
:100B1400A447000880B590B000AF07F1180328225D
:100B24000021184603F0E0F83B1D00221A605A60C9
:100B34009A60DA601A610123BB614FF48033FB6170
:100B440000233B620123BB6202237B634FF48033A7
:100B5400BB634FF4E013FB6307F11803184602F07C
:100B6400C3FA0346002B01D000F04AFA0F237B603E
:100B74000223BB600023FB604FF480633B610023CE
:100B84007B613B1D0221184602F030FD0346002B19
:100B940001D000F035FA00BF4037BD4680BD0000EB
:100BA40090B5ABB000AF002387F87F3007F17F0327
:100BB40014221946AC20FFF7E5FE034687F8973068
:100BC400002387F87E30002387F87D30002387F8E0
:100BD4007C30002387F87B3007F17E031C22194602
:100BE400AC20FFF7CFFE034687F8963007F17D036C
:100BF4001B221946AC20FFF7C5FE034687F8953043
:100C040007F17C031A221946AC20FFF7BBFE03460A
:100C140087F8943007F17B0319221946AC20FFF7BB
:100C2400B1FE034687F8933097F87E301A0697F89A
:100C34007D301B041A4397F87C301B02134397F84A
:100C44007B201343C7F88C30002387F8A73097F82C
:100C54009730002B40F0418197F87F30012B40F012
:100C64003C8197F89630002B40F0378197F8953007
:100C7400002B40F0328197F89430002B40F02D8106
:100C840097F89330002B40F0288100F0CFFC034606
:100C940087F88B3097F88B30002B07D000219548CC
:100CA400FFF758FE002000F04DF91EE100219248A4
:100CB400FFF750FE00219148FFF74CFE0023BB666E
:100CC4008F4B3B676E237B6707F1640207F1680370
:100CD4001146184600F092FD034687F88B3097F8CA
:100CE4008B30002B07D000218648FFF733FE00200D
:100CF40000F028F903E000218348FFF72BFE3B4670
:100D0400D7F88C208149184602F0CEFF3B460021DB
:100D14001846FFF71FFE0023C7F8A0300023C7F8CA
:100D240084300023C7F89C300023C7F898308AE049
:100D3400D7F89820764B13441846FFF7BBFE0346BA
:100D44001C06D7F89820734B13441846FFF7B2FEDD
:100D540003461B041C43D7F898206F4B13441846D2
:100D6400FFF7A8FE03461B021C43D7F898206B4BE1
:100D740013441846FFF79EFE03462343C7F880300A
:100D8400D7F8983003F1006303F50843D7F88010CF
:100D94001846FFF779FE034687F88B30D7F8A03062
:100DA4000133C7F8A030D7F8A000FFF7FBFA0446D8
:100DB400D7F88C00FFF7F2FA034619462046FFF7EE
:100DC400F9FB034656491846FFF740FB034618460D
:100DD400FFF78CFC0346C7F88430D7F88410514BD6
:100DE40083FB01235A10CB17D21A13469B001344DA
:100DF400CA1A002A16D1D7F88420D7F89C309A4210
:100E040010D0D7F88430C7F89C30D7F884309A00D3
:100E14003B464549184602F047FF3B460021184629
:100E2400FFF798FD97F88B30002B07D000213F483F
:100E3400FFF790FD012387F8A7300BE0D7F898302F
:100E44000433C7F89830D7F89830D7F88C209A42F2
:100E54003FF66EAF00F010FC034687F88B3097F82E
:100E64008B30002B03D0022387F8A73003E0002146
:100E74002F48FFF76FFD97F8A730002B11D11422EC
:100E84000021AC20FFF7B6FD27220221AC20FFF79A
:100E9400B1FD00212748FFF75DFD012000F052F865
:100EA40023E097F8A730012B09D100212248FFF74E
:100EB40051FD4FF47A7000F041FAFFF735FD97F8D1
:100EC400A730022B11D100211C48FFF743FD4FF43A
:100ED4007A7000F033FAFFF727FD00211848FFF776
:100EE40039FD002000F02EF800E000BF00BFAC3751
:100EF400BD4690BDC0470008184800084048000897
:100F0400008800086848000890480008B4480008B1
:100F14000304040802040408010404080004040887
:100F24000000C84267666666D0480008F8480008B2
:100F3400144900083C49000888490008F44900089D
:100F4400584A000880B5A0B000AF0346FB71FB7996
:100F5400002B04D000212448FFF7FCFC03E000210F
:100F64002248FFF7F7FC07F10803214A21491846F4
:100F740002F09AFE07F1080300211846FFF7EAFC85
:100F840000211D48FFF7E6FC02F014F872B600BF1A
:100F94000023FB6707E0FB6F5BB21846FFF7A6FC74
:100FA400FB6F0133FB67FB6F072BF4D90023FB6650
:100FB400FB6E83F3148800BF0D4BBB67BB6F043318
:100FC4001B687B670D4ABB6F1B689360BB6F1B6814
:100FD4003B673B6F83F3088800BF7B6F984700BF74
:100FE4008037BD4680BD00BFA04A0008DC4A000827
:100FF40000880008144B00084C4B000800ED00E08A
:1010040080B400AF72B600BF00BFFDE780B485B006
:1010140000AF154B9B69144A43F001039361124BD3
:101024009B6903F00103BB60BB680F4BDB690E4A8D
:1010340043F08053D3610C4BDB6903F080537B6036
:101044007B680A4B5B68FB60FB6823F0E063FB6032
:10105400FB6843F00073FB60044AFB68536000BF05
:101064001437BD4680BC70470010024000000140A8
:1010740080B400AF00BFFDE780B400AF00BFFDE760
:1010840080B400AF00BFFDE780B400AF00BFFDE750
:1010940080B400AF00BFFDE780B400AF00BFBD4621
:1010A40080BC704780B400AF00BFBD4680BC7047B1
:1010B40080B400AF00BFBD4680BC704780B500AFB0
:1010C40000F020F900BF80BD80B586B000AF786025
:1010D400144A154BD31A7B617B693B61134B1B6824
:1010E400002B02D1114B124A1A60104B1A687B680C
:1010F40013443A699A4207D202F0FEFD03460C22D9
:101104001A604FF0FF3309E0084B1B68FB60074B84
:101114001A687B681344054A1360FB68184618373D
:10112400BD4680BD0000012000040000D000002066
:101134008802002080B400AF00BFBD4680BC704769
:1011440080B500AF114B124A1A60104B4FF4614244
:101154005A600E4B00229A600C4B0022DA600B4B53
:1011640000221A61094B0C225A61084B00229A6131
:10117400064B0022DA61054802F0C6FB0346002B49
:1011840001D0FFF73DFF00BF80BD00BFD4000020A9
:101194000048004080B588B000AF786007F11003C4
:1011A40000221A605A609A60DA607B681B681C4AE5
:1011B400934231D11B4BDB691A4A43F48023D36138
:1011C400184BDB6903F48023FB60FB68154B9B69B8
:1011D400144A43F008039361124B9B6903F008031C
:1011E400BB60BB684FF480633B6102237B610323D4
:1011F400FB6107F1100319460B4800F0A7FB4FF4FD
:1012040000633B6100237B610023BB6107F1100392
:101214001946054800F09AFB00BF2037BD4680BD43
:101224000048004000100240000C0140FFF782FF1C
:101234000B480C490C4A002302E0D458C450043330
:10124400C4188C42F9D3094A094C002301E0136005
:101254000432A242FBD302F055FDFFF739FC70477C
:10126400000000205C0000201C4C000860000020EE
:1012740088020020FEE7000080B500AF084B1B6821
:10128400074A43F010031360032000F02BF90F20EA
:1012940000F008F8FFF7BAFE0023184680BD00BF2F
:1012A4000020024080B582B000AF7860124B1A680B
:1012B400124B1B7819464FF47A73B3FBF1F3B2FB6C
:1012C400F3F3184600F035F90346002B01D001234F
:1012D4000EE07B680F2B0AD8002279684FF0FF30AC
:1012E40000F00BF9064A7B681360002300E0012339
:1012F40018460837BD4680BD0000002008000020C5
:101304000400002080B400AF054B1B781A46054B3F
:101314001B681344034A136000BFBD4680BC70477A
:10132400080000201C01002080B400AF024B1B68A1
:101334001846BD4680BC70471C01002080B584B0AF
:1013440000AF7860FFF7F0FFB8607B68FB60FB6874
:10135400B3F1FF3F05D00A4B1B781A46FB681344D0
:10136400FB6000BFFFF7E0FF0246BB68D31AFA68D0
:101374009A42F7D800BF00BF1037BD4680BD00BFFA
:101384000800002080B485B000AF78607B6803F06B
:101394000703FB600C4BDB68BB60BA684FF6FF03C6
:1013A4001340BB60FB681A02BB68134343F0BF637E
:1013B40043F40033BB60044ABB68D36000BF1437F6
:1013C400BD4680BC704700BF00ED00E080B400AFB4
:1013D400044BDB681B0A03F007031846BD4680BCB8
:1013E400704700BF00ED00E080B483B000AF034657
:1013F4003960FB7197F90730002B0ADB3B68DAB2DE
:101404000C4997F907301201D2B20B4483F8002338
:101414000AE03B68DAB20849FB7903F00F03043BA6
:101424001201D2B20B441A7600BF0C37BD4680BC01
:10143400704700BF00E100E000ED00E080B489B037
:1014440000AFF860B9607A60FB6803F00703FB61E2
:10145400FB69C3F10703042B28BF0423BB61FB69A9
:101464000433062B02D9FB69033B00E000237B61B4
:101474004FF0FF32BB6902FA03F3DA43BB681A4048
:101484007B699A404FF0FF317B6901FA03F3D9433A
:101494007B680B40134318462437BD4680BC704715
:1014A40080B582B000AF78607B68013BB3F1807F88
:1014B40001D301230FE00A4A7B68013B53600F21EB
:1014C4004FF0FF30FFF790FF054B00229A60044B6A
:1014D40007221A60002318460837BD4680BD00BFA6
:1014E40010E000E080B582B000AF78607868FFF764
:1014F40049FF00BF0837BD4680BD80B586B000AF48
:101504000346B9607A60FB7300237B61FFF75EFFDB
:1015140078617A68B9687869FFF790FF024697F9AD
:101524000F3011461846FFF75FFF00BF1837BD465E
:1015340080BD80B582B000AF78607868FFF7B0FFF7
:10154400034618460837BD4680BD0000F0B587B095
:1015540000AFF860B960C7E900230123FB750023DD
:10156400BB7500237B752F4B1B7E012B01D10223FE
:1015740054E02C4B01221A764CF2503000F0A8F8BB
:101584000346FB75FB7D002B44D1FB68012B02D184
:1015940001237B7507E0FB68022B02D102237B75D4
:1015A40001E004237B750023BB752DE0BB7D5A004D
:1015B400BB6802EB030CBB7D1901D7E90023C1F121
:1015C4002006A1F1200022FA01F403FA06F63443BE
:1015D40023FA00F0044323FA01F5A3B21946604646
:1015E40000F05AF84CF2503000F072F80346FB75E4
:1015F4000D4B1B690C4A23F001031361FB7D002B87
:1016040007D1BB7D0133BB75BA7D7B7D9A42CDD3B7
:1016140000E000BF034B00221A76FB7D18461C37FE
:10162400BD46F0BD200100200020024080B483B0FC
:1016340000AF0023FB710D4B1B6903F08003002BEB
:101644000DD00A4B0A4A5A60084B0A4A5A60074BA3
:101654001B6903F08003002B01D00123FB71FB798C
:1016640018460C37BD4680BC704700BF00200240BE
:1016740023016745AB89EFCD80B400AF054B1B69EF
:10168400044A43F08003136100231846BD4680BC1E
:10169400704700BF0020024080B483B000AF786080
:1016A4000B467B80084B0022DA61084B1B69074A12
:1016B40043F0010313617B687A881A8000BF0C37FA
:1016C400BD4680BC704700BF2001002000200240BE
:1016D40080B584B000AF7860FFF726FEF86010E0B4
:1016E4007B68B3F1FF3F0CD07B68002B07D0FFF77A
:1016F4001BFE0246FB68D31A7A689A4201D203237E
:1017040025E0154BDB6803F00103002BE8D1124BF5
:10171400DB6803F02003002B02D00F4B2022DA6099
:101724000D4BDB6803F01003002B0BD10A4BDB6974
:1017340003F00103002B05D1074BDB6803F004031E
:10174400002B03D000F00AF8012300E00023184620
:101754001037BD4680BD00BF0020024080B483B076
:1017640000AF00237B60234BDB6803F01003002BE6
:1017740009D0214BDB6943F002031F4AD3617B6824
:1017840043F010037B601B4BDB6803F00403002B66
:1017940009D0194BDB6943F00103174AD3617B6815
:1017A40043F004037B60134BDB6903F00103002B5C
:1017B4000BD0114BDB6943F004030F4AD3610D4B8B
:1017C400DB690C4A23F00103D3617B6840F2011208
:1017D400934206D1074BDB69064A23F00103D36128
:1017E40002E0044A7B68D36000BF0C37BD4680BC6E
:1017F400704700BF002002402001002080B584B063
:1018040000AF786039600123FB730023BB602F4B6A
:101814001B7E012B01D1022353E02C4B01221A76AB
:101824007B681B68022B16D14CF25030FFF750FF37
:101834000346002B41D1012000F04CF84CF250300B
:10184400FFF746FF0346FB73214B1B69204A23F035
:101854000403136131E04CF25030FFF739FF0346C3
:10186400002B2AD13B684FF0FF321A607B689B68DB
:10187400BB6019E0B86800F049F84CF25030FFF74B
:1018840027FF0346FB73124B1B69114A23F0020323
:101894001361FB7B002B03D03B68BA681A600CE031
:1018A400BB6803F50063BB607B68DB68DA027B68B6
:1018B4009B681344BA689A42DCD3044B00221A761C
:1018C400FB7B18461037BD4680BD00BF20010020B9
:1018D4000020024080B483B000AF7860094B00223E
:1018E400DA61094B1B69084A43F004031361064B90
:1018F4001B69054A43F04003136100BF0C37BD4622
:1019040080BC7047200100200020024080B483B0D6
:1019140000AF78600B4B0022DA610B4B1B690A4A5B
:1019240043F002031361084A7B685361064B1B6949
:10193400054A43F04003136100BF0C37BD4680BC29
:10194400704700BF200100200020024080B48BB00B
:1019540000AF7860396000237B6200233B6279E149
:1019640001227B6A02FA03F3FB613B681B68FA6994
:101974001340BB61BA69FB699A4240F068813B68D5
:101984005B68964A93425ED0944A934275D8944ACF
:10199400934258D0924A93426FD8924A934252D07B
:1019A400904A934269D8904A93424CD08E4A9342CB
:1019B40063D88E4A934246D08C4A93425DD8122B08
:1019C4002AD8122B59D801A252F823F04B1A000836
:1019D400251A0008371A0008791A00087F1A000827
:1019E4007F1A00087F1A00087F1A00087F1A00086F
:1019F4007F1A00087F1A00087F1A00087F1A00085F
:101A04007F1A00087F1A00087F1A00087F1A00084E
:101A14002D1A0008411A0008754A934213D02CE08D
:101A24003B68DB683B6229E03B68DB6804333B626C
:101A340024E03B68DB6808333B621FE03B68DB68FB
:101A44000C333B621AE03B689B68002B02D10423F1
:101A54003B6213E03B689B68012B05D108233B6282
:101A64007B68FA691A6109E008233B627B68FA69BA
:101A74005A6103E000233B6200E000BFBB69FF2B17
:101A840001D87B6801E07B6804337B61BB69FF2B71
:101A940002D87B6A9B0002E07B6A083B9B003B61A7
:101AA4007B691A680F213B6901FA03F3DB431A408F
:101AB400396A3B6901FA03F31A437B691A603B688C
:101AC4005B6803F08053002B00F0C180494B9B6995
:101AD400484A43F001039361464B9B6903F00103B9
:101AE400BB60BB68444A7B6A9B08023352F82330CC
:101AF400FB607B6A03F003039B000F2202FA03F3EB
:101B0400DB43FA681340FB607B683C4A93421FD076
:101B14007B683B4A934219D07B683A4A934213D07C
:101B24007B68394A93420DD07B68384A934207D088
:101B34007B68374A934201D105230AE0062308E073
:101B4400042306E0032304E0022302E0012300E06F
:101B540000237A6A02F0030292009340FA68134366
:101B6400FB6025497B6A9B080233FA6841F823200D
:101B74003B685B6803F48013002B06D0254B9A68FE
:101B84002449BB6913438B6006E0224B9A68BB6906
:101B9400DB43204913408B603B685B6803F400130C
:101BA400002B06D01B4BDA681A49BB691343CB6080
:101BB40006E0184BDA68BB69DB4316491340CB6077
:101BC4003B685B6803F40033002B25D0114B5A6843
:101BD4001049BB6913434B6025E000BF000032107D
:101BE400000031100000221000002110000012102B
:101BF40000001110001002400000014000080140E4
:101C0400000C014000100140001401400018014084
:101C1400001C014000040140154B5A68BB69DB43BA
:101C2400134913404B603B685B6803F48033002B1B
:101C340006D00F4B1A680E49BB6913430B6006E0CC
:101C44000B4B1A68BB69DB43094913400B607B6A81
:101C540001337B623B681A687B6A22FA03F3002B28
:101C64007FF47EAE00BF00BF2C37BD4680BC7047FA
:101C74000004014080B483B000AF78600B467B80E1
:101C840013467B707B78002B03D07A887B681A61BB
:101C940003E07B881A047B681A6100BF0C37BD46D9
:101CA40080BC704780B584B000AF78607B68002B3F
:101CB40001D101232BE17B6893F83D30DBB2002B8B
:101CC40006D17B68002283F83C207868FEF7D0FDBB
:101CD4007B68242283F83D207B681B681A687B6834
:101CE4001B6822F001021A607B681B681A687B6813
:101CF4001B6842F400421A607B681B681A687B68A0
:101D04001B6822F400421A6001F0B8FDF8607B6899
:101D14005B68814A934207D8FB68804A934294BF28
:101D240001230023DBB206E0FB687D4A934294BFA3
:101D340001230023DBB2002B01D00123E7E0FB6881
:101D4400784AA2FB03239B0CBB607B681B685B681F
:101D540023F03F017B681B68BA680A435A607B68BA
:101D64001B681B6A23F03F017B685B686A4A9342E5
:101D740002D8BB68013309E0BB684FF4967202FBDA
:101D840003F3694AA2FB03239B0901337A681268AF
:101D94000B4313627B681B68DB6923F44F4222F018
:101DA400FF027B685B685C498B4219D8FB68591E4B
:101DB4007B685B685B00B1FBF3F3591C40F6FC7372
:101DC4000B40002B0AD0FB68591E7B685B685B00E4
:101DD400B1FBF3F30133C3F30B0351E004234FE0EE
:101DE4007B689B68002B11D1FB68581E7B6859687F
:101DF4000B465B000B44B0FBF3F30133C3F30B035B
:101E0400002B0CBF01230023DBB212E0FB68581E39
:101E14007B6859680B469B000B4499000B44B0FB4C
:101E2400F3F30133C3F30B03002B0CBF0123002393
:101E3400DBB2002B01D0012322E07B689B68002BDE
:101E44000ED1FB68581E7B6859680B465B000B4437
:101E5400B0FBF3F30133C3F30B0343F400430FE08C
:101E6400FB68581E7B6859680B469B000B4499001D
:101E74000B44B0FBF3F30133C3F30B0343F44043CC
:101E8400796809681343CB617B681B681B6823F07E
:101E9400C0017B68DA697B681B6A1A437B681B682C
:101EA4000A431A607B681B689B6823F4034323F08E
:101EB400FF037A6811697A68D26811437A681268F4
:101EC4000B4393607B681B68DB6823F0FF017B682E
:101ED4005A697B689B691A437B681B680A43DA600A
:101EE4007B681B681A687B681B6842F001021A60F1
:101EF4007B6800221A647B68202283F83D207B687B
:101F040000221A637B68002283F83E2000231846CF
:101F14001037BD4680BD00BFA08601007F841E002F
:101F2400FF083D0083DE1B43D34D621080B588B0AB
:101F340002AFF860084611461A4603467B810B46F9
:101F44003B811346FB80FFF7EFF97861FB6893F858
:101F54003D30DBB2202B40F0D9807B6900931923FC
:101F640001226D49F86800F0EFFD0346002B01D013
:101F74000223CCE0FB6893F83C30012B01D102230F
:101F8400C5E0FB68012283F83C20FB681B681B68E2
:101F940003F00103012B07D0FB681B681A68FB6878
:101FA4001B6842F001021A60FB681B681A68FB6830
:101FB4001B6822F400621A60FB68212283F83D202A
:101FC400FB68402283F83E20FB6800221A64FB6809
:101FD4003A6A5A62FB68BA8C5A85FB685B8D9AB27E
:101FE400FB681A85FB684D4ADA62F8883A89798970
:101FF4007B690193BB6A00930346F86800F026FCF2
:102004000346002B52D0012381E07A69B96AF8684B
:1020140000F0B4FE0346002B0DD0FB681B6C042BB0
:1020240007D1FB681B681A68FB681B6842F40072DE
:102034001A6001236BE0FB685B6A1A78FB681B6813
:102044001A61FB685B6A5A1CFB685A62FB681B8D49
:10205400013B9AB2FB681A85FB685B8D9BB2013B1E
:102064009AB2FB685A85FB681B685B6903F004033A
:10207400042B1BD1FB681B8D002B17D0FB685B6AFC
:102084001A78FB681B681A61FB685B6A5A1CFB6858
:102094005A62FB681B8D013B9AB2FB681A85FB6888
:1020A4005B8D9BB2013B9AB2FB685A85FB681B8D22
:1020B400002BAAD17A69B96AF86800F0A7FE034632
:1020C400002B0DD0FB681B6C042B07D1FB681B682D
:1020D4001A68FB681B6842F400721A60012316E058
:1020E400FB681B681A68FB681B6842F400721A607C
:1020F400FB68202283F83D20FB68002283F83E2001
:10210400FB68002283F83C20002300E002231846E9
:102114001837BD4680BD00BF020010000000FFFF5D
:1021240080B58CB002AFF860084611461A460346E3
:102134007B810B463B811346FB8000233B62FFF708
:10214400F3F87862FB6893F83D30DBB2202B40F063
:1021540044827B6A0093192301228249F86800F0C3
:10216400F3FC0346002B01D0022337E2FB6893F80B
:102174003C30012B01D1022330E2FB68012283F8B9
:102184003C20FB681B681B6803F00103012B07D08C
:10219400FB681B681A68FB681B6842F001021A603E
:1021A400FB681B681A68FB681B6822F400621A60EB
:1021B400FB68222283F83D20FB68402283F83E20FE
:1021C400FB6800221A64FB683A6B5A62FB68BA8E99
:1021D4005A85FB685B8D9AB2FB681A85FB68624A74
:1021E400DA62F8883A8979897B6A0193BB6B009338
:1021F4000346F86800F0C0FB0346002B01D001231E
:10220400ECE1FB681B8D002B13D10023FB61FB6801
:102214001B685B69FB61FB681B689B69FB61FB696D
:10222400FB681B681A68FB681B6842F400721A603A
:10223400C0E1FB681B8D012B1ED1FB681B681A686B
:10224400FB681B6822F480621A6072B600BF002328
:10225400BB61FB681B685B69BB61FB681B689B69AE
:10226400BB61BB69FB681B681A68FB681B6842F4A6
:1022740000721A6062B635E0FB681B8D022B1ED11A
:10228400FB681B681A68FB681B6842F400621A60EA
:1022940072B600BF00237B61FB681B685B697B61CE
:1022A400FB681B689B697B617B69FB681B681A6818
:1022B400FB681B6822F480621A6062B612E0FB6855
:1022C4001B681A68FB681B6842F480621A6000236A
:1022D4003B61FB681B685B693B61FB681B689B692E
:1022E4003B613B6966E1FB681B8D032B00F21F8198
:1022F400FB681B8D012B23D17A6AB96BF86800F057
:10230400CDFD0346002B01D0012367E1FB681B6868
:102314001A69FB685B6AD2B21A70FB685B6A5A1C62
:10232400FB685A62FB681B8D013B9AB2FB681A85F5
:10233400FB685B8D9BB2013B9AB2FB685A8539E11D
:10234400FB681B8D022B52D17B6A0093BB6B00226E
:102354000649F86800F0F8FB0346002B08D0012377
:102364003CE100BF020010000000FFFF0400010078
:1023740072B600BFFB681B681A68FB681B6842F4EE
:1023840000721A60FB681B681A69FB685B6AD2B248
:102394001A70FB685B6A5A1CFB685A62FB681B8DE7
:1023A400013B9AB2FB681A85FB685B8D9BB2013BCB
:1023B4009AB2FB685A8562B600BFFB681B681A694B
:1023C400FB685B6AD2B21A70FB685B6A5A1CFB68D2
:1023D4005A62FB681B8D013B9AB2FB681A85FB6845
:1023E4005B8D9BB2013B9AB2FB685A85E2E07B6A43
:1023F4000093BB6B00227B49F86800F0A5FB034601
:10240400002B01D00123E9E0FB681B681A68FB6814
:102414001B6822F480621A6072B600BFFB681B68F6
:102424001A69FB685B6AD2B21A70FB685B6A5A1C51
:10243400FB685A62FB681B8D013B9AB2FB681A85E4
:10244400FB685B8D9BB2013B9AB2FB685A85664B75
:102454001B68DB08654AA2FB03231A0A13469B0088
:102464001344DA00D31A3B623B6A013B3B623B6A8A
:10247400002B18D1FB6800221A63FB68202283F822
:102484003D20FB68002283F83E20FB681B6C43F070
:102494002002FB681A6462B600BFFB68002283F85E
:1024A4003C2001239AE0FB681B685B6903F004038A
:1024B400042BD9D1FB681B681A68FB681B6842F4BB
:1024C40000721A60FB681B681A69FB685B6AD2B207
:1024D4001A70FB685B6A5A1CFB685A62FB681B8DA6
:1024E400013B9AB2FB681A85FB685B8D9BB2013B8A
:1024F4009AB2FB685A8562B600BFFB681B681A690A
:10250400FB685B6AD2B21A70FB685B6A5A1CFB6890
:102514005A62FB681B8D013B9AB2FB681A85FB6803
:102524005B8D9BB2013B9AB2FB685A8542E07A6AA2
:10253400B96BF86800F0B2FC0346002B01D001230C
:102544004CE0FB681B681A69FB685B6AD2B21A70BC
:10255400FB685B6A5A1CFB685A62FB681B8D013B73
:102564009AB2FB681A85FB685B8D9BB2013B9AB2F9
:10257400FB685A85FB681B685B6903F00403042B42
:1025840018D1FB681B681A69FB685B6AD2B21A70BF
:10259400FB685B6A5A1CFB685A62FB681B8D013B33
:1025A4009AB2FB681A85FB685B8D9BB2013B9AB2B9
:1025B400FB685A85FB681B8D002B7FF494AEFB6887
:1025C400202283F83D20FB68002283F83E20FB682C
:1025D400002283F83C20002300E002231846283719
:1025E400BD4680BD040001000000002089B5F81438
:1025F40080B58AB002AFF8607A603B600B467B819D
:10260400FEF792FEF8610023BB61FB6893F83D304E
:10261400DBB2202B40F01181FB69009319230122C6
:102624008849F86800F090FA0346002B01D0022391
:1026340004E1FB6893F83C30012B01D10223FDE057
:10264400FB68012283F83C20FB681B681B6803F0CD
:102654000103012B07D0FB681B681A68FB681B6821
:1026640042F001021A60FB681B681A68FB681B6869
:1026740022F400621A60FB68242283F83D20FB6880
:1026840000221A64FB68704ADA62FB681B681A68E5
:10269400FB681B6842F480721A60FB6900933B6814
:1026A40000224FF00111F86800F04EFA0346002BA7
:1026B4000DD0FB681B681B6803F48073B3F5807F3F
:1026C40003D1FB684FF400721A640323B6E07B89DC
:1026D400DBB21A46FB681B6802F0FE021A61FEF7C1
:1026E40023FEF861FB681B685B6903F00203022B9D
:1026F4000CBF01230023DBB2FB75FB681B685B691D
:1027040003F48063B3F5806F0CBF01230023DBB2B5
:10271400BB7525E0FEF708FE0246FB69D31A3A684A
:102724009A4202D33B68002B03D1FB68A02283F8B2
:102734003D20FB681B685B6903F00203022B0CBF9E
:1027440001230023DBB2FB75FB681B685B6903F4A0
:102754008063B3F5806F0CBF01230023DBB2BB752C
:10276400FB6893F83D30DBB2A02B05D0FB7D002B3A
:1027740002D1BB7D002BCDD0FB68202283F83D2005
:10278400FB681B685B6903F00203022B29D1FB6819
:102794001B681A68FB681B6842F400721A60002305
:1027A4003B61FB681B685B693B61FB681B689B6959
:1027B4003B613B69FB690093192301222149F868B5
:1027C40000F0C2F90346002B01D0012336E0FB6878
:1027D400202283F83D20FB68002283F83C2000235C
:1027E4002CE0FB681B681A68FB681B6842F40072E3
:1027F4001A60FB681B686FF480625A61FB6900937E
:10280400192301220F49F86800F09EF90346002BB2
:1028140001D0012312E0BB690133BB61BA697B6853
:102824009A42FFF432AFFB68202283F83D20FB6814
:10283400002283F83C20012300E0022318462037BD
:10284400BD4680BD020010000000FFFF80B588B0C7
:1028540002AFF860084611461A4603467B810B46D0
:102864003B811346FB80FB681B681A68FB681B6886
:1028740042F480721A607B6A00933B6A00224FF034
:102884000111F86800F060F90346002B0DD0FB68D5
:102894001B681B6803F48073B3F5807F03D1FB6866
:1028A4004FF400721A6403235FE07B89DBB21A469B
:1028B400FB681B6802F0FE021A617B6A3A6A2D49C2
:1028C400F86800F0BBF90346002B01D001234CE06B
:1028D40000237B61FB681B685B697B61FB681B6889
:1028E4009B697B617B697A6A396AF86800F046FA09
:1028F4000346002B0DD0FB681B6C042B07D1FB682F
:102904001B681A68FB681B6842F400721A60012392
:102914002BE0FB88012B05D13B89DAB2FB681B68ED
:102924001A6121E03B891B0A9BB2DAB2FB681B687F
:102934001A617A6A396AF86800F020FA0346002BB3
:102944000DD0FB681B6C042B07D1FB681B681A684D
:10295400FB681B6842F400721A60012305E03B899E
:10296400DAB2FB681B681A61002318461837BD46A3
:1029740080BD00BF0200010080B588B002AFF860DE
:10298400084611461A4603467B810B463B81134693
:10299400FB80FB681B681A68FB681B6842F4806252
:1029A4001A60FB681B681A68FB681B6842F4807233
:1029B4001A607B6A00933B6A00224FF00111F868A9
:1029C40000F0C2F80346002B0DD0FB681B681B689F
:1029D40003F48073B3F5807F03D1FB684FF4007276
:1029E4001A640323AAE07B89DBB21A46FB681B68DE
:1029F40002F0FE021A617B6A3A6A5249F86800F0F2
:102A04001DF90346002B01D0012397E000237B61CD
:102A1400FB681B685B697B61FB681B689B697B6166
:102A24007B697A6A396AF86800F0A8F90346002BD2
:102A34000DD0FB681B6C042B07D1FB681B681A685C
:102A4400FB681B6842F400721A60012376E0FB887D
:102A5400012B05D13B89DAB2FB681B681A6121E0BE
:102A64003B891B0A9BB2DAB2FB681B681A617A6A5B
:102A7400396AF86800F082F90346002B0DD0FB6830
:102A84001B6C042B07D1FB681B681A68FB681B6866
:102A940042F400721A60012350E03B89DAB2FB6809
:102AA4001B681A617A6A396AF86800F067F90346A4
:102AB400002B0DD0FB681B6C042B07D1FB681B6833
:102AC4001A68FB681B6842F400721A60012335E03F
:102AD400FB681B681A68FB681B6842F480721A6002
:102AE4007B6A00933B6A00224FF00111F86800F002
:102AF4002BF80346002B0DD0FB681B681B6803F4FE
:102B04008073B3F5807F03D1FB684FF400721A64BD
:102B1400032313E07B89DBB243F00103DAB2FB68E1
:102B24001B681A617B6A3A6A0649F86800F086F8FD
:102B34000346002B01D0012300E000231846183778
:102B4400BD4680BD0200010080B584B000AFF860CE
:102B5400B9603B601346FB7148E03B68B3F1FF3F4B
:102B640044D0FEF7E1FB0246BB69D31A3A689A42A5
:102B740002D33B68002B39D1BB681B0CDBB2012BA1
:102B84000DD1FB681B685B69DA43BB6813409BB2D9
:102B9400002B0CBF01230023DBB21A460CE0FB68B8
:102BA4001B689B69DA43BB6813409BB2002B0CBFC4
:102BB40001230023DBB21A46FB799A4216D1FB6843
:102BC40000221A63FB68202283F83D20FB68002260
:102BD40083F83E20FB681B6C43F02002FB681A64F8
:102BE400FB68002283F83C20012323E0BB681B0C14
:102BF400DBB2012B0DD1FB681B685B69DA43BB6850
:102C040013409BB2002B0CBF01230023DBB21A46F6
:102C14000CE0FB681B689B69DA43BB6813409BB2FA
:102C2400002B0CBF01230023DBB21A46FB799A4226
:102C340093D0002318461037BD4680BD80B584B0BC
:102C440000AFF860B9607A603B6071E0FB681B68B4
:102C54005B6903F48063B3F5806F23D1FB681B6861
:102C64001A68FB681B6842F400721A60FB681B68F0
:102C74006FF480625A61FB6800221A63FB682022A9
:102C840083F83D20FB68002283F83E20FB681B6C20
:102C940043F00402FB681A64FB68002283F83C20BA
:102CA400012367E07B68B3F1FF3F41D0FEF73CFBB3
:102CB40002463B68D31A7A689A4202D37B68002B97
:102CC40036D1BB681B0CDBB2012B0CD1FB681B6833
:102CD4005B69DA43BB6813409BB2002B14BF01232A
:102CE4000023DBB20BE0FB681B689B69DA43BB681B
:102CF40013409BB2002B14BF01230023DBB2002B33
:102D040016D0FB6800221A63FB68202283F83D205A
:102D1400FB68002283F83E20FB681B6C43F0200212
:102D2400FB681A64FB68002283F83C20012321E03D
:102D3400BB681B0CDBB2012B0CD1FB681B685B6905
:102D4400DA43BB6813409BB2002B14BF012300235A
:102D5400DBB20BE0FB681B689B69DA43BB6813407A
:102D64009BB2002B14BF01230023DBB2002B7FF4A2
:102D74006DAF002318461037BD4680BD80B584B0C2
:102D840000AFF860B9607A6034E0F86800F0E3F806
:102D94000346002B01D0012334E0BB68B3F1FF3FAD
:102DA40028D0FEF7C1FA02467B68D31ABA689A4261
:102DB40002D3BB68002B1DD1FB681B685B6903F061
:102DC4008003802B16D0FB6800221A63FB68202244
:102DD40083F83D20FB68002283F83E20FB681B6CCF
:102DE40043F02002FB681A64FB68002283F83C204D
:102DF400012307E0FB681B685B6903F08003802BF9
:102E0400C3D1002318461037BD4680BD80B584B0B9
:102E140000AFF860B9607A6034E0F86800F09BF8BD
:102E24000346002B01D0012334E0BB68B3F1FF3F1C
:102E340028D0FEF779FA02467B68D31ABA689A4218
:102E440002D3BB68002B1DD1FB681B685B6903F0D0
:102E54000403042B16D0FB6800221A63FB682022AB
:102E640083F83D20FB68002283F83E20FB681B6C3E
:102E740043F02002FB681A64FB68002283F83C20BC
:102E8400012307E0FB681B685B6903F00403042B60
:102E9400C3D1002318461037BD4680BD80B584B029
:102EA40000AFF860B9607A6049E0FB681B685B6951
:102EB40003F01003102B19D1FB681B686FF010028C
:102EC4005A61FB6800221A63FB68202283F83D20C4
:102ED400FB68002283F83E20FB681A6CFB681A64C6
:102EE400FB68002283F83C20012330E0FEF71CFA43
:102EF40002467B68D31ABA689A4202D3BB68002B95
:102F04001DD1FB681B685B6903F04003402B16D09E
:102F1400FB6800221A63FB68202283F83D20FB68CB
:102F2400002283F83E20FB681B6C43F02002FB6800
:102F34001A64FB68002283F83C20012307E0FB6845
:102F44001B685B6903F04003402BAED10023184695
:102F54001037BD4680BD80B483B000AF78607B6815
:102F64001B685B6903F48063B3F5806F1BD17B68D6
:102F74001B686FF480625A617B6800221A637B6865
:102F8400202283F83D207B68002283F83E207B6862
:102F94001B6C43F004027B681A647B68002283F88C
:102FA4003C20012300E0002318460C37BD4680BCBA
:102FB4007047000080B582B000AFFEF7B5F97860C5
:102FC400454B1B68444A43F00103136008E0FEF7D5
:102FD400ABF902467B68D31A022B01D9032377E0AD
:102FE4003D4B1B6803F00203002BF0D03A4B1B68E7
:102FF40023F0F803384A43F080031360FEF794F992
:103004007860354B00225A600AE0FEF78DF90246DB
:103014007B68D31A41F28832934201D9032357E0E3
:103024002D4B5B6803F00C03002BEED12B4B2C4A89
:103034001A602C4B1B681846FEF734F90346002B24
:1030440001D0012344E0FEF76FF97860224B1B683E
:10305400214A23F08073136008E0FEF765F9024605
:103064007B68D31A022B01D9032331E01A4B1B6866
:1030740003F00073002BF0D1174B00225A60FEF7C7
:1030840053F97860144B1B68134A23F4102313601C
:1030940008E0FEF749F902467B68D31A642B01D98C
:1030A400032315E00C4B1B6803F40033002BF0D111
:1030B400094B1B68084A23F480231360064B5B6AA0
:1030C400054A43F080735362034B00229A60002345
:1030D40018460837BD4680BD00100240000000209D
:1030E40000127A000400002080B586B000AF78603A
:1030F4007B68002B01D1012372E27B681B6803F01B
:103104000103002B00F08780924B5B6803F00C03F3
:10311400042B0CD08F4B5B6803F00C03082B12D1EB
:103124008C4B5B6803F48033B3F5803F0BD1894B40
:103134001B6803F40033002B6CD07B685B68002BA6
:1031440068D101234CE27B685B68B3F5803F06D10C
:10315400804B1B687F4A43F4803313602EE07B6806
:103164005B68002B0CD17B4B1B687A4A23F48033B9
:103174001360784B1B68774A23F4802313601DE0A7
:103184007B685B68B3F5A02F0CD1724B1B68714A46
:1031940043F4802313606F4B1B686E4A43F48033FF
:1031A40013600BE06B4B1B686A4A23F48033136093
:1031B400684B1B68674A23F4802313607B685B6851
:1031C400002B13D0FEF7B0F8386108E0FEF7ACF836
:1031D40002463B69D31A642B01D9032300E25D4BF9
:1031E4001B6803F40033002BF0D014E0FEF79CF8C6
:1031F400386108E0FEF798F802463B69D31A642B5D
:1032040001D90323ECE1534B1B6803F40033002B77
:10321400F0D100E000BF7B681B6803F00203002BC1
:1032240063D04C4B5B6803F00C03002B0BD0494B71
:103234005B6803F00C03082B1CD1464B5B6803F45A
:103244008033002B16D1434B1B6803F00203002B81
:1032540005D07B681B69012B01D00123C0E13D4BE4
:103264001B6823F0F8027B685B69DB003949134370
:103274000B603AE07B681B69002B20D0364B01229F
:103284001A60FEF751F8386108E0FEF74DF802467F
:103294003B69D31A022B01D90323A1E12D4B1B68EF
:1032A40003F00203002BF0D02A4B1B6823F0F80232
:1032B4007B685B69DB00274913430B6015E0264BF1
:1032C40000221A60FEF730F8386108E0FEF72CF8A7
:1032D40002463B69D31A022B01D9032380E11D4B1B
:1032E4001B6803F00203002BF0D17B681B6803F01A
:1032F4000803002B3AD07B689B69002B19D0174B2D
:1033040001221A60FEF710F8386108E0FEF70CF8A5
:1033140002463B69D31A022B01D9032360E10D4B0A
:103324005B6A03F00203002BF0D0012000F0CEFA18
:103334001CE00A4B00221A60FDF7F6FF38610FE02B
:10334400FDF7F2FF02463B69D31A022B08D9032387
:1033540046E100BF001002400000424280044242A5
:10336400924B5B6A03F00203002BE9D17B681B6874
:1033740003F00403002B00F0A6800023FB758B4BA5
:10338400DB6903F08053002B0DD1884BDB69874A3E
:1033940043F08053D361854BDB6903F08053BB60FA
:1033A400BB680123FB75824B1B6803F48073002BFD
:1033B40018D17F4B1B687E4A43F480731360FDF77A
:1033C400B3FF386108E0FDF7AFFF02463B69D31A4B
:1033D400642B01D9032303E1754B1B6803F4807349
:1033E400002BF0D07B68DB68012B06D16F4B1B6A86
:1033F4006E4A43F0010313622DE07B68DB68002B07
:103404000CD16A4B1B6A694A23F001031362674BB0
:103414001B6A664A23F0040313621CE07B68DB68C2
:10342400052B0CD1614B1B6A604A43F00403136201
:103434005E4B1B6A5D4A43F0010313620BE05B4B76
:103444001B6A5A4A23F001031362584B1B6A574AFA
:1034540023F0040313627B68DB68002B15D0FDF7AF
:1034640063FF38610AE0FDF75FFF02463B69D31A48
:1034740041F28832934201D90323B1E04B4B1B6ADA
:1034840003F00203002BEED014E0FDF74DFF38618A
:103494000AE0FDF749FF02463B69D31A41F288323C
:1034A400934201D903239BE0404B1B6A03F00203C0
:1034B400002BEED1FB7D012B05D13C4BDB693B4A54
:1034C40023F08053D3617B68DB69002B00F0878095
:1034D400364B5B6803F00C03082B61D07B68DB6917
:1034E400022B46D1334B00221A60FDF71DFF3861D1
:1034F40008E0FDF719FF02463B69D31A022B01D9F4
:1035040003236DE0294B1B6803F00073002BF0D1FB
:103514007B681B6AB3F5803F08D1244B5B6823F4B6
:1035240000327B689B68214913434B601F4B5B68E7
:1035340023F474127B68196A7B685B6A0B431B492A
:1035440013434B601B4B01221A60FDF7EDFE3861FB
:1035540008E0FDF7E9FE02463B69D31A022B01D9C4
:1035640003233DE0114B1B6803F00073002BF0D0E4
:1035740035E0104B00221A60FDF7D6FE386108E0F2
:10358400FDF7D2FE02463B69D31A022B01D903236D
:1035940026E0064B1B6803F00073002BF0D11EE0FD
:1035A4007B68DB69012B07D1012319E0001002407D
:1035B40000700040600042420B4B5B68FB60FB689C
:1035C40003F480327B681B6A9A4206D1FB6803F4D9
:1035D40070127B685B6A9A4201D0012300E00023E9
:1035E40018461837BD4680BD0010024080B584B02F
:1035F40000AF786039607B68002B01D10123D0E0F3
:103604006A4B1B6803F007033A689A4210D9674B68
:103614001B6823F0070265493B6813430B60634B47
:103624001B6803F007033A689A4201D00123B8E00B
:103634007B681B6803F00203002B20D07B681B68A7
:1036440003F00403002B05D0594B5B68584A43F43C
:10365400E06353607B681B6803F00803002B05D00C
:10366400534B5B68524A43F460535360504B5B685E
:1036740023F0F0027B689B684D4913434B607B68E1
:103684001B6803F00103002B40D07B685B68012BAF
:1036940007D1474B1B6803F40033002B15D10123DA
:1036A4007FE07B685B68022B07D1414B1B6803F00A
:1036B4000073002B09D1012373E03D4B1B6803F019
:1036C4000203002B01D101236BE0394B5B6823F02B
:1036D40003027B685B68364913434B60FDF724FEA5
:1036E400F8600AE0FDF720FE0246FB68D31A41F2B7
:1036F4008832934201D9032353E02D4B5B6803F0D6
:103704000C027B685B689B009A42EBD1274B1B68D9
:1037140003F007033A689A4210D2244B1B6823F043
:10372400070222493B6813430B60204B1B6803F0DC
:1037340007033A689A4201D0012332E07B681B6890
:1037440003F00403002B08D0194B5B6823F4E062F8
:103754007B68DB68164913434B607B681B6803F086
:103764000803002B09D0124B5B6823F460527B687A
:103774001B69DB000E4913434B6000F021F802463D
:103784000B4B5B681B0903F00F030A49CB5C22FA5D
:1037940003F3094A1360094B1B681846FDF782FDC1
:1037A400002318461037BD4680BD00BF00200240EC
:1037B40000100240AC4B0008000000200400002070
:1037C40080B487B000AF0023FB600023BB600023FC
:1037D4007B6100237B6000233B611E4B5B68FB60C5
:1037E400FB6803F00C03042B02D0082B03D027E062
:1037F400194B3B6127E0FB689B0C03F00F03174A4E
:10380400D35C7B60FB6803F48033002B10D0114B36
:103814005B685B0C03F00103114AD35CBB607B68FB
:103824000D4A03FB02F2BB68B2FBF3F37B6104E0D5
:103834007B680C4A02FB03F37B617B693B6102E01A
:10384400054B3B6100BF3B6918461C37BD4680BC35
:10385400704700BF0010024000127A00C44B0008F9
:10386400D44B000800093D0080B400AF024B1B6834
:103874001846BD4680BC70470000002080B500AFEC
:10388400FFF7F2FF0246054B5B681B0A03F00703D0
:103894000349CB5C22FA03F3184680BD00100240B2
:1038A400BC4B000880B500AFFFF7DEFF0246054BB6
:1038B4005B68DB0A03F007030349CB5C22FA03F3DA
:1038C400184680BD00100240BC4B000880B485B08F
:1038D40000AF78600A4B1B680A4AA2FB03235B0A09
:1038E4007A6802FB03F3FB6000BFFB685A1EFA60B0
:1038F400002BF9D100BF00BF1437BD4680BC704710
:1039040000000020D34D621080B582B000AF786013
:103914007B68002B01D1012342E07B6893F841309E
:10392400DBB2002B06D17B68002283F84020786844
:10393400FDF730FC7B68242283F841207B681B68F8
:10394400DA687B681B6822F40052DA60786800F059
:103954001DF97B681B681A697B681B6822F4904216
:103964001A617B681B685A697B681B6822F02A020B
:103974005A617B681B68DA687B681B6842F40052F2
:10398400DA607B6800225A647B68202283F8412035
:103994007B68202283F842207B6800225A6300233C
:1039A40018460837BD4680BD80B58AB002AFF860BE
:1039B400B9603B601346FB8000237B61FB6893F88E
:1039C4004130DBB2202B6DD1BB68002B02D0FB88C9
:1039D400002B01D1012366E0FB6800225A64FB68D6
:1039E400212283F84120FDF79FFC7861FB68FA8867
:1039F4009A84FB68FA88DA84FB689B68B3F5805F75
:103A040008D1FB681B69002B04D10023FB61BB6850
:103A1400BB6103E0BB68FB610023BB612AE03B6838
:103A240000937B6900228021F86800F040F8034687
:103A3400002B01D0032336E0FB69002B0BD1BB69BB
:103A44001B881A46FB681B68C2F308025A60BB69EC
:103A54000233BB6107E0FB691A78FB681B685A6094
:103A6400FB690133FB61FB68DB8C9BB2013B9AB2BF
:103A7400FB68DA84FB68DB8C9BB2002BCFD13B68FC
:103A840000937B6900224021F86800F010F8034697
:103A9400002B01D0032306E0FB68202283F8412099
:103AA400002300E0022318462037BD4680BD80B5C0
:103AB40090B000AFF860B9603B601346FB7150E012
:103AC400BB6CB3F1FF3F4CD0BB6C002B07D0FDF7B0
:103AD4002BFC02463B68D31ABA6C9A4241D2FB686B
:103AE4001B680C33BB62BB6A53E8003F7B627B6A92
:103AF40023F4D073FB63FB681B680C33FA6B7A63A3
:103B04003B63396B7A6B41E80023FB62FB6A002B51
:103B1400E5D1FB681B6814337B617B6953E8003F84
:103B24003B613B6923F00103BB63FB681B681433EF
:103B3400BA6B3A62FB61F9693A6A41E80023BB61F6
:103B4400BB69002BE5D1FB68202283F84120FB6888
:103B5400202283F84220FB68002283F840200323BC
:103B64000FE0FB681B681A68BB681340BA689A4286
:103B74000CBF01230023DBB21A46FB799A429FD083
:103B8400002318464037BD4680BD000080B584B090
:103B940000AF78607B681B681B6923F440517B6825
:103BA400DA687B681B680A431A617B689A687B68D9
:103BB4001B691A437B685B691343BB607B681B68A2
:103BC400DB6823F4B05323F00C037A681268B968F5
:103BD4000B43D3607B681B685B6923F440717B688B
:103BE4009A697B681B680A435A617B681B682C4A84
:103BF400934203D1FFF756FEF86002E0FFF73EFE62
:103C0400F860FA6813469B0013449A001A447B68D0
:103C14005B689B00B2FBF3F3224AA2FB03235B091C
:103C24001901FA6813469B0013449A001A447B68EE
:103C34005B689B00B2FBF3F21A4BA3FB02035B0924
:103C4400642000FB03F3D31A1B013233154AA2FB91
:103C540003235B0903F0F0031944FA6813469B003D
:103C640013449A001A447B685B689B00B2FBF3F22E
:103C74000C4BA3FB02035B09642000FB03F3D31A80
:103C84001B013233074AA2FB03235B0903F00F0233
:103C94007B681B680A449A6000BF1037BD4680BD2C
:103CA400003801401F85EB510EB46FF0004100B5A0
:103CB4009CB01DAB029006900791049108480949F5
:103CC40053F8042B0591006802A9019300F092F9BE
:103CD4000022029B1A701CB05DF804EB03B070471D
:103CE4000C0000200802FFFF03460244934200D167
:103CF400704703F8011BF9E7014B1868704700BFD0
:103D04000C00002070B500260C4D0D4C641BA41053
:103D1400A64209D100F078FC00260A4D0A4C641B27
:103D2400A410A64205D170BD55F8043B984701364E
:103D3400EEE755F8043B98470136F2E7144C0008C7
:103D4400144C0008144C0008184C000870477047C5
:103D540038B50546002940D051F8043C0C1F002B0F
:103D6400B8BFE41800F0DEF81C4A136833B9636086
:103D740014602846BDE8384000F0DAB8A34208D9F8
:103D8400206821188B4201BF19685B6809182160FB
:103D9400EDE71A465B680BB1A342FAD911685018D3
:103DA400A0420BD120680144501883421160E0D135
:103DB40018685B68084410605360DAE702D90C2382
:103DC4002B60D6E7206821188B4201BF19685B6815
:103DD4000918216063605460CBE738BD8402002079
:103DE40070B50F4E0C463168054611B900F0AAFBB8
:103DF40030602146284600F0A5FB431C03D14FF058
:103E0400FF34204670BDC41C24F00304A042F8D043
:103E1400211A284600F096FB0130F2D1EFE700BFEB
:103E2400800200202DE9F843CD1C25F00305083558
:103E34000C2D38BF0C25002D064601DBA94204D900
:103E44000C2333600020BDE8F883DFF8D48000F051
:103E540069F8D8F800301C4644BB29463046FFF7C1
:103E6400BFFF431C044658D1D8F800402746002F12
:103E740043D1002C4BD023683946304604EB030968
:103E840000F060FB814542D1216830466D1A294615
:103E9400FFF7A6FF01303AD023682B442360D8F8FB
:103EA40000305A6862BBC8F800700FE02268521BE9
:103EB40020D40B2A17D96119A342256018BF596071
:103EC400636808BFC8F8001062514B60304600F0C8
:103ED4002FF804F10B00231D20F00700C21A1CBFA9
:103EE4001B1AA350AFE76268A3420CBFC8F80020B6
:103EF4005A60EBE723466468AEE73C467F68B6E762
:103F04001A465B68A342FBD100235360DEE70C230F
:103F14003046336000F00CF894E70560D6E700BF44
:103F2400840200200148FFF711BF00BF7C0200207B
:103F34000148FFF70CBF00BF7C0200202DE9F047C9
:103F44001F468E688246BE420C4690460B682DD8AA
:103F5400B1F90C2012F4906F26D06569096905EB5C
:103F64004505A3EB010905EBD5757B1C4B446D108E
:103F74009D4238BF1D46530527D52946FFF752FFFA
:103F8400064660B34A46216900F0FAFAA38923F48D
:103F9400906343F08003A38126614E4426603E462D
:103FA4006561A5EB0905A560BE4200D93E463246CF
:103FB4004146206800F0ACFA0020A3689B1BA36074
:103FC400236833442360BDE8F0872A4600F0E6FA0C
:103FD40006460028E0D150462169FFF7B9FE0C23BC
:103FE400CAF80030A3894FF0FF3043F04003A381A7
:103FF400E9E700002DE9F04F98468B8907461B0638
:104004000D4614469DB010D50B6973B94021FFF7D6
:1040140009FF2860286130B90C233B604FF0FF3062
:104024001DB0BDE8F08F40236B610023099320236A
:104034008DF8293030234FF00109CDF80C80DFF8DA
:1040440098818DF82A3023469A4613F8012B0AB139
:10405400252AF9D1BAEB040B0BD05B46224629463C
:104064003846FFF76BFF013000F0A780099A5A44E5
:1040740009929AF80030002B00F09F8000234FF043
:10408400FF32CDE905230AF1010A049307938DF861
:1040940053301A935446052214F8011B4E4800F07D
:1040A40061FA049AD8B9D00644BF20238DF853305E
:1040B400110744BF2B238DF853309AF800302A2B74
:1040C40015D0544600204FF00A0C079A214611F8E7
:1040D400013B303B092B4BD9B0B1079214E0A0EB64
:1040E400080309FA03F31343A2460493D2E7039B9C
:1040F400191D1B680391002BBBBF5B4242F00202F7
:1041040007930793B8BF049223782E2B0AD16378C0
:104114002A2B32D1039B02341A1D1B68039243EAF3
:10412400E3730593DFF8B4A003225046217800F02E
:1041340019FA38B14022049BA0EB0A0082401343D1
:104144000134049314F8011B062225488DF8281025
:1041540000F008FA002836D0224B1BBB039B073320
:1041640023F0070308330393099B334409936AE755
:104174000C4601200CFB0232A8E700234FF00A0C86
:10418400194601340593204610F8012B303A092AC8
:1041940003D9002BC6D00591C4E7044601230CFBC8
:1041A4000121F0E703AB00932A4638460E4B04A9DD
:1041B400AFF30080421C0646D6D1AB895B063FF5BF
:1041C4002DAF09982CE703AB00932A463846064BDB
:1041D40004A900F07DF8EDE7D64B0008DC4B00089D
:1041E400E04B000800000000413F00082DE9F047C3
:1041F400164698468A680B6907469342B8BF134629
:10420400336091F843200C46DDF820900AB1013365
:1042140033602368990642BF3368023333602568EC
:1042240015F0060506D104F1190AE36832689B1AF1
:10423400AB422BDC94F843302268003B18BF0123C7
:10424400920630D44146384604F14302C84701304F
:1042540023D02368226903F00603042B14BF00252E
:1042640033684FF0000608BFE56804F11A0408BF7C
:10427400ED1A54F8123C08BF25EAE5759342C4BF11
:104284009B1AED18B5421AD1002008E001235246CA
:1042940041463846C847013003D14FF0FF30BDE8EE
:1042A400F0870135C1E73020E11881F843005A1C3A
:1042B40094F845102244023382F84310C2E70123E4
:1042C400224641463846C8470130E6D00136D9E790
:1042D4002DE9FF470F7E9146782F80460C469A467B
:1042E4000C9E01F1430207D8622F0AD8002F00F078
:1042F400D380582F00F0BA8004F1420684F842704B
:104304003AE0A7F16303152BF6D801A151F823F085
:104314006D43000881430008FD420008FD42000887
:10432400FD420008FD42000881430008FD420008E8
:10433400FD420008FD420008FD42000883440008D5
:10434400AB4300083D440008FD420008FD4200085C
:10435400A5440008FD420008AB430008FD420008E4
:10436400FD4200084544000833681A1D1B6832608A
:1043740004F1420684F8423001239EE03368206849
:10438400191D3160060601D51D6803E04506FBD5FD
:10439400B3F90050002D03DA2D236D4284F8433025
:1043A4000A23594811E021683368080653F8045B6E
:1043B40002D4490648BFADB26F2F336014BF0A233D
:1043C40008235148002184F843106668002EA8BFD2
:1043D4002168A660A4BF21F0040121600DB9002E5C
:1043E4004BD01646B5FBF3F103FB1157C75D06F836
:1043F400017D2F46BB420D46F4D9082B0BD123680F
:10440400DF0708D5236961689942DEBF302306F8C7
:10441400013C06F1FF36921B22614B462146404681
:10442400CDF800A003AAFFF7E1FE01304AD14FF016
:10443400FF3004B0BDE8F087236843F02003236015
:104444007827324884F84570236831681F0651F88C
:10445400045B02D45F0648BFADB23160D90744BFE4
:1044640043F0200323601DB11023ABE72648E9E79E
:10447400236823F020032360F6E71646BDE733687C
:104484002568181D616930602E061B6801D5196006
:1044940002E06806FBD51980002316462361BCE7B9
:1044A400336800211A1D32601E686268304600F0CD
:1044B40059F808B1801B606063682361002384F8A5
:1044C4004330AAE73246494640462369D047013083
:1044D400ADD023689B0713D4E068039B9842B8BF10
:1044E4001846A6E70123324649464046D0470130E4
:1044F4009DD00135E36803995B1AAB42F2DCEBE72C
:10450400002504F11906F5E7E74B0008F84B00080D
:10451400884210B501EB020402D98442234607D82D
:10452400431EA14208D011F8012B03F8012FF8E72C
:10453400014602448A4200D110BD13F8014D02F82D
:10454400014DF7E738B50023054D044608462B60B6
:10455400FCF7BAFD431C02D12B6803B1236038BDBC
:1045640078020020034610B5C9B2024493421846AB
:1045740001D1002003E0047801338C42F6D110BD50
:104584000A44914200F1FF3300D1704710B511F88D
:10459400014B914203F8014FF9D110BD2DE9F041CF
:1045A400804615460C4621B91146BDE8F041FFF797
:1045B40039BC2AB9FFF7CCFB00242046BDE8F081C2
:1045C40000F01AF88542064602D8B5EB500FF4D82D
:1045D40029464046FFF726FC07460028ECD0B542A2
:1045E4002A46214628BF3246FFF7CAFF21464046E5
:1045F400FFF7AEFB3C46E0E751F8043C181F002BE4
:10460400BCBF0B58C0187047F8B500BFF8BC08BC55
:104614009E467047F8B500BFF8BC08BC9E4670477C
:104624006565325F72656164427974653A20484118
:104634004C5F4932435F4D656D5F526561643A205A
:1046440073746174757320213D2048414C5F4F4B56
:104654000D0A00006565325F77726974654279748A
:10466400653A202048414C5F4932435F4D656D5F98
:1046740057726974653A2073746174757320213DAF
:104684002048414C5F4F4B0D0A0000005442440047
:10469400554E4B4E4F574E004C4F575F504F57455A
:1046A400525F52455345540057494E444F575F5744
:1046B40041544348444F475F52455345540000001A
:1046C400494E444550454E44454E545F574154432A
:1046D40048444F475F52455345540000534F465496
:1046E400574152455F52455345540000504F57457A
:1046F400522D4F4E5F52455345542028504F522956
:10470400202F20504F5745522D444F574E5F52454E
:10471400534554202850445229000000455854451C
:10472400524E414C5F52455345545F50494E5F527F
:1047340045534554000000000D0A2323232323235B
:104744002323232323232323232323232323232335
:104754002323232323232323232323232323232028
:10476400535441525420424F4F544C4F41444552AC
:1047740020353736303020232323232323232323B8
:1047840023232323232323232323232323232323F5
:104794002323232323232323232323230D0A00005A
:1047A4003E3E20426F6F744C6F6164657220666197
:1047B400696C6564203E3E0D0A0000002323232318
:1047C40023232323232323232323232323232323B5
:1047D40023232323232323232048414C5F464C4196
:1047E40053485F556E6C6F636B203E3E20464149D3
:1047F4004C45442120506C656173652074727920A6
:10480400616761696E206C617465722E2E2E0D0ACB
:1048140000000000092A2A2A2A2A0948414C5F4636
:104824004C4153485F556E6C6F636B203E3E204F86
:104834004B092A2A2A2A2A090D0A0000092A2A2AA7
:104844002A2A0945726173696E6720466C61736830
:10485400204D656D6F72792E2E2E092A2A2A2A2A56
:10486400090D0A00092A2A2A2A2A0945726173694C
:104874006E6720466C617368204641494C4544216B
:10488400092A2A2A2A2A090D0A000000092A2A2AA2
:104894002A2A0945726173696E6720466C617368E0
:1048A40020446F6E6521092A2A2A2A2A090D0A0042
:1048B4003E3E204170706C69636174696F6E207351
:1048C400697A653A2025640D0A0000003E3E2046C0
:1048D4006C6173682057726974696E672050726FD7
:1048E4006772657373203E3E2025642525200D0ADA
:1048F400000000003E3E20464C4153485F57524959
:1049040054455F4E4F545F4F4B210D0A0000000089
:10491400092A2A2A2A2A0948414C5F464C4153480D
:104924005F4C6F636B203D3E204F4B092A2A2A2A95
:104934002A090D0A00000000232323232323232311
:104944002323232323232323232323232323232333
:10495400232323232050726F6772616D6D696E6724
:1049640020464C4153482066696E6973686564202B
:104974007375636365737366756C6C792E2E2E0D77
:104984000A00000023232323232323232323232375
:1049940023232323232323232323232323232323E3
:1049A4002050726F6772616D6D696E6720464C416D
:1049B4005348204641494C454421204572726F7248
:1049C400206F6363757272656420696E2077726903
:1049D40074696E6720696E746F2074686520464C34
:1049E400415348204D656D6F72790D0A0000000037
:1049F4002323232323232323232323232323232383
:104A04002323232323232323232323232050726FAD
:104A14006772616D6D696E6720464C41534820464C
:104A240041494C454421204572726F72206F636383
:104A3400757272656420696E204C6F636B696E6772
:104A44002074686520464C415348204D656D6F7253
:104A5400790D0A002323232323232323232323231E
:104A64002323232323232323232323232323232312
:104A740020424F4F544C4F41444552203E3E204E1D
:104A84006F204E65772050726F6772616D20746F6E
:104A9400207772697465210D0A0000002323232303
:104AA40023232323232323232323232323232323D2
:104AB4002323232323232323204A756D70696E67E0
:104AC40020746F204E4557204170706C6963617487
:104AD400696F6E0D0A00000023232323232323235D
:104AE4002323232323232323232323232323232392
:104AF40023232323204A756D70696E6720746F2009
:104B04004170706C69636174696F6E0D0A00000016
:104B14002323232323232323232323232323232361
:104B2400232323232323232323232323204A554DD1
:104B3400502041444452455353203E3E20253038B2
:104B44006C580D0A0000000023232323232323236E
:104B54002323232323232323232323232323232321
:104B64002323232323232323232323232320454EC7
:104B7400444F4620424F4F544C4F4144455220230A
:104B840023232323232323232323232323232323F1
:104B940023232323232323232323232323232323E1
:104BA400232323230D0A000000000000000000005E
:104BB40001020304060708090000000001020304BF
:104BC40002030405060708090A0B0C0D0E0F10104A
:104BD4000102232D302B2000686C4C00656667456C
:104BE4004647003031323334353637383941424361
:104BF4004445460030313233343536373839616212
:084C0400636465660000000016
:084C0C0018B6FF7F0100000053
:044C14000902000889
:044C1800E5010008AA
:104C1C000024F4001000000001000000100000202F
:104C2C000000000040010020A8010020100200201C
:104C3C000000000000000000000000000000000068
:104C4C000000000000000000000000000000000058
:104C5C000000000000000000000000000000000048
:0C4C6C000000000000000000000000003C
:0400000508001231AC
:00000001FF
