:4000000050DBFF1F11000000093B0000093B000080B500AF024A034B1B68136003F07EFDBC760040FA46004010B5054C237833B9044B13B10448AFF300800123237010BD68
:400040004081FF1F0000000084740000084B10B51BB108490848AFF300800848036803B910BD074B002BFBD0BDE81040184700BF000000004481FF1F84740000C880FF1F22
:40008000000000002DE9F04188B000AFF860B9607A606A4690467868421EFA61024611464FF00002D60046EA5176CD00024611464FF00002D40044EA5174CB000346073337
:4000C000DB08DB00ADEB030D6B460033BB61BB69B968184604F07AFCBB697A681946F86806F014F878617B69002B01D1012303E0044803F087FE0023C54618462037BD465B
:40010000BDE8F0819074000080B584B000AF78600023FB6007F10C031946786805F042FF0346002B03D0786805F08CFF01E00023FB60FB6818461037BD4680BD80B584B004
:4001400000AF0346FB710023FB730023BB730023BB60FB79013B052B21D801A252F823F0790100007F0100009F010000850100008B010000950100000123FB7310E001233A
:40018000BB730DE00123BB600AE00123FB730123BB6005E00123BB730123BB6000E000BFBB68002B11D04F4805F072FD0346002B0BD14D4B49221A704B4B31225A704A4BC6
:4001C00000229A70474805F089FDFB7B002B03D1BB7B002B00F08280444B1B78002B7DD1434805F055FD0346002B77D1414B1B78002B3FD0404805F071FDFB7B002B0BD018
:400200003E4B1B781A463E4B302199543B4B1B780133DAB2394B1A70BB7B002B0BD0374B1B781A46364B31219954344B1B780133DAB2324B1A70314B1A78324B1B789A4250
:400240004CD32E4B1B781A462D4B002199542B4B1B780133DAB2294B1A70274805F08CFD264B00221A70234B00221A70204805F035FD33E01F4B01221A701F4805F02EFD42
:400280001E4B00221A701E4B50221A701C4B31225A701B4B57229A70184B03221A70FB7B002B0BD0154B1B781A46154B30219954124B1B780133DAB2104B1A70BB7B002BE2
:4002C0000CD00E4B1B781A460D4B312199540B4B1B780133DAB2094B1A7000BF00BF1037BD4680BDDCBAFF1F0CC7FF1F42BBFF1FF0BAFF1F44BBFF1FB4BAFF1F45BBFF1F64
:4003000084C6FF1FCC80FF1F80B584B000AF0346FB710023FB730023BB730023BB60FB79013B052B21D801A252F823F0450300004B0300006B030000510300005703000073
:40034000610300000123FB7310E00123BB730DE00123BB600AE00123FB730123BB6005E00123BB730123BB6000E000BFBB68002B11D04F4805F08CFC0346002B0BD14D4B1E
:4003800049221A704B4B31225A704A4B00229A70474805F0A3FCFB7B002B03D1BB7B002B00F08280444B1B78002B7DD1434805F06FFC0346002B77D1414B1B78002B3FD04E
:4003C0003B4805F08BFCFB7B002B0BD03D4B1B781A463D4B302199543A4B1B780133DAB2384B1A70BB7B002B0BD0364B1B781A46354B31219954334B1B780133DAB2314BA0
:400400001A70304B1A78314B1B789A424CD32D4B1B781A462C4B002199542A4B1B780133DAB2284B1A702A4805F0A6FC254B00221A70234B00221A70204805F04FFC33E06C
:400440001F4B01221A70224805F048FC1D4B00221A701D4B50221A701B4B32225A701A4B57229A70174B03221A70FB7B002B0BD0144B1B781A46144B30219954114B1B7873
:400480000133DAB20F4B1A70BB7B002B0CD00D4B1B781A460C4B312199540A4B1B780133DAB2084B1A7000BF00BF1037BD4680BD04BBFF1F08C7FF1F48BBFF1F18BBFF1F14
:4004C0004ABBFF1F4BBBFF1F10C7FF1FCE80FF1FC8BAFF1F90B585B000AF78603960386804F07CFAB860BB68002B1AD07B68FB600FE0FA68BB68D418FA68BB6813441846E8
:4005000004F06CFA034601331A462146F86804F015FA3968F86804F069FAF860FB68002BE7D17B6818461437BD4690BD80B59EB000AFAE4803F066FCAD48FFF7E5FD7867BF
:400540007B6F002B00F04A82AA4805F015FC0B22A949786F04F0D8F90346002B14D1A74B1B78002B10D0A54803F04EFE002003F0EDFDA34803F046FCA04803F043FCA148B2
:4005800003F040FC00F0DCFC0B229F49786F04F0BBF90346002B14D19C4B1B78002B10D09A4803F031FE002003F0D0FD984803F029FC964803F026FC924803F023FC00F017
:4005C000EFFC0C229349786F04F09EF90346002B17D1914B1B78002B13D08F4803F014FE002003F0B3FD8D4805F0C6FB8C4803F009FC894803F006FC824803F003FC00F053
:4006000087FC0C228749786F04F07EF90346002B14D1854B1B78002B10D0834803F0F4FD002003F093FD814803F0ECFB7E4803F0E9FB744803F0E6FB00F09AFC0B227C4986
:40064000786F04F061F90346002B14D1794B01221A70784B1A78784B1B789A420BD0754B1A78754B1A70734B1B78184603F0B2FE724803F0C7FB0C227149786F04F044F9BC
:400680000346002B14D16B4B00221A70694B1A78694B1B789A420BD0664B1A78664B1A70644B1B78184603F095FE664803F0AAFB0B226549786F04F027F90346002B14D122
:4006C000624B01221A70614B1A78614B1B789A420BD05E4B1A785E4B1A705C4B1B78184603F096FE5B4803F08DFB0C225A49786F04F00AF90346002B14D1544B00221A706E
:40070000524B1A78524B1B789A420BD04F4B1A784F4B1A704D4B1B78184603F079FE4F4803F070FB0B224E49786F04F0EDF80346002B0FD14B4B01221A704A4B1A784A4B94
:400740001B789A4206D0474B1A78474B1A70474803F058FB0D224649786F04F0D5F80346002B0FD13F4B00221A703E4B1A783E4B1B789A4206D03B4B1A783B4B1A703D4899
:4007800003F040FB0B223C49786F04F0BDF80346002B0FD1394B01221A70384B1A78384B1B789A4206D0354B1A78354B1A70354803F028FB0D223449786F04F0A5F803464B
:4007C000002B0FD12D4B00221A702C4B1A782C4B1B789A4206D0294B1A78294B1A702B4803F010FB0D222A49786F53E0A8740000D8B9FF1F8CBAFF1FFC74000084C6FF1FCD
:40080000087500002C7500003075000010C7FF1F3C750000607500000CC7FF1FDCBAFF1F707500009875000008C7FF1FA8750000D075000040BBFF1F41BBFF1FDC75000010
:40084000EC750000FC7500000C76000046BBFF1F47BBFF1F1876000028760000387600004876000042BBFF1F43BBFF1F5476000064760000747600008476000048BBFF1F6D
:4008800049BBFF1F90760000A0760000B0760000C076000004F038F80346002B23D100233B675049786FFFF715FE3867386F03F0FBFF0346DAB24C4B1A704B4B1A784B4BDD
:4008C0001B789A420FD0484B1A78484B1A70464B1B781A463B464649184604F053F83B46184603F08FFA0D224249786F04F00CF80346002B23D10023FB663E49786FFFF7F3
:40090000E9FDF866F86E03F0CFFF0346DAB23A4B1A70394B1A78394B1B789A420FD0364B1A78364B1A70344B1B781A463B463449184604F027F83B46184603F063FA072229
:400940003049786F03F0E0FF0346002B36D12E4805F0C4F90023BB662A49786FFFF7BAFDB866B86E03F0A0FF78667B6EDAB2274B1A70264B1A78264B1B789A421ED0234BF3
:400980001A78234B1A70214B1B78062B05D91F4B01221A701E4B01221A701C4B1B78184602F082FE194B1B781A463B461949184603F0E8FF3B46184603F024FA08221649BD
:4009C000786F03F0A1FF0346002B07D1134803F019FAFA2004F05CFF03F0E4FD0A2004F057FFA9E5C0760000CC80FF1FCD80FF1FD0760000E4760000CE80FF1FCF80FF1F0D
:400A0000F476000008770000A0BAFF1F54BBFF1F55BBFF1F10770000247700003077000080B582B000AF5B4B93F87830002B02D1A52000F0D7FB574B93F877300133DAB229
:400A4000544B83F8772005F0BDFB4FF0800080F3118800BF00BF4F4B1B78DBB20133DAB24C4B1A704B4B5B78DBB20133DAB2494B5A70484BDB6B002B03D0464BDB6B1B68EF
:400A80009847454805F02AF903F006FB0346FB71FB79002B17D1414B1B684149FA79CA543E4B1B6801333D4A13603C4B1B681A463B493C48FFF7E6FA374805F05DF9374B8A
:400AC00000221A6009E0354B1B683549FA79CA54324B1B680133314A13602E4B1B78DBB2012B0CD12B4B5B68002B08D0294BDB6B002B0CD0274BDB6B9B68984707E0254BAD
:400B0000DB6B002B03D0234BDB6B5B689847214B5B78DBB2013BDAB21E4B5A701D4B1B78DBB2012B16D11B4B5B68002B12D0194B93F87730002B02D1982000F053FB154B99
:400B400093F87730013BDAB2124B83F8772004F058FC0FE00F4B93F87730002B02D1982000F040FB0B4B93F87730013BDAB2094B83F87720074B1B78DBB2013BDAB2054B28
:400B80001A704FF0000080F3118800BF0837BD4680BD00BFE8C4FF1F8CBAFF1F50BBFF1F94C7FF1FD8B9FF1F80B582B000AF494B93F87830002B02D1A52000F013FB454BB6
:400BC00093F877300133DAB2424B83F8772005F0F9FA4FF0800080F3118800BF00BF3D4B1B78DBB20133DAB23A4B1A70394B5B78DBB20133DAB2374B5A70364BDB6B002BDA
:400C000003D0344BDB6B1B68984703F0C3FB0346FB71FB791846FFF791FA2E4B1B78DBB2012B0CD12B4B5B68002B08D0294BDB6B002B0CD0274BDB6B9B68984707E0254B71
:400C4000DB6B002B03D0234BDB6B5B689847214B5B78DBB2013BDAB21E4B5A701D4B1B78DBB2012B16D11B4B5B68002B12D0194B93F87730002B02D1982000F0B3FA154BF9
:400C800093F87730013BDAB2124B83F8772004F0B8FB0FE00F4B93F87730002B02D1982000F0A0FA0B4B93F87730013BDAB2094B83F87720074B1B78DBB2013BDAB2054B29
:400CC0001A704FF0000080F3118800BF0837BD4680BD00BFE8C4FF1F80B582B000AF494B93F87830002B02D1A52000F07BFA454B93F877300133DAB2424B83F8772005F03D
:400D000061FA4FF0800080F3118800BF00BF3D4B1B78DBB20133DAB23A4B1A70394B5B78DBB20133DAB2374B5A70364BDB6B002B03D0344BDB6B1B68984703F03BFB03464A
:400D4000FB71FB791846FFF7DFFA2E4B1B78DBB2012B0CD12B4B5B68002B08D0294BDB6B002B0CD0274BDB6B9B68984707E0254BDB6B002B03D0234BDB6B5B689847214BD0
:400D80005B78DBB2013BDAB21E4B5A701D4B1B78DBB2012B16D11B4B5B68002B12D0194B93F87730002B02D1982000F01BFA154B93F87730013BDAB2124B83F8772004F0F9
:400DC00020FB0FE00F4B93F87730002B02D1982000F008FA0B4B93F87730013BDAB2094B83F87720074B1B78DBB2013BDAB2054B1A704FF0000080F3118800BF0837BD469F
:400E000080BD00BFE8C4FF1F80B500AF054802F0F9FF054804F0B0FF044B00221A6000BF80BD00BF407700008CBAFF1F50BBFF1F80B59AB000AF144804F09EFF134B01225B
:400E40001A70124B1A78124B1B789A4214D00F4B1A780F4B1A700D4B1B78184602F024FC0A4B1B781A463B1D0A49184603F08AFD3B1D184602F0C6FF034804F02FFF00BFBA
:400E80006837BD4680BD00BFA0BAFF1F54BBFF1F55BBFF1F5C77000080B500AF084802F0B1FF084804F068FF074B00221A70074B00221A70064B00221A7000BF80BD00BFB9
:400EC00084770000B4BAFF1F45BBFF1F44BBFF1F84C6FF1F80B500AF084802F093FF084804F04AFF074B00221A70074B00221A70064B00221A7000BF80BD00BFA4770000B4
:400F0000C8BAFF1F45BBFF1F44BBFF1F84C6FF1F80B500AF064802F075FF064804F02CFF054B00221A70054804F026FF00BF80BDC4770000DCBAFF1F0CC7FF1F8CBAFF1FC7
:400F400080B500AF064802F05DFF064804F014FF054B00221A70054804F00EFF00BF80BDE8770000F0BAFF1F84C6FF1F8CBAFF1F80B500AF064802F045FF064804F0FCFEBF
:400F8000054B00221A70054804F0F6FE00BF80BD0C78000004BBFF1F08C7FF1F8CBAFF1F80B500AF064802F02DFF064804F0E4FE054B00221A70054804F0DEFE00BF80BDC9
:400FC0003078000018BBFF1F10C7FF1F8CBAFF1F80B500AF044804F0CFFE03F039FB024804F07CFE00BF80BD2CBBFF1F80B584B004AF022302934FF480530193054B0093CB
:40100000054BC8220549064804F08EFB00BFBD4680BD00BF5C81FF1F2D050000547800005C91FF1F80B500AF42F628020249034804F058FF00BF80BDB091FF1FD8B9FF1F6A
:4010400080B500AF064803F081FB064B04221A60054803F0C9FB054803F0F8F900BF80BD210A000000E100E0A90B0000D90C000080B400AF074B00221A70074B00221A7049
:40108000064B00221A70064B00221A7000BFBD4680BC704784C6FF1F0CC7FF1F10C7FF1F08C7FF1F80B500AF32221949194804F099FD4FF47A721849184804F093FD142217
:4010C0001749184804F08EFD14221749174804F089FD4FF47A721649164804F083FD4FF47A721549154804F07DFD4FF47A721449144804F077FD4FF47A721349134804F060
:4011000071FD64221249134804F06CFD00BF80BD090E00008CBAFF1F310E0000A0BAFF1F990E0000B4BAFF1FD50E0000C8BAFF1F110F0000DCBAFF1F410F0000F0BAFF1FD8
:40114000710F000004BBFF1FA10F000018BBFF1FD10F00002CBBFF1F80B500AF62B60021032003F02FFA03F073FA05F01BFB00F091F900F02FF8FFF763FFFFF737FFFFF7BA
:4011800051FFFFF78FFFFFF773FF0F4802F03AFE0E4B01221A700E4B01221A700B4B1B78184602F0BDFAFFF713FF05F035FC02464CF691139A4202D0FD2000F013F805F05F
:4011C00069FB0023184680BD6078000054BBFF1F55BBFF1F80B500AF02F034FD02F0D8FE00BF80BD80B582B000AF0346FB8005F057F80B4B00225A704FF0000080F3118824
:40120000074AFB88A2F8743000BF054BB3F874309BB2002BF9D100BF0837BD4680BD00BFE8C4FF1F80B582B000AF786004F00AF900BF0837BD4680BD80B582B000AF786024
:4012400004F014F900BF0837BD4680BD80B485B000AF7860114B1B68002B02D10F4B104A1A600E4B1B68FB600C4B1A687B6813440C4A934205D90C4B0C221A604FF0FF3371
:4012800006E0064B1A687B681344044A1360FB6818461437BD4680BC704700BF5CBBFF1F50D3FF1F50D7FF1F4CD3FF1F80B483B000AF03463960FB7197F90730002B0BDA86
:4012C0000D49FB7903F00F03043B3A68D2B25201D2B20B441A7609E0084997F907303A68D2B25201D2B20B4483F8002300BF0C37BD4680BC704700BF00ED00E000E100E0D4
:4013000080B582B000AF78607B68013BB3F1807F01D301230FE00A4A7B68013B536007214FF0FF30FFF7C2FF054B00229A60044B07221A60002318460837BD4680BD00BF86
:4013400010E000E080B400AF024B9B681846BD4680BC704710E000E080B400AF034B5B6803F080631846BD4680BC704700ED00E080B500AF444B1B6803F00103002B04D16E
:40138000424B1B680133414A1360414B93F87830002B02D1A520FFF725FF3D4B93F877300133DAB23A4B83F87720394B1B78DBB20133DAB2364B1A7004F004FF344BDB6B13
:4013C000002B03D0324BDB6B1B68984704F034FB00F054FA2E4B1B78DBB2012B0CD12C4B5B68002B08D02A4BDB6B002B0CD0284BDB6B9B68984707E0254BDB6B002B03D092
:40140000234BDB6B5B6898474FF0800080F3118800BF00BF1E4B1B78DBB2012B16D11C4B5B68002B12D01A4B93F87730002B02D19820FFF7D7FE164B93F87730013BDAB2C7
:40144000134B83F8772003F0DCFF0FE0104B93F87730002B02D19820FFF7C4FE0C4B93F87730013BDAB20A4B83F87720084B1B78DBB2013BDAB2064B1A704FF0000080F3C4
:40148000118800BF80BD00BF001000E04CCCFF1FE8C4FF1FB0B586B000AF2C4B5B78DBB20F2B02D99920FFF79DFE4FF0800080F3118800BF00BF254B5B78DBB20133DAB28F
:4014C000224B5A7022490E2003F0CEF821490F2003F0CAF84CF25030FFF712FF06214FF0FF30FFF7E3FE1C4B3C1D1D460FCD0FC42B6823603B1D184603F0F4FF02F00CF86A
:40150000164800F05DFA164800F068FA154800F073FA0E4B5B78DBB20F2B02D99920FFF761FE0A4B5B78DBB2013BDAB2074B5A70064B5B78DBB2002B03D14FF0000080F3C5
:40154000118800BF1837BD46B0BD00BFE8C4FF1F0553000071130000B878000015700000D1700000836D000080B400AFFEE700BF80B582B000AF0346FB71FB79184600F0F5
:40158000CBF900BF0837BD4680BD00BF80B400AF034B4FF47A721A6000BFBD4680BC70477CBBFF1F80B400AF034B00221A6000BFBD4680BC704700BF7CBBFF1F80B483B089
:4015C00000AF1E4B1B687B607B6823F03F037B607B681B681A4A1360194B1B68173B00221A70174B1B68023B08221A70144B1B68033B12221A70124B1B68183B00221A70AD
:401600000F4B1B68163B00221A700D4B1B68013B52221A700A4B1B68153B1A46094B1A60074B1B68203B1A46074B1A60074B00221A6000BF0C37BD4680BC704708ED00E04E
:4016400060BBFF1F74BBFF1F70BBFF1F64BBFF1F80B582B000AF00237B604FF0800080F3118800BF00BF0F4B1B68002B04D10D4B01221A6001237B600B4B5B78DBB20F2B40
:4016800002D99920FFF7AEFD074B5B78DBB2002B03D14FF0000080F311887B6818460837BD4680BD80BBFF1FE8C4FF1F80B400AF034B00221A6000BFBD4680BC704700BFD5
:4016C00080BBFF1F80B582B000AF1B4B1B68183B1B78DBB2002B2BD0184B1B68002B22D0174B1B68144A1268183A1278D2B2C2F1080213443B6000237B600BE00F4B1B6864
:401700003A681278104698473B6801333B607B6801337B60084B1B68183B1B78DBB21A467B689A42EADC044B1B68183B00221A7000BF0837BD4680BD60BBFF1F9CCBFF1FE9
:4017400070BBFF1F80B586B000AF0346FB7100237B61254B1B683B613B69FA791A703B6901333B617B6901337B61204B1B68002B17D07B69112B11DC1C4B1B689847F8608C
:40178000FB68002B0CDBFB68DAB23B691A703B6901333B617B6901337B61EAE700BF00E000BF4FF0800080F3118800BF00BFFFF7EDFE0F4B1B68163B7A69D2B21A700D4B5F
:4017C0005B78DBB20F2B02D99920FFF70BFD094B5B78DBB2002B03D14FF0000080F3118800BF1837BD4680BD74BBFF1F94CBFF1F60BBFF1FE8C4FF1F80B500AF064B1B68EC
:40180000002B06D000BF044B1B6898470346002BF9DA00BF80BD00BF94CBFF1F80B500AF124B1B68163B1B78DBB2002B1CD1FFF7B9FE0F4B1B68002B08D00E4B1B78184694
:40184000FFF780FF0A4B00221A600DE00A4B1B68002B09D0FFF7FCFE0346002B04D0064B1B689847FFF722FF00BF80BD60BBFF1F64BBFF1F68BBFF1F98CBFF1F80B500AF1F
:4018800004F0EAFF0346002B3AD01E4B1B68002B04D1FFF793FE1B4B01221A601A4B1B68173B1B78DBB2002B2AD0184B1B68002B0BD0164B1B68013B144A1360134B1B681A
:4018C000002B02D1124B01221A60114B1B68002B12D00D4B1B68173B00221A700C4B00221A600C4B00221A60FFF786FF064B1B68183B00221A7003E0FFF7E4FEFFF78EFFB9
:4019000000BF80BD6CBBFF1F60BBFF1F7CBBFF1F78BBFF1F64BBFF1F80B582B000AF0346FB7104F099FF0346002B37D0204B1B68002B04D1FFF742FE1D4B01221A601D4BE7
:401940001B68173B1B78DBB2002B20D0194B1B68163B1B78DBB2002B12D1FFF779FE0346002B06D0FB791846FFF7ECFEFFF79EFE1AE0114B01221A60104AFB79137013E0BF
:401980000D4B01221A600D4AFB7913700CE004F087FC05F0C5F904F01BF805E004F080FC05F0BEF904F014F800BF0837BD4680BD6CBBFF1F60BBFF1F64BBFF1F68BBFF1F8C
:4019C00080B483B000AF7860034A7B68136000BF0C37BD4680BC70479CCBFF1F80B483B000AF7860034A7B68136000BF0C37BD4680BC704798CBFF1F80B483B000AF7860E1
:401A0000034A7B68136000BF0C37BD4680BC704794CBFF1F80B582B000AF244B3B60A8220021386802F0A5FF3B6803221A613B6803225A613B681E4A9A613B681D4ADA613C
:401A40003B684FF480621A623B6800229A623B6800225A623B680022DA623B68144A1A663B68154A5A663B6810229A663B6800221A673B680022DA663B6800225A670023D3
:401A80007B600CE07B68C3F10F030C4AD15C3A687B6813440A461A707B6801337B607B680F2BEFD900BF0837BD4680BDA0CBFF1FCC78000084BBFF1F84BFFF1FD87800008D
:401AC00080B58CB000AFF860B9607A603E4B3B623B6A1B78DBB2002B01D1FFF79BFFFA6813465B001344DB006033374A1344FB61BB687B62FB691B69BB62FB69DB68BB612C
:401B00000023FB62BA6ABB699A422BD9FB699A68BB6AD31A7B617A697B68934228BF13467B61FB695A68BB6A13443B617A693969786A02F0F8FEFA6A7B691344FB627A6A85
:401B40007B6913447B627A687B69D31A7B60BA6A7B691344BB62FB699A68BB6A9A4201D10023BB62BA69BB6AD31A7B617A697B68934228BF13467B617B69002B19D0FB69A6
:401B80005A68BB6A13443B617A693969786A02F0CAFEFA6A7B691344FB627A6A7B6913447B627A687B69D31A7B60BA6A7B691344BB62FB6A002B02D0FB69BA6A1A61FB6A5E
:401BC00018463037BD4680BDA0CBFF1F80B588B000AFF860B9607A603B603C4BBB61BB691B78DBB2002B01D1FFF714FFEFF311834FF0200181F311887B61344B3B6100236B
:401C0000FB613969FB695A1C13465B001344DB000B4404331B68002B08D0FB690133FB613B691A69FB699A42EBDC00E000BF3B691A69FB699A423DDD3969FB695A1C1346C3
:401C40005B001344DB000B44FA681A603969FB695A1C13465B001344DB000B440433BA681A603969FA6913465B001344DB000B4420337A681A603969FA6913465B0013442F
:401C8000DB000B44283300221A603969FA6913465B001344DB000B44243300221A603969FA6913465B001344DB000B442C333A681A6002E04FF0FF33FB617B6983F311887F
:401CC000FB6918462037BD4680BD00BFA0CBFF1F80B58AB000AFF860B9607A603B60204B3B623B6A1B78DBB2002B01D1FFF792FE1B4BFB61FB68022B2AD8EFF311834FF0E6
:401D0000200181F31188BB61FA6813465B001344DB006033FA6913447B61FB68002B0ED07B69BA681A607B697A685A607B693A689A607B6900221A617B690022DA607B6957
:401D40003A6B5A61BB6983F3118800237B6202E04FF0FF337B627B6A18462837BD4680BDA0CBFF1F80B487B000AFF860B9607A6000233B61BB68002B0FD002E03B6901332A
:401D80003B61BA683B6913441B78002BF6D13A697B689A4201D97B683B613B69FE2B06D8FB685A1CFA603A69D2B21A7011E0FB685A1CFA60FF221A70FB685A1CFA603A69F6
:401DC000D2B21A70FB685A1CFA603A69120AD2B21A7000237B610AE0FB685A1CFA60BA68511CB96012781A707B6901337B617A693B699A42F0D3FB6818461C37BD4680BC90
:401E0000704700BF80B483B000AF78607B68043318460C37BD4680BC704700BF80B582B000AF324B1B7E1846FB1C01221946FFF747FE03467B607B68002B52DDFB78052B6C
:401E400022D0052B0BDC022B15D0022B02DC012B0ED034E0032B11D0042B12D02FE0072B18D0072B13DB7F2B36D0802B15D026E000F044FC35E000F0FBFC32E000F0D4FE6F
:401E80002FE000F099FE2CE000F018FD29E001F0F7FA26E001F0D6FA23E0144B1B7E1846FB1C01221946FFF70BFE03467B607B68002B13DDFB78184601F044FA0EE0FB7855
:401EC0005BB2002B0CDA094B1B7E1846FB1C01221946FFF7F5FD03E000BF02E000BF00E000BF00BF0837BD4680BD00BFA0C3FF1F80B58CB000AF01233B713B1D0133FB61C0
:401F0000FB69FB62314B5B69BB620BE0FB6A5A1CFA62BA6AD2B262F07F02D2B21A70BB6ADB09BB62BB6A7F2BF0D8FB6A5A1CFA62BA6AD2B21A70FB6AFB61254B1B68BB61E2
:401F4000224BDB68BA69D31A7B61FB697B627B693B620BE07B6A5A1C7A623A6AD2B262F07F02D2B21A703B6ADB093B623B6A7F2BF0D87B6A5A1C7A623A6AD2B21A707B6ACD
:401F8000FB61124B5B781846FA693B1DD31A1A463B1D194601F042FB03463B613B69002B09D00A4ABB69D360084B1B78013BDAB2064B1A7004E0054B5B690133034A53615C
:401FC0003B6918463037BD4680BD00BFA0C3FF1F041000E080B58AB000AFF860B9607A606B4B1B78012B10D0694B1B78002B00F0A180674B1B78022B08D1FFF779FF644B5B
:402000001B78012B40F0988000E000BF7B681F2B09D85F4BDA697B6822FA03F303F00103002B40F08B807B68172B07D8FB68013BFB607B68DAB2FB681A703DE0BA68FB68B1
:40204000D31AFB61FB697F2B12D9FB68013BFB60FB69DB09DAB2FB681A70FB68013BFB60FB69DBB263F07F03DAB2FB681A7006E0FB68013BFB60FB69DAB2FB681A707B688A
:402080007F2B12D9FB68013BFB607B68DB09DAB2FB681A70FB68013BFB607B68DBB263F07F03DAB2FB681A7006E0FB68013BFB607B68DAB2FB681A70364B1B68BB61344BBE
:4020C000DB68BA69D31A7B61BB687B627B693B620BE07B6A5A1C7A623A6AD2B262F07F02D2B21A703B6ADB093B623B6A7F2BF0D87B6A5A1C7A623A6AD2B21A707B6ABB60DF
:40210000234B5B781846BA68FB68D31A1A46F96801F084FA03463B613B69002B03D01C4ABB69D3600BE01A4B1B780133DAB2184B1A7004E000BF02E000BF00E000BF144B48
:402140001B7E1946144A0B465B000B44DB0013446C331A680E4B1B7E18460F4903465B000344DB000B4470331B689A420BD0084B9B78002B07D1064B01229A70FFF74EFEF8
:40218000034B00229A7000BF2837BD4680BD00BFA0C3FF1F041000E0A0CBFF1F80B586B002AFF860B9607A603B6000234FF4806217491848FFF70AFD0346DAB2164B5A7083
:4021C000154B5A78144B1A76134B1B7E1846002300930823114A0F49FFF77AFD0E4B104A1A61104B1B680C4AD3600B4A7B681362094AFB685360084ABB689360064A3B6862
:402200005362054B00221A7000BF1037BD4680BD98BFFF1FF8780000A0C3FF1F98C3FF1F0080FF1F041000E080B584B000AF7860EFF311834FF0200181F31188FB600848B8
:40224000FFF7E0FDB8607A68B968B868FFF7C2FEFB6883F3118800BF1037BD4680BD00BFD0C3FF1F80B588B000AF78603960EFF311834FF0200181F311887B611648FFF7D2
:40228000C1FD38613B69FB60FB68FB613B68BB610BE0FB695A1CFA61BA69D2B262F07F02D2B21A70BB69DB09BB61BB697F2BF0D8FB695A1CFA61BA69D2B21A70FB69FB60C3
:4022C0007A68F9683869FFF785FE7B6983F3118800BF2037BD4680BDD0C3FF1F80B58CB000AFF860B9607A60EFF311834FF0200181F31188FB612548FFF784FDB861BB69BC
:402300007B617B69FB62BB68BB620BE0FB6A5A1CFA62BA6AD2B262F07F02D2B21A70BB6ADB09BB62BB6A7F2BF0D8FB6A5A1CFA62BA6AD2B21A70FB6A7B617B697B627B688A
:402340003B620BE07B6A5A1C7A623A6AD2B262F07F02D2B21A703B6ADB093B623B6A7F2BF0D87B6A5A1C7A623A6AD2B21A707B6A7B61FA687969B869FFF72CFEFB6983F34F
:40238000118800BF3037BD4680BD00BFD0C3FF1F80B58EB000AFF860B9607A603B60EFF311834FF0200181F31188FB613248FFF729FDB861BB697B617B697B63BB683B6335
:4023C0000BE07B6B5A1C7A633A6BD2B262F07F02D2B21A703B6BDB093B633B6B7F2BF0D87B6B5A1C7A633A6BD2B21A707B6B7B617B69FB627B68BB620BE0FB6A5A1CFA625E
:40240000BA6AD2B262F07F02D2B21A70BB6ADB09BB62BB6A7F2BF0D8FB6A5A1CFA62BA6AD2B21A70FB6A7B617B697B623B683B620BE07B6A5A1C7A623A6AD2B262F07F028E
:40244000D2B21A703B6ADB093B623B6A7F2BF0D87B6A5A1C7A623A6AD2B21A707B6A7B61FA687969B869FFF7B5FDFB6983F3118800BF3837BD4680BDD0C3FF1F80B590B053
:4024800000AFF860B9607A603B60EFF311834FF0200181F31188FB614048FFF7B3FCB861BB697B617B69FB63BB68BB630BE0FB6B5A1CFA63BA6BD2B262F07F02D2B21A70D1
:4024C000BB6BDB09BB63BB6B7F2BF0D8FB6B5A1CFA63BA6BD2B21A70FB6B7B617B697B637B683B630BE07B6B5A1C7A633A6BD2B262F07F02D2B21A703B6BDB093B633B6B2F
:402500007F2BF0D87B6B5A1C7A633A6BD2B21A707B6B7B617B69FB623B68BB620BE0FB6A5A1CFA62BA6AD2B262F07F02D2B21A70BB6ADB09BB62BB6A7F2BF0D8FB6A5A1C37
:40254000FA62BA6AD2B21A70FB6A7B617B697B62BB6C3B620BE07B6A5A1C7A623A6AD2B262F07F02D2B21A703B6ADB093B623B6A7F2BF0D87B6A5A1C7A623A6AD2B21A70B6
:402580007B6A7B61FA687969B869FFF723FDFB6983F3118800BF4037BD4680BDD0C3FF1F80B592B000AFF860B9607A603B60EFF311834FF0200181F31188FB614E48FFF76E
:4025C00021FCB861BB697B617B697B64BB683B640BE07B6C5A1C7A643A6CD2B262F07F02D2B21A703B6CDB093B643B6C7F2BF0D87B6C5A1C7A643A6CD2B21A707B6C7B61FA
:402600007B69FB637B68BB630BE0FB6B5A1CFA63BA6BD2B262F07F02D2B21A70BB6BDB09BB63BB6B7F2BF0D8FB6B5A1CFA63BA6BD2B21A70FB6B7B617B697B633B683B6338
:402640000BE07B6B5A1C7A633A6BD2B262F07F02D2B21A703B6BDB093B633B6B7F2BF0D87B6B5A1C7A633A6BD2B21A707B6B7B617B69FB623B6DBB620BE0FB6A5A1CFA6216
:40268000BA6AD2B262F07F02D2B21A70BB6ADB09BB62BB6A7F2BF0D8FB6A5A1CFA62BA6AD2B21A70FB6A7B617B697B627B6D3B620BE07B6A5A1C7A623A6AD2B262F07F02C7
:4026C000D2B21A703B6ADB093B623B6A7F2BF0D87B6A5A1C7A623A6AD2B21A707B6A7B61FA687969B869FFF775FCFB6983F3118800BF4837BD4680BDD0C3FF1F80B58CB006
:4027000000AF584B01221A70EFF311834FF0200181F31188FB60534B5B780A225249184600F07CFFFB6883F311880A20FFF77CFDEFF311834FF0200181F31188BB604B48BF
:40274000FFF760FB78607B683B603B68FB62454B5B68BB620BE0FB6A5A1CFA62BA6AD2B262F07F02D2B21A70BB6ADB09BB62BB6A7F2BF0D8FB6A5A1CFA62BA6AD2B21A7071
:40278000FB6A3B603B687B62364B9B683B620BE07B6A5A1C7A623A6AD2B262F07F02D2B21A703B6ADB093B623B6A7F2BF0D87B6A5A1C7A623A6AD2B21A707B6A3B603B6804
:4027C000FB61284B1B69BB610BE0FB695A1CFA61BA69D2B262F07F02D2B21A70BB69DB09BB61BB697F2BF0D8FB695A1CFA61BA69D2B21A70FB693B603B687B6100233B6165
:402800000BE07B695A1C7A613A69D2B262F07F02D2B21A703B69DB093B613B697F2BF0D87B695A1C7A613A69D2B21A707B693B60182239687868FFF7CDFBBB6883F3118826
:40284000084B5B6A002B02D0064B5B6A984700F0EBF900F0B1F900F013FE00BF3037BD4680BD00BFA0C3FF1FEC780000D0C3FF1F80B582B000AFEFF311834FF0200181F3C4
:4028800011887B600B48FFF7BDFA38600A4B1B78002B07D00B2239683868FFF79BFB064B00221A707B6883F3118800BF0837BD4680BD00BFD0C3FF1FA0C3FF1F80B58CB099
:4028C00000AFEFF311834FF0200181F31188FB604548FFF797FAB860BB687B607B68FB62424B5B68BB620BE0FB6A5A1CFA62BA6AD2B262F07F02D2B21A70BB6ADB09BB6243
:40290000BB6A7F2BF0D8FB6A5A1CFA62BA6AD2B21A70FB6A7B607B687B62344B9B683B620BE07B6A5A1C7A623A6AD2B262F07F02D2B21A703B6ADB093B623B6A7F2BF0D810
:402940007B6A5A1C7A623A6AD2B21A707B6A7B607B68FB61254B1B69BB610BE0FB695A1CFA61BA69D2B262F07F02D2B21A70BB69DB09BB61BB697F2BF0D8FB695A1CFA61C8
:40298000BA69D2B21A70FB697B607B687B6100233B610BE07B695A1C7A613A69D2B262F07F02D2B21A703B69DB093B613B697F2BF0D87B695A1C7A613A69D2B21A707B69FD
:4029C0007B6018227968B868FFF704FBFB6883F31188064B5B6A002B02D0044B5B6A984700BF3037BD4680BDD0C3FF1FA0C3FF1F80B592B000AF7860EFF311834FF02001E8
:402A000081F311887B616A48FFF7FCF938613B69FB60FB687B647B681A68664B1B69D31A3B640BE07B6C5A1C7A643A6CD2B262F07F02D2B21A703B6CDB093B643B6C7F2B64
:402A4000F0D87B6C5A1C7A643A6CD2B21A707B6CFB60FB68FB637B689B68BB630BE0FB6B5A1CFA63BA6BD2B262F07F02D2B21A70BB6BDB09BB63BB6B7F2BF0D8FB6B5A1C4E
:402A8000FA63BA6BD2B21A70FB6BFB607B685B6820221946F868FFF765F9F8600922F9683869FFF797FA3B69FB60FB687B637B681A68404B1B69D31A3B630BE07B6B5A1C38
:402AC0007A633A6BD2B262F07F02D2B21A703B6BDB093B633B6B7F2BF0D87B6B5A1C7A633A6BD2B21A707B6BFB60FB68FB627B68DB68BB620BE0FB6A5A1CFA62BA6AD2B2B5
:402B000062F07F02D2B21A70BB6ADB09BB62BB6A7F2BF0D8FB6A5A1CFA62BA6AD2B21A70FB6AFB60FB687B627B681B693B620BE07B6A5A1C7A623A6AD2B262F07F02D2B2E9
:402B40001A703B6ADB093B623B6A7F2BF0D87B6A5A1C7A623A6AD2B21A707B6AFB60FB68FB610023BB610BE0FB695A1CFA61BA69D2B262F07F02D2B21A70BB69DB09BB619B
:402B8000BB697F2BF0D8FB695A1CFA61BA69D2B21A70FB69FB601522F9683869FFF71AFA7B6983F3118800BF4837BD4680BD00BFD0C3FF1FA0C3FF1F80B500AF074B1B6AFA
:402BC000002B08D0054B1B6A5B68002B03D0034B1B6A5B68984700BF80BD00BFA0C3FF1F80B586B000AF7860EFF311834FF0200181F311887B610B48FFF704F93861802259
:402C000079683869FFF7AEF8F8600E22F9683869FFF7E0F97B6983F3118800BF1837BD4680BD00BFD0C3FF1FF0B583B000AF124B1B6A002B15D0104B1B6A1B68002B10D085
:402C40000D4B1B6A1B689847C7E900013968D7E90034250000262B461A460D20FFF73EFB05E0064B1B6819460C20FFF7FBFA00BF0C37BD46F0BD00BFA0C3FF1F041000E042
:402C800080B586B000AFEFF311834FF0200181F31188FB601948FFF7B5F8B860BB687B60174B1B68C3F308033B607B687B613B683B610BE07B695A1C7A613A69D2B262F0CA
:402CC0007F02D2B21A703B69DB093B613B697F2BF0D87B695A1C7A613A69D2B21A707B697B6002227968B868FFF774F9FB6883F3118800BF1837BD4680BD00BFD0C3FF1FAE
:402D000004ED00E080B582B000AFEFF311834FF0200181F311887B600748FFF773F83860032239683868FFF755F97B6883F3118800BF0837BD4680BDD0C3FF1F80B582B0B4
:402D400000AFEFF311834FF0200181F311887B600748FFF757F83860122239683868FFF739F97B6883F3118800BF0837BD4680BDD0C3FF1F80B588B000AF7860EFF31183D2
:402D80004FF0200181F311887B611848FFF73AF838613B69FB60FB68FB61154B1B697A68D31ABB610BE0FB695A1CFA61BA69D2B262F07F02D2B21A70BB69DB09BB61BB692C
:402DC0007F2BF0D8FB695A1CFA61BA69D2B21A70FB69FB601322F9683869FFF7FBF87B6983F3118800BF2037BD4680BDD0C3FF1FA0C3FF1F80B582B000AFEFF311834FF0D6
:402E0000200181F311887B600748FEF7FBFF3860142239683868FFF7DDF87B6883F3118800BF0837BD4680BDD0C3FF1F80B588B000AF7860EFF311834FF0200181F31188B9
:402E40007B611748FEF7DEFF38613B69FB60FB68FB617B68BB610BE0FB695A1CFA61BA69D2B262F07F02D2B21A70BB69DB09BB61BB697F2BF0D8FB695A1CFA61BA69D2B2B1
:402E80001A70FB69FB601C22F9683869FFF7A2F87B6983F3118800BF2037BD4680BD00BFD0C3FF1F80B58AB000AF78603960EFF311834FF0200181F311887B612448FEF791
:402EC000A1FF38613B69FB60FB687B627B683B620BE07B6A5A1C7A623A6AD2B262F07F02D2B21A703B6ADB093B623B6A7F2BF0D87B6A5A1C7A623A6AD2B21A707B6AFB6049
:402F0000FB68FB613B68BB610BE0FB695A1CFA61BA69D2B262F07F02D2B21A70BB69DB09BB61BB697F2BF0D8FB695A1CFA61BA69D2B21A70FB69FB601C22F9683869FFF756
:402F400049F87B6983F3118800BF2837BD4680BDD0C3FF1F80B582B000AFEFF311834FF0200181F311887B600748FEF74BFF3860112239683868FFF72DF87B6883F3118893
:402F800000BF0837BD4680BDD0C3FF1F80B588B000AF7860EFF311834FF0200181F311887B611948FEF72EFF38613B69FB60174B1B697A68D31A7B60FB68FB617B68BB6106
:402FC0000BE0FB695A1CFA61BA69D2B262F07F02D2B21A70BB69DB09BB61BB697F2BF0D8FB695A1CFA61BA69D2B21A70FB69FB600822F9683869FEF7EDFF7B6983F311884A
:4030000000BF2037BD4680BDD0C3FF1FA0C3FF1F80B588B000AF7860EFF311834FF0200181F311887B611948FEF7ECFE38613B69FB60174B1B697A68D31A7B60FB68FB612E
:403040007B68BB610BE0FB695A1CFA61BA69D2B262F07F02D2B21A70BB69DB09BB61BB697F2BF0D8FB695A1CFA61BA69D2B21A70FB69FB601D22F9683869FEF7ABFF7B6906
:4030800083F3118800BF2037BD4680BDD0C3FF1FA0C3FF1F80B588B000AF7860EFF311834FF0200181F311887B611948FEF7AAFE38613B69FB60174B1B697A68D31A7B60A0
:4030C000FB68FB617B68BB610BE0FB695A1CFA61BA69D2B262F07F02D2B21A70BB69DB09BB61BB697F2BF0D8FB695A1CFA61BA69D2B21A70FB69FB600422F9683869FEF76E
:4031000069FF7B6983F3118800BF2037BD4680BDD0C3FF1FA0C3FF1F80B582B000AFEFF311834FF0200181F311887B600748FEF769FE3860052239683868FEF74BFF7B680B
:4031400083F3118800BF0837BD4680BDD0C3FF1F80B588B000AF7860EFF311834FF0200181F311887B611948FEF74CFE38613B69FB60174B1B697A68D31A7B60FB68FB6117
:403180007B68BB610BE0FB695A1CFA61BA69D2B262F07F02D2B21A70BB69DB09BB61BB697F2BF0D8FB695A1CFA61BA69D2B21A70FB69FB600622F9683869FEF70BFF7B697C
:4031C00083F3118800BF2037BD4680BDD0C3FF1FA0C3FF1F80B58AB000AF78603960EFF311834FF0200181F311887B612748FEF709FE38613B69FB60254B1B697A68D31A24
:403200007B60FB687B627B683B620BE07B6A5A1C7A623A6AD2B262F07F02D2B21A703B6ADB093B623B6A7F2BF0D87B6A5A1C7A623A6AD2B21A707B6AFB60FB68FB613B6800
:40324000BB610BE0FB695A1CFA61BA69D2B262F07F02D2B21A70BB69DB09BB61BB697F2BF0D8FB695A1CFA61BA69D2B21A70FB69FB600722F9683869FEF7ACFE7B6983F387
:40328000118800BF2837BD4680BD00BFD0C3FF1FA0C3FF1F80B588B000AF78603960EFF311834FF0200181F311887B611B48FEF7A9FD38613B69FB60FB68FB61184B1B699E
:4032C0007A68D31ABB610BE0FB695A1CFA61BA69D2B262F07F02D2B21A70BB69DB09BB61BB697F2BF0D8FB695A1CFA61BA69D2B21A70FB69FB6080223968F868FEF732FD95
:40330000F8601922F9683869FEF764FE7B6983F3118800BF2037BD4680BD00BFD0C3FF1FA0C3FF1F80B483B000AF7860044B1B697A68D31A18460C37BD4680BC704700BF81
:40334000A0C3FF1F80B58CB000AF0346FB713B4B1B68002B6DD0394B1B68FB620023BB6208E0FB6A1B69FB62FB6A002B07D0BB6A0133BB62FA79BB6A9A42F2D800E000BFFA
:40338000FB6A002B55D0EFF311834FF0200181F311887B612A48FEF735FD38613B69FB60FB687B62FB793B620BE07B6A5A1C7A623A6AD2B262F07F02D2B21A703B6ADB0963
:4033C0003B623B6A7F2BF0D87B6A5A1C7A623A6AD2B21A707B6AFB60FB68FB61FB6A9B68BB610BE0FB695A1CFA61BA69D2B262F07F02D2B21A70BB69DB09BB61BB697F2B13
:40340000F0D8FB695A1CFA61BA69D2B21A70FB69FB60FB6A1B6880221946F868FEF7A2FCF8601622F9683869FEF7D4FD7B6983F3118800BF3037BD4680BD00BFC8C3FF1FAA
:40344000D0C3FF1F80B582B000AF0C4B1B68002B0FD00A4B1B687B607B68DB68002B02D07B68DB6898477B681B697B607B68002BF2D100BF0837BD4680BD00BFC8C3FF1F0D
:4034800080B586B000AFEFF311834FF0200181F31188FB601748FEF7B5FCB860BB687B607B687B61144B1B783B610BE07B695A1C7A613A69D2B262F07F02D2B21A703B6980
:4034C000DB093B613B697F2BF0D87B695A1C7A613A69D2B21A707B697B601B227968B868FEF778FDFB6883F3118800BF1837BD4680BD00BFD0C3FF1FCCC3FF1F80B500AF28
:403500000348FFF76DFB0348FFF76AFB00BF80BD107900003C79000080B500AF0E4B1B6803F00073002B0BD10B4B1B6803F00103002B05D1084A084B1B6843F00103136032
:40354000064B074A07490748FEF728FE064801F0B3FF00BF80BD00BF001000E0FD340000A879000080F0FA024C79000080B588B000AF786002F094FE07F10C0314220021FA
:40358000184601F0F6F97B68FB60786802F0AAF903463B617B681B697B61786803F05CFA0346BB617B689B6AFB6107F10C031846FFF71EFA02F00CFA00BF2037BD4680BD5F
:4035C00080B582B000AF02F06BFE134B9B697B6005E07868FFF7CAFF7B681B687B607B68002BF6D10C4B5B6E3B600BE03B685B681A463B689B6819461046FFF74BFE3B68DA
:403600001B683B603B68002BF0D102F0E1F900BF0837BD4680BD00BFE8C4FF1FF0B400EB4003DFF8800000EBC30000F118063069F768756887422ED3B368DC1B631E93425D
:4036400012D37D19D01900BF11F8013B05F8013B013A05D011F8013B05F8013B013AF3D1F0600120F0BC7047C018904217D37819121B11F8013B00F8013B013CF9D1141C46
:4036800005D011F8013B05F8013B013AF9D1F4600120F0BC7047C01B01389042D1D20020F0BC7047A0CBFF1F80B582B000AF0346FB71FB79062B2DD801A252F823F000BF11
:4036C000DD360000E5360000ED360000F5360000FD360000053700000D370000002000F003FF18E0062000F0FFFE14E0052000F0FBFE10E0032000F0F7FE0CE0012000F087
:40370000F3FE08E0022000F0EFFE04E0042000F0EBFE00E000BF00BF0837BD4680BD00BF80B582B000AF0346FB71FB79002B03D0062000F0D9FE03E0002000F0D5FE00BF85
:403740000837BD4680BD00BF80B582B000AF786039603A680021786801F00BF900BF0837BD4680BD80B584B000AFF860B9607A607A68B968F86801F0D6F800BF1037BD4620
:4037800080BD00BF80B483B000AF0346FB71FEE780B487B000AF7860396000233B6100237B6127E07B699B007A6813441B68BB60BB68FB73BB6823F0FF03BB6014E03B693B
:4037C0005B003A6813441B781A46BB68134419463B695B003A6813445B780B703B6901333B61FB7B013BFB73FB7B002BE7D17B6901337B617B69152BD4D900BF1C37BD469C
:4038000080BC704780B582B000AF334B35221A80324B18221A70324B35221A80314B18221A70314B02221A704FF0402308221A702E4B03221A702E4B2E4A1278D2B21A70F0
:403840002D4B40F232221A802C4B41F251221A800023FB7019237B6013E0FB785B00DAB2274B1B78DBB203F00103DBB21343DBB203F00303FB70782001F006F87B68013B04
:403880007B607B68002B02D0FB78032BE5D17B68002B02D10320FFF775FF1A4B4FF480721A80184B07221A70174B00221A70174B48221A70134B00221A70154B02221A70C2
:4038C000144A144B1B78DBB243F00303DBB2137000BF0837BD4680BD804000408240004084400040864000400043004000420040A146004008010049224200402042004094
:403900002542004004400040064000400840004001400040A243004080B483B000AF0B4B1B78FB710A4AFB7903F00703DBB21370084AFB791B09DBB21370074B44221A702C
:4039400000BF0C37BD4680BC704700BFCF0100496E5800406F5800407658004080B586B000AF72B6514B61221A70FFF74BFF4F4BC1221A704E4A4E4B1B78DBB243F004039F
:40398000DBB213700023FB7513E0FA7D13465B0013445B00474A13443B613B691A683B699B889BB219461046FFF7CEFEFB7D0133FB75FB7D062BE8D90023FB751CE0FA7DD3
:4039C00013469B0013445B003B4A1344FB60FB681B68BB60FB685B687B60FB681A7A5B7A1B0213437B807B881A467968B868FFF7B9FEFB7D0133FB75FB7D002BDFD02F49B7
:403A00004FF09040FFF7C4FE2D4A2D4B1B78DBB243F00203DBB213702A4A2A4B1B78DBB243F00203DBB21370274A274B1B78DBB243F04003DBB21370244A244B1B78DBB291
:403A400043F01003DBB21370082221492148FFF789FE0A2220492148FFF784FE082220492048FFF77FFE08221F492048FFF77AFE0A221F491F48FFF775FE08221E491F48CE
:403A8000FFF770FE1E4A1E4B1B78DBB243F00803DBB21370FFF740FF0E220B491948FFF761FE00BF1837BD4680BD00BF00480040E8460040B0790000DC79000058000048D3
:403AC0000350014013500140A0430040C2430040500600480251004058060048C051004064060048125100406C0600482251004074060048305100408006004862510040F8
:403B000022430040B043004080B500AF00F0D0FE03461B680C2B00D1FEE7FEE780B586B000AF224B7B61224B3B61204B7B6135E03B691B68FB603B695B68BB603B699B68FA
:403B40003B6000237B600CE0FB681A68BB681A60BB680433BB60FB680433FB607B6804337B607A683B689A42EED13B69DB683B6000237B6008E0BB6800221A60BB6804333E
:403B8000BB607B6804337B607A683B689A42F2D13B6910333B617B69013B7B617B69002BC6D100F08BFEFDF7D7FAFEE701000000987B000080B582B000AF184B184A1A6020
:403BC000184A184B1B6843F40073136000237B600FE07B68032B04D8134A7B6852F8233000E0124B12497A6841F822307B6801337B607B682F2BECD90E4B1B78DAB20E4BDF
:403C00001A700E4B0A4A1A60FFF7A8FE0C4B00221A6000BF0837BD4680BD00BF0CED00E00004FA0514ED00E000000000093B00000080FF1FBC760040C480FF1F08ED00E0FF
:403C4000C080FF1F80B500AF064B1B78002B04D100F00AF8034B01221A7000F03BF800BF80BD00BFB4C4FF1F80B500AF1149002000F020FD0721002000F044FD0E4B00225E
:403C80001A700E4B72221A700D4B20221A700D49012000F00FFD0721012000F033FD0A4B06221A70094B47221A70094B02221A7000BF80BD493E0000BAC4FF1F846500406B
:403CC00087650040213F000027650040376500408764004080B582B000AF00F0DDFD0346FB71154A144B1B78DBB243F02003DBB21370124A114B1B78DBB243F01003DBB2E1
:403D000013700F4B01221A600E4A0E4B1B78DBB243F01003DBB213700B4B02221A60084B02221A6000F0FEFBFB79184600F0B8FD00BF0837BD4680BD9465004097650040EA
:403D400000E100E09764004080E200E080B485B000AF0346FB71254B1B88FB81244B1B88BB81FA89BB899A4208D2FA89BB89013B9A420CBF01230023DBB207E0FA89BB89B2
:403D8000D31AFF2B0CBF01230023DBB2002BE2D1BA89FB899A420AD1164B1B78DBB203F00403002B03D1144AFB79137018E0FB89FF2B01D90023FB81FB891049FA79CA5495
:403DC000FB890133FB81094AFB891380094B1B78DBB203F00203002B02D0094B02221A6000BF1437BD4680BC704700BFB8C4FF1FB6C4FF1F67640040476400404CCDFF1FAC
:403E000000E200E080B584B000AF78600023FB810C4B1B78002B10D009E0FB897A6813441B781846FFF792FFFB890133FB81FB897A6813441B78002BEFD100BF1037BD46A6
:403E400080BD00BFB4C4FF1F80B483B000AF0023FB712B4B1B78BB71BB797B71BB7903F01E03002B0CD097F9063003F01E035AB2244B1B785BB213435BB2DAB2214B1A708D
:403E8000BB7903F02003002B30D01F4B1B787B711E4B1B78DBB219461D4A7B7953540123FB71FB79002B21D01A4B1B78DBB2002B02D0194B01221A70144B1B78DBB2013354
:403EC000DAB2124B1A70114B1B78DBB2F92B02D90E4B00221A700D4B1B78DAB20F4B1B78DBB29A4202D10B4B01221A70BB7903F02003002BADD100BF0C37BD4680BC704741
:403F000067650040BAC4FF1F44650040BCC4FF1F50CCFF1FBDC4FF1FBEC4FF1FBBC4FF1F80B400AF17E0154B1B889BB2FF2B02D9124B00221A80124B104A128892B2114608
:403F4000104A525CD2B21A700C4B1B889BB201339AB20A4B1A80094B1B889AB20A4B1B889A4206D0094B1B78DBB203F00403002BD9D000BFBD4680BC704700BFB6C4FF1F3A
:403F8000476400404CCDFF1FB8C4FF1F6764004080B500AF064B1B78002B04D100F00AF8034B01221A7000F03BF800BF80BD00BFC0C4FF1F80B500AF1149022000F07AFB40
:403FC0000721022000F09EFB0E4B00221A700E4B72221A700D4B20221A700D49032000F069FB0721032000F08DFB0A4B06221A70094B47221A70094B02221A7000BF80BD72
:404000004D420000C6C4FF1F82640040856400402543000026640040366400408665004080B582B000AF00F037FC0346FB71154A144B1B78DBB243F02003DBB21370124A35
:40404000114B1B78DBB243F01003DBB213700F4B04221A600E4A0E4B1B78DBB243F01003DBB213700B4B08221A60084B08221A6000F072FAFB79184600F012FC00BF083732
:40408000BD4680BD926400409564004000E100E09665004080E200E080B483B000AF0023FB71224B04221A60214B1B88BB80214B1B887B80204B1B78DBB2002B03D1BA8841
:4040C0007B889A4217D0BB881C4AD35CFB71BB880133BB80BB88FF2B01D90023BB80144ABB881380144B1B78DBB2002B15D0124B00221A7011E0124B1B787B707B7803F0E1
:404100002003002B09D00F4B1B78FB717B7803F01E03002B01D00023FB710B4B04221A60FB7918460C37BD4680BC704780E100E0C8C4FF1FCAC4FF1FCCC4FF1F4CCEFF1FEF
:40414000656400404564004000E100E080B485B000AF0346FB71264B1B88FB81254B1B88BB81FA89BB899A4208D2FA89BB89013B9A420CBF01230023DBB209E0FA89BB8935
:40418000D31A40F2FF3293420CBF01230023DBB2002BE0D1BA89FB899A420AD1164B1B78DBB203F00403002B03D1144AFB79137019E0FB89B3F5806F01D30023FB81FB8907
:4041C0000F49FA79CA54FB890133FB81084AFB891380094B1B78DBB203F00203002B02D0084B08221A6000BF1437BD4680BC7047C4C4FF1FC2C4FF1F666500404665004099
:404200004CCFFF1F00E200E080B584B000AF78600023FB810C4B1B78002B10D009E0FB897A6813441B781846FFF790FFFB890133FB81FB897A6813441B78002BEFD100BFB5
:404240001037BD4680BD00BFC0C4FF1F80B483B000AF0023FB712B4B1B78BB71BB797B71BB7903F01E03002B0CD097F9063003F01E035AB2244B1B785BB213435BB2DAB229
:40428000214B1A70BB7903F02003002B30D01F4B1B787B711E4B1B889BB219461D4A7B7953540123FB71FB79002B21D01A4B1B78DBB2002B02D0194B01221A70144B1B883B
:4042C0009BB201339AB2124B1A80114B1B889BB2FF2B02D90E4B00221A800D4B1B889AB20F4B1B889BB29A4202D10B4B01221A70BB7903F02003002BADD100BF0C37BD4659
:4043000080BC704765640040C6C4FF1F45640040CAC4FF1F4CCEFF1FCCC4FF1FCDC4FF1FC8C4FF1F80B400AF18E0154B1B889BB2B3F5806F02D3124B00221A80114B104A9F
:40434000128892B21146104A525CD2B21A700C4B1B889BB201339AB2094B1A80084B1B889AB20A4B1B889A4206D0094B1B78DBB203F00403002BD8D000BFBD4680BC70475B
:40438000C2C4FF1F466500404CCFFF1FC4C4FF1F6665004080B400AF054B1B78DBB203F00E035B08DBB21846BD4680BC704700BF8245004080B400AF054B1B78DBB203F0DD
:4043C00070031B09DBB21846BD4680BC704700BF8645004080B485B000AF0346FB710B4B1B78DBB223F04003FB730849FB799B01DBB203F04003DAB2FB7B1343DBB20B70F0
:4044000000BF1437BD4680BC704700BF2051004080B485B000AF0346FB710B4B1B78DBB223F02003FB730849FB795B01DBB203F02003DAB2FB7B1343DBB20B7000BF1437F7
:40444000BD4680BC704700BF2051004080B582B000AF786000F03CF8786800F009F8072000F018F800F028F800BF0837BD4680BD80B485B000AF7860054B1B68FB60FB68FD
:4044800068337A681A6000BF1437BD4680BC704708ED00E080B483B000AF0346FB71054AFB795B01DBB2137000BF0C37BD4680BC704700BF0AE400E080B400AF034B4FF43D
:4044C00080621A6000BFBD4680BC704700E100E080B400AF034B4FF480621A6000BFBD4680BC704780E100E080B485B000AF0346FB710B4B1B78DBB223F07003FB7308499C
:40450000FB791B01DBB203F07003DAB2FB7B1343DBB20B7000BF1437BD4680BC704700BF0051004080B400AF094A094B1B78DBB243F00203DBB21370064A064B1B78DBB295
:4045400043F00203DBB2137000BFBD4680BC7047A2430040B243004080B400AF094A094B1B78DBB243F00103DBB21370064A064B1B78DBB243F00103DBB2137000BFBD4629
:4045800080BC7047A2430040B243004080B483B000AF0346FB7101BE00BF0C37BD4680BC704700BF80B400AF054A054B1B78DBB243F00103DBB2137000BFBD4680BC7047CF
:4045C000F646004080B483B000AF03460A46FB711346BB711D491D4B1B78DBB223F00303DAB2FB7903F00303DBB21343DBB20B70164A164B1B78DBB263F07F03DBB21370EE
:40460000124A124B1B78DBB203F07F03DBB213700E49BB795B01DBB203F06003DAB20B4B1B78DBB223F06003DBB21343DBB20B70064A064B1B78DBB243F01003DBB21370D8
:4046400000BF0C37BD4680BC704700BF8343004080B400AF034B01221A7000BFBD4680BC704700BF8443004080B584B000AF03463960FB710E4B1B68FB60FB790F2B02D9FE
:404680000020FFF783FFFB7903F00F039B00FA6813441B68BB60FB7903F00F039B00FA6813443A681A60BB6818461037BD4680BD08ED00E080B584B000AF03463960FB71CB
:4046C0000F4B1B68FB60FB791F2B02D90020FFF75DFFFB7903F01F0310339B00FA6813441B68BB60FB7903F01F0310339B00FA6813443A681A60BB6818461037BD4680BD75
:4047000008ED00E080B582B000AF03460A46FB711346BB71BB79072B02D90020FFF736FFFB791F2B02D90020FFF730FFFB7903F01F0303F1604303F56443BA795201D2B2D1
:404740001A7000BF0837BD4680BD00BF80B582B000AF786000F03CF8786800F009F8072000F018F800F028F800BF0837BD4680BD80B485B000AF7860054B1B68FB60FB68D9
:4047800050337A681A6000BF1437BD4680BC704708ED00E080B483B000AF0346FB71054AFB795B01DBB2137000BF0C37BD4680BC704700BF04E400E080B400AF034B102269
:4047C0001A6000BFBD4680BC704700BF00E100E080B400AF034B10221A6000BFBD4680BC704700BF80E100E080B582B000AF786000F03CF8786800F009F8072000F018F86E
:4048000000F028F800BF0837BD4680BD80B485B000AF7860054B1B68FB60FB6858337A681A6000BF1437BD4680BC704708ED00E080B483B000AF0346FB71054AFB795B0103
:40484000DBB2137000BF0C37BD4680BC704700BF06E400E080B400AF034B40221A6000BFBD4680BC704700BF00E100E080B400AF034B40221A6000BFBD4680BC704700BFE4
:4048800080E100E0000000000230800803D000BF01380046FCD17047EFF3108072B6704780F31088704700BF0A22002100F03EB9014B1868704700BF3081FF1F0E4B70B5D3
:4048C0001E460E4C0025E41AA410A54204D056F8253098470135F8E703F04CF9084B094C1E46E41AA4100025A54204D056F8253098470135F8E770BD807B0000807B000041
:40490000807B0000887B000010B501390244904207D010F8013B11F8014FA342F7D0181B10BD002010BD10B5431E0A44914204D011F8014B03F8014FF8E710BD884210B55F
:4049400001EB020301D8421E0BE09842FBD28118D21AD34204D013F8014D01F8014DF8E710BD994204D011F8014B02F8014FF8E710BD03460244934202D003F8011BFAE799
:40498000704700000EB400B54FF402719CB0ADF814106FF00041049107914FF6FF711DAB02900690084853F8042BADF81610006802A9019300F0C8F9029B00221A701CB08A
:4049C0005DF804EB03B070473081FF1F034611F8012B03F8012B002AF9D17047034613F8012B002AFBD1181A01387047F0B5037863B90B78002B18BF0020F0BD15F8012F87
:404A000062B114F8017F30469742F7D00346461C007810B14D1E5C1EF0E7F0BD1846F0BD2DE9F0470F4680463F48D0F800903D4615F8014B09EB0400407800F0080000F0AE
:404A4000FF0608B12F46F2E72D2C03D1BD1C7C78012603E02B2C04BF7C78BD1C13B1102B0AD15BE0302C57D1287800F0DF0058284DD16C7810230235002E14BF4FF0004CBF
:404A80006FF0004CBCFBF3FA0027384603FB1ACC09EB040E9EF801E01EF0040F01D0303C0BE01EF0030E1BD0BEF1010F0CBF4FF0370E4FF0570ECEEB0404A34210DDB7F161
:404AC000FF3F0AD0504506D801D1644503DC03FB0040012701E04FF0FF3715F8014BD7E77B1C0CD1002E4FF0220314BF4FF000406FF00040C8F800302AB9BDE8F08706B161
:404B0000404272B107B1691E1160BDE8F0873024002BB1D10823AFE70A23ADE7302CA3D0AAE7BDE8F08700BF3481FF1F13460A46014602480068FFF773BF00BF3081FF1F1B
:404B400038B50546002944D051F8043C0C1F002BB8BFE418FCF766FB1E4A1368114613B96360146030E0A3420DD92268A018834201BF18685B681218226063600C6023E01A
:404B8000A24203D813465A68002AF9D118681918A1420BD12168014458188242196013D110685268014419605A600DE002D90C232B6009E021686018824201BF106852688C
:404BC0000918216062605C602846BDE83840FCF733BB38BDD4C4FF1F70B5CD1C25F0030508350C2D38BF0C25002D064601DBA94202D90C23336046E0FCF714FB234B1C68BE
:404C00001A462146A1B10B685B1B0ED40B2B03D90B60CC18CD501EE08C420BBF63684B681360636018BF0C4615E00C464968E9E7174C23681BB9304600F016FB20602946AF
:404C4000304600F011FB431C18D0C41C24F00304A0420DD125603046FCF7EEFA04F10B00231D20F00700C31A0ED05A42E25070BD211A304600F0F8FA0130EBD10C2333609B
:404C80003046FCF7D9FA002070BD00BFD4C4FF1FD0C4FF1F2DE9F0478E6882469E420C46914698463ED88A8912F4906F3AD02568096902236F1A656905EB450595FBF3F5ED
:404CC0007B1C43449D4238BF1D4653050FD52946FFF782FF064698B13A462169FFF723FEA38923F4906343F08003A38113E02A4600F0D8FA064670B921695046FFF720FFA6
:404D00000C23CAF80030A3894FF0FF3043F04003A381BDE8F08726613E44266046466561ED1BA560464528BF4646494632462068FFF704FEA36800209B1BA36023681E44BE
:404D40002660BDE8F08700002DE9F04F9DB003938B8980461C060D4616460DD50B695BB94021FFF739FF2860286118B90C23C8F80030CDE040236B610023099320238DF851
:404D80002930DFF89CB130238DF82A3037463C4614F8013B1BB9B7EB060910D003E0252BF9D02746F3E74B46324629464046FFF771FF013000F0A780099B4B4409933B7827
:404DC000002B00F0A08000234FF0FF3204930793059206938DF853301A930126052221784E4800F051FA671C049B38B14B4A3C46801A06FA00F018430490EFE7D90644BFC4
:404E000020228DF853201A0744BF2B228DF8532022782A2A03D0079A00210A200BE0039A111D12680391002A10DA524243F00200079204900BE027463B780134303B092B75
:404E400003D800FB02320121F5E701B107923B782E2B1ED17B782A2B0AD1039B02371A1D1B680392002BB8BF4FF0FF33059310E0002319460593781C0A2407463A780130F4
:404E8000303A092A03D804FB01210123F5E703B1059103223978224800F0F6F940B14023CBEB000003FA00F0049B013718430490397806221B487E1C8DF8281000F0E4F9D3
:404EC00088B1194B33B9039B073323F007030833039314E003AB00932A46144B04A94046AFF3008007E003AB00932A460F4B04A9404600F093F8B0F1FF3F824603D0099B4C
:404F00005344099342E7AB895B0601D4099801E04FF0FF301DB0BDE8F08F00BFE97A0000EF7A0000F37A000000000000954C00002DE9F04791461F460A698B6806469342E1
:404F4000B8BF1346C9F8003091F843200C46DDF8208012B10133C9F800302368990642BFD9F800300233C9F80030256815F0060510D104F1190A07E0012352463946304655
:404F8000C04701301AD00135E368D9F800209B1A9D42F1DB94F843302268003318BF012392060FD5E118302081F843005A1C94F845102244023382F8431003E04FF0FF30B5
:404FC000BDE8F08704F1430239463046C0470130F4D02268D9F80050E36802F00602042A08BF5D1B2269A3680CBF25EAE57500259342C4BF9B1AED184FF000091A344D45E4
:4050000009D00123224639463046C0470130D5D009F10109F3E70020BDE8F0872DE9F04317460A7E85B06E2A984606460C460C9B01F1430E00F0AE8011D8632A22D009D857
:40504000002A00F0BB80582A40F0CA8081F84520834955E0642A1ED0692A1CD0C0E0732A00F0B08009D86F2A2ED0702A40F0B8800A6842F020020A603EE0752A24D0782AAB
:405080003AD0ADE01A6801F14205111D1960136884F84230A8E021681A6811F0800F02D0111D196008E011F0400F02F10401196002D0B2F9003000E01368002B3CDA2D22B1
:4050C0005B4284F8432037E021681A6811F0800F02D0111D196007E011F0400F02F10401196001D0138800E01368227E5C496F2A14BF0A2208221BE078225A4984F845207A
:405100002268186812F0800F00F104051D6003D1550601D5038800E00368D00744BF42F0200222601BB9226822F0200222601022002084F8430001E049490A226568002D14
:40514000A56008DB206820F0040020602BB9002D7DD175460CE0002B79D07546B3FBF2F002FB1033CB5C05F8013D03460028F5D1082A0BD12368DA0708D5236962689A4204
:40518000DEBF302305F8013C05F1FF35C5EB0E0323612EE008681A6810F0800F496903D0101D1860136808E010F0400F02F104001860136801D0198000E019600023236197
:4051C000754616E01A68111D1960156800216268284600F059F808B1401B6060636804E004F1420584F8422001232361002384F84330CDF800803B4603AA21463046FFF721
:4052000097FE013002D14FF0FF3026E023692A4639463046C0470130F5D023689B0710D5002504F1190907E001234A4639463046C0470130E7D00135E368039A9B1A9D42F4
:40524000F2DBE068039B9842B8BF184605E00B7804F1420584F842308AE705B0BDE8F083FA7A00000B7B000038B5064C0023054608462360FBF7EAFF431C02D1236803B138
:405280002B6038BD4CD3FF1F10B5C9B202449042034605D01C7801308C42F8D1184610BD002010BDF8B5074615460E4621B91146BDE8F840FFF790BC1AB9FFF741FC2846DA
:4052C000F8BD00F015F885420ED929463846FFF783FC044650B131462A46FFF724FB31463846FFF72DFC01E03046F8BD2046F8BD51F8040C0028BEBF091851F8043CC018EA
:405300000438704743488168002904BF08B007E0EFF30982A2F128024A60036882E8F84F3D498847816899B14A6892E8F84F036002F1280282F3098890693849884202DBE9
:40534000374A904203DB4FF0000181F311887047344835490968401A80F308884FF08071C161324981617FF0060E704701BC30488047204602BC88475DF804EB2D4908474F
:405380002448C068002807D0EFF314816A46734680E8FE0F28488047284823490968401A20F0070080F308884FF000011948417081F3118862B622494FF080520A60BFF3FE
:4053C0004F8FBFF36F8FFEE71248C06890E8FE0F81F31488BFF36F8F95469E46704703680CB44FF00001417081F3118814494FF080520A60BFF34F8FBFF36F8F0CBC036091
:4054000070470F494FF080520A60BFF34F8FBFF36F8F7047E8C4FF1F8D640000DF5300000054000030DBFF1FB4780000691500005D640000796400002564000050DBFF1F67
:4054400004ED00E0074A1368591C11604BB9064BEFF3118119604FF0800080F3118800BF00BF7047DCC4FF1FD8C4FF1F054A1368013B13602BB9044B196881F3118800BFF6
:4054800000BF7047DCC4FF1FD8C4FF1FEFF3058068B10E280AD00F288CBF054B054BC35C13F0800F0CBF02200120704704207047F0E300E014ED00E038B5094C0546636A0D
:4054C0002BB194F8773013B9A120FBF78BFEFFF7DDFF012802D1A020FBF784FEE56338BDE8C4FF1F2DE9F041294D0446EB6B33B1DE6ADB6B9847014640F21B10B0470FCC68
:40550000244F3E460FC6236804463360B0FBF1F34FF47A717B613B4618BB4FF47A72B2FBF1F2B4FBF1F12046D9611B499A61F8B9194AB2FBF1F2B4FBF1F11A62174A59622E
:4055400010462146D9B9B0FBF2F0B4FBF2F29862DA62EB6BD3B1BDE8F0419B6C40F21B101847B1FBF0F200FB121201461046D3E7B1FBF0F200FB121201461046D7E7B2FB5A
:40558000F1F601FB16260A463146DBE7BDE8F081E8C4FF1F68C5FF1F40420F0000CA9A3B2DE9F8431F4DEB6813B9EB20FBF71AFE2B6913B9EC20FBF715FE4FF0800080F354
:4055C000118800BF00BF184FEB68D7E9044898472B6906469847B946E8B999F8013000270F2B02D99920FBF7FDFD99F801301BB94FF0000080F311882A7A696912B98E1B22
:4056000067EB4707A4FB014501FB0855A01945EB0701BDE8F8830134EB6848F1000898470646DAE768C5FF1FE8C4FF1F70B50B4C0546E3680E4613B9EB20FBF7D3FD236926
:4056400013B9EC20FBF7CEFD236A626AA3FB050103FB0611002301F085FD70BD68C5FF1F70B50F4CE36B13B19B6AD6209847FFF70DFF012805D194F8773013B9A420FBF753
:40568000B1FDFFF78DFFFFF7D1FFE36B05460E461BB10146DB6CD62098472846314670BDE8C4FF1F10B5FFF7F1FE0128044C05D194F8773013B9A420FBF794FDE06A10BDA6
:4056C000E8C4FF1F10B5FFF7E1FE0128044C05D194F8773013B9A420FBF784FDE06A10BDE8C4FF1F10B50F4B044693F8762052B95B7813B19A20FBF775FDFFF7D3FF001BB3
:405700000028FADB10BD4FF0800080F3118800BF00BF04229B6883F85020DC60BDE8104000F066BDE8C4FF1F2DE9F04F85B09846DDE90E67109B534D0393EB6B04468A4640
:40574000914643B1D3E90EB398470097014633464A462E20D84795F8783013B9A520FBF741FD6B6A2BB195F8773013B9A120FBF739FDFFF78BFE012802D1A020FBF732FDC2
:405780004FF0800080F3118800BF00BFD5F818B0BBF1000F6BD16B780F2B02D99920FBF721FD6B781BB94FF0000080F31188542200212046FFF7DDF80F23C4E9049984F891
:4057C000533095F87D30572F84F85030039BC4F824A084F8523002D87820FBF703FDC4E90A763A46CD213046FFF7C3F8EB6B13B11B6920469847EB6B13B1DB6820469847A3
:4058000000216FF002023E4426F00706A6F1580346F8581C5A621C4AC3F84C801A644FF080725A6408F102021A65184A2046DA6201321A6301325A6301325A6001329A604B
:405840000132DA6001321A6101325A6101329A610132DA6101321A62636000F09FFDEB6B6BB12E209B6C05B0BDE8F04F1847A34502D1AA20FBF7B6FCDBF800B088E705B0F6
:40588000BDE8F08FE8C4FF1F6D5300000100CCCC70B5134C0546E36B1BB10146DB6A2A209847636A2BB194F8773013B9A120FBF799FCFFF7EBFD012802D1A020FBF792FCF9
:4058C000002D04DDFFF7EEFE2844FFF70BFFE36B23B1BDE870409B6C2A20184770BD00BFE8C4FF1F70B5154C0546E36B33B1DE6ADB6B9847014640F21510B047FFF7C6FDB1
:40590000012805D194F8773013B9A420FBF76AFC0DB9A56885B195F853300F2B02D08020FBF760FC6D6AE36B23B1DB6C294640F215109847284670BD014DF4E7E8C4FF1FC7
:405940001C7B000070B5214C0546E36B33B1DE6ADB6B984701464FF48B70B047FFF796FD012805D194F8773013B9A420FBF73AFCD5B994F87630012B06D013B994F8773064
:4059800013B9E220FBF72EFC636A2BB194F8773013B9A120FBF726FCFFF778FD012802D1A020FBF71FFCA56895F853300F2B02D08020FBF717FCE36B95F8515023B1DB6CE7
:4059C00029464FF48B709847284670BDE8C4FF1F10B5184C237813B99720FBF703FC2378013BDBB2237023781BBB63680BB34FF0800080F3118800BF00BF63686BB1012339
:405A00002370E36B23B1A0681B6A90F8501098470848FFF7E4FC0023237063780F2B02D99920FBF7DFFB63781BB94FF0000080F3118810BDE8C4FF1F70B52D4CE36B1BB1C3
:405A40009B6A4FF491709847FFF720FD012802D0A220FBF7C7FBFFF719FD012805D194F8773013B9A420FBF7BDFB224B1B68012B03D04FF48070FBF7B5FB1F4B1B68012B25
:405A800003D04FF48070FBF7ADFBA36B6BB1012384F87A306371A56C25BBE36B33B3BDE870409B6C4FF491701847D4E904210132E36A41F10001C4E90421226B0133E3626D
:405AC0009B1A002BA4BF0123637194F87B30002BE1D0013BDBB284F87B30002BDBD101232371D8E76B6898472D68D5E770BD00BFE8C4FF1F3C81FF1F3881FF1F70B5044640
:405B00000025154E236A0BB9A36221E09968E26A8A1A002A1BDC1A68636222621D749D604FF0000080F31188F36B13B11B6C606A9847636A5B689847F36B0BB15B6C98474F
:405B40004FF0800080F3118800BF00BFDAE721630023636270BD00BFE8C4FF1F70B505464FF0800080F3118800BF00BF1A4C266AFEB963780F2B02D99920FBF733FB6378EF
:405B80001BB94FF0000080F31188E26AAB681A4401232B74236AAA6093B92B600F4B2562A362236A9A68236BD31A002BB8BF226370BDAE4202D1AB20FBF714FB3668D7E7A9
:405BC00007489968511A002903DD18461B68002BF7D12B600560E4E7E8C4FF1FFD5A000008C5FF1F2DE9F041284C0646E36B884617463BB15D6BDB6B98473B46014642469D
:405C00006620A847FFF742FC012805D194F8773013B9A420FBF7E6FA4FF0800080F3118800BF00BF256A3DBB63780F2B02D99920FBF7D8FA63781BB94FF0000080F31188F0
:405C400017B9CD20FBF7CEFA94F8783013B9A520FBF7C8FA142200213046FEF78AFE33237374E36BC6E90277C6F804805BB1BDE8F0419B6C66201847B54202D1AB20FBF7A0
:405C8000B1FA2D68CFE7BDE8F08100BFE8C4FF1F70B5114C0546E36B2BB1DE6ADB6B98470146E620B0476B7C332B02D08120FBF799FAFFF7EBFB012805D194F8773013B990
:405CC000A420FBF78FFAE36B2D7C1BB1DB6C2946E6209847284670BDE8C4FF1F70B50446234D00B96C6AEB6B33B1DE6A2046DB6B984701466A20B047FFF7C8FB012805D1A7
:405D000095F8773013B9A420FBF76CFA637C332B02D08120FBF766FA4FF0800080F3118800BF00BF237C33B12B6A124A1BB1A34219D123681360E3682046A360FFF70EFF38
:405D40006B780F2B02D99920FBF74CFA6B781BB94FF0000080F31188EB6B3BB1BDE870409B6C6A2018471A461B68DFE770BD00BFE8C4FF1F08C5FF1F70B5244C0546E36B39
:405D80002BB1DE6ADB6B984701466920B047FFF77DFB012805D194F8773013B9A420FBF721FA6B7C332B02D08120FBF71BFA4FF0800080F3118800BF00BF2B7C7BB1002398
:405DC0002B74E26AAB689B1AAB60114A236A1BB1AB4217D11B681360236A03B9A36263780F2B02D99920FBF7FDF963781BB94FF0000080F31188E36B3BB1BDE870409B6CF7
:405E0000692018471A461B68E1E770BDE8C4FF1F08C5FF1F0331026921F0030110B504310AB382694468A3580432002BB8BF5B42033323F00303134442699A420CD2C06848
:405E4000C01A88420DD28A4215D304284FF0000200D9E250134604E0D21A8A4238BF4FF0FF33184610BDC36842618B424FF0FF3328BF0023F5E74FF0FF33F2E72DE9F04762
:405E800004461D46A3610369476801330361144E53427B51C3699046727801330F2A8A4607EB0509C36102D99920FBF79BF973781BB94FF0000080F311884246514609F131
:405EC0000400FEF730FD4FF0800080F3118800BF00BF47F80580E369013BE361BDE8F087E8C4FF1F2DE9F04117460E4611F003032B4C1CBF171FFF18E36B18BF0336054676
:405F000018BF26F003063BB1D3F83080DB6B98473A460146B120C047FFF7B8FA012805D194F8773013B9A420FBF75CF994F8783013B9A520FBF756F94FF0800080F31188BE
:405F400000BF00BFD4F85080B8F1000F1ED1242241462846FEF70DFD9920236DEF60AB6063786E600F2B256585F8210001D9FBF739F963781BB94FF0000080F31188E36B32
:405F800063B1BDE8F0419B6CB1201847A84502D1B120FBF727F9D8F80880D5E7BDE8F081E8C4FF1FF8B5264D0646EB6B0F4633B11C6BDB6B98473A680146B820A047FFF7E4
:405FC00065FA012805D195F8773013B9A420FBF709F996F82130992B02D09120FBF702F94FF0800080F3118800BF00BF96F82030012B02D18F20FBF7F5F8346964B1716839
:4060000072698C588B18002CA3BF04333B6001230024A8BF86F820306B780F2B02D99920FBF7E0F86B781BB94FF0000080F31188EB6B1BB1DB6C2146B82098472046F8BD02
:40604000E8C4FF1F70B5304D0446EB6B2BB1DE6ADB6B98470146BB20B047FFF717FA012805D195F8773013B9A420FBF7BBF894F82130992B02D09120FBF7B4F84FF08000C2
:4060800080F3118800BF00BF94F8203013B99020FBF7A8F8626966682069B3580138033323F00301131DE2680B44D21A042A2061636114D800236361002384F82030236844
:4060C0009BB100F0EDF8204600F048F9FFF780FCEB6BC3B1BDE870409B6CBB2018470028EAD0F358002BE5D0E6E76B780F2B02D99920FBF777F86B78002BE9D14FF0000023
:4061000080F31188E4E770BDE8C4FF1F2DE9F0412B4D0646EB6B0F46144643B1D3F83480DB6B9847234601463A46B520C047FFF7ADF9012805D195F8773013B9A420FBF78C
:4061400051F896F82130992B02D09120FBF74AF814B99520FBF746F800F0A2F84FF0800080F3118800BF00BF21463046FFF752FE031E15DB224639463046FFF77FFE346857
:406180007CB1304600F0EAF80024FFF721FCEB6B1BB1DB6C2146B52098472046BDE8F08101246B780F2B02D99920FBF71BF86B78002BEAD14FF0000080F31188E5E700BFB9
:4061C000E8C4FF1F08B5FFF761F904280DD8DFE800F0030E080A0A00A320BDE80840FBF701B8A620F9E7A720F7E7A820F5E708BD38B50F4C2578EDB26B1CDBB22370E36B4B
:4062000023B1A0681B6A90F8501098470848FFF7E6F8257063780F2B02D99920FAF7E2FF63781BB94FF0000080F3118838BD00BFE8C4FF1F10B5184C63780F2B02D99920B8
:40624000FAF7D0FF4FF0800080F3118800BF00BF63780133DBB2637094F879302BB9012384F87930FFF79CF92067E36A0B4A03F59C530833136063780F2B02D99920FAF761
:40628000B1FF6378013BDBB2637063781BB94FF0000080F3118810BDE8C4FF1FE0C4FF1F024A13780133DBB213707047E8C4FF1F8268D2E9003203B15A601360002383600A
:4062C0007047000038B5244C0546E36B0BB1DB699847AB6823B1E36A2846EB60FFF7E8FF95F8503003F0030385F85030F3B9E269FAB9E56122780123CAB92370E36B23B15F
:40630000A0681B6A90F8501098471348FFF767F80023237063780F2B02D99920FAF762FF63781BB94FF0000080F3118838BD6371F0E7296913699942DBD89542DAD0994216
:40634000F4D12B461B68002BE4D018698142E1D19A42F7D1CDE700BFE8C4FF1F10B504464FF0800080F3118800BF00BF236823B12368D868FFF7A6FFF2E7074C62780F2A52
:4063800002D99920FAF72EFF63781BB94FF0000080F3118810BD00BFE8C4FF1F38B5036904460D4613B9CB20FAF71CFFFFF778FF22694DB91A4D55F8183F33B118699042E2
:4063C00003D91D461B68F8E72B68236025622C6043B11C621B69934214BF002394F8523084F8513094F85030ABB94FF0800080F3118800BF00BF2046094CFFF763FF627861
:406400000F2A02D99920FAF7EDFE63781BB94FF0000080F31188BDE83840FFF7D9BA00BFE8C4FF1F70B500F05FFE0B4E0446F3685D6800F05DFEF368421B196B2244914295
:4064400005D32946BDE87040D86AFEF76CBAFB20BDE87040FAF7C6BEE8C4FF1F054BD96E19B19A685164002191649B6E03B11847704700BFE8C4FF1F9B20FAF7B3BE026A61
:406480000368136003B11A62704700002DE9F04101230025904C657023704FF0800080F3118800BF00BF626B62B163780133DBB2637090476378C4E90D55013BDBB284F8A5
:4064C0007A5063704FF0000080F3118800F00CFE0378CD2B02D07D20FAF784FEA36833B1DB6A1B78CD2B02D07820FAF77BFEA36853B15A6C42B1586803F144052B681B68F7
:4065000098476D68002DF9D194F87C30002B3CD0A36894F87B2083F851202379002B34D04FF0800080F3118800BF00BF0022A36822714FF0000080F3118813B31A6802B307
:406540001869116988421CD1116811B10D69A84227D04FF0800080F3118800BF00BFE169186A8B42196808BFE1610160086211681A62196001B10B62136092F8523082F81A
:4065800051304FF0000080F3118894F87930CBB1D90708D4FFF704F8A268002A5AD1206710E00A46D0E7FFF77DF84C4B1B68181A0028EFDA94F8793003F0FE0384F87930DD
:4065C000002BE7D1A3682BB193F8502012B95A6B01325A63E369C3B14FF0800080F3118800BF00BFE569B5B195F850609EB172073BD5EB68E26A9A1A002A31DC2846FFF796
:4066000061FE95F85030002B2FD14FF0800080F3118800BF00BF00266FF00047DFF8B880637903F0FF02002B68D06671E36A3B442363A36A0BB1404698474FF0000080F363
:406640001188A56935BB4FF0800080F3118800BF00BFE5E7936B216F5B1A034493639EE7226B9A1A002AB8BF236306F0FB06102E09D1AB689B685B6893F850201AB91A6908
:406680002B699A42C1D12B68E3614FF0000080F31188A1E74FF0800080F3118800BF00BFE3691BB12A691B699A42B9D395F850305B070AD5E26AEB689B1A002B10DDEA6842
:4066C000236BD31A002B00DA22634FF0000080F311882D68B6E700BFE8C4FF1FE0C4FF1F2846FFF7EFFD4FF0800080F3118800BF00BF95F85030002BE1D191E76260E669C1
:40670000002E3CD096F8503093B1B3689B685D682846FFF7B4FE33692B61E36B0BB1DB6898470123314628466370FFF737FEE561E369A36093F853300F2B02D08020FAF739
:4067400051FDA3685A6C42B1586803F144052B685B6898476D68002DF9D1A06890F8513084F87B3084F87C30E36B0BB15B699847A268136B013313630948BDE8F081E36B15
:406780000BB15B6A9847002384F87C3084F87B30A36023704FF0000080F31188ECE700BFE8C4FF1F38B5274B1B681B78532BFDD1254B9B79002BFDD1244B1A684CF69113B5
:4067C0009A42FDD16FF000430122214C2363214BC3E90622C3E90A22C3E9082294F8763093B193420DD1636A33B194F8773073B9A120FAF7F7FC0AE0A36843B194F877304F
:406800002BB9E320FAF7EEFC636A002BEDD1FEF73DFE012802D1A020FAF7E4FC00F072FC0123237000F060FC054600F069FC2038421B03D0CD212846FEF79BF8012384F816
:40684000783038BD587B0000267B0000547B0000E8C4FF1F68C5FF1F38B50D4CE36B1BB19B6A4FF4AC709847FEF710FE012805D194F8773013B9A420FAF7B4FCE36B94F840
:4068800076501BB19B6C4FF4AC709847284638BDE8C4FF1F10B50D4C94F8783013B9A520FAF7A0FC4FF0800080F3118800BF00BF94F8763013B1E420FAF794FC012384F800
:4068C0007630BDE81040FEF75BBD00BFE8C4FF1F70B5304C0546E36B33B1DE6ADB6B9847014640F22710B047FEF7D0FD012805D194F8773013B9A420FAF774FCD5B994F836
:406900007630012B06D013B994F8773013B9E220FAF768FC636A2BB194F8773013B9A120FAF760FCFEF7B2FD012802D1A020FAF759FCA56895F853300F2B02D08020FAF777
:4069400051FCFFF7ADFCA368AE6BAB4216D14FF0800080F3118800BF00BFFEF721FE236FF61A637806440F2B02D99920FAF73AFC63781BB94FF0000080F31188FFF728F80A
:40698000E36B23B1DB6C314640F227109847304670BD00BFE8C4FF1F10B50D4CE36B1BB19B6A40F23B109847FEF770FD012805D194F8773013B9A420FAF714FCE36B23B1A3
:4069C000DB6C044940F23B109847024810BD00BFE8C4FF1F3E7B000010B50D4CE36B1BB19B6A40F23D109847FEF750FD012805D194F8773013B9A420FAF7F4FBE36B23B1AD
:406A0000DB6C044940F23D109847024810BD00BFE8C4FF1F4E7B000010B50E4CE36B1BB19B6A40F23F109847FEF730FD012805D194F8773013B9A420FAF7D4FBE36B2BB18F
:406A4000DB6C4CF6911140F23F1098474CF6911010BD00BFE8C4FF1F70B5214C0546E36B33B1DE6ADB6B984701464FF4A170B047FEF70CFD012805D194F8773013B9A42084
:406A8000FAF7B0FBD5B994F87630012B06D013B994F8773013B9E220FAF7A4FB636A2BB194F8773013B9A120FAF79CFBFEF7EEFC012802D1A020FAF795FBA56895F85330F1
:406AC0000F2B02D08020FAF78DFBE36BED6A23B1DB6C29464FF4A1709847284670BD00BFE8C4FF1F70B5214C0546E36B33B1DE6ADB6B9847014640F24310B047FEF7C6FCF5
:406B0000012805D194F8773013B9A420FAF76AFBD5B994F87630012B06D013B994F8773013B9E220FAF75EFB636A2BB194F8773013B9A120FAF756FBFEF7A8FC012802D124
:406B4000A020FAF74FFBA56895F853300F2B02D08020FAF747FBE36BAD6A23B1DB6C294640F243109847284670BD00BFE8C4FF1F4F4B70B51A78092A00F29880DFE802F060
:406B8000051A2332378E924B565E4A4A11884A4A21B94A49097801F0FF0039B10121117000228C201970464B1A8070BD10704FF0FF30FAE73F4A12881AB102221A70ED20B8
:406BC000F3E70722FAE73B4A10883E4AEF2889BF03210421000A40F0F0008CBF197019701070E2E704221A70324B1878DDE7344C35492288334D885C297801320144297055
:406C00002C4992B222800C889442CED105221A7000230B80C9E708221A70284A294913781078013301300B70C0B2BEE709221A70244A4320137843331370B6E720492348C4
:406C40000A880068845C013292B20A801B49087882421DD105221A704FF0800080F3118800BF00BF00261A4D0E702B681BB12868FFF728FB2E60174D6A780F2A02D99920F5
:406C8000FAF7B0FA6B781BB94FF0000080F311880C4A204613782344137086E706221A70084BA2E700228D201A707EE700207CE7ACC5FF1FAAC5FF1FA9C5FF1FA8C5FF1F97
:406CC000AEC5FF1F9CC5FF1FB8C5FF1FA4C5FF1F98C5FF1FE8C4FF1F10B54FF0800080F3118800BF00BF0C4B1B7833B9FFF740FF002802DBC0B2FAF73BFC084C62780F2AFE
:406D000002D99920FAF76EFA63781BB94FF0000080F3118810BD00BFA9C5FF1FE8C4FF1F0023044A1370044A1370044A1360044A13707047A9C5FF1FA8C5FF1F98C5FF1FEA
:406D4000ACC5FF1F034A1378591C1170024AD05C704700BFA0C5FF1FB0C5FF1F10B5FFF7F1FF0446FFF7EEFF40EA042080B210BD10B5FFF7F3FF0446FFF7F0FF40EA044043
:406D800010BDFFF7F5BE0000044A1378072B9FBF0349C85401331370704700BF9DC5FF1FB0C5FF1F044A1388C72B9FBF0349C85401331380704700BFAAC5FF1FB8C5FF1F46
:406DC000F8B5104D07462B88C3F1C7031E2B28BF1E23A8B904462046FFF7E4FF44B12E8809482246394630443444FDF79CFD2C80F8BD01349C42EED03A5D002AF9D1EAE7C6
:406E00000024F7E7AAC5FF1FB8C5FF1F10B50446000AFFF7C7FF2046BDE81040FFF7C2BF10B50446000CFFF7F1FF2046BDE81040FFF7ECBFF8B5FFF785FF432808D1FFF723
:406E400081FF714B1B680BB90020F8BD9847FBE76E4E3388002BF7D1FFF7A4FF6C2800F0AE8004D8632800F0B7803088EDE7732812D07428F9D1FFF77BFF0446644FBA69B7
:406E800094424AD0002A46D144F24E10FFF7BEFF5420FFF787FFE8E75D4CFFF7CBF9FEF711FCFFF7BDFFE069FFF7BAFFA068FFF7B7FF4CF69110FFF7A9FF0120FFF772FFCF
:406EC000FFF76AFDFFF77CFFFFF786FDFFF778FFB4F87430FF2B19D9FC20FFF763FFB4F87400FFF793FF00F0FFF8FFF799FF00F0FFF8B0F57F4F044604D3000C40F47F4067
:406F0000FFF784FF2046FFF781FFAEE7B4F87400FFF748FFE7E71268B2E794F85050FEF73FFBFFF77DFF25B9BD68A5420CBFFF2500252046FEF7D6FCFFF742FF2769FF2F3C
:406F400037D90020FFF72EFF3846FFF769FF2846FFF728FFA06880BBFFF762FFE068FFF75FFF2046FFF778FDFFF75AFF2046FFF7AFFCFFF755FF206BFFF752FF2046FFF782
:406F8000B1FDB0F57F4F054604D3000C40F47F40FFF73CFF2846FFF739FF2046FEF7D2FCFFF700FF94F85200FFF7FCFEFEF77AFBA9E73846FFF7F6FEC9E78068CCE7742095
:406FC000FFF7F0FE124B9C69002C3FF44EAF2046FFF726FF2468F7E7FFF7CAFE0446FFF7BDFE20F0030292B2C0F38F032168B1F1CD3F04D1013B9BB20434002BF6D19B0053
:407000009BB2D01A7FE700BF80C6FF1FAAC5FF1FE8C4FF1F70B5274E0546337813B1B420FAF7E0F80123244C33702278052A0CD8DFE802F0030E131C2C34ED2D05D1237088
:4070400000231E4A13701E4A13700023337070BD8C2D2CD102232370F7E76B1E072B26D8184B1D70184B1D700323F4E72846FFF78BFE154A13781D441570124A1378013B5E
:40708000DBB21370002BE0D10423E4E70E4A13781D44EDB2157055B90523DCE78D2D06D1FFF7C8FE18B1094B1880FFF715FE0023D1E700BF9FC5FF1FA1C5FF1F9DC5FF1F66
:4070C000A0C5FF1FADC5FF1F9EC5FF1FAAC5FF1F08B5FFF74DFD002804DBC0B2FAF748FA002008BD0120FCE70048704750D7FF1F014B0248C01A704750D7FF1F50DBFF1FE4
:407100006846704707B540F62741144B1A68C2F30B128A420AD11A6812F4700F06D11B6813F00E0F02D1FE20FAF75CF801AAEFF31081116072B60A490B6843F47F030B60DE
:40714000116881F310880023EFF314839B0702D5A720FAF747F803B05DF804FB00ED00E020ED00E053B94AB9002908BF00281CBF4FF0FF314FF0FF3000F082B9ADF1080C01
:407180006DE904CE00F006F8DDF804E0DDE9022304B070472DE9F04F8C460C460546099E002B4FD18A4217466BD9B2FA82FEBEF1000F0BD0CEF1200520FA05F501FA0EF3CE
:4071C00045EA030C02FA0EF700FA0EF5390CBCFBF1F0BAB201FB10C300FB02F84FEA154C4CEA0344A04509D9E41900F1FF3380F02881A04540F2258102383C44C8EB0404FD
:40720000B4FBF1F301FB134C03FB02F2ACB244EA0C418A4209D9C91903F1FF3480F00F818A4240F20C81023B39448A1A43EA00400021002E63D022FA0EF2002386E80C004D
