:400000000010002011000000010200000102000080B500AF00F062FA00F0FCF880B500AF104B104A12688021C9020A431A60202001F00AFB0C4B0D4A1A600D4B10221A60BD
:400040000C4B802212061A60064B802212031A60094B0A4A1A600A4B00221A60C046BD4680BDC04600010B4004010B40060000800C02024008010B40000002401300008079
:400080000C020B4080B582B000AF72B6FB1D00221A7022E0FB1D1A7813005B009B185B00244A9B183B603B681A78597809020A43997809040A43DB781B06134318003B68B3
:4000C0001A795B791B0213439BB2190000F082F8FB1D1A78FB1D01321A70FB1D1B78012BD8D9154B154A1A60154B992212041A60144B992212041A60134A134B1B78DBB2E6
:4001000006210B43DBB21370104B08221A60104BC02212011A600F4B03221A600E4B0F4A1A60FFF77BFF00F065F8C046BD4602B080BDC046042500000C000140EEEE00003F
:4001400000500F4030500F4000700F4000000440080004400003044008030440A40D000010B5064C2378002B07D1054B002B02D0044800E000BF0123237010BD5801002091
:400180000000000000250000084B10B5002B03D00749084800E000BF07480368002B00D110BD064B002BFBD09847F9E7000000005C01002000250000D000002000000000AA
:4001C00080B500AF62B6002000F0ACF800F02AF9FEE7C04680B582B000AF786039603A687B680021180002F07EF9C046BD4602B080BDC04680B500AFC046BD4680BDC04675
:4002000080B500AF02F03AF903001B680C2B00D1FEE7FEE780B586B000AF224B7B61224B3B61204B7B6135E03B691B68FB603B695B68BB603B699B683B6000237B600CE065
:40024000FB681A68BB681A60BB680433BB60FB680433FB607B6804337B607A683B689A42EED13B69DB683B6000237B6008E0BB6800221A60BB680433BB607B6804337B60EC
:400280007A683B689A42F2D13B6910333B617B69013B7B617B69002BC6D102F0F5F8FFF78FFFFEE701000000CC25000080B582B000AF00237B600FE07B68032B04D8144B6C
:4002C0007A689200D35800E0124B134A796889008B507B6801337B607B682F2BECD9FFF7D1FE0E4B00221A600D4B1B68002B02D10B4B00221A608023DB058022D205126891
:4003000001210A431A60C046BD4602B080BDC046000000000102000000000020C8000020C000002080B584B000AF0200FB1D1A700F4B1B68DAB20F23FB1808218A431A7001
:40034000FB1D1B78DB00DBB208221340D9B20F23FB180F22BA1812780A431A70044B0F22BA1812781A60C046BD4604B080BDC0460000044080B584B000AF78600A00BB1C4E
:400380001A800E23FB1800221A8012E0BB1C1B88013B7A68D3181B7899B20E23FB180E22BA1812888A181A80BB1C1A88BB1C013A1A80BB1C1B88002BE8D10E23FB181B88CA
:4003C0005B429BB21800BD4604B080BD80B586B000AFF860B9607A601723FB1800221A70FB68002B14D0002001F0DCFA10E07B68013B7B60FA68BB68D2187B68D3181B7896
:40040000D9B21723FB181722BA1812788A181A707B68002BEBD11723FB181B781800BD4606B080BD90B583B000AF06237B60002000F086F8031E01D100237B601E4B1B68D5
:400440001B68C03BFC1C1A00C0210020FFF7BEFF03002370194B1B681A78FB1CF91C09788A1A1A70FB1CFA1C127852421A70134B1B681B78FA1C12789A4204D10E4B1B68B8
:400480001B68002B02D1002001F08CFA0C4B1B68402B02D07B68002B05D0094B00221A60002000F0BBF8142000F0B8F800F00AF8C046BD4603B090BDD8000020D4000020BC
:4004C000C000002080B500AF034B80221A6001F075FAC046BD4680BDC000002080B582B000AF144B1B681022134002D1124B00221A60114B1B68802B17D1FB1D00221A70C9
:400500000D4B00221A60FB1D1B781900022000F093FD031E09D0FB1D1B781900022000F08BFD0300180000F009F8C046BD4602B080BDC04600030B40C00000200047C04684
:4005400090B587B000AF0200FB1D1A70FB1D1B781900032000F070FD03000133DC01FB1D1B781900042000F067FD0300E318FB601323FB1800221A701223FB1800221A70D6
:40058000FB1D1B781900032000F056FD03000133DB017B611FE07A690B23FB1812781A700B23FB181B78002B08D00B23FB181B78FF2B03D01323FB1801221A701223FB1805
:4005C0001222B9180B22BA18097812788A181A707B6901337B617A69FB689A42DBD31223FB181222BA18127852421A701223FB181C78FB1D1B781900012000F01DFD030038
:400600009C4204D11323FB181B78002B01D1062300E000231800BD4607B090BD90B5DA4CA54400AF0200D94BAA2189008C46BC4463441A70D64BFB1800221A80D54BFB1840
:400640000A221A70A8239B00FB1800221A70D24BFB1800221A8001F011FA62B6CF4BFB1800221A70C94BAA2292009446BC4463441B78002B07D0C54BAA2292009446BC44F6
:4006800063441B7800E0FF23A0229200BC1896225100AA225200B818220001F017FA0300A5229200BA181360B84BAA2292009446BC4463441B78002B06D0B64BFB181A78FE
:4006C000B44BFB18013A1A70B24BFB181B78002B05D0A5239B00FB181B68002BC2D1A5239B00FB181B68002B01D000F016FCA0239B00FB181B88062B08D9A94BAA2292005A
:400700009446BC4463441B78012B04D0A34BFB1804221A7073E0A24BAA2292009446BC446344DB789BB21B0299B29D4BAA2292009446BC4463449B789AB2954BFB180A4367
:400740001A80934BFB181B880733A0229200BA181288934207D88E4BFB181B88DA1D96235B009A4204D98D4BFB1803221A7046E0874BFB181B880533894AAA2189008C46D1
:40078000BC446244D35C9BB21B0299B2804BFB181B880433824AAA2080008446BC446244D35C9AB27F4BFB180A431A80784BFB181B8806337A4AAA2189008C46BC446244F0
:4007C000D35C172B04D0754BFB1804221A7016E06F4BFB181B8804339AB2AA235B00FB1811001800FFF7C6FD03001A006D4BFB181B88934203D0694BFB1808221A706A4BC8
:40080000FB1800221A80654BFB181B78002B00D076E3664BFB18624AAA2189008C46BC44624412791A705D4BFB1804221A705C4BAA2292009446BC4463445B78313B0A2B89
:4008400000D9BFE29A005A4BD3181B689F46A8239B00FB181B78012B00D042E34C4BFB181B88002B00D03CE30020FFF769FE03005A425341DBB21A00494BAA2189008C46C7
:40088000BC4463441A71484BFB1801221A80434BFB1800221A7024E3A8239B00FB181B78012B00D01FE33A4BFB181B88012B00D019E33E4BFB181B78002B00D013E33D4B6A
:4008C0001B681B68DA0BA4239B00FB181A70374BFA18A4239B00FB1812781B789A420BD1344B1B681B68DB099AB2A7239B00FB18FF210A401A8014E02C4BFA18A4239B0020
:40090000FB1812781B789A4205D9A7239B00FB1800221A8005E0A7239B00FB18802252001A80A7239B00FB181B88DAB21C4BAA2189008C46BC4463441A71A7239B00FB18D0
:400940001B881B0A9BB2DAB2154BAA2189008C46BC4463445A71124BAA2292009446BC446344FF229A710E4BAA2292009446BC4463440022DA710C4BFB1804221A80074B55
:40098000FB1800221A70AEE254FDFFFF5FFDFFFFA2020000A10200009E020000A5020000ACFEFFFF92020000A60200009102000018250000D8000020C14BAA2292009446C1
:4009C000BC4463445B78342B19D1A8239B00FB181B78012B00D093E2BA4BFB181B88032B00D08DE2B84BFB1880221A80B64BFB181A882823FB180021180001F074FDA823C3
:400A00009B00FB181B78012B00D06EE2AD4BFB181B88022B00D868E2AB4BFB181B882822BA18D018A74BFB181B88DA1EAA235B00FB180733190001F04DFDA34BFA18A14B27
:400A4000FB1812881B88D3189AB29F4BFB18033A1A809C4BFB1880221A809C4BFB18802252001A80984BFA18964BFB1812881B889A4200D070E0924BAA2292009446BC4426
:400A800063449B799BB21B0299B28D4BAA2292009446BC4463445B799AB28B4BFB180A431A80894BFA18894BFB1812881B889A4201D2002200E00A22854BFB181A70844BFC
:400AC000FB181B78002B00D011E2824BFB181B789BB21B0299B2A3239B00FB187A4ABA1812888A181A807C4B1B681B68DA097B4BFB181A80784B1B681B687F22134006D0A4
:400B0000764BFB181A88754BFB1801321A80A3239B00FA18714BFB1812881B889A4208D26B4BFB180A221A70674BFB1800221A80E6E1A3239B00FB181B882822BA1811005F
:400B4000180000F097FB031E01D00A2200E000225F4BFB181A7003E05D4BFB1803221A70594BFB1800221A80BFE1A8239B00FB181B78012B00D0BCE1534BFB1800221A8002
:400B8000CCE1A8239B00FB181B78012B00D0B2E14D4BFB181A884B4BFB181B88D3181A0096235B009A421ED8494BFB1800221A70454BFB181B882822BA18D018414BFB182D
:400BC0001A88AA235B00FB180433190001F082FC3D4BFB183C4AB9183A4ABA18098812888A181A8087E13A4BFB1803221A7082E1344BFB181B88002B26D1394BAA2292005F
:400C00009446BC446344374A03CA03C3A8239B00FB1801221A70344BFB1808221A802A4BFB1800221A80304BFB181A882023F918AA235B00FB180433180001F04BFC244BAA
:400C4000FB1800221A705BE1214BFB1804221A7056E1A8239B00FB181B78012B00D04CE1184BFB181B88032B00D046E1144BAA2292009446BC4463449B799BB21B0299B299
:400C80000F4BAA2292009446BC4463445B799AB2164BFB180A431A800E4BFB181B781A02124BFB181B88D318DB01A1229200BA1813600E4BFB181B88FF2B19D8002218E0AD
:400CC000ACFEFFFFA20200009E0200008E020000A502000091020000D80000209A02000078FDFFFF10250000A60200008A0200000A22974BFB181A70954BFB181B78002B72
:400D000000D0FCE0934BFC18A1239B00FB181B68802219000020FFF759FB030023708E4BFB181B789BB21B0299B28C4BFB188C4ABA1812888A181A80874BFB181B78002B26
:400D40001ED1864BFB181B88FF2B19D10021052000F072F90300DAB27E4BFB187D49791809788A1A1A700021062000F065F90300DAB2784BFB187749791809788A1A1A70DD
:400D8000744BFB181B785B42DAB2764BAA2189008C46BC4463441A716D4BFB1800221A70714BFB1801221A80A7E00020FFF7C8FB031E02D16D4B80221A6000F07FFE00F004
:400DC000FDFD9DE06A4B1B68002B00D183E0A8239B00FB181B78012B00D07CE0614BAA2292009446BC4463445A78624BAA2189008C46BC4463441A705E4BAA22920094463F
:400E0000BC4463445C4ABA1812885A80594BAA2292009446BC446344AA225200BA1804325A600C23FB180C220021180001F05BFB524BAA2292009446BC446344AA22520032
:400E4000BA1804329A604A4B1B680C22B9181822BA1810009847444BFB18484AAA2189008C46BC44624492881A803F4BFB181A882623FF339A420CD9404BAA22920094466C
:400E8000BC4463449A68AA235B00FB1804339A420DD03A4BAA2292009446BC4463449B68002B0DD1304BFB181B88002B08D0284BFB180E221A702C4BFB1800221A800FE045
:400EC0002E4BAA2292009446BC4463441A68204BFB181A7004E01E4BFB1805221A700FE00EE0C0460CE0C0460AE0C04608E0C04606E0C04604E0C04602E0C04600E0C046A8
:400F0000194BFB181A88AA235B00F918104BFB181B78180000F036F800E0C046184BAA2292009446BC4463441B78002B01D1FFF795FBA8239B00FB181B78012B01D1FFF7EA
:400F40008DFBC046BD46AB239B009D4490BDC046A50200009902000091020000820200008A020000ACFEFFFFA6020000C00000207401002070FDFFFFA202000064FDFFFF2B
:400F80005FFDFFFF90B585B000AF39601100FB1D021C1A703B1D0A1C1A803B6801221A703B680133FA1D12781A703B6802333A1D1288D2B21A703B6803333A1D1288120A1D
:400FC00092B2D2B21A703B1D1B8804339AB20E23FC183B6811001800FFF7CCF9030023803B1D1B8804333A68D3180E22BA181288D2B21A703B1D1B8805333A68D3180E2256
:40100000BA181288120A92B2D2B21A703B1D1B8806333A68D31817221A703B1D1B88073399B23A1D3868962300F0B0FD03001800BD4605B090BDC04680B586B000AF020043
:40104000FB1D1A70BB1D0A1C1A701323FB1802221A700023FB60FB1D1B780C2B00D9A8E09A00774BD3181B689F46BB1D1A7813005B069B1ADB01734A944663447B61132320
:40108000FB1801221A709AE0BB1D1A7813005B069B1ADB016C4A944663447B611323FB1804221A708BE0BB1D1A7813005B069B1ADB01664A944663447B6180E0BB1D1A78CA
:4010C00013005B069B1ADB01614A944663447B611323FB1804221A7071E0BB1D1A7813005B069B1ADB015B4A944663447B611323FB1801221A7062E0BB1D1A7813005B0612
:401100009B1ADB01544A944663447B611323FB1801221A7053E0BB1D1A7813005B069B1ADB014E4A944663447B6148E0BB1D1A7813005B069B1ADB01494A944663447B610F
:401140003DE0BB1D1A7813005B069B1ADB01454A944663447B6132E0BB1D1A7813005B069B1ADB01404A944663447B611323FB1804221A7023E0BB1D1A7813005B069B1A00
:40118000DB013A4A944663447B611323FB1801221A7014E0BB1D1A7813005B069B1ADB01334A944663447B611323FB1804221A7005E0002000F0F6FB00237B61C046132325
:4011C000FB181B78012B03D17B691B78DBB2FB601323FB181B78022B0BD17B691B78DBB2FB607B6901331B78DBB21B02FA681343FB601323FB181B78042B1BD17B691B78D0
:40120000DBB2FB607B6901331B78DBB21B02FA681343FB607B6902331B78DBB21B04FA681343FB607B6903331B78DBB21B06FA681343FB60FB681800BD4606B080BDC0460E
:4012400044250000C07F0000C17F0000C57F0000C97F0000D07F0000D17F0000D67F0000D27F0000D47F0000D87F0000DC7F0000E07F000090B5AFB000AF7860396000236A
:401280009422BA18136000239022BA1813600023A022BA1813600023B422BA1813600023B022BA1813600023AC22BA1813600023A822BA1813607B68FF2B00D985E13B6820
:4012C000002B00D181E139680823FB1808338022180001F0FFF80223A422BA1813602FE00823FB18A422BA1812689200D3589C22BA1813609C23FB181B68002B19D0AC234D
:40130000FB181A689C23FB181B68D318AC22BA181360A823FB181A689C23FB181B681343A822BA181360A423FB181B68B422BA181360A423FB181B680133A422BA18136097
:40134000A423FB181B68212BCAD9AC23FB181B68002B06D1A823FB181B68002B01D0012300E00023A022BA181360A023FB181B68002B11D00823FB18B422BA1812689200D8
:40138000D358B022BA1813600823FB18B422BA18126892000021D1500823FB18904A1A600823FB187F225A608E4B0822BA181A608D4B8E4A1A60C0468A4B1B681B0F1A076A
:4013C000F0231B069A4204D1864B1B68FF2213400DE0844B1B681B0F1A07A0231B069A4204D0804B1B68FF22134000E000239422BA1813609423FB181B68002B00D0E8E052
:401400009B23FC1800F032FB0300237000F0F8F803009022BA1813609423FB181B68002B32D10823FB18724A1A600823FB181A687B681B041A430823FB181A60694B0822A9
:40144000BA181A60684B6B4A1A60C046654B1B681B0F1A07F0231B069A4204D1614B1B68FF2213400DE05F4B1B681B0F1A07A0231B069A4204D05B4B1B68FF22134000E0BC
:4014800000239422BA1813609423FB181B68002B00D07DE0A023FB181B68002B00D177E00823FB18083380220021180001F01BF80823FB18B422BA1812689200B021791811
:4014C0000968D1500823FB18454A1A600823FB187F225A60434B0822BA181A60424B434A1A60C0463F4B1B681B0F1A07F0231B069A4204D13B4B1B68FF2213400DE0394BB1
:401500001B681B0F1A07A0231B069A4204D0354B1B68FF22134000E000239422BA1813609423FB181B68002B32D10823FB18324A1A600823FB181A687B681B041A430823DB
:40154000FB181A60274B0822BA181A60264B2B4A1A60C046234B1B681B0F1A07F0231B069A4204D11F4B1B68FF2213400DE01D4B1B681B0F1A07A0231B069A4204D0194BF3
:401580001B68FF22134000E000239422BA1813609023FB181B68002B10D100F043F803009022BA1813609023FB181B68002B05D09023FB181B689422BA1813609B23FB185E
:4015C0001B78180000F056FA03E004239422BA1813609423FB181B681800BD462FB090BDB6D70000080000400400004004000080B6D8000005000080B6D9000006000080A2
:4016000080B582B000AF00237B60044B1A68044B1A607B681800BD4602B080BD08010B407801002080B582B000AF00237B60044A044B1B6813607B681800BD4602B080BD8E
:4016400008010B407801002090B585B000AF78600C23FC1800F00AFA030023707B68022B00D8AFE07B68302B00D9ABE05C4B1B78DBB21A007B689A420AD35A4A0F23FB1830
:4016800012781A70584A0E23FB1812781A703FE0564B1B78DBB21A007B689A420AD3544A0F23FB1812781A70524A0E23FB1812781A702DE0504B1B78DBB21A007B689A42FA
:4016C0000AD34E4A0F23FB1812781A704C4A0E23FB1812781A701BE04A4B1B78DBB21A007B689A420AD3484A0F23FB1812781A70464A0E23FB1812781A7009E0444A0F234C
:40170000FB1812781A70434A0E23FB1812781A707B68DA1E0B23FB183F498A5C1A700B23FB181B782F2B0DD97B682A2B0AD93B4B19221A60052000F08FF90D23FB18192204
:401740001A7007E0354B1B68DAB20D23FB183F210A401A700B23FA180D23FB1812781B789A4208D22D4B7A68033A2B498A5C1A60052000F071F92A4B7A6826498C46624474
:401780001278D2B21A60274B0F22BA1812781A60254B0E22BA1812781A60052000F046F90B23FA180D23FB1812781B789A420CD91A4B7A68033A18498A5C1A60052000F0A3
:4017C0004BF902E0002000F0EDF80C23FB181B78180000F04FF9C046BD4605B090BDC046C0F1FF0FC1F1FF0FC2F1FF0FC3F1FF0FC4F1FF0FC5F1FF0FC6F1FF0FC7F1FF0F84
:40180000C8F1FF0FC9F1FF0FCAF1FF0FCBF1FF0FCCF1FF0FCDF1FF0F782500002CFF0B4028FF0B401CFF0B4020FF0B4080B584B000AF02003960FB1D1A7080239B05FB60A7
:40184000FB1D1B781F2B02D9002000F0ABF8FB1D1B7810339B00FA68D3181B68BB60FB1D1B7810339B00FA68D3183A681A60BB681800BD4604B080BD90B587B000AF020023
:40188000FB1D1A70BB1D0A1C1A70BB1D1B78032B02D9002000F086F8FB1D1B781F2B02D9002000F07FF8FB1D1B7803221340DB0006337B611323FC1800F0D8F803002370F2
:4018C000FB1D1B789B08DBB29B00144A944663441B68FB6003227B699A401300DA43FB681340FB60BB1D1A787B699A401300FA681343FB60FB1D1B789B08DBB29B00074A7C
:4019000094466344FA681A601323FB181B78180000F0B0F8C046BD4607B090BD00E400E080B582B000AF0200FB1D1A70064BFA1D12781F210A40012191400A001A60C0463A
:40194000BD4602B080BDC04600E100E080B582B000AF0200FB1D1A70064BFA1D12781F210A40012191400A001A60C046BD4602B080BDC04680E100E080B582B000AF0200AA
:40198000FB1D1A70064BFA1D12781F210A40012191400A001A60C046BD4602B080BDC04680E200E080B582B000AF0200FB1D1A7001BEC046BD4602B080BDC04680B500AFF7
:4019C000054B054A12681204120C04490A431A60C046BD4680BDC0460CED00E00400FA0580B582B000AF786009E00D4B1B68180000F032F87B680B4A944663447B607A6804
:401A000080231B029A42F0D8074B1B687A685343180000F021F8C046BD4602B080BDC046E80000200080FFFFE000002080B582B000AF0200BB1D1A80BB1D1B88044A127873
:401A40005343180000F008F8C046BD4602B080BDE4000020000000000230800804D0C0460138FDD1C046C046C0467047EFF3108072B6704780F310887047C04680B500AF6B
:401A80000A4B4021180000F00FF9094B0021180000F0E4F8074B180000F06EF9064B00221A6000F03DF9C046BD4680BDBC0100207C010020F91B0000FC01002080B500AF5E
:401AC00000F040F9C046BD4680BDC04680B586B000AFF86008007A6019000A23FB18021C1A800923FB180A1C1A7001237B61FB68002B40D00A23FB181B88002B3BD0102333
:401B00007B610923FB181A7813009B009B185B003B612DE01A4B1B78DBB210221340DBB2002B1FD0174B1B689AB27B681A80144B00221A70134B00221A607B681A880A237D
:401B4000FB181988101C82B28BB29A4200D9081C83B21A000C49FB68180000F0BBFC00237B6108E00120FFF73BFF3B69013B3B613B69002BCED17B691800BD4606B080BD61
:401B80002402002014020020BC01002080B586B000AFF86008007A6019000A23FB18021C1A800923FB180A1C1A7001237B61FB68002B18D00A23FB181B88002B13D07B682E
:401BC0000A22BA1812881A800A23FB181A88F968074B180000F07EFC0A23FB181A88054B1A6000237B617B691800BD4606B080BD7C010020FC01002080B500AF124B1B6881
:401C0000402213401DD0114B1B68102213400ED00F4B1B68002B14D00D4B1A680D4B1A600D4B00221A600A4B00221A6009E00A4B1A68084B1B689A4203D0064B1A68064BDA
:401C40001A60C046BD4680BD4C0F074064000740FC010020200200200C02002080B582B000AF786039607B68002B11D00B20FFF76DFE094B7A681A60084B3A681A60084B56
:401C800000221A60074B00221A600B20FFF748FEC046BD4602B080BD18020020200200200C0200200802002080B582B000AF786039607B68002B0ED00B20FFF747FE084B3B
:401CC0007A681A60074B3A681A60074B00221A600B20FFF725FEC046BD4602B080BDC0461C020020100200201402002080B500AF00F090F8C046BD4680BDC04680B500AFB8
:401D0000064B064A1268802109060A431A6000F041F800F047F8C046BD4680BD0000074080B500AF064B1B78002B04D1FFF7DEFF034B01221A70FFF7E1FFC046BD4680BD7A
:401D40000002002080B500AF0B20FFF7FFFD00F02FF8074B064A1268520052081A60054B00221A600B20FFF707FEC046BD4680BD00000740880F074080B582B000AF78607C
:401D8000034B7A681A60C046BD4602B080BDC0460402002080B500AF0B20FFF7C1FDC046BD4680BD80B500AFC046BD4680BDC04680B500AF00F0AAF8C046BD4680BDC0465A
:401DC00080B500AF0F4B1A6880235B00134012D00D4B1A688023DB0113400CD1094B094A12680A490A401A60064B064A1268802149000A431A60064B02221A60C046BD466B
:401E000080BDC0460000074060000740FFFEFFFF6C00074080B500AF254B254A12680C210A431A60234B00221A60234B234A1A60234B244A1A60244B00221A60234B244AF6
:401E40001A60244B1F4A1A60234B00221A600B20FFF77CFD03210B20FFF70EFD1F4B19000B20FFF7E3FC1E4B00221A601D4B00221A601D4B4C22FF321A601C4B00221A6092
:401E80001B4B00221A601B4B00221A601A4B10221A701A4B00221A70194B00221A60194B00221A60184B00221A70C046BD4680BD7000074000000740600007407708004033
:401EC000000307400701008004030740100307401000FE000002074004020740DD1F0000C80E0740880E0740480F0740080F0740C80F0740880F0740260200202402002048
:401F00000C020020140200202502002080B500AF054B00221A60054B00221A60044B10221A70C046BD4680BD680007406C0007402602002080B500AF184B184A12685200CA
:401F400052081A60164B00221A60164B00221A60154B154A126815490A401A60144B00221A60144B00221A60134B144A1A60144B144A1A60144B154A1A60154B154A1A6064
:401F8000154B10221A70054B044A1268802109060A431A60C046BD4680BDC04600000740680007406C00074060000740FF5CFFFF880F0740C80F0740800F0740F3070000B5
:401FC000C00F0740ED0F0000400F0740FF0F0000000F0740170300002602002080B582B000AF00233B60DA4B1B68002B02D0D84B1B689847D74B1B680122134002D0D64B67
:4020000000221A60D54B1B78DBB220221340DBB2002B32D1D24B1A680223FF3313402CD0CE4B1B78DBB201221340DBB2002B10D0CC4B1B78DBB202229343DAB2C94B1A708D
:40204000C84B1B78DBB209221343DAB2C54B1A7010E0C44B1B78DBB220229343DAB2C14B1A70C04B1B78DBB2702252421343DAB2BC4B1A70B94B00221A70B84B1B78DBB296
:4020800020221340DBB2002B00D0DEE1B34B1B78DBB210221340DBB2002B00D1D3E1B04B1B680222134056D0AF4B02221A60AF4B1B680F221A40AD4B196880231B020B4025
:4020C00001D0012300E00023D3187B60A84B1B78DBB21A007B689A4208D9A24B1B78DBB204221343DAB29F4B1A700AE0A04B1B78DBB21A007B689A1A9E4B1B689A1A9D4B1E
:402100001A609C4B1A689C4B1A609C4B00221A60974B00221A709A4B994A1268802149020A431A60964B964A126896490A401A608C4B1B78DBB202229343DAB2894B1A709C
:40214000884B1B78DBB201221343DAB2854B1A70824B10221A70824B1B680822134048D0814B08221A60884B1A6880239B01134019D00DE0854B1A68854B1B68D218854B13
:402180001B68DBB21370824B1B685A1C804B1A60814B1B680F221340ECD17B4B7A4A12687E490A401A607E4B1B682022134007D06C4B1B78DBB240221343DAB2694B1A7051
:4021C000784B00221A60764B774A1A60654B1B78DBB220229343DAB2624B1A70614B1B78DBB210221343DAB25E4B1A705B4B10221A705B4B1B68402213404DD06B4B012290
:402200001A606B4B1B681022134012D05B4B10221A60594B1A68574B1A60524B1B78DBB202221343DAB24F4B1A704C4B12221A702CE0604B1A68564B1B68D31A7B607B68AC
:40224000072B03D8574B04221A6014E07B68082B07D14D4B4C4A1268A02109020A431A6009E0494B484A1268802189010A431A604C4B08221A603B4B1B78DBB220221343FE
:40228000DAB2384B1A70354B11221A70364B4A4A1A604A4B01221A60494B1B680822134036D0444B1A683A4B1B68D31A083B7B607B68082B04D908237B6000233B6013E01F
:4022C00001233B6010E0314B1A68314B1B68D218304B1B68DBB213702D4B1B685A1C2C4B1A607B68013B7B607B68002BEBD13B68002B09D0244B244A1268802109020A431D
:402300001A60284B00221A60254B08221A6066E02B4B1B680422134061D01E4B1B687B601B4B1A68234B1B689A424BD2234B01221A60164B1A68164B1B68D3187A68D2B25B
:402340001A70134B1B685A1C114B1A6044E0C046040200208C0E0740880E0740260200204C0F074024020020400F07400802074025020020080200200C020020880F074004
:4023800004020740FFFFFEFF600007401C020020140200204003074008030740FF5FFFFFC00F0740C80F0740ED0F0000800E07406400074010020020FF0F00006C000740DF
:4023C000CC0F0740FFF7FCFC224B1B78DBB240221343DAB21F4B1A701F4B04221A601F4B1B681022134030D023E01D4B1A681D4B1B689A420ED21C4A1C4B1968184B1B68C4
:40240000CB181B78DBB21360154B1B685A1C144B1A600EE0144BFF221A60154B1B78DBB20A2B06D8124B1B78DBB20133DAB2104B1A70104B1B680F221340082BD5D10E4BC3
:4024400010221A6001E0FFF775FDC046BD4602B080BDC04624020020C00F07408C0F0740080200202002002040020740180200202502002008020740800F0740014B1868C2
:402480007047C046500100200E4B70B500251E000D4CE41AA410A54204D0AB00F35898470135F8E700F080F8084B00251E00084CE41AA410A54204D0AB00F35898470135B3
:4024C000F8E770BDB4250000B4250000B4250000BC250000002310B59A4203D0CC5CC4540133F9E710BD03008218934202D019700133FAE7704700008B00000080260000E2
:402500000000000000300F40000400400F4000049311C804113C01014E08000098080000C40D0000B80900006A0B0000C40D0000820B0000F00B0000B8090000520C000051
:40254000AA0D0000B21100006A10000088100000A6100000BC100000DA100000F81000002C1100001611000042110000581100007611000094110000030405060708090ADB
:402580000B0C0E0F101112131415161718191B1C1D1E1F2021222325262728292A2B2E2F3031323334354300F8B5C046F8BC08BC9E46704789010000AD020000F8B5C0466A
:4025C000F8BC08BC9E46704761010000E0250000D000002088000000D00000000000000000000000F8240000FC2400000024F400803E0000100000000000401F0100000097
:402600000000000000000000000000000000000000000000000000000000000000000000A625000000000000000000000000000000000000000000000000000000000000CF
:402640000000000000000000000000000000000000000000000000000000000000000000F0000020000000000000000000000000000000000000000000000000000000004A
:40268000000000000000000000000000000000000000000000000000000000000000000000000000000000000000000000000000000000000000000000000000000000001A
:4026C00000000000000000000000000000000000000000000000000000000000000000000000000000000000000000000000000000000000000000000000000000000000DA
:402700000000000000000000000000000000000000000000000000000000000000000000000000000000000000000000000000000000000000000000000000000000000099
:402740000000000000000000000000000000000000000000000000000000000000000000000000000000000000000000000000000000000000000000000000000000000059
:407FC0000000000000000000000000000000000000000000010000000000000000000000000000000000000000000000000000000000000000000000000000000000000080
:0200000490303A
:02000000BE98A8
:0200000490402A
:200000000000000000000000000000000000000000000000000000000000000000000000E0
:0200000490501A
:0C000000000204C81193110104D4D02B9D
:0200000490600A
:0100000001FE
:00000001FF