:4000000098C5FF1F110000004913000049130000034A08B51268034B1A6001F09DF900BFFA460040BC76004010B5054C237833B9044B13B10448AFF300800123237010BD56
:400040005081FF1F0000000058320000084B10B51BB108490848AFF300800848036803B910BD074B002BFBD0BDE81040184700BF000000005481FF1F58320000C880FF1FDE
:400080000000000010B5054C204602F04DFD01F065FD2046BDE8104002F01EBD80A4FF1F70B5154CC2B0154802F03EFD94E80A000131CE18124D0A4621600096114902A8E1
:4000C000A66001F02FFE284601F004FA0E4801F001FA01F043FD02A801F0FCF9284601F0F9F901F03BFD094A002323736373A373137042B070BD00BF6C81FF1FAC82FF1F52
:400100004837000074320000C4320000FCA3FF1F70B5154CC2B0154802F006FD6168226801318E18124D0B4661600096114902A8A66001F0F7FD284601F0CCF90E4801F011
:40014000C9F901F00BFD02A801F0C4F9284601F0C1F901F003FD094A0023E37323746374137042B070BD00BF6C81FF1FD4A3FF1F4837000074320000E4320000C4A4FF1F66
:4001800010B50A4C03222146094800F077FF40B9084801F09FF9204601F09CF9064801F099F9002323706370A37010BD98A4FF1F74ADFF1F043300006437000038B50B4C3A
:4001C0000B4D227B29460B4800F058FF40B90A4801F080F9284601F07DF9084801F07AF90023237363732B70A37338BD6C81FF1FFCA3FF1F74ADFF1F483300006437000071
:4002000010B50A4C03222146094800F037FF40B9084801F05FF9204601F05CF9064801F059F9002323706370A37010BD94A4FF1F74ADFF1F8C3300006437000038B50B4C35
:400240000B4DE27B29460B4800F018FF40B90A4801F040F9284601F03DF9084801F03AF90023E37323742B70637438BD6C81FF1FC4A4FF1F74ADFF1FD0330000643700009D
:4002800010B50F4CC0B00F4802F04EFCE27C01239A42A3740FD01846E37400F0B3FEA27C0949684601F03EFD01F058FC684601F011F901F053FC034802F00EFC40B010BDF5
:4002C0006C81FF1F9882FF1F1434000070B54FF0800080F3118800BF00BF154C154D237815480133DBB2237063780133DBB2637002F0F2FB6E6901F02DFA63786A69013BCF
:40030000DBB2637023780D490132012B88556A6108D02378013BDBB223704FF0000080F3118870BD6368002BF3D002F032FAF0E70882FF1F6C81FF1FC0A2FF1F5CA5FF1F1E
:40034000F8B54FF0800080F3118800BF00BF184C184D2378184F0133DBB2237063780133DBB2637001F05EFB144802F0B5FB2E8B01F050FBC04363782A8B013BDBB263708D
:40038000217800F00700531C0129B8552B8308D02378013BDBB223704FF0000080F31188F8BD6368002BF3D002F0F3F9F0E700BF0882FF1F6C81FF1FD4A2FF1FB0A4FF1FA4
:4003C000F8B54FF0800080F3118800BF00BF184C184D2378184F0133DBB2237063780133DBB2637001F02EFB144802F075FB6E8B01F020FBC04363786A8B013BDBB263702D
:40040000217800F00700531C0129B8556B8308D02378013BDBB223704FF0000080F31188F8BD6368002BF3D002F0B3F9F0E700BF0882FF1F6C81FF1F10A6FF1F48A5FF1F4A
:4004400030B51D4C1D4D6269A1B0AB1813F8013C6BB929461A4800F011FE18B362690021164801F056FC0023636121B030BDE369144901331A466846E36101F053FC1248E3
:4004800001F028F8114801F025F8684601F022F8284601F01FF80E4801F01CF80A4801F019F8DBE70B4801F015F8284601F012F8074801F00FF8D1E76C81FF1F5CA5FF1F41
:4004C0003CAAFF1F7C3400004837000098340000643700004034000030B50B229BB09949044601F0E1FB98B9974B012293F8211083F82020914209D0104683F8212001F01C
:40050000B5FA924800F0E6FF01F028FB1BB030BD0C228F49204601F0C7FB80B98A4B93F8211083F820000029F0D083F8210001F09DFA884800F0CEFF01F010FBE6E70B227D
:400540008549204601F0B0FB78B97F4B012293F8231083F822209142D8D0804883F8232000F0B8FF01F0FAFAD0E70D227C49204601F09AFB034670B9734A92F8231082F888
:4005800022000029C2D0774882F8233000F0A2FF01F0E4FABAE70B227349204601F084FBA8B10D227149204601F07EFB0346F0B9654A92F8251082F824000029A6D06C48AF
:4005C00082F8253000F086FF01F0C8FA9EE75E4B012293F8251083F82420914296D0654883F8252000F076FF01F0B8FA8EE70D226149204601F058FB68B30D225F49204636
:4006000001F052FB002845D007225D49204601F04BFB054600285CD008225A49204601F043FB002800F089800A225749204601F03BFB00287AD001F0CBF801F043F953486A
:4006400000F048FF204600F045FF514800F042FF01F084FA5AE74849204600F0F1FC044601F07CFA204601F0EFFA4A4C207001F075FA237862789A423FF448AF1A4646497A
:4006800001A8637001F04EFB01A800F023FF01F065FA3BE73949204600F0D2FC044601F05DFA204601F0D0FA3A4CA07001F056FAA378E2789A423FF429AF1A46374901A842
:4006C000E37001F02FFB01A800F004FF01F046FA1CE7334802F000FA2949204600F0B0FC044601F03BFA294620460A2201F0E6FB0446154D01F032FAEB7CE0B28342A874FB
:400700003FF404AF0628E87403D901231846AB74EB7400F077FCAA7C224901A801F002FB01A800F0D7FE01F019FAEFE60D211E4801F070F801F012FAE8E601F00FFA01F0F8
:40074000E5F9E3E6B43400006C81FF1FC0340000D0340000E0340000F0340000FC3400000C3500001C3500002C350000483500005835000038350000683500008C350000B7
:40078000B0350000CC350000D8350000F435000064370000CC80FF1F783500009C3500009882FF1FB8350000E43500002DE9F84FDFF85891B9F81A20002A62D04B4F4C4EC4
:4007C0004C4D002405E0B9F81A200134E4B2944257D2335D013BDBB2052BF6D8EA18117C15F803A092F808B061B1434802F072F940B9424B4921987032223F4819705A70AA
:4008000002F06AF999F81130002BDCD1BAF1000F68D099F82430DFF8F480002BD3D1384802F058F990BB98F8103093B3354802F053F9BAF1000F52D098F80F1030204B1CA7
:40084000DBB2785488F80F30BBF1000F05D031215A1CF954D3B289F80F302B4A927802329A42B0DA00215A1CF9542648012389F80F2089F8113002F057F9214802F02CF9B3
:40088000A1E70023A9F81A30BDE8F88FB8F81A209BE701231B4888F8103002F01DF95021322339707B7057210323B97088F80F30BAF1000F11D00D4A30210423D17088F8B0
:4008C0000F300522BBF1000F3FF47DAF312189F80F20F954B9F81A2077E70422F2E798F80F30B1E7BBF1000F93D16CE7C4A4FF1F10A6FF1F5C320000FCA5FF1F94A4FF1F0B
:400900009CA4FF1FD4A3FF1FCC80FF1F6C81FF1F2DE9F84FDFF86491B9F81820002A63D04C4F4D4D4D4E002405E0B9F818200134E4B2944258D22B5D013BDBB2052BF6D804
:40094000474A4849D25C11F803A016F803B062B1454802F0BFF840B9444B492198703122414819705A7002F0B7F899F80E30002BDBD1BBF1000F68D099F82230DFF8FC80D8
:40098000002BD2D13A4802F0A5F890BB98F80D3093B3384802F0A0F8BBF1000F52D098F80C1030204B1CDBB2785488F80C30BAF1000F05D031215A1CF954D3B289F80C30B5
:4009C0002D4A127802329A42AFDA00215A1CF9542848012389F80C2089F80E3002F0A4F8234802F079F8A0E70023A9F81830BDE8F88FB8F818209AE701231E4888F80D30AE
:400A000002F06AF85021312339707B7057210323B97088F80C30BBF1000F11D00D4A30210423D17088F80C300522BAF1000F3FF47CAF312189F80C20F954B9F8182076E74D
:400A40000422F2E798F80C30B1E7BAF1000F93D16BE700BFFCA3FF1FD4A2FF1F5C3200006C3200006432000010A7FF1F98A4FF1FE8A5FF1FAC82FF1FCC80FF1F6C81FF1F36
:400A800038B51D4802F050F801F0BEF8044601F0C3F80546E4002D0105F0100504F008042C44164D01F05AF864F0180401F056F82B79E4B2A3420FD02246114905F1080023
:400AC0002C7101F02FF90E2205F108010D4800F0D5FA30B101F042F8BDE83840064801F0FBBF094800F0F6FC05F1080000F0F2FC064800F0EFFCEDE79CA5FF1FCC80FF1F06
:400B00000C36000074ADFF1F1C3600006437000008B5074801F04CF8064B04221A60064801F05CF8BDE80840044800F0ABBF00BFCD02000000E100E041030000C103000098
:400B40001548F8B50024154B4FF48076144F154D21463246047014481C702C703C704FF4467501F0D6F800F0F9FF324621460F4801F0CFF800F0F2FF21462A460C4801F0D6
:400B8000C8F800F0EBFF2A4621460A4801F0C1F8BDE8F84000F0E2BFFCA3FF1F94A4FF1F98A4FF1FC4A4FF1FD4A2FF1F10A6FF1F24A7FF1F5CAAFF1F08B50A222A492B4823
:400BC00001F07DFF00F0CAFF4FF47A722849294801F075FF00F0C2FF96222749274801F06EFF00F0BBFF96222549264801F067FF00F0B4FF0A222449244801F060FF00F036
:400C0000ADFF0A222249234801F059FF00F0A6FF0A222149214801F052FF00F09FFF0A221F49204801F04BFF00F098FF64221E491E4801F044FF00F091FF64221C491D4844
:400C400001F03DFF00F08AFFC8221B491B4801F036FF00F083FFC82219491A4801F02FFFBDE8084000F07ABF41040000C0A2FF1F810200009882FF1FA1000000AC82FF1F35
:400C800011010000D4A3FF1F8101000010A7FF1FBD010000E8A5FF1F01020000FCA5FF1F3D0200009CA4FF1F8500000080A4FF1F810A00009CA5FF1F11090000B0A4FF1F31
:400CC000AD07000048A5FF1F38B53A4800F0E6F9044658B925E0374801F0F2FF0A2001F045FE344800F0DAF90446D0B100F036FF204601F03BF8411C89B2204600F08AFDAA
:400D00000A222D49204600F0CFFF0028E3D02B4800F0E0FB204600F0DDFB294800F0DAFBD9E7284800F0BAF90446D8B941E093F8272083F82650AA4209D0284683F82750B9
:400D400000F088FE204800F0C5FB00F007FF1D4801F0B6FF0A2001F009FE1A4800F09EF9044628B300F0FAFE0B221849204600F09BFF01250C221649164B0028D7D0204605
:400D800000F092FF134B78B993F8271083F826000029DCD083F8270000F05CFE0E4800F099FB00F0DBFED2E72046FFF795FBCEE738BD38BD74ADFF1F883600009436000051
:400DC000643700003CAAFF1F583600004C360000683600006C81FF1F7836000008B5FFF773FF00F0BBFE0A2001F0C0FDF7E700BF30B585B062B60024274D02F0D7F900F02E
:400E0000B9F800F05FF82046AC74EC7400F0FAF8FFF77EFEFFF7D0FEFFF792FE1F4800F059FB00F049F91E4800F054FB1D4B02214FF400520291019200934FF4C8721A4BF9
:400E40001A491B4801F056FD4FF4467219491A4801F0F0FE4FF446721849194801F0EAFE01231846AB74EB7400F0CCF82146032000F054FE00F072FEFFF704F900F06EFE05
:400E8000FFF7FEFD00F0A4FC00F01CFD02F0B8F9204605B030BD00BF6C81FF1FB036000004370000C082FF1FDD0D000068370000B0A5FF1F24A7FF1F3CAAFF1F5CAAFF1FA5
:400EC00074ADFF1F08B500F0A5FABDE8084000F0E1BB00BF01F07EBC01F090BC094A0346106858B1084903448B4201D813607047064B0C221A604FF0FF3070470449084689
:400F00001160EFE7D481FF1F98C1FF1F94BDFF1F98BDFF1F014B9868704700BF10E000E0024B586800F08060704700BF00ED00E010B50F4C23780133DBB2237001F046FDA9
:400F40004FF0800080F3118800BF00BF2378012B08D02378013BDBB223704FF0000080F3118810BD6368002BF3D001F012FCF0E70882FF1FF0B587B04FF0800080F311889C
:400F800000BF00BF184E194973780E200133DBB2737000F0E9FD16490F2000F0E5FD4CF24F31144B144AE024144D5960072082F82340C021002701AC9F60186082F8231082
:400FC0000FCD0FC42B6801A8236001F027FC7378013BDBB2737073781BB94FF0000080F3118807B0F0BD00BF0882FF1F95260000310F000010E000E000ED00E074370000C0
:40100000FEE700BF062805D8DFE800F0040D101316070A00002000F04DBD022000F04ABD042000F047BD062000F044BD052000F041BD032000F03EBD012000F03BBD00BFA4
:401040002DE9F041804608460F4600F08FFE90B10646444607E0284600F088FE2946421C204600F03BFE2046394600F087FE044685190028EFD14046BDE8F08170B50446D0
:401080000D46164600F06AFD32462946204601F04FFEB0FA80F0400970BD00BF00B583B002A9002341F8043D01F0E8FD00B1019803B05DF804FB00BF084B1B78082B09D048
:4010C000202B04D003B17047054800F003BA054800F000BA044800F0FDB900BFC080FF1F8C3700000C380000CC370000F8B572B641F25121744B754E754A764861251D70D0
:40110000754C67231825754F33801570062603804FF040220820724B3D70267010701B78704E7148DBB284F8A13352276F4B4FF4E26437700480A2F820121C78782004F079
:4011400001041E4600F070FD01E0032C0CD03378782003F0010343EA440400F065FD013D04F00304F1D1FEE7614E624A354662484FF4807717800023604907271770037097
:4011800048200870DFF8BCE15D48022713708EF8003007701C4691F89A33C12743F0030381F89A3380F8FF7792F8E43643F0040382F8E43604EB4403AA8856F813000134E0
:4011C000002100F0A6FD072C05F10605F2D180224C494D4800F077FD4C4E4D4F002556F8043F13F0FF0E23F0FF0413D005F110530EF1FF3E03F12D005FFA8EFE70442C3371
:4012000040005B001A785978023383421155F9D101357544BE42E2D13E493F4A0B783F4D43F002030B701378A1F5863143F0020313702A78413942F040022A700A78384E4D
:4012400042F01002374B0A70374C03CB3060716093E8070003C4354F22800C3303CB1E363860796093E8070003C60C333280983C93E8070003C40C33228003CB2834C6F819
:401280002A00C6F82E1093E8070003C4284922800B78284843F008030124274A0B700470137801F5AA51DBB2244A03F007000C311B09234C08704427137095E80F0086F845
:4012C0004E7707C42380F8BD0048004080400040824000408440004000430040864000400F0100490042004022420040254200404C380000044000400640004008400040B3
:4013000001400040B805004800140140FCFFFF47540000480350014013500140A04300400251004038060048C0510040125100402243004004000840CF0100496F5800407C
:40134000B04300400940004008B500F081FC03680C2B00D0FEE7FEE780B5134FF7B1134E002556F80C0C56F8084C56F8102C03463CB1043A52F8041F43F8041B191AA142A3
:40138000F8D156F8040C1A4620B142F8045BD11A8842FAD1013F06F11006E2D100F05EFCFFF726FDFEE700BF01000000183A00000E4B0F4A0F491A600B680F4A43F4007368
:4013C0000E480B600023032B94BF50F823100C490133302B42F8041FF5D10A4B0A4918780A4A0B4B08701A60FFF780BE0CED00E00004FA0514ED00E0FC7FFF1F00000000A8
:4014000049130000BC760040C080FF1F0080FF1F08ED00E0F8B5234D2C780CBB2249204600F0AEFB2046072100F0B8FB1F4B20492022722008701A701E4901206C7000F0ED
:401440009FFB0721012000F0A9FB1B4E1B481C4A06274724022101233770047011702B7000F0EAFB0546174C17492378174A43F0200323700B78012043F010030B70106010
:4014800014F8FD3C124843F01003022104F8FD3C0160116000F01AFB2846BDE8F84000F0CFBB00BFDC81FF1F85150000876500408465004025160000276500403765004047
:4014C00087640040946500409765004000E100E080E200E02DE9F04F254D2B78002B3DD080460078002839D040F2FF37DFF88890DFF888C0DFF888B04FF0000E4FF0020A1B
:4015000069892A890C4692B2561E8B1A761ADB1BB6FA86F6B3FA83F376095B098A4288BF3346002BEDD18A421AD0B1F5806F28BF002409F804009CF800303ABF013189B2A5
:4015400001219B07698148BFCBF800A00EF1010E1FFA8EFE18F80E000028D1D1BDE8F08F9CF800305A07E0D4024B1870EEE700BFDC81FF1F4764004094B1FF1F676400407E
:4015800000E200E02DE9F0431E481F491F4F204A204E214CDFF888C0204D4FF0010E0378DBB213F01E0905D091F8008049EA080881F800809B0601D4BDE8F08397F80080DC
:4015C00013885FFA88F89BB206F8038023784FF000080BB18CF800E0138801339BB2138013889BB2B3F5806F28BFA2F80080B2F800802B881FFA88F89BB29845CFD184F8BC
:4016000000E0CCE767650040DD81FF1F44650040E081FF1F94ADFF1FE281FF1FDE81FF1FE381FF1F164A1748138801889BB2994224D0F0B514490B7803F0040303F0FF06D2
:40164000DBB91746114D124C02E00B785B0714D413889BB2B3F5806F28BF3E8013889BB2EB5CDBB223701388B0F800E001339BB2138013889BB29E45E7D1F0BD704700BFBE
:40168000E481FF1FE681FF1F6764004094B1FF1F47640040F8B5234C25780DBB2249022000F06EFA0721022000F078FA1F4B20492022722008701A701E490320657000F0BF
:4016C0005FFA0721032000F069FA1B4E1B481C4A0627472502210123377005701170237000F0AAFA0546174C17492378174A43F0200323700B78042043F010030B70106052
:4017000094F80431124843F01003082184F804310160116000F0EAF92846BDE8F84000F08FBA00BFEA81FF1F051900008564004082640040A519000026640040366400402E
:4017400086650040926400409564004000E100E080E200E010B4184B184A0421196051889388907989B210B99BB2994213D04B1C9BB2B3F5806F124828BF0023405C53807B
:4017800093790E4CC0B20BB10023A3710D4B04221A6010BC70470C4B1B78DBB203F0200202F0FF00002AF1D0084A13F01E0F107818BF0020EAE700BF80E100E0EA81FF1F20
:4017C00094B5FF1F00E100E0656400404564004010B500F031FA0B4B0B4C1A7842F001021A701A7802F0FE021A7000F029FA074B00220421064821605A809A809A71DA711E
:40180000016010BD9564004080E100E0EA81FF1F00E100E02DE9F04F254C2378002B3ED000293CD040F2FF3601F1FF3C1FFA8CFCDFF88490DFF88480DFF884B08444471EB4
:401840004FF0080A17F8015F61892289084692B202F1FF3E8B1AC1EB0E0E9B1BBEFA8EFEB3FA83F34FEA5E1E5B098A4288BF7346002BEAD18A4214D0B1F5806F28BF0020B0
:4018800009F8005098F800303ABF013189B201219B07618148BFCBF800A0BC45D2D1BDE8F08F98F800305A07E6D4024B1D70F4E7EA81FF1F4665004094B9FF1F666500405F
:4018C00000E200E010B500F0B7F90A4B0A4C1A7842F001021A701A7802F0FE021A7000F0AFF9064A064808230021236051811181036010BD9665004080E100E0EA81FF1F19
:4019000000E100E02DE9F0431E481F491F4F204A204E214CDFF888C0204D4FF0010E0378DBB213F01E0905D091F8008049EA080881F800809B0601D4BDE8F08397F8008059
:4019400013885FFA88F89BB206F8038023784FF000080BB18CF800E0138801339BB2138013889BB2B3F5806F28BFA2F80080B2F800802B881FFA88F89BB29845CFD184F838
:4019800000E0CCE765640040EB81FF1F45640040EE81FF1F94B5FF1FF081FF1FEC81FF1FF181FF1F164A1748138801889BB2994224D0F0B514490B7803F0040303F0FF0604
:4019C000DBB91746114D124C02E00B785B0714D413889BB2B3F5806F28BF3E8013889BB2EB5CDBB223701388B0F800E001339BB2138013889BB29E45E7D1F0BD704700BF3B
:401A0000F281FF1FF481FF1F6665004094B9FF1F46650040024B1878C0F34200704700BF21510040024B1878C0F34200704700BF82450040024B1878C0F30210704700BFC0
:401A400061510040024B1878C0F30210704700BF86450040044A8001137800F0400003F0BF0318431070704720510040044A00F00100137803F0FE0318431070704700BFC0
:401A80005051004070B4074B074E1D6807494FF48063C024064A3360A8660C7070BC1360704700BF08ED00E080E100E00AE400E000E100E0044A0001137800F0700003F047
:401AC0008F03184310707047005100400549064A0B7843F002030B70137843F002031370704700BFA2430040B24300400549064A0B7843F001030B70137843F0010313702F
:401B0000704700BFA2430040B2430040024A137843F0010313707047F64600400E4B00F003001A78490102F0FC02104318701A7801F0600142F080021A701A7802F07F02F7
:401B40001A701A7802F09F02114319701A7842F010021A70704700BF83430040014B01221A70704784430040044B00F00F021B6853F8220043F82210704700BF08ED00E04E
:401B8000054B00F01F001A6800F1100352F8230042F82310704700BF08ED00E000F01F0000F16040490100F56440C9B20170704770B4064B064E1D6806491023E024064AD1
:401BC000336028650C7070BC1360704708ED00E080E100E004E400E000E100E070B4064B064E1D6806494023C024064A3360A8650C7070BC1360704708ED00E080E100E098
:401C000006E400E000E100E0024B1878C0F30010704700BF21510040014B1878C009704721510040000000000230800803D000BF01380046FCD17047EFF3108072B67047A3
:401C400080F31088704700BF0A22002100F036B9014B1868704700BF4481FF1F0E4B70B51E460E4C0025E41AA410A54204D056F8253098470135F8E701F0B4FE084B094CE2
:401C80001E46E41AA4100025A54204D056F8253098470135F8E770BDF0390000F0390000F0390000F839000010B501390244904207D010F8013B11F8014FA342F7D0181B54
:401CC00010BD002010BD10B5431E0A44914204D011F8014B03F8014FF8E710BD884210B501EB020301D8421E0BE09842FBD28118D21AD34204D013F8014D01F8014DF8E78B
:401D000010BD994204D011F8014B02F8014FF8E710BD03460244934202D003F8011BFAE7704700000EB400B54FF402719CB0ADF814106FF00041049107914FF6FF711DAB6B
:401D400002900690084853F8042BADF81610006802A9019300F0C0F9029B00221A701CB05DF804EB03B070474481FF1F034613F8012B002AFBD1181A01387047F0B50378F8
:401D800063B90B78002B18BF0020F0BD15F8012F62B114F8017F30469742F7D00346461C007810B14D1E5C1EF0E7F0BD1846F0BD2DE9F0470F4680463F48D0F800903D46A1
:401DC00015F8014B09EB0400407800F0080000F0FF0608B12F46F2E72D2C03D1BD1C7C78012603E02B2C04BF7C78BD1C13B1102B0AD15BE0302C57D1287800F0DF00582873
:401E00004DD16C7810230235002E14BF4FF0004C6FF0004CBCFBF3FA0027384603FB1ACC09EB040E9EF801E01EF0040F01D0303C0BE01EF0030E1BD0BEF1010F0CBF4FF039
:401E4000370E4FF0570ECEEB0404A34210DDB7F1FF3F0AD0504506D801D1644503DC03FB0040012701E04FF0FF3715F8014BD7E77B1C0CD1002E4FF0220314BF4FF000402E
:401E80006FF00040C8F800302AB9BDE8F08706B1404272B107B1691E1160BDE8F0873024002BB1D10823AFE70A23ADE7302CA3D0AAE7BDE8F08700BF4881FF1F13460A461E
:401EC000014602480068FFF773BF00BF4481FF1F38B50546002944D051F8043C0C1F002BB8BFE418FEF7F6FF1E4A1368114613B96360146030E0A3420DD92268A01883424F
:401F000001BF18685B681218226063600C6023E0A24203D813465A68002AF9D118681918A1420BD12168014458188242196013D110685268014419605A600DE002D90C2382
:401F40002B6009E021686018824201BF106852680918216062605C602846BDE83840FEF7BBBF38BDFC81FF1F70B5CD1C25F0030508350C2D38BF0C25002D064601DBA94283
:401F800002D90C23336046E0FEF7A4FF234B1C681A462146A1B10B685B1B0ED40B2B03D90B60CC18CD501EE08C420BBF63684B681360636018BF0C4615E00C464968E9E737
:401FC000174C23681BB9304600F016FB20602946304600F011FB431C18D0C41C24F00304A0420DD125603046FEF776FF04F10B00231D20F00700C31A0ED05A42E25070BDD3
:40200000211A304600F0F8FA0130EBD10C2333603046FEF761FF002070BD00BFFC81FF1FF881FF1F2DE9F0478E6882469E420C46914698463ED88A8912F4906F3AD025689E
:40204000096902236F1A656905EB450595FBF3F57B1C43449D4238BF1D4653050FD52946FFF782FF064698B13A462169FFF72BFEA38923F4906343F08003A38113E02A4616
:4020800000F0D8FA064670B921695046FFF720FF0C23CAF80030A3894FF0FF3043F04003A381BDE8F08726613E44266046466561ED1BA560464528BF4646494632462068C8
:4020C000FFF70CFEA36800209B1BA36023681E442660BDE8F08700002DE9F04F9DB003938B8980461C060D4616460DD50B695BB94021FFF739FF2860286118B90C23C8F8C0
:402100000030CDE040236B610023099320238DF82930DFF89CB130238DF82A3037463C4614F8013B1BB9B7EB060910D003E0252BF9D02746F3E74B46324629464046FFF77A
:4021400071FF013000F0A780099B4B4409933B78002B00F0A08000234FF0FF3204930793059206938DF853301A930126052221784E4800F051FA671C049B38B14B4A3C4667
:40218000801A06FA00F018430490EFE7D90644BF20228DF853201A0744BF2B228DF8532022782A2A03D0079A00210A200BE0039A111D12680391002A10DA524243F00200FD
:4021C000079204900BE027463B780134303B092B03D800FB02320121F5E701B107923B782E2B1ED17B782A2B0AD1039B02371A1D1B680392002BB8BF4FF0FF33059310E0A1
:40220000002319460593781C0A2407463A780130303A092A03D804FB01210123F5E703B1059103223978224800F0F6F940B14023CBEB000003FA00F0049B013718430490D3
:40224000397806221B487E1C8DF8281000F0E4F988B1194B33B9039B073323F007030833039314E003AB00932A46144B04A94046AFF3008007E003AB00932A460F4B04A9B7
:40228000404600F093F8B0F1FF3F824603D0099B5344099342E7AB895B0601D4099801E04FF0FF301DB0BDE8F08F00BF793900007F3900008339000000000000252000002E
:4022C0002DE9F04791461F460A698B6806469342B8BF1346C9F8003091F843200C46DDF8208012B10133C9F800302368990642BFD9F800300233C9F80030256815F0060583
:4023000010D104F1190A07E00123524639463046C04701301AD00135E368D9F800209B1A9D42F1DB94F843302268003318BF012392060FD5E118302081F843005A1C94F8DE
:4023400045102244023382F8431003E04FF0FF30BDE8F08704F1430239463046C0470130F4D02268D9F80050E36802F00602042A08BF5D1B2269A3680CBF25EAE5750025BC
:402380009342C4BF9B1AED184FF000091A344D4509D00123224639463046C0470130D5D009F10109F3E70020BDE8F0872DE9F04317460A7E85B06E2A984606460C460C9B74
:4023C00001F1430E00F0AE8011D8632A22D009D8002A00F0BB80582A40F0CA8081F84520834955E0642A1ED0692A1CD0C0E0732A00F0B08009D86F2A2ED0702A40F0B88031
:402400000A6842F020020A603EE0752A24D0782A3AD0ADE01A6801F14205111D1960136884F84230A8E021681A6811F0800F02D0111D196008E011F0400F02F10401196072
:4024400002D0B2F9003000E01368002B3CDA2D225B4284F8432037E021681A6811F0800F02D0111D196007E011F0400F02F10401196001D0138800E01368227E5C496F2AD0
:4024800014BF0A2208221BE078225A4984F845202268186812F0800F00F104051D6003D1550601D5038800E00368D00744BF42F0200222601BB9226822F0200222601022F7
:4024C000002084F8430001E049490A226568002DA56008DB206820F0040020602BB9002D7DD175460CE0002B79D07546B3FBF2F002FB1033CB5C05F8013D03460028F5D1C2
:40250000082A0BD12368DA0708D5236962689A42DEBF302305F8013C05F1FF35C5EB0E0323612EE008681A6810F0800F496903D0101D1860136808E010F0400F02F1040017
:402540001860136801D0198000E0196000232361754616E01A68111D1960156800216268284600F059F808B1401B6060636804E004F1420584F8422001232361002384F829
:402580004330CDF800803B4603AA21463046FFF797FE013002D14FF0FF3026E023692A4639463046C0470130F5D023689B0710D5002504F1190907E001234A463946304689
:4025C000C0470130E7D00135E368039A9B1A9D42F2DBE068039B9842B8BF184605E00B7804F1420584F842308AE705B0BDE8F0838A3900009B39000038B5064C00230546C4
:4026000008462360FEF76AFC431C02D1236803B12B6038BD94BDFF1F10B5C9B202449042034605D01C7801308C42F8D1184610BD002010BDF8B5074615460E4621B911464A
:40264000BDE8F840FFF790BC1AB9FFF741FC2846F8BD00F015F885420ED929463846FFF783FC044650B131462A46FFF72CFB31463846FFF72DFC01E03046F8BD2046F8BD7B
:4026800051F8040C0028BEBF091851F8043CC0180438704743488168002904BF08B007E0EFF30982A2F128024A60036882E8F84F3D498847816899B14A6892E8F84F03605A
:4026C00002F1280282F3098890693849884202DB374A904203DB4FF0000181F311887047344835490968401A80F308884FF08071C161324981617FF0060E704701BC30487B
:402700008047204602BC88475DF804EB2D4908472448C068002807D0EFF314816A46734680E8FE0F28488047284823490968401A20F0070080F308884FF0000119484170A4
:4027400081F3118862B622494FF080520A60BFF34F8FBFF36F8FFEE71248C06890E8FE0F81F31488BFF36F8F95469E46704703680CB44FF00001417081F3118814494FF027
:4027800080520A60BFF34F8FBFF36F8F0CBC036070470F494FF080520A60BFF34F8FBFF36F8F70470882FF1F512F00006F2700009027000078C5FF1F883700000110000051
:4027C000252F0000412F0000F52E000098C5FF1F04ED00E0074A1368591C11604BB9064BEFF3118119604FF0800080F3118800BF00BF70470482FF1F0082FF1F054A1368A4
:40280000013B13602BB9044B196881F3118800BF00BF70470482FF1F0082FF1F70B5204E054634460FCD0FC42B682360B0FBF1F3044673614FF47A713346E0B94FF47A7276
:40284000B2FBF1F2B4FBF1F12046D96115499A61C0B9144AB2FBF1F2B4FBF1F11A62124A596210462146A1B9B0FBF2F0B4FBF2F29862DA6270BDB1FBF0F200FB1212014625
:402880001046DAE7B1FBF0F200FB121201461046DEE7B2FBF1F501FB15250A462946E2E76882FF1F40420F0000CA9A3B014BD86A704700BF0882FF1F10B50D4B044693F8CB
:4028C0005A202AB9FFF7F2FF001B0028FADB10BD4FF0800080F3118800BF00BF04229B6883F83420DC60BDE8104000F04FBA00BF0882FF1F2DE9F0470446DDE908581746C3
:402900008946382200211E46DDF828A0FFF701FAC4E90477134B05EB080093F85E3020F0070084F834306FF0020384F836A0C4F8249040F8343C0C4B002140F8183C4FF0BC
:40294000807340F80C6CA0F15802023640F8086C40F8581C40F8143C62602046BDE8F04700F090BA0882FF1FFD26000010B5041E06DDFFF79BFF2044BDE81040FFF79CBFA4
:4029800010BD000038B5104C2378013BDBB22370237803F0FF05ABB963689BB14FF0800080F3118800BF00BF63682BB1012320462370FFF7DCFE257063781BB94FF000009D
:4029C00080F3118838BD00BF0882FF1F154B10B59A6B32B1012283F85B205A715C6CECB910BDD3E904100131DA6A40F10000C3E90410196B0132DA62521A002AA4BF0122FE
:402A00005A7193F85C20002AE8D0013AD2B283F85C20002AE2D101221A71DFE7636898472468DCE70882FF1F114B8268D96A30B51144012202741A6A81605AB902600D4AAD
:402A400018629A621A6A91681A6B8A1A002AB8BF196330BD03F1200594680C1B002C03DD15461268002AF7D102602860EAE700BF0882FF1F792A000038B504460025236A73
:402A80000BB9A36218E09968E26A8A1A002A12DC1A68636222621D749D604FF0000080F31188636A5B6898474FF0800080F3118800BF00BFE3E721630023636238BD38B5D8
:402AC0000D46144600211422FFF723F9C0E90244456038BD007C704710B50346104C00B9636A4FF0800080F3118800BF00BF1A7C32B1226A0B491AB19A420DD11A680A6001
:402B0000DA6818469A60FFF78FFF63781BB94FF0000080F3118810BD11461268EBE700BF0882FF1F2882FF1F01464FF0800080F3118800BF00BF0B7C0E4A83B100230B7499
:402B4000D06A8B681B1A10468B6050F8203F1BB18B420BD11B680360136A03B9936253781BB94FF0000080F31188704718461B68EDE700BF0882FF1F0331C26821F0030152
:402B800010B504310AB342694468A3580432002BB8BF5B42033323F00303134402699A420CD28068C01A88420DD28A4215D304284FF0000200D9E250134604E0D21A8A4240
:402BC00038BF4FF0FF33184610BD836802618B424FF0FF3328BF0023F5E74FF0FF33F2E7F8B504461D466361C36846680133C3605342735183691746013383610C4B06EB36
:402C0000050C5B781BB94FF0000080F311883A460CF10400FFF757F84FF0800080F3118800BF00BF7751A369013BA361F8BD00BF0882FF1F38B515460C4611F003021CBFD7
:402C4000043D033403461CBFAD1824F003044FF0800080F3118800BF00BF202218460021FFF757F8044BC0E901455B781BB94FF0000080F3118838BD0882FF1F10B50246AF
:402C80004FF0800080F3118800BF00BFD3685BB154681369E018E358002BA3BF0430086001210023A8BF1177044A52781AB94FF0000080F31188184610BD00BF0882FF1FF4
:402CC00038B504464FF0800080F3118800BF00BF22696568E068AB580138033323F00301131DA2680B44D21A042AE06023610ED80023236100232377236873B100F05AF889
:402D0000204600F0A5F8BDE83840FFF73BBE0028F0D0EB58002BEBD0ECE7044B5B781BB94FF0000080F3118838BD00BF0882FF1F70B505460E46144600F03CF84FF0800012
:402D400080F3118800BF00BF21462846FFF714FF031E0EDB224631462846FFF741FF2C6844B1284600F074F80024FFF70BFE204670BD0124044B5B78002BF6D14FF00000DD
:402D800080F31188F1E700BF0882FF1F38B5084C25782046EDB26B1CDBB22370FFF7E7FC257063781BB94FF0000080F3118838BD0882FF1F024A13780133DBB21370704767
:402DC0000882FF1F8268D2E9003203B15A601360002383607047000038B58368014623B11A4BDB6AC360FFF7EDFF91F8343003F0030381F834309BB9144CE2699AB9E161BD
:402E00002278012302F0FF055AB910482370FFF7AEFC257063781BB94FF0000080F3118838BD6371F6E7086913699842E7D89142E6D09842F4D10B461B68002BEAD01D691E
:402E4000A842E7D19A42F7D1D9E700BF0882FF1F10B504464FF0800080F3118800BF00BF236823B12368D868FFF7B6FFF2E7044B5B781BB94FF0000080F3118810BD00BF12
:402E80000882FF1F10B50446FFF794FF026949B9174951F8183F33B11869904203D919461B68F8E70B68236021620C6043B11C621B69934214BF002394F8363084F8353018
:402EC00094F834307BB94FF0800080F3118800BF00BF2046FFF780FF054B5B781BB94FF0000080F31188BDE81040FFF74BBD00BF0882FF1F70B500F091F9094E0446F36853
:402F00005D6800F08FF9F368421B196B2244914205D32946BDE87040D86AFEF7D4BE70BD0882FF1F054B596D19B19A6891620021D1621B6D03B11847704700BF0882FF1FC3
:402F4000FEE7026A0368136003B11A62704700002DE9F04101230025934C657023704FF0800080F3118800BF00BF626B62B163780133DBB2637090476378C4E90D55013BCF
:402F8000DBB284F85B5063704FF0000080F31188A36853B19A6A42B1586803F128052B681B6898476D68002DF9D194F85D30002B3CD0A36894F85C2083F835202379002B9D
:402FC00034D04FF0800080F3118800BF00BF0022A36822714FF0000080F3118813B31A6802B31869116988421CD1116811B10D69A8425AD04FF0800080F3118800BF00BFBC
:40300000E169186A8B42196808BFE1610160086211681A62196001B10B62136092F8363082F835304FF0000080F31188E369BBB14FF0800080F3118800BF00BFE569ADB1DB
:4030400095F8346096B1720736D5EB68E26A9A1A002A2CDC2846FFF7BFFE95F834305BBB4FF0800080F3118800BF00BF00266FF00047DFF83481637903F0FF02002B5FD0EC
:403080006671E36A3B442363A36A0BB1404698474FF0000080F31188A56915BB4FF0800080F3118800BF00BFE5E70A469DE7226B9A1A002AB8BF236306F0FB06102E09D130
:4030C000AB689B685B6893F834201AB91A692B699A42C5D12B68E3614FF0000080F31188A6E74FF0800080F3118800BF00BFE3691BB12A691B699A42BDD395F834305B07D6
:403100000AD5E26AEB689B1A002B0BDDEA68236BD31A002B00DA22634FF0000080F311882D68BAE72846FFF757FE4FF0800080F3118800BF00BF95F83430002BE6D19AE71B
:403140006260E16931B391F8343063B18B689B685D682846FFF7F5FE0B692B6101236370FFF790FEE561E3699A6AA36042B1586803F128052B685B6898476D68002DF9D163
:40318000A36893F8353084F85C3084F85D300648BDE8F081A4F85C10A16021704FF0000080F31188F3E700BF0882FF1F38B50F4B1B681B78532BFDD10D4B9B79002BFDD16B
:4031C0000C4B1A684CF691139A42FDD16FF000430124094D2B63094BC3E90644C3E90A44C3E9084400F026F82C7038BDC8390000AC390000C43900000882FF1F6882FF1F4D
:403200004FF0800080F3118800BF00BF0122024B83F85A20FFF77CBA0882FF1F0048704798C1FF1F014B0248C01A704798C1FF1F98C5FF1F82B001AAEFF31081116072B694
:4032400004490B6843F47F030B60116881F3108802B0704720ED00E000000000010000000100000000010000000100000000000101010000726561645F6661696C757265A5
:403280005F706F727431203D20256C752C20726561645F6661696C7572655F706F727432203D20256C752C20726561645F6661696C7572655F746F74616C203D20256C75F9
:4032C0000D0A000054696D65725F526561645F575F506F7274315F43616C6C6261636B0D0A00000054696D65725F526561645F575F506F7274325F43616C6C6261636B0D2C
:403300000A00000054696D65725F4166746572526561645F496E707574315F43616C6C6261636B203E3E206661696C656420746F2070757420746F205F51756575655F53D3
:40334000656E64203E3E200054696D65725F4166746572526561645F506F7274315F43616C6C6261636B203E3E206661696C656420746F2070757420746F205F517565752C
:40338000655F53656E64203E3E20000054696D65725F4166746572526561645F496E707574325F43616C6C6261636B203E3E206661696C656420746F2070757420746F2068
:4033C0005F51756575655F53656E64203E3E200054696D65725F4166746572526561645F506F7274325F43616C6C6261636B203E3E206661696C656420746F207075742097
:40340000746F205F51756575655F53656E64203E3E20000054696D65725F5247425F4C45445F43616C6C6261636B202D2D3E205247425F436F6C6F72203D2025640D0A0077
:4034400048414C5F554152545F527843706C7443616C6C6261636B203E3E206661696C656420746F2070757420746F205F51756575655F4D61696E203E3E20006C696E7597
:40348000785F756172745F6661696C757265203D20256C750D0A000054696D65725F526561645F4C696E75785F43616C6C6261636B0D0A00506F72742032204F70656E0021
:4034C000506F72742032204F70656E0D0A000000506F7274203220436C6F736500000000506F7274203220436C6F73650D0A0000506F72742031204C6F636B00506F727497
:403500002031204C6F636B0D0A000000506F7274203120556E4C6F636B000000506F7274203120556E4C6F636B0D0A00506F72742032204C6F636B00506F72742032204C9C
:403540006F636B0D0A000000506F7274203220556E4C6F636B000000506F7274203220556E4C6F636B0D0A00506F727420312057626974733A000000506F72742031205754
:4035800062697473203D2025640D0A00506F727420322057626974733A000000506F72742032205762697473203D2025640D0A004379205247423A005247425F436F6C6FED
:4035C00072203D2025640D0A00000000437920526573657400000000437920436F6E6E6563740000437920436F6E6E6563746564000000002D2D2D2D2D2D2D2D2D2D20570F
:40360000726F6E67204D73673A2000007B22696E7073223A2225303258227D00496E707574735F4A6F62203E3E206661696C656420746F2070757420746F205F5175657524
:40364000655F53656E64203E3E200000506F72742031204F70656E00506F72742031204F70656E0D0A000000506F7274203120436C6F736500000000506F72742031204374
:403680006C6F73650D0A00007B464F545F5245517D3A000050726F635F5461736B5F6D61696E202D3E2073656E643A20000000002A2A2A2A2A2A2A2A2A2A2A2A2A2A2A2A05
:4036C0002A2A2A2A2A2A2A2A2A2A2A2A2A2A2A2A2A20537461727420437920494F202A2A2A2A2A2A2A2A2A2A2A2A2A2A2A2A2A2A2A2A2A2A2A2A2A2A2A2A2A2A2A2A2A0DA7
:403700000A0000002A2A2A2A2A2A2A2A2A2A2A2A2A2A2A2A2A2A2A2A2A2A2A2A2A2A2A2A2A2A2A2A2A204272642056312E30204170702056322E302028616E642D696E70A2
:403740007329202A2A2A2A2A2A2A2A2A2A2A2A2A2A2A2A2A2A2A2A2A2A2A2A2A2A2A2A2A2A2A2A2A0D0A00005461736B5F4D61696E00000080F0FA02E8030000000000003E
:40378000150F0000210F00000000000063796D6F6E69746F72696E675F6765745F6C6173745774643A206C6173742072657365742063617573653A204861726477617265A8
:4037C0002052657365740D0A0000000063796D6F6E69746F72696E675F6765745F6C6173745774643A206C6173742072657365742063617573653A205761746368646F677F
:403800002052657365740D0A0000000063796D6F6E69746F72696E675F6765745F6C6173745774643A206C6173742072657365742063617573653A20536F66747761726524
:403840002052657365740D0A00000000405100401000F0510040100000000140001080140140800700400140000A004C014000020050014020004300002020202020202001
:40388000202028282828282020202020202020202020202020202020208810101010101010101010101010101004040404040404040404101010101010104141414141412A
:4038C0000101010101010101010101010101010101010101101010101010424242424242020202020202020202020202020202020202020210101010200000000000000040
:403900000000000000000000000000000000000000000000000000000000000000000000000000000000000000000000000000000000000000000000000000000000000087
:40394000000000000000000000000000000000000000000000000000000000000000000000000000000000000000000000000000000000000000000000232D302B20006814
:403980006C4C00656667454647003031323334353637383941424344454600303132333435363738396162636465660008181C20242C00040C1014181C24FFFFFFFFFFFF15
:4039C000FF34353691C90000CC39000053454747455220656D624F53205635313630317500000000F8B500BFF8BC08BC9E4670474D000000B1130000F8B500BFF8BC08BCBB
:403A00009E46704729000000183A0000C880FF1F88000000483C0000000000001A1A1A1AFF0000007B22696E7073223A224646227D00000000000000000000000000000097
:403A40000000000000000000000000000000000000000000763800000000000000000000000000000000000000000000000000000000000000000000000000000000000098
:403A80000000000000000000000000000000000000000000E480FF1F78380000000000000000000000000000000000000000000000000000000000000000000000000000D4
:403AC00000000000000000000000000000000000000000000000000000000000000000000000000000000000000000000000000000000000000000000000000000000000C6
:403B000018D7FF1F113B0000B97E0000B97E000080B500AF04F0DAF910B5054C237833B9044B13B10448AFF300800123237010BD6081FF1F0000000080BF0000084B10B51B
:403B40001BB108490848AFF300800848036803B910BD074B002BFBD0BDE81040184700BF000000006481FF1F80BF0000C880FF1F0000000080B584B000AF0346FB7100237F
:403B8000BB7300237B7300233B730023FB73FB79FB7307F10C0307F10D0207F10E01F87B00F00EF83B7B184600F046F8BB7B7A7B1146184600F064F800BF1037BD4680BD50
:403BC00080B485B000AFB9607A603B600346FB73FB7B013B052B29D801A252F823F000BFF93B0000013C00002D3C0000093C0000113C00001F3C0000BB6801221A7016E039
:403C00007B6801221A7012E03B6801221A700EE0BB6801221A703B6801221A7007E07B6801221A703B6801221A7000E000BF00BF1437BD4680BC704780B582B000AF0346DF
:403C4000FB71FB79002B12D00B4806F09FFD0346002B0CD1094B49221A70084B31225A70064B00229A70044806F0B6FD00BF00BF0837BD4680BD00BFD8B1FF1F44AFFF1F82
:403C800080B582B000AF03460A46FB711346BB71484B1B78002B40F08880FB79002B03D1BB79002B00F08180434B1B78002B7CD1424806F06BFD0346002B76D1404B1B78BE
:403CC000002B3ED03F4806F087FDFB79002B0BD03D4B1B781A463D4B302199543A4B1B780133DAB2384B1A70BB79002B0BD0364B1B781A46354B31219954334B1B78013338
:403D0000DAB2314B1A70304B1B781A46304B1B7803339A4249DB2C4B1B781A462B4B00219954294B1B780133DAB2274B1A70214B01221A70234806F09DFD204806F04CFDD3
:403D400033E01F4B01221A701E4806F045FD1E4B00221A701D4B50221A701C4B31225A701A4B57229A70184B03221A70FB79002B0BD0154B1B781A46144B30219954124BBD
:403D80001B780133DAB2104B1A70BB79002B0CD00D4B1B781A460D4B312199540A4B1B780133DAB2084B1A7000BF00BF0837BD4680BD00BFCD81FF1FCA81FF1FB0B0FF1F1A
:403DC000CC81FF1F588DFF1FCE81FF1FA8AEFF1FCC80FF1F80B584B000AF0346FB710023BB7300237B7300233B730023FB73FB79FB7307F10C0307F10D0207F10E01F87B0F
:403E000000F00EF83B7B184600F046F8BB7B7A7B1146184600F064F800BF1037BD4680BD80B485B000AFB9607A603B600346FB73FB7B013B052B29D801A252F823F000BFD9
:403E4000593E0000613E00008D3E0000693E0000713E00007F3E0000BB6801221A7016E07B6801221A7012E03B6801221A700EE0BB6801221A703B6801221A7007E07B68BE
:403E800001221A703B6801221A7000E000BF00BF1437BD4680BC704780B582B000AF0346FB71FB79002B12D00B4806F06FFC0346002B0CD1094B49221A70084B32225A705B
:403EC000064B00229A70044806F086FC00BF00BF0837BD4680BD00BFC4B0FF1F40AFFF1F80B582B000AF03460A46FB711346BB71484B1B78002B40F08880FB79002B03D18A
:403F0000BB79002B00F08180434B1B78002B7CD1424806F03BFC0346002B76D1404B1B78002B3ED03F4806F057FCFB79002B0BD03D4B1B781A463D4B302199543A4B1B782C
:403F40000133DAB2384B1A70BB79002B0BD0364B1B781A46354B31219954334B1B780133DAB2314B1A70304B1B781A46304B1B7803339A4249DB2C4B1B781A462B4B00217D
:403F80009954294B1B780133DAB2274B1A70214B01221A70234806F06DFC204806F01CFC33E01F4B01221A701E4806F015FC1E4B00221A701D4B50221A701C4B32225A7063
:403FC0001A4B57229A70184B03221A70FB79002B0BD0154B1B781A46144B30219954124B1B780133DAB2104B1A70BB79002B0CD00D4B1B781A460D4B312199540A4B1B78C3
:404000000133DAB2084B1A7000BF00BF0837BD4680BD00BFD481FF1FD181FF1F48AFFF1FD381FF1F80AEFF1FD581FF1F70AFFF1FCE80FF1F80B582B000AF05F077F8034691
:4040400003F00103FB7105F081F8034603F00103BB7104F053FEFB79DB00DAB2BB791B01DBB21344DBB25BB263F018035BB27B717B7963F018037B7104F040FE124B1B783E
:404080007A799A421CD0104A7B7913707B791A460E490F4805F0F6F80E220D490D4803F059FB0346002B08D10B4804F085F8084804F082F8094804F07FF804F01FFE00BF12
:4040C00000BF0837BD4680BDDD80FF1F8CBF0000D080FF1FE8BEFF1F9CBF0000CCBF000080B5A0B000AF78600B22AF49786805F08BF80346002B18D1AC4B01221A70AB4B24
:404100001A78AB4B1B789A4200F02182A74B1A78A74B1A70A54B1B78184604F0D1FBA54804F04AF804F0EAFD11E20C22A249786805F06AF80346002B18D19C4B00221A7023
:404140009A4B1A789A4B1B789A4200F00082974B1A78974B1A70954B1B78184604F0B0FB964804F029F804F0C9FDF0E10B229449786805F049F80346002B18D1914B0122B8
:404180001A70904B1A78904B1B789A4200F0DF818C4B1A788C4B1A708A4B1B78184604F0ADFB8A4804F008F804F0A8FDCFE10C228749786805F028F80346002B18D1814B17
:4041C00000221A707F4B1A787F4B1B789A4200F0BE817C4B1A787C4B1A707A4B1B78184604F08CFB7B4803F0E7FF04F087FDAEE10B227949786805F007F80346002B13D1B6
:40420000764B01221A70754B1A78754B1B789A4200F09D81714B1A78714B1A70714803F0CBFF04F06BFD92E10D226F49786804F0EBFF0346002B13D1684B00221A70674B9A
:404240001A78674B1B789A4200F08181634B1A78634B1A70654803F0AFFF04F04FFD76E10B226349786804F0CFFF0346002B13D1604B01221A705F4B1A785F4B1B789A42BC
:4042800000F065815B4B1A785B4B1A705B4803F093FF04F033FD5AE10D225949786804F0B3FF0346002B13D1524B00221A70514B1A78514B1B789A4200F049814D4B1A7824
:4042C0004D4B1A704F4803F077FF04F017FD3EE10D224D49786804F097FF0346002B2DD10023FB674849786803F008FAF86704F005FDF86F04F058FF0346DAB2434B1A70F5
:4043000004F0FCFC414B1A78414B1B789A4200F01E813E4B1A783E4B1A703C4B1B781A4607F10C033B49184604F0ACFF07F10C03184603F041FF04F0E1FC08E10D223649B9
:40434000786804F061FF0346002B6DD10023BB673149786803F0D2F9B86704F0CFFCB86F04F022FF0346DAB22C4B1A7004F0C6FC2A4B1A782A4B1B789A4200F0E880274B9F
:404380001A78274B1A70254B1B781A4607F10C032449184604F076FF07F10C03184603F00BFF04F0ABFCD2E0D0BF0000C881FF1FC981FF1FDCBF0000ECBF0000FCBF0000C3
:4043C0000CC00000CF81FF1FD081FF1F18C0000028C0000038C0000048C00000CA81FF1FCB81FF1F54C0000064C0000074C0000084C00000D181FF1FD281FF1F90C00000A0
:40440000A0C00000B0C00000C0C00000CC80FF1FCD80FF1FD0C00000E4C00000CE80FF1FCF80FF1FF4C0000007224B49786804F0EBFE0346002B42D1484806F0CDF9002326
:404440007B674549786803F059F9786704F056FC0A220021786F05F057F803463B6704F04DFC3B6FDAB23E4B1A703D4B1A783D4B1B789A426BD03A4B1A783A4B1A70384BA4
:404480001B78062B05D9364B01221A70354B01221A70334B1B78184603F0F2F8304B1B781A4607F10C033049184604F0EBFE07F10C03184603F080FE04F020FC47E0082253
:4044C0002A49786804F0A0FE0346002B04D104F015FC04F0A9FB3AE00A222549786804F093FE0346002B06D10D21224804F0AAF804F004FC2BE00A221F49786804F084FE76
:404500000346002B13D11D4803F056FE144B05221A70144B05221A70114B1B78184603F0AFF8786803F06CF904F0E8FB0FE003F0EBFF04F0A9F8124803F03EFE786803F0A4
:404540003BFE104803F038FE04F0D8FB00BF00BF8037BD4680BD00BF08C10000448DFF1F528BFF1F538BFF1F10C1000024C1000030C100003CC100004CC1000058C100000D
:4045800078C10000CCBF000098B500AF4B4B93F87830002B02D1A52000F010FE474B93F877300133DAB2454B83F8772006F088FB4FF0800080F3118800BF00BF3F4B1B78AC
:4045C000DBB20133DAB23D4B1A703C4B5B78DBB20133DAB2394B5A70384BDB6B002B03D0364BDB6B1B689847354806F0F5F8354B1C6803F02DFF03461A46334B1A55314BE2
:404600001B6801332F4A13602C4B1B78DBB2012B0CD12A4B5B68002B08D0284BDB6B002B0CD0264BDB6B9B68984707E0234BDB6B002B03D0214BDB6B5B6898471F4B5B7879
:40464000DBB2013BDAB21D4B5A701C4B1B78DBB2012B16D1194B5B68002B12D0174B93F87730002B02D1982000F0A8FD134B93F87730013BDAB2114B83F8772005F03FFC10
:404680000FE00E4B93F87730002B02D1982000F095FD0A4B93F87730013BDAB2074B83F87720064B1B78DBB2013BDAB2034B1A704FF0000080F3118800BF98BDA88BFF1FD4
:4046C0006CADFF1FD881FF1F08B0FF1F98B500AF4F4B93F87830002B02D1A52000F06EFD4B4B93F877300133DAB2494B83F8772006F0E6FA4FF0800080F3118800BF00BF02
:40470000434B1B78DBB20133DAB2414B1A70404B5B78DBB20133DAB23D4B5A703C4BDB6B002B03D03A4BDB6B1B68984704F098F8384806F051F8384B1B881C4604F080F8C9
:404740000346DB43DBB203F00703DAB2334B1A55314B1B8801339AB22F4B1A802C4B1B78DBB2012B0CD12A4B5B68002B08D0284BDB6B002B0CD0264BDB6B9B68984707E001
:40478000234BDB6B002B03D0214BDB6B5B6898471F4B5B78DBB2013BDAB21D4B5A701C4B1B78DBB2012B16D1194B5B68002B12D0174B93F87730002B02D1982000F0FEFC2D
:4047C000134B93F87730013BDAB2114B83F8772005F095FB0FE00E4B93F87730002B02D1982000F0EBFC0A4B93F87730013BDAB2074B83F87720064B1B78DBB2013BDAB27B
:40480000034B1A704FF0000080F3118800BF98BDA88BFF1F5CAFFF1FDC81FF1F80ADFF1F98B500AF4F4B93F87830002B02D1A52000F0C4FC4B4B93F877300133DAB2494BA9
:4048400083F8772006F03CFA4FF0800080F3118800BF00BF434B1B78DBB20133DAB2414B1A70404B5B78DBB20133DAB23D4B5A703C4BDB6B002B03D03A4BDB6B1B68984738
:4048800004F00EF8384805F0A7FF384B1B881C4603F0F6FF0346DB43DBB203F00703DAB2334B1A55314B1B8801339AB22F4B1A802C4B1B78DBB2012B0CD12A4B5B68002B53
:4048C00008D0284BDB6B002B0CD0264BDB6B9B68984707E0234BDB6B002B03D0214BDB6B5B6898471F4B5B78DBB2013BDAB21D4B5A701C4B1B78DBB2012B16D1194B5B6815
:40490000002B12D0174B93F87730002B02D1982000F054FC134B93F87730013BDAB2114B83F8772005F0EBFA0FE00E4B93F87730002B02D1982000F041FC0A4B93F877305C
:40494000013BDAB2074B83F87720064B1B78DBB2013BDAB2034B1A704FF0000080F3118800BF98BDA88BFF1FF4AFFF1FDE81FF1FD8B0FF1F80B5A0B000AF244B1B68013B04
:40498000234AD35C002B13D1204B1B681A462049204802F0DFFE0346002B28D11E4803F00BFC1B4803F008FC1C4803F005FC1EE01B4B1B6801331A4A1360194B1A683B4686
:4049C0001849184604F05EFC174803F0F5FB174803F0F2FB3B46184603F0EEFB0C4803F0EBFB0E4803F0E8FB0F4803F0E5FB074B1B681A460021064804F03BFC034B0022AC
:404A00001A6000BF8037BD4680BD00BFD881FF1F08B0FF1FD0B5FF1F90C10000CCBF0000C481FF1FCCC10000E8C1000008C2000080B5C0B000AF164805F01CFF154B012213
:404A40001A70144B1A78144B1B789A4218D0114B1A78114B1A700F4B1B78184602F010FE0C4B1B781A463B460C49184604F00AFC04F044F93B46184603F09EFB04F03EF9A7
:404A8000034805F0A9FE00BF07F58077BD4680BD448DFF1F528BFF1F538BFF1F24C2000080B5C2B002AF1E4805F0E4FE1D4B1B6801331C4A13601B4B1A681B4B1B6813449C
:404AC0001A4A1360174B1A68174B1968174B1B68384600930B46164904F0D4FB154803F06BFB154803F068FB04F008F93B46184603F062FB0F4803F05FFB04F0FFF80F4B39
:404B000000221A700E4B00221A700E4B00221A700D4B00221A7000BF07F58077BD4680BD588DFF1F8881FF1F8C81FF1F9081FF1F50C20000E8C10000A0C20000CE81FF1FBB
:404B4000CC81FF1FA8AEFF1FCD81FF1F80B5C2B002AF1E4805F08EFE1D4B1B6801331C4A13601C4B1A681A4B1B6813441A4A1360184B1A68164B1968174B1B6838460093F7
:404B80000B46164904F07EFB154803F015FB154803F012FB04F0B2F83B46184603F00CFB0F4803F009FB04F0A9F80F4B00221A700E4B00221A700E4B00221A700D4B002237
:404BC0001A7000BF07F58077BD4680BD80AEFF1F8C81FF1F8881FF1F9081FF1F50C20000E8C10000C0C20000D581FF1FD381FF1F70AFFF1FD481FF1F80B500AF03220D493A
:404C00000D4802F0A7FD0346002B08D10B4803F0D3FA084803F0D0FA094803F0CDFA054B00221A70034B00225A70024B00229A7000BF80BD44AFFF1FE8BEFF1FE0C20000EF
:404C4000CCBF000080B500AF104B1B781A461049104802F07FFD0346002B08D10E4803F0ABFA0B4803F0A8FA0C4803F0A5FA074B00221A700A4B00221A70054B00221A7054
:404C8000084B00221A7000BF80BD00BFCE81FF1FA8AEFF1FE8BEFF1F24C30000CCBF0000CC81FF1FCD81FF1F80B500AF03220D490D4802F04FFD0346002B08D10B4803F0C7
:404CC0007BFA084803F078FA094803F075FA054B00221A70034B00225A70024B00229A7000BF80BD40AFFF1FE8BEFF1F68C30000CCBF000080B500AF104B1B781A4610491A
:404D0000104802F027FD0346002B08D10E4803F053FA0B4803F050FA0C4803F04DFA074B00221A700A4B00221A70054B00221A70084B00221A7000BF80BD00BFD581FF1FDB
:404D400070AFFF1FE8BEFF1FACC30000CCBF0000D381FF1FD481FF1F80B500AF044805F089FD03F0CBFF024805F036FD00BF80BD2CAFFF1F80B500AF044805F07BFDFFF7F1
:404D800059F9024805F028FD00BF80BD48B0FF1F80B582B000AF0023FB7108E0FB790A4AD35C1846FEF7E6FEFB790133FB71FB799AB2064B1B889A42F0D3044B00221A80FE
:404DC00000BF0837BD4680BD80ADFF1FDC81FF1F80B582B000AF0023FB7108E0FB790A4AD35C1846FEF7F6FFFB790133FB71FB799AB2064B1B889A42F0D3044B00221A8071
:404E000000BF0837BD4680BDD8B0FF1FDE81FF1F80B500AF064804F0EDF8064B04221A60054804F035F9054803F084FD00BF80BD8945000000E100E0CD46000021480000DE
:404E400080B500AF164B00221A70164B00221A70154B00221A70154B00221A704FF480720021134804F005FA03F048FF4FF480720021104804F0FDF903F040FF4FF4467279
:404E800000210D4804F0F5F903F038FF4FF4467200210A4804F0EDF903F030FF00BF80BDA8AEFF1F44AFFF1F70AFFF1F40AFFF1F80ADFF1FD8B0FF1FA8B2FF1FF4B5FF1F0B
:404EC00080B500AF0A222B492B4805F009FC03F015FF4FF47A722949294805F001FC03F00DFF96222749284805F0FAFB03F006FF96222649264805F0F3FB03F0FFFE0A22A9
:404F00002449254805F0ECFB03F0F8FE0A222349234805F0E5FB03F0F1FE0A222149224805F0DEFB03F0EAFE0A222049204805F0D7FB03F0E3FE64221E491F4805F0D0FBC3
:404F400003F0DCFE64221D491D4805F0C9FB03F0D5FEC8221B491C4805F0C2FB03F0CEFEC8221A491A4805F0BBFB03F0C7FE00BF80BD00BF754900006CADFF1F314A000034
:404F8000448DFF1FA14A0000588DFF1F4D4B000080AEFF1FF94B0000D8B1FF1F454C0000B0B0FF1FA94C0000C4B0FF1FF54C000048AFFF1F594D00002CAFFF1F754D0000F8
:404FC00048B0FF1F914D00005CAFFF1FD14D0000F4AFFF1F80B500AF00F006F803F08EFE0A2005F0D3F9F7E780B582B000AF00237B60284802F0C8FB786029E003F07EFE12
:40500000786804F07AF903469BB201339BB21946786803F017FB0A221F49786804F0F4F80346002B08D01D4803F0C6F8786803F0C3F81B4803F0C0F8164805F081FD0A2081
:4050400005F0A4F900237B60124802F09DFB78607B68002BD2D100233B60124802F094FB386010E003F04AFE3868FFF739F80D4805F066FD0A2005F089F900233B600948B3
:4050800002F082FB38603B68002BEBD100BF0837BD4680BDE8BEFF1FF0C30000FCC30000CCBF0000D0B5FF1F80B584B004AF62B606F0F6F800F0DAF900F076F82E4B0022E9
:4050C0001A702E4B00221A702B4B1B78184602F0D7FAFFF79DFEFFF7F3FEFFF7B1FE284803F06AF802F066FB264803F065F8022302934FF400530193234B0093234B4FF44E
:40510000C8722349234805F08DF84FF446722249224805F065FC4FF446722149214805F05FFC154B01221A70144B01221A70124B1B78184602F0A4FA0021032003F098FDDD
:4051400003F0DCFDFFF708FE03F0D8FDFFF712FE03F0DAF903F098FA06F0DCF902464CF691139A4202D0FD2000F028F806F010F900231846BD4680BD528BFF1F538BFF1FC3
:4051800018C400006CC400006C8DFF1FD54F0000D0C400005CB0FF1FA8B2FF1FD0B5FF1FF4B5FF1FE8BEFF1F80B500AF02F022FF03F0CAF803F0E2FF00BF80BD80B582B061
:4051C00000AF0346FB8005F0E9FD0B4B00225A704FF0000080F31188074AFB88A2F8743000BF054BB3F874309BB2002BF9D100BF0837BD4680BD00BFA88BFF1F80B582B06D
:4052000000AF786004F09CFE00BF0837BD4680BD80B582B000AF786004F0A6FE00BF0837BD4680BD80B485B000AF7860114B1B68002B02D10F4B104A1A600E4B1B68FB6025
:405240000C4B1A687B6813440C4A934205D90C4B0C221A604FF0FF3306E0064B1A687B681344044A1360FB6818461437BD4680BC704700BFE481FF1F18CFFF1F18D3FF1F9C
:4052800010CFFF1F80B483B000AF03463960FB7197F90730002B0ADB0D4997F907303A68D2B25201D2B20B4483F800230AE00949FB7903F00F03043B3A68D2B25201D2B2BE
:4052C0000B441A7600BF0C37BD4680BC704700BF00E100E000ED00E080B582B000AF78607B68013BB3F1807F01D301230FE00A4A7B68013B536007214FF0FF30FFF7C2FF80
:40530000054B00229A60044B07221A60002318460837BD4680BD00BF10E000E080B400AF024B9B681846BD4680BC704710E000E080B400AF034B5B6803F080631846BD46FE
:4053400080BC704700ED00E080B500AF444B1B6803F00103002B04D1424B1B680133414A1360414B93F87830002B02D1A520FFF725FF3D4B93F877300133DAB23A4B83F828
:405380007720394B1B78DBB20133DAB2364B1A7005F096FC344BDB6B002B03D0324BDB6B1B68984705F0C6F800F054FA2E4B1B78DBB2012B0CD12C4B5B68002B08D02A4B33
:4053C000DB6B002B0CD0284BDB6B9B68984707E0254BDB6B002B03D0234BDB6B5B6898474FF0800080F3118800BF00BF1E4B1B78DBB2012B16D11C4B5B68002B12D01A4B53
:4054000093F87730002B02D19820FFF7D7FE164B93F87730013BDAB2134B83F8772004F06EFD0FE0104B93F87730002B02D19820FFF7C4FE0C4B93F87730013BDAB20A4BFF
:4054400083F87720084B1B78DBB2013BDAB2064B1A704FF0000080F3118800BF80BD00BF001000E0A4B2FF1FA88BFF1FB0B586B000AF2C4B5B78DBB20F2B02D99920FFF764
:405480009DFE4FF0800080F3118800BF00BF254B5B78DBB20133DAB2224B5A7022490E2003F038FC21490F2003F034FC4CF25030FFF712FF06214FF0FF30FFF7E3FE1C4B2D
:4054C0003C1D1D460FCD0FC42B6823603B1D184604F086FD02F00CF8164800F05DFA164800F068FA154800F073FA0E4B5B78DBB20F2B02D99920FFF761FE0A4B5B78DBB268
:40550000013BDAB2074B5A70064B5B78DBB2002B03D14FF0000080F3118800BF1837BD46B0BD00BFA88BFF1F019E000049530000E0C4000011BB0000CDBB00007FB8000094
:4055400080B400AFFEE700BF80B582B000AF0346FB71FB79184600F0CBF900BF0837BD4680BD00BF80B400AF034B4FF47A721A6000BFBD4680BC70470482FF1F80B400AF40
:40558000034B00221A6000BFBD4680BC704700BF0482FF1F80B483B000AF1E4B1B687B607B6823F03F037B607B681B681A4A1360194B1B68173B00221A70174B1B68023BB5
:4055C00008221A70144B1B68033B12221A70124B1B68183B00221A700F4B1B68163B00221A700D4B1B68013B52221A700A4B1B68153B1A46094B1A60074B1B68203B1A4665
:40560000074B1A60074B00221A6000BF0C37BD4680BC704708ED00E0E881FF1FFC81FF1FF881FF1FEC81FF1F80B582B000AF00237B604FF0800080F3118800BF00BF0F4BE8
:405640001B68002B04D10D4B01221A6001237B600B4B5B78DBB20F2B02D99920FFF7AEFD074B5B78DBB2002B03D14FF0000080F311887B6818460837BD4680BD0882FF1F2A
:40568000A88BFF1F80B400AF034B00221A6000BFBD4680BC704700BF0882FF1F80B582B000AF1B4B1B68183B1B78DBB2002B2BD0184B1B68002B22D0174B1B68144A126858
:4056C000183A1278D2B2C2F1080213443B6000237B600BE00F4B1B683A681278104698473B6801333B607B6801337B60084B1B68183B1B78DBB21A467B689A42EADC044B93
:405700001B68183B00221A7000BF0837BD4680BDE881FF1FF4B1FF1FF881FF1F80B586B000AF0346FB7100237B61254B1B683B613B69FA791A703B6901333B617B6901333E
:405740007B61204B1B68002B17D07B69112B11DC1C4B1B689847F860FB68002B0CDBFB68DAB23B691A703B6901333B617B6901337B61EAE700BF00E000BF4FF0800080F3C4
:40578000118800BF00BFFFF7EDFE0F4B1B68163B7A69D2B21A700D4B5B78DBB20F2B02D99920FFF70BFD094B5B78DBB2002B03D14FF0000080F3118800BF1837BD4680BD02
:4057C000FC81FF1FECB1FF1FE881FF1FA88BFF1F80B500AF064B1B68002B06D000BF044B1B6898470346002BF9DA00BF80BD00BFECB1FF1F80B500AF124B1B68163B1B78ED
:40580000DBB2002B1CD1FFF7B9FE0F4B1B68002B08D00E4B1B781846FFF780FF0A4B00221A600DE00A4B1B68002B09D0FFF7FCFE0346002B04D0064B1B689847FFF722FFBB
:4058400000BF80BDE881FF1FEC81FF1FF081FF1FF0B1FF1F80B500AF05F07CFD0346002B3AD01E4B1B68002B04D1FFF793FE1B4B01221A601A4B1B68173B1B78DBB2002B01
:405880002AD0184B1B68002B0BD0164B1B68013B144A1360134B1B68002B02D1124B01221A60114B1B68002B12D00D4B1B68173B00221A700C4B00221A600C4B00221A608D
:4058C000FFF786FF064B1B68183B00221A7003E0FFF7E4FEFFF78EFF00BF80BDF481FF1FE881FF1F0482FF1F0082FF1FEC81FF1F80B582B000AF0346FB7105F02BFD034606
:40590000002B37D0204B1B68002B04D1FFF742FE1D4B01221A601D4B1B68173B1B78DBB2002B20D0194B1B68163B1B78DBB2002B12D1FFF779FE0346002B06D0FB791846A5
:40594000FFF7ECFEFFF79EFE1AE0114B01221A60104AFB79137013E00D4B01221A600D4AFB7913700CE005F019FA05F057FF04F0ADFD05E005F012FA05F050FF04F0A6FD9D
:4059800000BF0837BD4680BDF481FF1FE881FF1FEC81FF1FF081FF1F80B483B000AF7860034A7B68136000BF0C37BD4680BC7047F4B1FF1F80B483B000AF7860034A7B680B
:4059C000136000BF0C37BD4680BC7047F0B1FF1F80B483B000AF7860034A7B68136000BF0C37BD4680BC7047ECB1FF1F80B582B000AF244B3B60A8220021386803F039FC66
:405A00003B6803221A613B6803225A613B681E4A9A613B681D4ADA613B684FF480621A623B6800229A623B6800225A623B680022DA623B68144A1A663B68154A5A663B68E8
:405A400010229A663B6800221A673B680022DA663B6800225A6700237B600CE07B68C3F10F030C4AD15C3A687B6813440A461A707B6801337B607B680F2BEFD900BF083782
:405A8000BD4680BDF8B1FF1FF4C400000C82FF1F0C86FF1F00C5000080B58CB000AFF860B9607A603E4B3B623B6A1B78DBB2002B01D1FFF79BFFFA6813465B001344DB00DB
:405AC0006033374A1344FB61BB687B62FB691B69BB62FB69DB68BB610023FB62BA6ABB699A422BD9FB699A68BB6AD31A7B617A697B68934228BF13467B61FB695A68BB6A19
:405B000013443B617A693969786A03F08CFBFA6A7B691344FB627A6A7B6913447B627A687B69D31A7B60BA6A7B691344BB62FB699A68BB6A9A4201D10023BB62BA69BB6ACE
:405B4000D31A7B617A697B68934228BF13467B617B69002B19D0FB695A68BB6A13443B617A693969786A03F05EFBFA6A7B691344FB627A6A7B6913447B627A687B69D31A11
:405B80007B60BA6A7B691344BB62FB6A002B02D0FB69BA6A1A61FB6A18463037BD4680BDF8B1FF1F80B588B000AFF860B9607A603B603C4BBB61BB691B78DBB2002B01D112
:405BC000FFF714FFEFF311834FF0200181F311887B61344B3B610023FB613969FB695A1C13465B001344DB000B4404331B68002B08D0FB690133FB613B691A69FB699A427A
:405C0000EBDC00E000BF3B691A69FB699A423DDD3969FB695A1C13465B001344DB000B44FA681A603969FB695A1C13465B001344DB000B440433BA681A603969FA6913460E
:405C40005B001344DB000B4420337A681A603969FA6913465B001344DB000B44283300221A603969FA6913465B001344DB000B44243300221A603969FA6913465B0013442B
:405C8000DB000B442C333A681A6002E04FF0FF33FB617B6983F31188FB6918462037BD4680BD00BFF8B1FF1F80B58AB000AFF860B9607A603B60204B3B623B6A1B78DBB2ED
:405CC000002B01D1FFF792FE1B4BFB61FB68022B2AD8EFF311834FF0200181F31188BB61FA6813465B001344DB006033FA6913447B61FB68002B0ED07B69BA681A607B698D
:405D00007A685A607B693A689A607B6900221A617B690022DA607B693A6B5A61BB6983F3118800237B6202E04FF0FF337B627B6A18462837BD4680BDF8B1FF1F80B487B0CB
:405D400000AFF860B9607A6000233B61BB68002B0FD002E03B6901333B61BA683B6913441B78002BF6D13A697B689A4201D97B683B613B69FE2B06D8FB685A1CFA603A6909
:405D8000D2B21A7011E0FB685A1CFA60FF221A70FB685A1CFA603A69D2B21A70FB685A1CFA603A69120AD2B21A7000237B610AE0FB685A1CFA60BA68511CB96012781A704A
:405DC0007B6901337B617A693B699A42F0D3FB6818461C37BD4680BC704700BF80B483B000AF78607B68043318460C37BD4680BC704700BF80B582B000AF324B1B7E1846D8
:405E0000FB1C01221946FFF747FE03467B607B68002B52DDFB78052B22D0052B0BDC022B15D0022B02DC012B0ED034E0032B11D0042B12D02FE0072B18D0072B13DB7F2B33
:405E400036D0802B15D026E000F044FC35E000F0FBFC32E000F0D4FE2FE000F099FE2CE000F018FD29E001F0F7FA26E001F0D6FA23E0144B1B7E1846FB1C01221946FFF745
:405E80000BFE03467B607B68002B13DDFB78184601F044FA0EE0FB785BB2002B0CDA094B1B7E1846FB1C01221946FFF7F5FD03E000BF02E000BF00E000BF00BF0837BD4689
:405EC00080BD00BF288AFF1F80B58CB000AF01233B713B1D0133FB61FB69FB62314B5B69BB620BE0FB6A5A1CFA62BA6AD2B262F07F02D2B21A70BB6ADB09BB62BB6A7F2B40
:405F0000F0D8FB6A5A1CFA62BA6AD2B21A70FB6AFB61254B1B68BB61224BDB68BA69D31A7B61FB697B627B693B620BE07B6A5A1C7A623A6AD2B262F07F02D2B21A703B6A32
:405F4000DB093B623B6A7F2BF0D87B6A5A1C7A623A6AD2B21A707B6AFB61124B5B781846FA693B1DD31A1A463B1D194601F042FB03463B613B69002B09D00A4ABB69D360AC
:405F8000084B1B78013BDAB2064B1A7004E0054B5B690133034A53613B6918463037BD4680BD00BF288AFF1F041000E080B58AB000AFF860B9607A606B4B1B78012B10D041
:405FC000694B1B78002B00F0A180674B1B78022B08D1FFF779FF644B1B78012B40F0988000E000BF7B681F2B09D85F4BDA697B6822FA03F303F00103002B40F08B807B68E0
:40600000172B07D8FB68013BFB607B68DAB2FB681A703DE0BA68FB68D31AFB61FB697F2B12D9FB68013BFB60FB69DB09DAB2FB681A70FB68013BFB60FB69DBB263F07F038A
:40604000DAB2FB681A7006E0FB68013BFB60FB69DAB2FB681A707B687F2B12D9FB68013BFB607B68DB09DAB2FB681A70FB68013BFB607B68DBB263F07F03DAB2FB681A7080
:4060800006E0FB68013BFB607B68DAB2FB681A70364B1B68BB61344BDB68BA69D31A7B61BB687B627B693B620BE07B6A5A1C7A623A6AD2B262F07F02D2B21A703B6ADB09A1
:4060C0003B623B6A7F2BF0D87B6A5A1C7A623A6AD2B21A707B6ABB60234B5B781846BA68FB68D31A1A46F96801F084FA03463B613B69002B03D01C4ABB69D3600BE01A4B2E
:406100001B780133DAB2184B1A7004E000BF02E000BF00E000BF144B1B7E1946144A0B465B000B44DB0013446C331A680E4B1B7E18460F4903465B000344DB000B447033D9
:406140001B689A420BD0084B9B78002B07D1064B01229A70FFF74EFE034B00229A7000BF2837BD4680BD00BF288AFF1F041000E0F8B1FF1F80B586B002AFF860B9607A6033
:406180003B6000234FF4806217491848FFF70AFD0346DAB2164B5A70154B5A78144B1A76134B1B7E1846002300930823114A0F49FFF77AFD0E4B104A1A61104B1B680C4A66
:4061C000D3600B4A7B681362094AFB685360084ABB689360064A3B685362054B00221A7000BF1037BD4680BD2086FF1F20C50000288AFF1F208AFF1F0080FF1F041000E031
:4062000080B584B000AF7860EFF311834FF0200181F31188FB600848FFF7E0FDB8607A68B968B868FFF7C2FEFB6883F3118800BF1037BD4680BD00BF588AFF1F80B588B038
:4062400000AF78603960EFF311834FF0200181F311887B611648FFF7C1FD38613B69FB60FB68FB613B68BB610BE0FB695A1CFA61BA69D2B262F07F02D2B21A70BB69DB0967
:40628000BB61BB697F2BF0D8FB695A1CFA61BA69D2B21A70FB69FB607A68F9683869FFF785FE7B6983F3118800BF2037BD4680BD588AFF1F80B58CB000AFF860B9607A60F6
:4062C000EFF311834FF0200181F31188FB612548FFF784FDB861BB697B617B69FB62BB68BB620BE0FB6A5A1CFA62BA6AD2B262F07F02D2B21A70BB6ADB09BB62BB6A7F2B41
:40630000F0D8FB6A5A1CFA62BA6AD2B21A70FB6A7B617B697B627B683B620BE07B6A5A1C7A623A6AD2B262F07F02D2B21A703B6ADB093B623B6A7F2BF0D87B6A5A1C7A620B
:406340003A6AD2B21A707B6A7B61FA687969B869FFF72CFEFB6983F3118800BF3037BD4680BD00BF588AFF1F80B58EB000AFF860B9607A603B60EFF311834FF0200181F33B
:406380001188FB613248FFF729FDB861BB697B617B697B63BB683B630BE07B6B5A1C7A633A6BD2B262F07F02D2B21A703B6BDB093B633B6B7F2BF0D87B6B5A1C7A633A6B6A
:4063C000D2B21A707B6B7B617B69FB627B68BB620BE0FB6A5A1CFA62BA6AD2B262F07F02D2B21A70BB6ADB09BB62BB6A7F2BF0D8FB6A5A1CFA62BA6AD2B21A70FB6A7B617A
:406400007B697B623B683B620BE07B6A5A1C7A623A6AD2B262F07F02D2B21A703B6ADB093B623B6A7F2BF0D87B6A5A1C7A623A6AD2B21A707B6A7B61FA687969B869FFF7EE
:40644000B5FDFB6983F3118800BF3837BD4680BD588AFF1F80B590B000AFF860B9607A603B60EFF311834FF0200181F31188FB614048FFF7B3FCB861BB697B617B69FB63B8
:40648000BB68BB630BE0FB6B5A1CFA63BA6BD2B262F07F02D2B21A70BB6BDB09BB63BB6B7F2BF0D8FB6B5A1CFA63BA6BD2B21A70FB6B7B617B697B637B683B630BE07B6B6B
:4064C0005A1C7A633A6BD2B262F07F02D2B21A703B6BDB093B633B6B7F2BF0D87B6B5A1C7A633A6BD2B21A707B6B7B617B69FB623B68BB620BE0FB6A5A1CFA62BA6AD2B286
:4065000062F07F02D2B21A70BB6ADB09BB62BB6A7F2BF0D8FB6A5A1CFA62BA6AD2B21A70FB6A7B617B697B62BB6C3B620BE07B6A5A1C7A623A6AD2B262F07F02D2B21A7063
:406540003B6ADB093B623B6A7F2BF0D87B6A5A1C7A623A6AD2B21A707B6A7B61FA687969B869FFF723FDFB6983F3118800BF4037BD4680BD588AFF1F80B592B000AFF86052
:40658000B9607A603B60EFF311834FF0200181F31188FB614E48FFF721FCB861BB697B617B697B64BB683B640BE07B6C5A1C7A643A6CD2B262F07F02D2B21A703B6CDB090B
:4065C0003B643B6C7F2BF0D87B6C5A1C7A643A6CD2B21A707B6C7B617B69FB637B68BB630BE0FB6B5A1CFA63BA6BD2B262F07F02D2B21A70BB6BDB09BB63BB6B7F2BF0D880
:40660000FB6B5A1CFA63BA6BD2B21A70FB6B7B617B697B633B683B630BE07B6B5A1C7A633A6BD2B262F07F02D2B21A703B6BDB093B633B6B7F2BF0D87B6B5A1C7A633A6B5D
:40664000D2B21A707B6B7B617B69FB623B6DBB620BE0FB6A5A1CFA62BA6AD2B262F07F02D2B21A70BB6ADB09BB62BB6A7F2BF0D8FB6A5A1CFA62BA6AD2B21A70FB6A7B6132
:406680007B697B627B6D3B620BE07B6A5A1C7A623A6AD2B262F07F02D2B21A703B6ADB093B623B6A7F2BF0D87B6A5A1C7A623A6AD2B21A707B6A7B61FA687969B869FFF727
:4066C00075FCFB6983F3118800BF4837BD4680BD588AFF1F80B58CB000AF584B01221A70EFF311834FF0200181F31188FB60534B5B780A225249184600F07CFFFB6883F3B0
:4067000011880A20FFF77CFDEFF311834FF0200181F31188BB604B48FFF760FB78607B683B603B68FB62454B5B68BB620BE0FB6A5A1CFA62BA6AD2B262F07F02D2B21A70D4
:40674000BB6ADB09BB62BB6A7F2BF0D8FB6A5A1CFA62BA6AD2B21A70FB6A3B603B687B62364B9B683B620BE07B6A5A1C7A623A6AD2B262F07F02D2B21A703B6ADB093B6201
:406780003B6A7F2BF0D87B6A5A1C7A623A6AD2B21A707B6A3B603B68FB61284B1B69BB610BE0FB695A1CFA61BA69D2B262F07F02D2B21A70BB69DB09BB61BB697F2BF0D8E5
:4067C000FB695A1CFA61BA69D2B21A70FB693B603B687B6100233B610BE07B695A1C7A613A69D2B262F07F02D2B21A703B69DB093B613B697F2BF0D87B695A1C7A613A69BC
:40680000D2B21A707B693B60182239687868FFF7CDFBBB6883F31188084B5B6A002B02D0064B5B6A984700F0EBF900F0B1F900F013FE00BF3037BD4680BD00BF288AFF1FB2
:4068400014C50000588AFF1F80B582B000AFEFF311834FF0200181F311887B600B48FFF7BDFA38600A4B1B78002B07D00B2239683868FFF79BFB064B00221A707B6883F399
:40688000118800BF0837BD4680BD00BF588AFF1F288AFF1F80B58CB000AFEFF311834FF0200181F31188FB604548FFF797FAB860BB687B607B68FB62424B5B68BB620BE052
:4068C000FB6A5A1CFA62BA6AD2B262F07F02D2B21A70BB6ADB09BB62BB6A7F2BF0D8FB6A5A1CFA62BA6AD2B21A70FB6A7B607B687B62344B9B683B620BE07B6A5A1C7A6271
:406900003A6AD2B262F07F02D2B21A703B6ADB093B623B6A7F2BF0D87B6A5A1C7A623A6AD2B21A707B6A7B607B68FB61254B1B69BB610BE0FB695A1CFA61BA69D2B262F000
:406940007F02D2B21A70BB69DB09BB61BB697F2BF0D8FB695A1CFA61BA69D2B21A70FB697B607B687B6100233B610BE07B695A1C7A613A69D2B262F07F02D2B21A703B69DF
:40698000DB093B613B697F2BF0D87B695A1C7A613A69D2B21A707B697B6018227968B868FFF704FBFB6883F31188064B5B6A002B02D0044B5B6A984700BF3037BD4680BD8E
:4069C000588AFF1F288AFF1F80B592B000AF7860EFF311834FF0200181F311887B616A48FFF7FCF938613B69FB60FB687B647B681A68664B1B69D31A3B640BE07B6C5A1C25
:406A00007A643A6CD2B262F07F02D2B21A703B6CDB093B643B6C7F2BF0D87B6C5A1C7A643A6CD2B21A707B6CFB60FB68FB637B689B68BB630BE0FB6B5A1CFA63BA6BD2B267
:406A400062F07F02D2B21A70BB6BDB09BB63BB6B7F2BF0D8FB6B5A1CFA63BA6BD2B21A70FB6BFB607B685B6820221946F868FFF765F9F8600922F9683869FFF797FA3B699D
:406A8000FB60FB687B637B681A68404B1B69D31A3B630BE07B6B5A1C7A633A6BD2B262F07F02D2B21A703B6BDB093B633B6B7F2BF0D87B6B5A1C7A633A6BD2B21A707B6BFB
:406AC000FB60FB68FB627B68DB68BB620BE0FB6A5A1CFA62BA6AD2B262F07F02D2B21A70BB6ADB09BB62BB6A7F2BF0D8FB6A5A1CFA62BA6AD2B21A70FB6AFB60FB687B6267
:406B00007B681B693B620BE07B6A5A1C7A623A6AD2B262F07F02D2B21A703B6ADB093B623B6A7F2BF0D87B6A5A1C7A623A6AD2B21A707B6AFB60FB68FB610023BB610BE0D7
:406B4000FB695A1CFA61BA69D2B262F07F02D2B21A70BB69DB09BB61BB697F2BF0D8FB695A1CFA61BA69D2B21A70FB69FB601522F9683869FFF71AFA7B6983F3118800BF84
:406B80004837BD4680BD00BF588AFF1F288AFF1F80B500AF074B1B6A002B08D0054B1B6A5B68002B03D0034B1B6A5B68984700BF80BD00BF288AFF1F80B586B000AF786041
:406BC000EFF311834FF0200181F311887B610B48FFF704F93861802279683869FFF7AEF8F8600E22F9683869FFF7E0F97B6983F3118800BF1837BD4680BD00BF588AFF1FDE
:406C0000F0B583B000AF124B1B6A002B15D0104B1B6A1B68002B10D00D4B1B6A1B689847C7E900013968D7E90034250000262B461A460D20FFF73EFB05E0064B1B68194658
:406C40000C20FFF7FBFA00BF0C37BD46F0BD00BF288AFF1F041000E080B586B000AFEFF311834FF0200181F31188FB601948FFF7B5F8B860BB687B60174B1B68C3F30803B0
:406C80003B607B687B613B683B610BE07B695A1C7A613A69D2B262F07F02D2B21A703B69DB093B613B697F2BF0D87B695A1C7A613A69D2B21A707B697B6002227968B8680F
:406CC000FFF774F9FB6883F3118800BF1837BD4680BD00BF588AFF1F04ED00E080B582B000AFEFF311834FF0200181F311887B600748FFF773F83860032239683868FFF769
:406D000055F97B6883F3118800BF0837BD4680BD588AFF1F80B582B000AFEFF311834FF0200181F311887B600748FFF757F83860122239683868FFF739F97B6883F3118846
:406D400000BF0837BD4680BD588AFF1F80B588B000AF7860EFF311834FF0200181F311887B611848FFF73AF838613B69FB60FB68FB61154B1B697A68D31ABB610BE0FB6925
:406D80005A1CFA61BA69D2B262F07F02D2B21A70BB69DB09BB61BB697F2BF0D8FB695A1CFA61BA69D2B21A70FB69FB601322F9683869FFF7FBF87B6983F3118800BF203772
:406DC000BD4680BD588AFF1F288AFF1F80B582B000AFEFF311834FF0200181F311887B600748FEF7FBFF3860142239683868FFF7DDF87B6883F3118800BF0837BD4680BD67
:406E0000588AFF1F80B588B000AF7860EFF311834FF0200181F311887B611748FEF7DEFF38613B69FB60FB68FB617B68BB610BE0FB695A1CFA61BA69D2B262F07F02D2B2FA
:406E40001A70BB69DB09BB61BB697F2BF0D8FB695A1CFA61BA69D2B21A70FB69FB601C22F9683869FFF7A2F87B6983F3118800BF2037BD4680BD00BF588AFF1F80B58AB062
:406E800000AF78603960EFF311834FF0200181F311887B612448FEF7A1FF38613B69FB60FB687B627B683B620BE07B6A5A1C7A623A6AD2B262F07F02D2B21A703B6ADB09E6
:406EC0003B623B6A7F2BF0D87B6A5A1C7A623A6AD2B21A707B6AFB60FB68FB613B68BB610BE0FB695A1CFA61BA69D2B262F07F02D2B21A70BB69DB09BB61BB697F2BF0D8D5
:406F0000FB695A1CFA61BA69D2B21A70FB69FB601C22F9683869FFF749F87B6983F3118800BF2837BD4680BD588AFF1F80B582B000AFEFF311834FF0200181F311887B6090
:406F40000748FEF74BFF3860112239683868FFF72DF87B6883F3118800BF0837BD4680BD588AFF1F80B588B000AF7860EFF311834FF0200181F311887B611948FEF72EFFF6
:406F800038613B69FB60174B1B697A68D31A7B60FB68FB617B68BB610BE0FB695A1CFA61BA69D2B262F07F02D2B21A70BB69DB09BB61BB697F2BF0D8FB695A1CFA61BA6931
:406FC000D2B21A70FB69FB600822F9683869FEF7EDFF7B6983F3118800BF2037BD4680BD588AFF1F288AFF1F80B588B000AF7860EFF311834FF0200181F311887B6119488A
:40700000FEF7ECFE38613B69FB60174B1B697A68D31A7B60FB68FB617B68BB610BE0FB695A1CFA61BA69D2B262F07F02D2B21A70BB69DB09BB61BB697F2BF0D8FB695A1C4F
:40704000FA61BA69D2B21A70FB69FB601D22F9683869FEF7ABFF7B6983F3118800BF2037BD4680BD588AFF1F288AFF1F80B588B000AF7860EFF311834FF0200181F31188F5
:407080007B611948FEF7AAFE38613B69FB60174B1B697A68D31A7B60FB68FB617B68BB610BE0FB695A1CFA61BA69D2B262F07F02D2B21A70BB69DB09BB61BB697F2BF0D8AE
:4070C000FB695A1CFA61BA69D2B21A70FB69FB600422F9683869FEF769FF7B6983F3118800BF2037BD4680BD588AFF1F288AFF1F80B582B000AFEFF311834FF0200181F36D
:4071000011887B600748FEF769FE3860052239683868FEF74BFF7B6883F3118800BF0837BD4680BD588AFF1F80B588B000AF7860EFF311834FF0200181F311887B611948AD
:40714000FEF74CFE38613B69FB60174B1B697A68D31A7B60FB68FB617B68BB610BE0FB695A1CFA61BA69D2B262F07F02D2B21A70BB69DB09BB61BB697F2BF0D8FB695A1CAE
:40718000FA61BA69D2B21A70FB69FB600622F9683869FEF70BFF7B6983F3118800BF2037BD4680BD588AFF1F288AFF1F80B58AB000AF78603960EFF311834FF0200181F369
:4071C00011887B612748FEF709FE38613B69FB60254B1B697A68D31A7B60FB687B627B683B620BE07B6A5A1C7A623A6AD2B262F07F02D2B21A703B6ADB093B623B6A7F2B19
:40720000F0D87B6A5A1C7A623A6AD2B21A707B6AFB60FB68FB613B68BB610BE0FB695A1CFA61BA69D2B262F07F02D2B21A70BB69DB09BB61BB697F2BF0D8FB695A1CFA6148
