:4000000070ABFF1F11000000554200005542000080B500AF024A034B1B68136004F024F9BC760040FA46004010B5054C237833B9044B13B10448AFF300800123237010BD2F
:400040004081FF1F0000000098750000084B10B51BB108490848AFF300800848036803B910BD074B002BFBD0BDE81040184700BF000000004481FF1F98750000C880FF1FF8
:400080000000000080B5C6B002AF0246FB1D1A70002387F80F31002387F80E310023C7F80831FB1D1B78013B052B29D801A252F823F000BFCD000000D500000001010000A1
:4000C000DD000000E5000000F3000000012387F80F3116E0012387F80E3112E00123C7F808310EE0012387F80F310123C7F8083107E0012387F80E310123C7F8083100E0D0
:4001000000BFD7F80831002B3FD0884806F064F80346002B39D1864B49221A70844B31225A70834B00229A70824B1B680133814A1360804B1A68804B1B6813447F4A136082
:400140007C4B1A687C4B19687C4B1B6807F1080000930B467A4904F0C1FF7A4804F0FAF9794804F0F7F904F01FFE714804F0F2F9764804F0EFF907F10803184604F0EAF980
:4001800004F012FE694806F04DF8714B1B78002B40F0C78097F80F31002B04D197F80E31002B00F0BE806B4B1B78002B40F0B980694806F011F80346002B40F0B280674B53
:4001C0001B78002B77D0664806F02CF897F80F31002B0BD0634B1B781A46634B30219954604B1B780133DAB25E4B1A7097F80E31002B0BD05B4B1B781A465B4B312199544D
:40020000584B1B780133DAB2564B1A70554B1B781A46564B1B7803339A42C0F28280514B1B781A46504B002199544E4B1B780133DAB24C4B1A704E4B1B6801334C4A136072
:400240004B4B1A684B4B1B6813444B4A1360484B1A68484B1968484B1B6807F1080000930B46464904F03AFF364804F073F9444804F070F904F098FD3B4804F06BF904F0F0
:4002800093FD324804F066F907F10803184604F061F904F089FD324806F012F8314B00221A702E4B00221A70294B01221A702A4805F0B8FF35E0294B01221A70284805F017
:4002C000B1FF284B00221A70274B50221A70264B31225A70244B57229A70224B03221A7097F80F31002B0BD01E4B1B781A461E4B302199541B4B1B780133DAB2194B1A70A6
:4003000097F80E31002B0CD0164B1B781A46164B31219954134B1B780133DAB2114B1A7000BF00BF07F58877BD4680BD9C92FF1FD88DFF1F8C81FF1F9081FF1F9481FF1F48
:40034000A4750000F07500001476000030760000AD81FF1FAA81FF1F7492FF1FAC81FF1F008DFF1FAE81FF1F3C8DFF1FCC80FF1F5C81FF1F6081FF1F6481FF1F34760000DB
:400380008476000080B5C6B002AF0246FB1D1A70002387F80F31002387F80E310023C7F80831FB1D1B78013B052B29D801A252F823F000BFCD030000D5030000010400009B
:4003C000DD030000E5030000F3030000012387F80F3116E0012387F80E3112E00123C7F808310EE0012387F80F310123C7F8083107E0012387F80E310123C7F8083100E0C4
:4004000000BFD7F80831002B3FD0884805F0E4FE0346002B39D1864B49221A70844B32225A70834B00229A70824B1B680133814A1360814B1A687F4B1B6813447F4A1360F9
:400440007D4B1A687B4B19687C4B1B6807F1080000930B467A4904F041FE7A4804F07AF8794804F077F804F09FFC714804F072F8764804F06FF807F10803184604F06AF805
:4004800004F092FC694805F0CDFE714B1B78002B40F0C78097F80F31002B04D197F80E31002B00F0BE806B4B1B78002B40F0B980694805F091FE0346002B40F0B280674BC8
:4004C0001B78002B77D0664805F0ACFE97F80F31002B0BD0634B1B781A46634B30219954604B1B780133DAB25E4B1A7097F80E31002B0BD05B4B1B781A465B4B31219954C5
:40050000584B1B780133DAB2564B1A70554B1B781A46564B1B7803339A42C0F28280514B1B781A46504B002199544E4B1B780133DAB24C4B1A704E4B1B6801334C4A13606F
:400540004C4B1A684A4B1B6813444B4A1360494B1A68474B1968484B1B6807F1080000930B46464904F0BAFD364803F0F3FF444803F0F0FF04F018FC3B4803F0EBFF04F061
:4005800013FC324803F0E6FF04F00EFC07F10803184603F0DFFF324805F092FE314B00221A702E4B00221A70294B01221A702A4805F038FE35E0294B01221A70284805F005
:4005C00031FE284B00221A70274B50221A70264B32225A70244B57229A70224B03221A7097F80F31002B0BD01E4B1B781A461E4B302199541B4B1B780133DAB2194B1A7023
:4006000097F80E31002B0CD0164B1B781A46164B31219954134B1B780133DAB2114B1A7000BF00BF07F58877BD4680BD8892FF1FD48DFF1F9081FF1F8C81FF1F9481FF1F5D
:40064000A4750000F07500009476000030760000B481FF1FB181FF1FDC8DFF1FB381FF1F288DFF1FB581FF1FF08DFF1FCE80FF1F6081FF1F5C81FF1F6481FF1F34760000FB
:40068000B076000080B5C8B002AF3B1D18603B1D0B22B549186804F0E3FC0346002B54D1B24B1B78002B00F07B83B14B1B78002B00F07683AD4804F035FD03469BB2013346
:4006C0009BB21946A94804F04BF9AA4B1B680133A84A1360A74B1A68A74B1B681344A74A1360A44B1A68A44B1968A44B1B6807F1080000930B46A24904F0F0FCA14803F092
:4007000029FF9A4803F026FF04F04EFB9E4803F021FF07F10803184603F01CFF04F044FB9A4805F0CDFD9A4B00221A70994B00221A708E4B00221A708D4B00221A70964816
:4007400003F008FF04F030FB2AE33B1D0B229349186804F085FC0346002B54D1904B1B78002B00F01D838F4B1B78002B00F018838B4804F0D7FC03469BB201339BB2194608
:40078000874804F0EDF87C4B1B6801337A4A1360784B1A68784B1B681344784A1360754B1A68754B1968754B1B6807F1080000930B46734904F092FC7B4803F0CBFE78489E
:4007C00003F0C8FE04F0F0FA6F4803F0C3FE07F10803184603F0BEFE04F0E6FA734805F06FFD734B00221A70724B00221A706C4B00221A706B4B00221A70674803F0AAFE15
:4008000004F0D2FACCE23B1D0C226B49186804F027FC0346002B2DD1684B1B78002B00F0BF82664804F07EFC03469BB201339BB21946624804F094F8614805F041FD614824
:4008400003F088FE5D4803F085FE04F0ADFA4E4803F080FE5A4805F033FD584B00221A70564B00225A70554B00229A704A4803F071FE95E23B1D0C225349186804F0F0FBE7
:400880000346002B2CD1514B1B78002B00F088824E4804F047FC03469BB201339BB219464A4804F05DF84A4803F054FE474803F051FE04F079FA344803F04CFE454805F00B
:4008C000FFFC424B00221A70404B00225A703F4B00229A70304803F03DFE04F065FA5FE23B1D0B223C49186804F0BAFB0346002B18D13A4B01221A70384B1A78384B1B7870
:400900009A4200F04D82354B1A78354B1A70334B1B78184604F00CF9324803F01BFE04F043FA3DE23B1D0C222F49186804F098FB0346002B5CD1294B00221A70274B1A78F8
:40094000274B1B789A4200F02B82244B1A78244B1A70224B1B78184604F0EAF8234803F0F9FD04F021FA1BE2C07600003C8DFF1FAD81FF1F7481FF1F7881FF1F7C81FF1FBD
:40098000CC76000030770000307600007492FF1FAE81FF1FAC81FF1F5477000074770000F08DFF1FB481FF1F80770000DC8DFF1FB581FF1FB381FF1FA4770000D88DFF1F86
:4009C0009C92FF1FB4770000DC770000D48DFF1FEC7700008892FF1F14780000A881FF1FA981FF1F2078000030780000407800003B1D0B229549186804F032FB0346002B88
:400A000018D1934B01221A70914B1A78914B1B789A4200F0C5818E4B1A788E4B1A708C4B1B78184604F0A2F88B4803F093FD04F0BBF9B5E13B1D0C228849186804F010FBC5
:400A40000346002B18D1824B00221A70804B1A78804B1B789A4200F0A3817D4B1A787D4B1A707B4B1B78184604F080F87C4803F071FD04F099F993E13B1D0B227949186840
:400A800004F0EEFA0346002B13D1774B01221A70754B1A78754B1B789A4200F08181724B1A78724B1A70724803F054FD04F07CF976E13B1D0D226F49186804F0D1FA034605
:400AC000002B13D1684B00221A70674B1A78674B1B789A4200F06481634B1A78634B1A70654803F037FD04F05FF959E13B1D0B226249186804F0B4FA0346002B13D1604B27
:400B000001221A705E4B1A785E4B1B789A4200F047815B4B1A785B4B1A705B4803F01AFD04F042F93CE13B1D0D225849186804F097FA0346002B13D1514B00221A70504B34
:400B40001A78504B1B789A4200F02A814C4B1A784C4B1A704E4803F0FDFC04F025F91FE13B1D0D224B49186804F07AFA0346002B31D10023C7F814313B1D4649186803F066
:400B800023F9C7F8140104F00FF9D7F8140104F037FA0346DAB2404B1A7004F005F93E4B1A783E4B1B789A4200F0FA803A4B1A783A4B1A70384B1B781A4607F108033849C7
:400BC000184604F08BFA07F10803184603F0C2FC04F0EAF8E4E03B1D0D223249186804F03FFA0346002B65D10023C7F810313B1D2C49186803F0E8F8C7F8100104F0D4F846
:400C0000D7F8100104F0FCF90346DAB2264B1A7004F0CAF8244B1A78244B1B789A4200F0BF80214B1A78214B1A701F4B1B781A4607F108031E49184604F050FA07F10803FD
:400C4000184603F087FC04F0AFF8A9E050780000AF81FF1FB081FF1F5C7800006C7800007C7800008C780000AA81FF1FAB81FF1F98780000A8780000B8780000C878000034
:400C8000B181FF1FB281FF1FD4780000E4780000F478000004790000CC80FF1FCD80FF1F1479000028790000CE80FF1FCF80FF1F387900003B1D07223C49186804F0D0F932
:400CC0000346002B48D13A4805F0ACFA0023C7F80C313B1D3549186803F076F8C7F80C0104F062F80A220021D7F80C0104F0C2FA0346C7F8083104F057F8D7F80831DAB269
:400D00002C4B1A702B4B1A782B4B1B789A4247D0284B1A78284B1A70264B1B78062B05D9244B01221A70244B01221A70214B1B78184603F00BF81F4B1B781A4607F10803AE
:400D40001E49184604F0CAF907F10803184603F001FC04F029F823E03B1D08221849186804F07EF90346002B04D104F01DF803F0C5FF15E03B1D0A221249186804F070F906
:400D80000346002B06D10D210F4803F0E9FD04F00BF805E00D4803F0DDFB04F005F800BF00BF07F58C77BD4680BD00BF4C790000EC8CFF1FBC81FF1FBD81FF1F5479000042
:400DC0006879000074790000807900009079000080B582B000AF5D4B93F87830002B02D1A52000F051FD594B93F877300133DAB2564B83F8772005F0B1FA4FF0800080F316
:400E0000118800BF00BF514B1B78DBB20133DAB24E4B1A704D4B5B78DBB20133DAB24B4B5A704A4BDB6B002B03D0484BDB6B1B689847474805F0F6F903F0D8FC0346FB71E1
:400E4000FB79002B1CD1434B1B684349FA79CA54404B1B6801333F4A13603F48FFF712FC3B4805F02DFA3B4B1B681A4600213A4804F02BF903F098FF364B00221A6009E09C
:400E8000344B1B683449FA79CA54324B1B680133304A13602D4B1B78DBB2012B0CD12B4B5B68002B08D0294BDB6B002B0CD0274BDB6B9B68984707E0244BDB6B002B03D02F
:400EC000224BDB6B5B689847204B5B78DBB2013BDAB21E4B5A701D4B1B78DBB2012B16D11A4B5B68002B12D0184B93F87730002B02D1982000F0C8FC144B93F87730013B3B
:400F0000DAB2124B83F8772004F01FFE0FE00F4B93F87730002B02D1982000F0B5FC0B4B93F87730013BDAB2084B83F87720074B1B78DBB2013BDAB2044B1A704FF00000CC
:400F400080F3118800BF0837BD4680BD508BFF1F148DFF1FB881FF1F748EFF1F80B582B000AF72B6494B93F87830002B02D1A52000F08AFC454B93F877300133DAB2434BAA
:400F800083F8772005F0EAF94FF0800080F3118800BF00BF3D4B1B78DBB20133DAB23B4B1A703A4B5B78DBB20133DAB2374B5A70364BDB6B002B03D0344BDB6B1B689847A9
:400FC00003F096FD0346FB71FB791846FFF75AF82E4B1B78DBB2012B0CD12C4B5B68002B08D02A4BDB6B002B0CD0284BDB6B9B68984707E0254BDB6B002B03D0234BDB6B11
:401000005B689847214B5B78DBB2013BDAB21F4B5A701E4B1B78DBB2012B16D11B4B5B68002B12D0194B93F87730002B02D1982000F02AFC154B93F87730013BDAB2134B5A
:4010400083F8772004F081FD0FE0104B93F87730002B02D1982000F017FC0C4B93F87730013BDAB2094B83F87720084B1B78DBB2013BDAB2054B1A704FF0000080F31188A0
:4010800062B600BF0837BD4680BD00BF508BFF1F80B582B000AF72B6494B93F87830002B02D1A52000F0F0FB454B93F877300133DAB2434B83F8772005F050F94FF0800060
:4010C00080F3118800BF00BF3D4B1B78DBB20133DAB23B4B1A703A4B5B78DBB20133DAB2374B5A70364BDB6B002B03D0344BDB6B1B68984703F00CFD0346FB71FB7918468E
:40110000FFF740F92E4B1B78DBB2012B0CD12C4B5B68002B08D02A4BDB6B002B0CD0284BDB6B9B68984707E0254BDB6B002B03D0234BDB6B5B689847214B5B78DBB2013B4B
:40114000DAB21F4B5A701E4B1B78DBB2012B16D11B4B5B68002B12D0194B93F87730002B02D1982000F090FB154B93F87730013BDAB2134B83F8772004F0E7FC0FE0104B2B
:4011800093F87730002B02D1982000F07DFB0C4B93F87730013BDAB2094B83F87720084B1B78DBB2013BDAB2054B1A704FF0000080F3118862B600BF0837BD4680BD00BFB3
:4011C000508BFF1F80B5A0B000AF184805F078F8174B1B680133164A1360154B1A683B461449184603F07AFF134803F0B3F9134803F0B0F903F0D8FD3B46184603F0AAF959
:401200000D4803F0A7F903F0CFFD0D4B1B681A4600210C4803F059FF03F0C6FD084B00221A6000BF8037BD4680BD00BF148DFF1FA481FF1FA4790000C0790000E079000041
:40124000B881FF1F748EFF1F80B5C0B000AF164805F036F8154B01221A70144B1A78144B1B789A4218D0114B1A78114B1A700F4B1B78184602F06AFD0C4B1B781A463B462B
:401280000C49184603F02AFF03F08EFD3B46184603F060F903F088FD034804F0C3FF00BF07F58077BD4680BDEC8CFF1FBC81FF1FBD81FF1FFC79000080B5C2B002AF1E48CB
:4012C00004F0FEFF1D4B1B6801331C4A13601B4B1A681B4B1B6813441A4A1360174B1A68174B1968174B1B68384600930B46164903F0F4FE154803F02DF9154803F02AF9CB
:4013000003F052FD3B46184603F024F90F4803F021F903F049FD0F4B00221A700E4B00221A700E4B00221A700D4B00221A7000BF07F58077BD4680BD008DFF1F6881FF1F27
:401340006C81FF1F7081FF1F287A0000C0790000787A0000AE81FF1FAC81FF1F3C8DFF1FAD81FF1F80B5C2B002AF1E4804F0A8FF1D4B1B6801331C4A13601C4B1A681A4B1C
:401380001B6813441A4A1360184B1A68164B1968174B1B68384600930B46164903F09EFE154803F0D7F8154803F0D4F803F0FCFC3B46184603F0CEF80F4803F0CBF803F0C2
:4013C000F3FC0F4B00221A700E4B00221A700E4B00221A700D4B00221A7000BF07F58077BD4680BD288DFF1F6C81FF1F6881FF1F7081FF1F287A0000C0790000987A000017
:40140000B581FF1FB381FF1FF08DFF1FB481FF1F80B5C2B002AF1D4804F052FF1C4B1B6801331B4A13601A4B1A681A4B1B681344194A1360164B1A68164B1968164B1B687B
:40144000384600930B46154903F048FE144803F081F8144803F07EF803F0A6FC3B46184603F078F80E4803F075F803F09DFC0E4B00221A700C4B00225A700B4B00229A7003
:4014800000BF07F58077BD4680BD00BF9C92FF1F9881FF1F9C81FF1FA081FF1FB87A0000C07900002C7B0000D88DFF1F80B5C2B002AF1E4804F004FF1D4B1B6801331C4AAF
:4014C00013601B4B1A681B4B1B6813441A4A1360174B1A68174B1968174B1B68384600930B46164903F0FAFD154803F033F8154803F030F803F058FC3B46184603F02AF8F5
:401500000F4803F027F803F04FFC0F4B00221A700E4B00221A700E4B00221A700D4B00221A7000BF07F58077BD4680BD7492FF1F8081FF1F8481FF1F8881FF1F507B0000A6
:40154000C0790000B47B0000AE81FF1FAC81FF1F3C8DFF1FAD81FF1F80B5C2B002AF1D4804F0AEFE1C4B1B6801331B4A13601B4B1A68194B1B681344194A1360174B1A6805
:40158000154B1968164B1B68384600930B46154903F0A4FD144802F0DDFF144802F0DAFF03F002FC3B46184602F0D4FF0E4802F0D1FF03F0F9FB0E4B00221A700C4B0022AF
:4015C0005A700B4B00229A7000BF07F58077BD4680BD00BF8892FF1F9C81FF1F9881FF1FA081FF1FB87A0000C0790000D87B0000D48DFF1F80B5C2B002AF1E4804F060FEB8
:401600001D4B1B6801331C4A13601C4B1A681A4B1B6813441A4A1360184B1A68164B1968174B1B68384600930B46164903F056FD154802F08FFF154802F08CFF03F0B4FBA7
:401640003B46184602F086FF0F4802F083FF03F0ABFB0F4B00221A700E4B00221A700E4B00221A700D4B00221A7000BF07F58077BD4680BDDC8DFF1F8481FF1F8081FF1FE1
:401680008881FF1F507B0000C0790000FC7B0000B581FF1FB381FF1FF08DFF1FB481FF1F80B500AF044804F00BFE03F07DFB024804F0B8FD00BF80BDC08DFF1F80B500AF1E
:4016C000064803F0EFFB064B04221A60054803F037FC054803F066FA00BF80BDD10D000000E100E05D0F00009110000080B400AF074B00221A70074B00221A70064B0022C1
:401700001A70064B00221A7000BFBD4680BC70473C8DFF1FD88DFF1FF08DFF1FD48DFF1F80B500AF4B221949194804F0FFFC4FF47A721849184804F0F9FC4B2217491848E0
:4017400004F0F4FC4B221749174804F0EFFC4FF4FA721649164804F0E9FC4FF4FA721549154804F0E3FC4FF4FA721449144804F0DDFC4FF4FA721349134804F0D7FC642210
:401780001249134804F0D2FC00BF80BDC5110000148DFF1F49120000EC8CFF1FB9120000008DFF1F65130000288DFF1F111400009C92FF1FAD1400007492FF1F59150000AA
:4017C0008892FF1FF5150000DC8DFF1FA1160000C08DFF1F80B500AF62B60021032003F09DFA03F0E1FA05F067F800F0A5F900F043F81E4B00221A701D4B00221A701B4BCA
:401800001B78184602F0A2FAFFF758FF03F0CCFAFFF786FF03F0C8FAFFF768FF03F0C4FA144802F097FE03F0BFFA02F0F9FA03F0BBFA0E4B01221A700D4B01221A700B4B68
:401840001B78184602F082FAFFF72AFF05F06EF902464CF691139A4202D0FD2000F014F805F0A2F80023184680BD00BFBC81FF1FBD81FF1F207C000080B500AF02F088FDDF
:4018800002F030FF00BF80BD80B582B000AF0346FB8004F0AFFD0B4B00225A704FF0000080F31188074AFB88A2F8743000BF054BB3F874309BB2002BF9D100BF0837BD4651
:4018C00080BD00BF508BFF1F80B582B000AF786004F05CF900BF0837BD4680BD80B582B000AF786004F066F900BF0837BD4680BD80B485B000AF7860114B1B68002B02D132
:401900000F4B104A1A600E4B1B68FB600C4B1A687B6813440C4A934205D90C4B0C221A604FF0FF3306E0064B1A687B681344044A1360FB6818461437BD4680BC704700BF41
:40194000C481FF1F70A3FF1F70A7FF1F6CA3FF1F80B483B000AF03463960FB7197F90730002B0BDA0D49FB7903F00F03043B3A68D2B25201D2B20B441A7609E0084997F982
:4019800007303A68D2B25201D2B20B4483F8002300BF0C37BD4680BC704700BF00ED00E000E100E080B582B000AF78607B68013BB3F1807F01D301230FE00A4A7B68013BB7
:4019C000536007214FF0FF30FFF7C2FF054B00229A60044B07221A60002318460837BD4680BD00BF10E000E080B400AF024B9B681846BD4680BC704710E000E080B400AFC0
:401A0000034B5B6803F080631846BD4680BC704700ED00E080B500AF444B1B6803F00103002B04D1424B1B680133414A1360414B93F87830002B02D1A520FFF725FF3D4B4B
:401A400093F877300133DAB23A4B83F87720394B1B78DBB20133DAB2364B1A7004F07EFC344BDB6B002B03D0324BDB6B1B68984704F086FA00F054FA2E4B1B78DBB2012BA1
:401A80000CD12C4B5B68002B08D02A4BDB6B002B0CD0284BDB6B9B68984707E0254BDB6B002B03D0234BDB6B5B6898474FF0800080F3118800BF00BF1E4B1B78DBB2012BC0
:401AC00016D11C4B5B68002B12D01A4B93F87730002B02D19820FFF7D7FE164B93F87730013BDAB2134B83F8772004F02EF80FE0104B93F87730002B02D19820FFF7C4FEE1
:401B00000C4B93F87730013BDAB20A4B83F87720084B1B78DBB2013BDAB2064B1A704FF0000080F3118800BF80BD00BF001000E06893FF1F508BFF1FB0B586B000AF2C4B0E
:401B40005B78DBB20F2B02D99920FFF79DFE4FF0800080F3118800BF00BF254B5B78DBB20133DAB2224B5A7022490E2003F028F921490F2003F024F94CF25030FFF712FF7B
:401B800006214FF0FF30FFF7E3FE1C4B3C1D1D460FCD0FC42B6823603B1D184604F046F802F00CF8164800F05DFA164800F068FA154800F073FA0E4B5B78DBB20F2B02D916
:401BC0009920FFF761FE0A4B5B78DBB2013BDAB2074B5A70064B5B78DBB2002B03D14FF0000080F3118800BF1837BD46B0BD00BF508BFF1F4D5A0000151A0000787C000043
:401C000029710000E5710000976E000080B400AFFEE700BF80B582B000AF0346FB71FB79184600F0CBF900BF0837BD4680BD00BF80B400AF034B4FF47A721A6000BFBD463E
:401C400080BC7047E481FF1F80B400AF034B00221A6000BFBD4680BC704700BFE481FF1F80B483B000AF1E4B1B687B607B6823F03F037B607B681B681A4A1360194B1B6816
:401C8000173B00221A70174B1B68023B08221A70144B1B68033B12221A70124B1B68183B00221A700F4B1B68163B00221A700D4B1B68013B52221A700A4B1B68153B1A461C
:401CC000094B1A60074B1B68203B1A46074B1A60074B00221A6000BF0C37BD4680BC704708ED00E0C881FF1FDC81FF1FD881FF1FCC81FF1F80B582B000AF00237B604FF0E8
:401D0000800080F3118800BF00BF0F4B1B68002B04D10D4B01221A6001237B600B4B5B78DBB20F2B02D99920FFF7AEFD074B5B78DBB2002B03D14FF0000080F311887B68C4
:401D400018460837BD4680BDE881FF1F508BFF1F80B400AF034B00221A6000BFBD4680BC704700BFE881FF1F80B582B000AF1B4B1B68183B1B78DBB2002B2BD0184B1B68C0
:401D8000002B22D0174B1B68144A1268183A1278D2B2C2F1080213443B6000237B600BE00F4B1B683A681278104698473B6801333B607B6801337B60084B1B68183B1B78F3
:401DC000DBB21A467B689A42EADC044B1B68183B00221A7000BF0837BD4680BDC881FF1FB892FF1FD881FF1F80B586B000AF0346FB7100237B61254B1B683B613B69FA79A8
:401E00001A703B6901333B617B6901337B61204B1B68002B17D07B69112B11DC1C4B1B689847F860FB68002B0CDBFB68DAB23B691A703B6901333B617B6901337B61EAE7B7
:401E400000BF00E000BF4FF0800080F3118800BF00BFFFF7EDFE0F4B1B68163B7A69D2B21A700D4B5B78DBB20F2B02D99920FFF70BFD094B5B78DBB2002B03D14FF0000045
:401E800080F3118800BF1837BD4680BDDC81FF1FB092FF1FC881FF1F508BFF1F80B500AF064B1B68002B06D000BF044B1B6898470346002BF9DA00BF80BD00BFB092FF1F02
:401EC00080B500AF124B1B68163B1B78DBB2002B1CD1FFF7B9FE0F4B1B68002B08D00E4B1B781846FFF780FF0A4B00221A600DE00A4B1B68002B09D0FFF7FCFE0346002B2B
:401F000004D0064B1B689847FFF722FF00BF80BDC881FF1FCC81FF1FD081FF1FB492FF1F80B500AF04F022FD0346002B3AD01E4B1B68002B04D1FFF793FE1B4B01221A6077
:401F40001A4B1B68173B1B78DBB2002B2AD0184B1B68002B0BD0164B1B68013B144A1360134B1B68002B02D1124B01221A60114B1B68002B12D00D4B1B68173B00221A7067
:401F80000C4B00221A600C4B00221A60FFF786FF064B1B68183B00221A7003E0FFF7E4FEFFF78EFF00BF80BDD481FF1FC881FF1FE481FF1FE081FF1FCC81FF1F80B582B005
:401FC00000AF0346FB7104F0D1FC0346002B37D0204B1B68002B04D1FFF742FE1D4B01221A601D4B1B68173B1B78DBB2002B20D0194B1B68163B1B78DBB2002B12D1FFF744
:4020000079FE0346002B06D0FB791846FFF7ECFEFFF79EFE1AE0114B01221A60104AFB79137013E00D4B01221A600D4AFB7913700CE004F0DFF904F0FDFE03F06DFF05E036
:4020400004F0D8F904F0F6FE03F066FF00BF0837BD4680BDD481FF1FC881FF1FCC81FF1FD081FF1F80B483B000AF7860034A7B68136000BF0C37BD4680BC7047B892FF1F78
:4020800080B483B000AF7860034A7B68136000BF0C37BD4680BC7047B492FF1F80B483B000AF7860034A7B68136000BF0C37BD4680BC7047B092FF1F80B582B000AF244BC5
:4020C0003B60A8220021386802F0FFFF3B6803221A613B6803225A613B681E4A9A613B681D4ADA613B684FF480621A623B6800229A623B6800225A623B680022DA623B688F
:40210000144A1A663B68154A5A663B6810229A663B6800221A673B680022DA663B6800225A6700237B600CE07B68C3F10F030C4AD15C3A687B6813440A461A707B68013376
:402140007B607B680F2BEFD900BF0837BD4680BDBC92FF1F8C7C0000EC81FF1FEC85FF1F987C000080B58CB000AFF860B9607A603E4B3B623B6A1B78DBB2002B01D1FFF776
:402180009BFFFA6813465B001344DB006033374A1344FB61BB687B62FB691B69BB62FB69DB68BB610023FB62BA6ABB699A422BD9FB699A68BB6AD31A7B617A697B68934217
:4021C00028BF13467B61FB695A68BB6A13443B617A693969786A02F052FFFA6A7B691344FB627A6A7B6913447B627A687B69D31A7B60BA6A7B691344BB62FB699A68BB6A4E
:402200009A4201D10023BB62BA69BB6AD31A7B617A697B68934228BF13467B617B69002B19D0FB695A68BB6A13443B617A693969786A02F024FFFA6A7B691344FB627A6A56
:402240007B6913447B627A687B69D31A7B60BA6A7B691344BB62FB6A002B02D0FB69BA6A1A61FB6A18463037BD4680BDBC92FF1F80B588B000AFF860B9607A603B603C4B78
:40228000BB61BB691B78DBB2002B01D1FFF714FFEFF311834FF0200181F311887B61344B3B610023FB613969FB695A1C13465B001344DB000B4404331B68002B08D0FB698D
:4022C0000133FB613B691A69FB699A42EBDC00E000BF3B691A69FB699A423DDD3969FB695A1C13465B001344DB000B44FA681A603969FB695A1C13465B001344DB000B44C2
:402300000433BA681A603969FA6913465B001344DB000B4420337A681A603969FA6913465B001344DB000B44283300221A603969FA6913465B001344DB000B4424330022FD
:402340001A603969FA6913465B001344DB000B442C333A681A6002E04FF0FF33FB617B6983F31188FB6918462037BD4680BD00BFBC92FF1F80B58AB000AFF860B9607A609F
:402380003B60204B3B623B6A1B78DBB2002B01D1FFF792FE1B4BFB61FB68022B2AD8EFF311834FF0200181F31188BB61FA6813465B001344DB006033FA6913447B61FB680B
:4023C000002B0ED07B69BA681A607B697A685A607B693A689A607B6900221A617B690022DA607B693A6B5A61BB6983F3118800237B6202E04FF0FF337B627B6A184628374A
:40240000BD4680BDBC92FF1F80B487B000AFF860B9607A6000233B61BB68002B0FD002E03B6901333B61BA683B6913441B78002BF6D13A697B689A4201D97B683B613B6948
:40244000FE2B06D8FB685A1CFA603A69D2B21A7011E0FB685A1CFA60FF221A70FB685A1CFA603A69D2B21A70FB685A1CFA603A69120AD2B21A7000237B610AE0FB685A1CFC
:40248000FA60BA68511CB96012781A707B6901337B617A693B699A42F0D3FB6818461C37BD4680BC704700BF80B483B000AF78607B68043318460C37BD4680BC704700BFC5
:4024C00080B582B000AF324B1B7E1846FB1C01221946FFF747FE03467B607B68002B52DDFB78052B22D0052B0BDC022B15D0022B02DC012B0ED034E0032B11D0042B12D016
:402500002FE0072B18D0072B13DB7F2B36D0802B15D026E000F044FC35E000F0FBFC32E000F0D4FE2FE000F099FE2CE000F018FD29E001F0F7FA26E001F0D6FA23E0144B51
:402540001B7E1846FB1C01221946FFF70BFE03467B607B68002B13DDFB78184601F044FA0EE0FB785BB2002B0CDA094B1B7E1846FB1C01221946FFF7F5FD03E000BF02E0DB
:4025800000BF00E000BF00BF0837BD4680BD00BF088AFF1F80B58CB000AF01233B713B1D0133FB61FB69FB62314B5B69BB620BE0FB6A5A1CFA62BA6AD2B262F07F02D2B2F9
:4025C0001A70BB6ADB09BB62BB6A7F2BF0D8FB6A5A1CFA62BA6AD2B21A70FB6AFB61254B1B68BB61224BDB68BA69D31A7B61FB697B627B693B620BE07B6A5A1C7A623A6A37
:40260000D2B262F07F02D2B21A703B6ADB093B623B6A7F2BF0D87B6A5A1C7A623A6AD2B21A707B6AFB61124B5B781846FA693B1DD31A1A463B1D194601F042FB03463B616E
:402640003B69002B09D00A4ABB69D360084B1B78013BDAB2064B1A7004E0054B5B690133034A53613B6918463037BD4680BD00BF088AFF1F041000E080B58AB000AFF860CF
:40268000B9607A606B4B1B78012B10D0694B1B78002B00F0A180674B1B78022B08D1FFF779FF644B1B78012B40F0988000E000BF7B681F2B09D85F4BDA697B6822FA03F351
:4026C00003F00103002B40F08B807B68172B07D8FB68013BFB607B68DAB2FB681A703DE0BA68FB68D31AFB61FB697F2B12D9FB68013BFB60FB69DB09DAB2FB681A70FB6821
:40270000013BFB60FB69DBB263F07F03DAB2FB681A7006E0FB68013BFB60FB69DAB2FB681A707B687F2B12D9FB68013BFB607B68DB09DAB2FB681A70FB68013BFB607B6877
:40274000DBB263F07F03DAB2FB681A7006E0FB68013BFB607B68DAB2FB681A70364B1B68BB61344BDB68BA69D31A7B61BB687B627B693B620BE07B6A5A1C7A623A6AD2B2A9
:4027800062F07F02D2B21A703B6ADB093B623B6A7F2BF0D87B6A5A1C7A623A6AD2B21A707B6ABB60234B5B781846BA68FB68D31A1A46F96801F084FA03463B613B69002B1D
:4027C00003D01C4ABB69D3600BE01A4B1B780133DAB2184B1A7004E000BF02E000BF00E000BF144B1B7E1946144A0B465B000B44DB0013446C331A680E4B1B7E18460F492B
:4028000003465B000344DB000B4470331B689A420BD0084B9B78002B07D1064B01229A70FFF74EFE034B00229A7000BF2837BD4680BD00BF088AFF1F041000E0BC92FF1FD6
:4028400080B586B002AFF860B9607A603B6000234FF4806217491848FFF70AFD0346DAB2164B5A70154B5A78144B1A76134B1B7E1846002300930823114A0F49FFF77AFDDA
:402880000E4B104A1A61104B1B680C4AD3600B4A7B681362094AFB685360084ABB689360064A3B685362054B00221A7000BF1037BD4680BD0086FF1FB87C0000088AFF1F93
:4028C000008AFF1F0080FF1F041000E080B584B000AF7860EFF311834FF0200181F31188FB600848FFF7E0FDB8607A68B968B868FFF7C2FEFB6883F3118800BF1037BD46E1
:4029000080BD00BF388AFF1F80B588B000AF78603960EFF311834FF0200181F311887B611648FFF7C1FD38613B69FB60FB68FB613B68BB610BE0FB695A1CFA61BA69D2B280
:4029400062F07F02D2B21A70BB69DB09BB61BB697F2BF0D8FB695A1CFA61BA69D2B21A70FB69FB607A68F9683869FFF785FE7B6983F3118800BF2037BD4680BD388AFF1F11
:4029800080B58CB000AFF860B9607A60EFF311834FF0200181F31188FB612548FFF784FDB861BB697B617B69FB62BB68BB620BE0FB6A5A1CFA62BA6AD2B262F07F02D2B2CE
:4029C0001A70BB6ADB09BB62BB6A7F2BF0D8FB6A5A1CFA62BA6AD2B21A70FB6A7B617B697B627B683B620BE07B6A5A1C7A623A6AD2B262F07F02D2B21A703B6ADB093B6254
:402A00003B6A7F2BF0D87B6A5A1C7A623A6AD2B21A707B6A7B61FA687969B869FFF72CFEFB6983F3118800BF3037BD4680BD00BF388AFF1F80B58EB000AFF860B9607A606B
:402A40003B60EFF311834FF0200181F31188FB613248FFF729FDB861BB697B617B697B63BB683B630BE07B6B5A1C7A633A6BD2B262F07F02D2B21A703B6BDB093B633B6B4E
:402A80007F2BF0D87B6B5A1C7A633A6BD2B21A707B6B7B617B69FB627B68BB620BE0FB6A5A1CFA62BA6AD2B262F07F02D2B21A70BB6ADB09BB62BB6A7F2BF0D8FB6A5A1C72
:402AC000FA62BA6AD2B21A70FB6A7B617B697B623B683B620BE07B6A5A1C7A623A6AD2B262F07F02D2B21A703B6ADB093B623B6A7F2BF0D87B6A5A1C7A623A6AD2B21A70B5
:402B00007B6A7B61FA687969B869FFF7B5FDFB6983F3118800BF3837BD4680BD388AFF1F80B590B000AFF860B9607A603B60EFF311834FF0200181F31188FB614048FFF73F
:402B4000B3FCB861BB697B617B69FB63BB68BB630BE0FB6B5A1CFA63BA6BD2B262F07F02D2B21A70BB6BDB09BB63BB6B7F2BF0D8FB6B5A1CFA63BA6BD2B21A70FB6B7B61EE
:402B80007B697B637B683B630BE07B6B5A1C7A633A6BD2B262F07F02D2B21A703B6BDB093B633B6B7F2BF0D87B6B5A1C7A633A6BD2B21A707B6B7B617B69FB623B68BB62B5
:402BC0000BE0FB6A5A1CFA62BA6AD2B262F07F02D2B21A70BB6ADB09BB62BB6A7F2BF0D8FB6A5A1CFA62BA6AD2B21A70FB6A7B617B697B62BB6C3B620BE07B6A5A1C7A621C
:402C00003A6AD2B262F07F02D2B21A703B6ADB093B623B6A7F2BF0D87B6A5A1C7A623A6AD2B21A707B6A7B61FA687969B869FFF723FDFB6983F3118800BF4037BD4680BD40
:402C4000388AFF1F80B592B000AFF860B9607A603B60EFF311834FF0200181F31188FB614E48FFF721FCB861BB697B617B697B64BB683B640BE07B6C5A1C7A643A6CD2B292
:402C800062F07F02D2B21A703B6CDB093B643B6C7F2BF0D87B6C5A1C7A643A6CD2B21A707B6C7B617B69FB637B68BB630BE0FB6B5A1CFA63BA6BD2B262F07F02D2B21A704D
:402CC000BB6BDB09BB63BB6B7F2BF0D8FB6B5A1CFA63BA6BD2B21A70FB6B7B617B697B633B683B630BE07B6B5A1C7A633A6BD2B262F07F02D2B21A703B6BDB093B633B6B67
:402D00007F2BF0D87B6B5A1C7A633A6BD2B21A707B6B7B617B69FB623B6DBB620BE0FB6A5A1CFA62BA6AD2B262F07F02D2B21A70BB6ADB09BB62BB6A7F2BF0D8FB6A5A1C2A
:402D4000FA62BA6AD2B21A70FB6A7B617B697B627B6D3B620BE07B6A5A1C7A623A6AD2B262F07F02D2B21A703B6ADB093B623B6A7F2BF0D87B6A5A1C7A623A6AD2B21A70ED
:402D80007B6A7B61FA687969B869FFF775FCFB6983F3118800BF4837BD4680BD388AFF1F80B58CB000AF584B01221A70EFF311834FF0200181F31188FB60534B5B780A226A
:402DC0005249184600F07CFFFB6883F311880A20FFF77CFDEFF311834FF0200181F31188BB604B48FFF760FB78607B683B603B68FB62454B5B68BB620BE0FB6A5A1CFA629A
:402E0000BA6AD2B262F07F02D2B21A70BB6ADB09BB62BB6A7F2BF0D8FB6A5A1CFA62BA6AD2B21A70FB6A3B603B687B62364B9B683B620BE07B6A5A1C7A623A6AD2B262F0A6
:402E40007F02D2B21A703B6ADB093B623B6A7F2BF0D87B6A5A1C7A623A6AD2B21A707B6A3B603B68FB61284B1B69BB610BE0FB695A1CFA61BA69D2B262F07F02D2B21A7063
:402E8000BB69DB09BB61BB697F2BF0D8FB695A1CFA61BA69D2B21A70FB693B603B687B6100233B610BE07B695A1C7A613A69D2B262F07F02D2B21A703B69DB093B613B69C5
:402EC0007F2BF0D87B695A1C7A613A69D2B21A707B693B60182239687868FFF7CDFBBB6883F31188084B5B6A002B02D0064B5B6A984700F0EBF900F0B1F900F013FE00BF18
:402F00003037BD4680BD00BF088AFF1FAC7C0000388AFF1F80B582B000AFEFF311834FF0200181F311887B600B48FFF7BDFA38600A4B1B78002B07D00B2239683868FFF7B9
:402F40009BFB064B00221A707B6883F3118800BF0837BD4680BD00BF388AFF1F088AFF1F80B58CB000AFEFF311834FF0200181F31188FB604548FFF797FAB860BB687B60B7
:402F80007B68FB62424B5B68BB620BE0FB6A5A1CFA62BA6AD2B262F07F02D2B21A70BB6ADB09BB62BB6A7F2BF0D8FB6A5A1CFA62BA6AD2B21A70FB6A7B607B687B62344B14
:402FC0009B683B620BE07B6A5A1C7A623A6AD2B262F07F02D2B21A703B6ADB093B623B6A7F2BF0D87B6A5A1C7A623A6AD2B21A707B6A7B607B68FB61254B1B69BB610BE0E6
:40300000FB695A1CFA61BA69D2B262F07F02D2B21A70BB69DB09BB61BB697F2BF0D8FB695A1CFA61BA69D2B21A70FB697B607B687B6100233B610BE07B695A1C7A613A6933
:40304000D2B262F07F02D2B21A703B69DB093B613B697F2BF0D87B695A1C7A613A69D2B21A707B697B6018227968B868FFF704FBFB6883F31188064B5B6A002B02D0044B08
:403080005B6A984700BF3037BD4680BD388AFF1F088AFF1F80B592B000AF7860EFF311834FF0200181F311887B616A48FFF7FCF938613B69FB60FB687B647B681A68664B2C
:4030C0001B69D31A3B640BE07B6C5A1C7A643A6CD2B262F07F02D2B21A703B6CDB093B643B6C7F2BF0D87B6C5A1C7A643A6CD2B21A707B6CFB60FB68FB637B689B68BB6356
:403100000BE0FB6B5A1CFA63BA6BD2B262F07F02D2B21A70BB6BDB09BB63BB6B7F2BF0D8FB6B5A1CFA63BA6BD2B21A70FB6BFB607B685B6820221946F868FFF765F9F860A1
:403140000922F9683869FFF797FA3B69FB60FB687B637B681A68404B1B69D31A3B630BE07B6B5A1C7A633A6BD2B262F07F02D2B21A703B6BDB093B633B6B7F2BF0D87B6B08
:403180005A1C7A633A6BD2B21A707B6BFB60FB68FB627B68DB68BB620BE0FB6A5A1CFA62BA6AD2B262F07F02D2B21A70BB6ADB09BB62BB6A7F2BF0D8FB6A5A1CFA62BA6A02
:4031C000D2B21A70FB6AFB60FB687B627B681B693B620BE07B6A5A1C7A623A6AD2B262F07F02D2B21A703B6ADB093B623B6A7F2BF0D87B6A5A1C7A623A6AD2B21A707B6A87
:40320000FB60FB68FB610023BB610BE0FB695A1CFA61BA69D2B262F07F02D2B21A70BB69DB09BB61BB697F2BF0D8FB695A1CFA61BA69D2B21A70FB69FB601522F968386975
:40324000FFF71AFA7B6983F3118800BF4837BD4680BD00BF388AFF1F088AFF1F80B500AF074B1B6A002B08D0054B1B6A5B68002B03D0034B1B6A5B68984700BF80BD00BF00
:40328000088AFF1F80B586B000AF7860EFF311834FF0200181F311887B610B48FFF704F93861802279683869FFF7AEF8F8600E22F9683869FFF7E0F97B6983F3118800BF03
:4032C0001837BD4680BD00BF388AFF1FF0B583B000AF124B1B6A002B15D0104B1B6A1B68002B10D00D4B1B6A1B689847C7E900013968D7E90034250000262B461A460D20EB
:40330000FFF73EFB05E0064B1B6819460C20FFF7FBFA00BF0C37BD46F0BD00BF088AFF1F041000E080B586B000AFEFF311834FF0200181F31188FB601948FFF7B5F8B860A6
:40334000BB687B60174B1B68C3F308033B607B687B613B683B610BE07B695A1C7A613A69D2B262F07F02D2B21A703B69DB093B613B697F2BF0D87B695A1C7A613A69D2B252
:403380001A707B697B6002227968B868FFF774F9FB6883F3118800BF1837BD4680BD00BF388AFF1F04ED00E080B582B000AFEFF311834FF0200181F311887B600748FFF7F3
:4033C00073F83860032239683868FFF755F97B6883F3118800BF0837BD4680BD388AFF1F80B582B000AFEFF311834FF0200181F311887B600748FFF757F83860122239683B
:403400003868FFF739F97B6883F3118800BF0837BD4680BD388AFF1F80B588B000AF7860EFF311834FF0200181F311887B611848FFF73AF838613B69FB60FB68FB61154BC2
:403440001B697A68D31ABB610BE0FB695A1CFA61BA69D2B262F07F02D2B21A70BB69DB09BB61BB697F2BF0D8FB695A1CFA61BA69D2B21A70FB69FB601322F9683869FFF729
:40348000FBF87B6983F3118800BF2037BD4680BD388AFF1F088AFF1F80B582B000AFEFF311834FF0200181F311887B600748FEF7FBFF3860142239683868FFF7DDF87B6871
:4034C00083F3118800BF0837BD4680BD388AFF1F80B588B000AF7860EFF311834FF0200181F311887B611748FEF7DEFF38613B69FB60FB68FB617B68BB610BE0FB695A1CA0
:40350000FA61BA69D2B262F07F02D2B21A70BB69DB09BB61BB697F2BF0D8FB695A1CFA61BA69D2B21A70FB69FB601C22F9683869FFF7A2F87B6983F3118800BF2037BD46ED
:4035400080BD00BF388AFF1F80B58AB000AF78603960EFF311834FF0200181F311887B612448FEF7A1FF38613B69FB60FB687B627B683B620BE07B6A5A1C7A623A6AD2B27E
:4035800062F07F02D2B21A703B6ADB093B623B6A7F2BF0D87B6A5A1C7A623A6AD2B21A707B6AFB60FB68FB613B68BB610BE0FB695A1CFA61BA69D2B262F07F02D2B21A709E
:4035C000BB69DB09BB61BB697F2BF0D8FB695A1CFA61BA69D2B21A70FB69FB601C22F9683869FFF749F87B6983F3118800BF2837BD4680BD388AFF1F80B582B000AFEFF34C
:4036000011834FF0200181F311887B600748FEF74BFF3860112239683868FFF72DF87B6883F3118800BF0837BD4680BD388AFF1F80B588B000AF7860EFF311834FF020011F
:4036400081F311887B611948FEF72EFF38613B69FB60174B1B697A68D31A7B60FB68FB617B68BB610BE0FB695A1CFA61BA69D2B262F07F02D2B21A70BB69DB09BB61BB6908
:403680007F2BF0D8FB695A1CFA61BA69D2B21A70FB69FB600822F9683869FEF7EDFF7B6983F3118800BF2037BD4680BD388AFF1F088AFF1F80B588B000AF7860EFF3118323
:4036C0004FF0200181F311887B611948FEF7ECFE38613B69FB60174B1B697A68D31A7B60FB68FB617B68BB610BE0FB695A1CFA61BA69D2B262F07F02D2B21A70BB69DB09AB
:40370000BB61BB697F2BF0D8FB695A1CFA61BA69D2B21A70FB69FB601D22F9683869FEF7ABFF7B6983F3118800BF2037BD4680BD388AFF1F088AFF1F80B588B000AF786005
:40374000EFF311834FF0200181F311887B611948FEF7AAFE38613B69FB60174B1B697A68D31A7B60FB68FB617B68BB610BE0FB695A1CFA61BA69D2B262F07F02D2B21A70FE
:40378000BB69DB09BB61BB697F2BF0D8FB695A1CFA61BA69D2B21A70FB69FB600422F9683869FEF769FF7B6983F3118800BF2037BD4680BD388AFF1F088AFF1F80B582B065
:4037C00000AFEFF311834FF0200181F311887B600748FEF769FE3860052239683868FEF74BFF7B6883F3118800BF0837BD4680BD388AFF1F80B588B000AF7860EFF31183F8
:403800004FF0200181F311887B611948FEF74CFE38613B69FB60174B1B697A68D31A7B60FB68FB617B68BB610BE0FB695A1CFA61BA69D2B262F07F02D2B21A70BB69DB0909
:40384000BB61BB697F2BF0D8FB695A1CFA61BA69D2B21A70FB69FB600622F9683869FEF70BFF7B6983F3118800BF2037BD4680BD388AFF1F088AFF1F80B58AB000AF786079
:403880003960EFF311834FF0200181F311887B612748FEF709FE38613B69FB60254B1B697A68D31A7B60FB687B627B683B620BE07B6A5A1C7A623A6AD2B262F07F02D2B2AE
:4038C0001A703B6ADB093B623B6A7F2BF0D87B6A5A1C7A623A6AD2B21A707B6AFB60FB68FB613B68BB610BE0FB695A1CFA61BA69D2B262F07F02D2B21A70BB69DB09BB618E
:40390000BB697F2BF0D8FB695A1CFA61BA69D2B21A70FB69FB600722F9683869FEF7ACFE7B6983F3118800BF2837BD4680BD00BF388AFF1F088AFF1F80B588B000AF78606E
:403940003960EFF311834FF0200181F311887B611B48FEF7A9FD38613B69FB60FB68FB61184B1B697A68D31ABB610BE0FB695A1CFA61BA69D2B262F07F02D2B21A70BB69FC
:40398000DB09BB61BB697F2BF0D8FB695A1CFA61BA69D2B21A70FB69FB6080223968F868FEF732FDF8601922F9683869FEF764FE7B6983F3118800BF2037BD4680BD00BF91
:4039C000388AFF1F088AFF1F80B483B000AF7860044B1B697A68D31A18460C37BD4680BC704700BF088AFF1F80B58CB000AF0346FB713B4B1B68002B6DD0394B1B68FB62F7
:403A00000023BB6208E0FB6A1B69FB62FB6A002B07D0BB6A0133BB62FA79BB6A9A42F2D800E000BFFB6A002B55D0EFF311834FF0200181F311887B612A48FEF735FD3861B8
:403A40003B69FB60FB687B62FB793B620BE07B6A5A1C7A623A6AD2B262F07F02D2B21A703B6ADB093B623B6A7F2BF0D87B6A5A1C7A623A6AD2B21A707B6AFB60FB68FB61A6
:403A8000FB6A9B68BB610BE0FB695A1CFA61BA69D2B262F07F02D2B21A70BB69DB09BB61BB697F2BF0D8FB695A1CFA61BA69D2B21A70FB69FB60FB6A1B6880221946F868B2
:403AC000FEF7A2FCF8601622F9683869FEF7D4FD7B6983F3118800BF3037BD4680BD00BF308AFF1F388AFF1F80B582B000AF0C4B1B68002B0FD00A4B1B687B607B68DB6838
:403B0000002B02D07B68DB6898477B681B697B607B68002BF2D100BF0837BD4680BD00BF308AFF1F80B586B000AFEFF311834FF0200181F31188FB601748FEF7B5FCB86026
:403B4000BB687B607B687B61144B1B783B610BE07B695A1C7A613A69D2B262F07F02D2B21A703B69DB093B613B697F2BF0D87B695A1C7A613A69D2B21A707B697B601B22B6
:403B80007968B868FEF778FDFB6883F3118800BF1837BD4680BD00BF388AFF1F348AFF1F80B500AF0348FFF76DFB0348FFF76AFB00BF80BDD07C0000FC7C000080B500AF88
:403BC0000E4B1B6803F00073002B0BD10B4B1B6803F00103002B05D1084A084B1B6843F001031360064B074A07490748FEF728FE064802F005F800BF80BD00BF001000E095
:403C0000A13B0000687D000080F0FA020C7D000080B588B000AF786002F0ECFB07F10C0314220021184601F050FA7B68FB60786802F0FCF803463B617B681B697B617868FE
:403C400002F094FF0346BB617B689B6AFB6107F10C031846FFF71EFA02F05EF900BF2037BD4680BD80B582B000AF02F0C3FB134B9B697B6005E07868FFF7CAFF7B681B6817
:403C80007B607B68002BF6D10C4B5B6E3B600BE03B685B681A463B689B6819461046FFF74BFE3B681B683B603B68002BF0D102F033F900BF0837BD4680BD00BF508BFF1FEA
:403CC000F0B400EB4003DFF8800000EBC30000F118063069F768756887422ED3B368DC1B631E934212D37D19D01900BF11F8013B05F8013B013A05D011F8013B05F8013BA8
:403D0000013AF3D1F0600120F0BC7047C018904217D37819121B11F8013B00F8013B013CF9D1141C05D011F8013B05F8013B013AF9D1F4600120F0BC7047C01B0138904298
:403D4000D1D20020F0BC7047BC92FF1F80B582B000AF0346FB71FB79062B2DD801A252F823F000BF813D0000893D0000913D0000993D0000A13D0000A93D0000B13D0000A3
:403D8000002000F05DFF1BE0062000F059FF17E0052000F055FF13E0032000F051FF0FE0012000F04DFF0BE0022000F049FF07E0042000F045FF03E0002000F041FF00BFB6
:403DC00000BF0837BD4680BD90B585B000AF78603960386801F0A6F9B860BB68002B1AD07B68FB600FE0FA68BB68D418FA68BB681344184601F096F9034601331A462146CF
:403E0000F86801F047F93968F86801F093F9F860FB68002BE7D17B6818461437BD4690BD80B582B000AF0D4B1B78FB71FB79082B08D0202B0AD0002B00D00BE0084800F0C2
:403E400089FB07E0074800F085FB03E0064800F081FB00BF00BF0837BD4680BDC480FF1F707D0000B07D0000F07D000080B582B000AF786039603A680021786801F025F95C
:403E800000BF0837BD4680BD80B584B000AFF860B9607A607A68B968F86801F0F0F800BF1037BD4680BD00BF80B483B000AF0346FB71FEE780B487B000AF786039600023C2
:403EC0003B6100237B6127E07B699B007A6813441B68BB60BB68FB73BB6823F0FF03BB6014E03B695B003A6813441B781A46BB68134419463B695B003A6813445B780B70E8
:403F00003B6901333B61FB7B013BFB73FB7B002BE7D17B6901337B617B69152BD4D900BF1C37BD4680BC704780B582B000AF354B33221A80344B18221A70344B33221A8091
:403F4000334B18221A70334B06221A704FF0402308221A70304B314A1278D2B21A70304B52221A702F4B4FF4E2621A802E4B41F251221A800023FB7019237B6013E0FB7813
:403F80005B00DAB2294B1B78DBB203F00103DBB21343DBB203F00303FB70782001F020F87B68013B7B607B68002B02D0FB78032BE5D17B68002B02D10320FFF775FF1C4B14
:403FC0004FF480721A801A4B07221A70194B00221A70194B48221A70154B00221A70174B00221A70164B02221A70164A154B1B78DBB243F00303DBB2137000BF0837BD461F
:4040000080BD00BF8040004082400040844000408640004000430040A14600400F0100490042004022420040204200402542004004400040064000400840004009400040EB
:4040400001400040A243004080B483B000AF0B4B1B78FB710A4AFB7903F00703DBB21370084AFB791B09DBB21370074B44221A7000BF0C37BD4680BC704700BFCF0100494E
:404080006E5800406F5800407658004080B586B000AF72B6554B61221A70FFF745FF534BC1221A70524A524B1B78DBB243F00403DBB213700023FB7513E0FA7D13465B005D
:4040C00013445B004B4A13443B613B691A683B699B889BB219461046FFF7C8FEFB7D0133FB75FB7D062BE8D90023FB751CE0FA7D13469B0013445B003F4A1344FB60FB680B
:404100001B68BB60FB685B687B60FB681A7A5B7A1B0213437B807B881A467968B868FFF7B3FEFB7D0133FB75FB7D002BDFD033494FF09040FFF7BEFE314A314B1B78DBB2D9
:4041400043F00203DBB213702E4A2E4B1B78DBB243F00203DBB213702B4A2B4B1B78DBB243F04003DBB21370284A284B1B78DBB243F01003DBB21370082225492548FFF7B7
:4041800083FE0A2224492548FFF77EFE082224492448FFF779FE0A2223492448FFF774FE0A2223492348FFF76FFE082222492348FFF76AFE0A2222492248FFF765FE224AA0
:4041C000214B1B78DBB243F00803DBB213701F4B01221A70FFF738FF0E220B491C48FFF753FE00BF1837BD4680BD00BF00480040E8460040307E00005C7E00005800004847
:404200000350014013500140A0430040C2430040400600480251004048060048C051004054060048125100405C06004820510040680600483051004074060048525100401A
:404240007C060048605100402243004004000840B043004080B500AF00F0D6FE03461B680C2B00D1FEE7FEE780B586B000AF224B7B61224B3B61204B7B6135E03B691B682A
:40428000FB603B695B68BB603B699B683B6000237B600CE0FB681A68BB681A60BB680433BB60FB680433FB607B6804337B607A683B689A42EED13B69DB683B6000237B6074
:4042C00008E0BB6800221A60BB680433BB607B6804337B607A683B689A42F2D13B6910333B617B69013B7B617B69002BC6D100F091FEFDF76FFAFEE701000000188000000A
:4043000080B582B000AF184B184A1A60184A184B1B6843F40073136000237B600FE07B68032B04D8134A7B6852F8233000E0124B12497A6841F822307B6801337B607B6832
:404340002F2BECD90E4B1B78DAB20E4B1A700E4B0A4A1A60FFF79AFE0C4B00221A6000BF0837BD4680BD00BF0CED00E00004FA0514ED00E000000000554200000080FF1F2C
:40438000BC760040C480FF1F08ED00E0C080FF1F80B500AF064B1B78002B04D100F00AF8034B01221A7000F03BF800BF80BD00BF1C8BFF1F80B500AF1149002000F026FD2D
:4043C0000721002000F04AFD0E4B00221A700E4B72221A700D4B20221A700D49012000F015FD0721012000F039FD0A4B06221A70094B47221A70094B02221A7000BF80BD6A
:4044000099450000228BFF1F84650040876500407546000027650040376500408764004080B582B000AF00F0E3FD0346FB71154A144B1B78DBB243F02003DBB21370124AB5
:40444000114B1B78DBB243F01003DBB213700F4B01221A600E4A0E4B1B78DBB243F01003DBB213700B4B02221A60084B02221A6000F004FCFB79184600F0BEFD00BF0837FC
:40448000BD4680BD946500409765004000E100E09764004080E200E080B485B000AF0346FB71264B1B88FB81254B1B88BB81FA89BB899A4208D2FA89BB89013B9A420CBF36
:4044C00001230023DBB209E0FA89BB89D31A40F2FF3293420CBF01230023DBB2002BE0D1BA89FB899A420AD1164B1B78DBB203F00403002B03D1144AFB79137019E0FB89CE
:40450000B3F5806F01D30023FB81FB890F49FA79CA54FB890133FB81084AFB891380094B1B78DBB203F00203002B02D0084B02221A6000BF1437BD4680BC7047208BFF1F44
:404540001E8BFF1F67640040476400406C97FF1F00E200E080B584B000AF78600023FB810C4B1B78002B10D009E0FB897A6813441B781846FFF790FFFB890133FB81FB8943
:404580007A6813441B78002BEFD100BF1037BD4680BD00BF1C8BFF1F80B483B000AF0023FB712C4B1B78BB71BB797B71BB7903F01E03002B0CD097F9063003F01E035AB24A
:4045C000254B1B785BB213435BB2DAB2224B1A70BB7903F02003002B31D0204B1B787B711F4B1B889BB219461E4A7B7953540123FB71FB79002B22D01B4B1B78DBB2002BD7
:4046000002D01A4B01221A70154B1B889BB201339AB2134B1A80124B1B889BB2B3F5806F02D30F4B00221A800D4B1B889AB2104B1B889BB29A4202D10B4B01221A70BB7987
:4046400003F02003002BACD100BF0C37BD4680BC704700BF67650040228BFF1F44650040268BFF1F6C93FF1F288BFF1F298BFF1F248BFF1F80B400AF18E0154B1B889BB27E
:40468000B3F5806F02D3124B00221A80114B104A128892B21146104A525CD2B21A700C4B1B889BB201339AB2094B1A80084B1B889AB20A4B1B889A4206D0094B1B78DBB25F
:4046C00003F00403002BD8D000BFBD4680BC70471E8BFF1F476400406C97FF1F208BFF1F6764004080B500AF064B1B78002B04D100F00AF8034B01221A7000F03BF800BFFA
:4047000080BD00BF2C8BFF1F80B500AF1149022000F07CFB0221022000F0A0FB0E4B00221A700E4B72221A700D4B20221A700D49032000F06BFB0721032000F08FFB0A4B88
:4047400006221A70094B47221A70094B02221A7000BF80BDA5490000328BFF1F8264004085640040814A000026640040366400408665004080B582B000AF00F039FC03460C
:40478000FB71154A144B1B78DBB243F02003DBB21370124A114B1B78DBB243F01003DBB213700F4B04221A600E4A0E4B1B78DBB243F01003DBB213700B4B08221A60084BAD
:4047C00008221A6000F074FAFB79184600F014FC00BF0837BD4680BD926400409564004000E100E09665004080E200E080B483B000AF0023FB71234B04221A60224B1B8837
:40480000BB80224B1B887B80214B1B78DBB2002B03D1BA887B889A4218D0BB881D4AD35CFB71BB880133BB80BB88B3F5806F01D30023BB80144ABB881380154B1B78DBB2E7
:40484000002B15D0124B00221A7011E0124B1B787B707B7803F02003002B09D00F4B1B78FB717B7803F01E03002B01D00023FB710B4B04221A60FB7918460C37BD4680BC11
:40488000704700BF80E100E0348BFF1F368BFF1F388BFF1F6C9BFF1F656400404564004000E100E080B485B000AF0346FB71264B1B88FB81254B1B88BB81FA89BB899A427D
:4048C00008D2FA89BB89013B9A420CBF01230023DBB209E0FA89BB89D31A40F2FF3293420CBF01230023DBB2002BE0D1BA89FB899A420AD1164B1B78DBB203F00403002BEC
:4049000003D1144AFB79137019E0FB89B3F5806F01D30023FB81FB890F49FA79CA54FB890133FB81084AFB891380094B1B78DBB203F00203002B02D0084B08221A6000BF9E
:404940001437BD4680BC7047308BFF1F2E8BFF1F66650040466500406C9FFF1F00E200E080B584B000AF78600B467B800023FB810B4B1B78002B0ED009E0FB897A681344F2
:404980001B781846FFF78EFFFB890133FB81FA897B889A42F1D300BF1037BD4680BD00BF2C8BFF1F80B483B000AF0023FB712C4B1B78BB71BB797B71BB7903F01E03002BE1
:4049C0000CD097F9063003F01E035AB2254B1B785BB213435BB2DAB2224B1A70BB7903F02003002B31D0204B1B787B711F4B1B889BB219461E4A7B7953540123FB71FB79DF
:404A0000002B22D01B4B1B78DBB2002B02D01A4B01221A70154B1B889BB201339AB2134B1A80124B1B889BB2B3F5806F02D30F4B00221A800D4B1B889AB2104B1B889BB29B
:404A40009A4202D10B4B01221A70BB7903F02003002BACD100BF0C37BD4680BC704700BF65640040328BFF1F45640040368BFF1F6C9BFF1F388BFF1F398BFF1F348BFF1F6A
:404A800080B400AF18E0154B1B889BB2B3F5806F02D3124B00221A80114B104A128892B21146104A525CD2B21A700C4B1B889BB201339AB2094B1A80084B1B889AB20A4BF9
:404AC0001B889A4206D0094B1B78DBB203F00403002BD8D000BFBD4680BC70472E8BFF1F466500406C9FFF1F308BFF1F6665004080B400AF054B1B78DBB203F00E035B08E2
:404B0000DBB21846BD4680BC704700BF8245004080B400AF054B1B78DBB203F070031B09DBB21846BD4680BC704700BF8645004080B485B000AF0346FB710B4B1B78DBB203
:404B400023F04003FB730849FB799B01DBB203F04003DAB2FB7B1343DBB20B7000BF1437BD4680BC704700BF2051004080B485B000AF0346FB710A4B1B78DBB223F0010324
:404B8000FB730749FB7903F00103DAB2FB7B1343DBB20B7000BF1437BD4680BC704700BF5051004080B582B000AF786000F03CF8786800F009F8012000F018F800F028F8B8
:404BC00000BF0837BD4680BD80B485B000AF7860054B1B68FB60FB6868337A681A6000BF1437BD4680BC704708ED00E080B483B000AF0346FB71054AFB795B01DBB2137030
:404C000000BF0C37BD4680BC704700BF0AE400E080B400AF034B4FF480621A6000BFBD4680BC704700E100E080B400AF034B4FF480621A6000BFBD4680BC704780E100E0E3
:404C400080B485B000AF0346FB710B4B1B78DBB223F07003FB730849FB791B01DBB203F07003DAB2FB7B1343DBB20B7000BF1437BD4680BC704700BF0051004080B400AF96
:404C8000094A094B1B78DBB243F00203DBB21370064A064B1B78DBB243F00203DBB2137000BFBD4680BC7047A2430040B243004080B400AF094A094B1B78DBB243F00103EC
:404CC000DBB21370064A064B1B78DBB243F00103DBB2137000BFBD4680BC7047A2430040B243004080B483B000AF0346FB7101BE00BF0C37BD4680BC704700BF80B400AF69
:404D0000054A054B1B78DBB243F00103DBB2137000BFBD4680BC7047F646004080B483B000AF03460A46FB711346BB711D491D4B1B78DBB223F00303DAB2FB7903F003039C
:404D4000DBB21343DBB20B70164A164B1B78DBB263F07F03DBB21370124A124B1B78DBB203F07F03DBB213700E49BB795B01DBB203F06003DAB20B4B1B78DBB223F06003E2
:404D8000DBB21343DBB20B70064A064B1B78DBB243F01003DBB2137000BF0C37BD4680BC704700BF8343004080B400AF034B01221A7000BFBD4680BC704700BF84430040DB
:404DC00080B584B000AF03463960FB710E4B1B68FB60FB790F2B02D90020FFF783FFFB7903F00F039B00FA6813441B68BB60FB7903F00F039B00FA6813443A681A60BB687E
:404E000018461037BD4680BD08ED00E080B584B000AF03463960FB710F4B1B68FB60FB791F2B02D90020FFF75DFFFB7903F01F0310339B00FA6813441B68BB60FB7903F0EA
:404E40001F0310339B00FA6813443A681A60BB6818461037BD4680BD08ED00E080B582B000AF03460A46FB711346BB71BB79072B02D90020FFF736FFFB791F2B02D900209B
:404E8000FFF730FFFB7903F01F0303F1604303F56443BA795201D2B21A7000BF0837BD4680BD00BF80B582B000AF786000F03CF8786800F009F8022000F018F800F028F868
:404EC00000BF0837BD4680BD80B485B000AF7860054B1B68FB60FB6850337A681A6000BF1437BD4680BC704708ED00E080B483B000AF0346FB71054AFB795B01DBB2137045
:404F000000BF0C37BD4680BC704700BF04E400E080B400AF034B10221A6000BFBD4680BC704700BF00E100E080B400AF034B10221A6000BFBD4680BC704700BF80E100E04E
:404F400080B582B000AF786000F03CF8786800F009F8002000F018F800F028F800BF0837BD4680BD80B485B000AF7860054B1B68FB60FB6858337A681A6000BF1437BD466B
:404F800080BC704708ED00E080B483B000AF0346FB71054AFB795B01DBB2137000BF0C37BD4680BC704700BF06E400E080B400AF034B40221A6000BFBD4680BC704700BF2D
:404FC00000E100E080B400AF034B40221A6000BFBD4680BC704700BF80E100E0000000000230800803D000BF01380046FCD17047EFF3108072B6704780F31088704700BF0D
:405000000A22002100F036B9014B1868704700BF3081FF1F0E4B70B51E460E4C0025E41AA410A54204D056F8253098470135F8E702F0E0FF084B094C1E46E41AA41000251A
:40504000A54204D056F8253098470135F8E770BD0080000000800000008000000880000010B501390244904207D010F8013B11F8014FA342F7D0181B10BD002010BD10B5C0
:40508000431E0A44914204D011F8014B03F8014FF8E710BD884210B501EB020301D8421E0BE09842FBD28118D21AD34204D013F8014D01F8014DF8E710BD994204D011F891
:4050C000014B02F8014FF8E710BD03460244934202D003F8011BFAE7704700000EB400B54FF402719CB0ADF814106FF00041049107914FF6FF711DAB02900690084853F83A
:40510000042BADF81610006802A9019300F0C0F9029B00221A701CB05DF804EB03B070473081FF1F034613F8012B002AFBD1181A01387047F0B5037863B90B78002B18BF3A
:405140000020F0BD15F8012F62B114F8017F30469742F7D00346461C007810B14D1E5C1EF0E7F0BD1846F0BD2DE9F0470F4680463F48D0F800903D4615F8014B09EB0400FD
:40518000407800F0080000F0FF0608B12F46F2E72D2C03D1BD1C7C78012603E02B2C04BF7C78BD1C13B1102B0AD15BE0302C57D1287800F0DF0058284DD16C781023023564
:4051C000002E14BF4FF0004C6FF0004CBCFBF3FA0027384603FB1ACC09EB040E9EF801E01EF0040F01D0303C0BE01EF0030E1BD0BEF1010F0CBF4FF0370E4FF0570ECEEB10
:405200000404A34210DDB7F1FF3F0AD0504506D801D1644503DC03FB0040012701E04FF0FF3715F8014BD7E77B1C0CD1002E4FF0220314BF4FF000406FF00040C8F800304D
:405240002AB9BDE8F08706B1404272B107B1691E1160BDE8F0873024002BB1D10823AFE70A23ADE7302CA3D0AAE7BDE8F08700BF3481FF1F13460A46014602480068FFF7DE
:4052800073BF00BF3081FF1F38B50546002944D051F8043C0C1F002BB8BFE418FCF714FB1E4A1368114613B96360146030E0A3420DD92268A018834201BF18685B68121819
:4052C000226063600C6023E0A24203D813465A68002AF9D118681918A1420BD12168014458188242196013D110685268014419605A600DE002D90C232B6009E02168601847
:40530000824201BF106852680918216062605C602846BDE83840FCF7E1BA38BD408BFF1F70B5CD1C25F0030508350C2D38BF0C25002D064601DBA94202D90C23336046E0D4
:40534000FCF7C2FA234B1C681A462146A1B10B685B1B0ED40B2B03D90B60CC18CD501EE08C420BBF63684B681360636018BF0C4615E00C464968E9E7174C23681BB93046B7
:4053800000F016FB20602946304600F011FB431C18D0C41C24F00304A0420DD125603046FCF79CFA04F10B00231D20F00700C31A0ED05A42E25070BD211A304600F0F8FA65
:4053C0000130EBD10C2333603046FCF787FA002070BD00BF408BFF1F3C8BFF1F2DE9F0478E6882469E420C46914698463ED88A8912F4906F3AD02568096902236F1A656995
:4054000005EB450595FBF3F57B1C43449D4238BF1D4653050FD52946FFF782FF064698B13A462169FFF72BFEA38923F4906343F08003A38113E02A4600F0D8FA064670B9D9
:4054400021695046FFF720FF0C23CAF80030A3894FF0FF3043F04003A381BDE8F08726613E44266046466561ED1BA560464528BF4646494632462068FFF70CFEA3680020E0
:405480009B1BA36023681E442660BDE8F08700002DE9F04F9DB003938B8980461C060D4616460DD50B695BB94021FFF739FF2860286118B90C23C8F80030CDE040236B61EB
:4054C0000023099320238DF82930DFF89CB130238DF82A3037463C4614F8013B1BB9B7EB060910D003E0252BF9D02746F3E74B46324629464046FFF771FF013000F0A780DB
:40550000099B4B4409933B78002B00F0A08000234FF0FF3204930793059206938DF853301A930126052221784E4800F051FA671C049B38B14B4A3C46801A06FA00F0184346
:405540000490EFE7D90644BF20228DF853201A0744BF2B228DF8532022782A2A03D0079A00210A200BE0039A111D12680391002A10DA524243F00200079204900BE0274669
:405580003B780134303B092B03D800FB02320121F5E701B107923B782E2B1ED17B782A2B0AD1039B02371A1D1B680392002BB8BF4FF0FF33059310E0002319460593781C84
:4055C0000A2407463A780130303A092A03D804FB01210123F5E703B1059103223978224800F0F6F940B14023CBEB000003FA00F0049B013718430490397806221B487E1CB8
:405600008DF8281000F0E4F988B1194B33B9039B073323F007030833039314E003AB00932A46144B04A94046AFF3008007E003AB00932A460F4B04A9404600F093F8B0F1F7
:40564000FF3F824603D0099B5344099342E7AB895B0601D4099801E04FF0FF301DB0BDE8F08F00BF697F00006F7F0000737F000000000000DD5300002DE9F04791461F46C6
:405680000A698B6806469342B8BF1346C9F8003091F843200C46DDF8208012B10133C9F800302368990642BFD9F800300233C9F80030256815F0060510D104F1190A07E038
:4056C0000123524639463046C04701301AD00135E368D9F800209B1A9D42F1DB94F843302268003318BF012392060FD5E118302081F843005A1C94F845102244023382F861
:40570000431003E04FF0FF30BDE8F08704F1430239463046C0470130F4D02268D9F80050E36802F00602042A08BF5D1B2269A3680CBF25EAE57500259342C4BF9B1AED1820
:405740004FF000091A344D4509D00123224639463046C0470130D5D009F10109F3E70020BDE8F0872DE9F04317460A7E85B06E2A984606460C460C9B01F1430E00F0AE8031
:4057800011D8632A22D009D8002A00F0BB80582A40F0CA8081F84520834955E0642A1ED0692A1CD0C0E0732A00F0B08009D86F2A2ED0702A40F0B8800A6842F020020A606E
:4057C0003EE0752A24D0782A3AD0ADE01A6801F14205111D1960136884F84230A8E021681A6811F0800F02D0111D196008E011F0400F02F10401196002D0B2F9003000E022
:405800001368002B3CDA2D225B4284F8432037E021681A6811F0800F02D0111D196007E011F0400F02F10401196001D0138800E01368227E5C496F2A14BF0A2208221BE045
:4058400078225A4984F845202268186812F0800F00F104051D6003D1550601D5038800E00368D00744BF42F0200222601BB9226822F0200222601022002084F8430001E067
:4058800049490A226568002DA56008DB206820F0040020602BB9002D7DD175460CE0002B79D07546B3FBF2F002FB1033CB5C05F8013D03460028F5D1082A0BD12368DA0714
:4058C00008D5236962689A42DEBF302305F8013C05F1FF35C5EB0E0323612EE008681A6810F0800F496903D0101D1860136808E010F0400F02F104001860136801D0198041
:4059000000E0196000232361754616E01A68111D1960156800216268284600F059F808B1401B6060636804E004F1420584F8422001232361002384F84330CDF800803B4659
:4059400003AA21463046FFF797FE013002D14FF0FF3026E023692A4639463046C0470130F5D023689B0710D5002504F1190907E001234A4639463046C0470130E7D00135A9
:40598000E368039A9B1A9D42F2DBE068039B9842B8BF184605E00B7804F1420584F842308AE705B0BDE8F0837A7F00008B7F000038B5064C0023054608462360FBF798FF2F
:4059C000431C02D1236803B12B6038BD6CA3FF1F10B5C9B202449042034605D01C7801308C42F8D1184610BD002010BDF8B5074615460E4621B91146BDE8F840FFF790BCA6
:405A00001AB9FFF741FC2846F8BD00F015F885420ED929463846FFF783FC044650B131462A46FFF72CFB31463846FFF72DFC01E03046F8BD2046F8BD51F8040C0028BEBFA8
:405A4000091851F8043CC0180438704743488168002904BF08B007E0EFF30982A2F128024A60036882E8F84F3D498847816899B14A6892E8F84F036002F1280282F3098841
:405A800090693849884202DB374A904203DB4FF0000181F311887047344835490968401A80F308884FF08071C161324981617FF0060E704701BC30488047204602BC8847F0
:405AC0005DF804EB2D4908472448C068002807D0EFF314816A46734680E8FE0F28488047284823490968401A20F0070080F308884FF000011948417081F3118862B62249DB
:405B00004FF080520A60BFF34F8FBFF36F8FFEE71248C06890E8FE0F81F31488BFF36F8F95469E46704703680CB44FF00001417081F3118814494FF080520A60BFF34F8FF7
:405B4000BFF36F8F0CBC036070470F494FF080520A60BFF34F8FBFF36F8F7047508BFF1FA1650000275B0000485B000050ABFF1F747C00000D1C0000716500008D650000AB
:405B80003965000070ABFF1F04ED00E0074A1368591C11604BB9064BEFF3118119604FF0800080F3118800BF00BF7047488BFF1F448BFF1F054A1368013B13602BB9044BBF
:405BC000196881F3118800BF00BF7047488BFF1F448BFF1FEFF3058068B10E280AD00F288CBF054B054BC35C13F0800F0CBF02200120704704207047F0E300E014ED00E06D
:405C000038B5094C0546636A2BB194F8773013B9A120FBF739FEFFF7DDFF012802D1A020FBF732FEE56338BD508BFF1F2DE9F041294D0446EB6B33B1DE6ADB6B984701466A
:405C400040F21B10B0470FCC244F3E460FC6236804463360B0FBF1F34FF47A717B613B4618BB4FF47A72B2FBF1F2B4FBF1F12046D9611B499A61F8B9194AB2FBF1F2B4FB32
:405C8000F1F11A62174A596210462146D9B9B0FBF2F0B4FBF2F29862DA62EB6BD3B1BDE8F0419B6C40F21B101847B1FBF0F200FB121201461046D3E7B1FBF0F200FB1212A1
:405CC00001461046D7E7B2FBF1F601FB16260A463146DBE7BDE8F081508BFF1FD08BFF1F40420F0000CA9A3B2DE9F8431F4DEB6813B9EB20FBF7C8FD2B6913B9EC20FBF740
:405D0000C3FD4FF0800080F3118800BF00BF184FEB68D7E9044898472B6906469847B946E8B999F8013000270F2B02D99920FBF7ABFD99F801301BB94FF0000080F3118824
:405D40002A7A696912B98E1B67EB4707A4FB014501FB0855A01945EB0701BDE8F8830134EB6848F1000898470646DAE7D08BFF1F508BFF1F70B50B4C0546E3680E4613B9F1
:405D8000EB20FBF781FD236913B9EC20FBF77CFD236A626AA3FB050103FB0611002301F06BFA70BDD08BFF1F70B50F4CE36B13B19B6AD6209847FFF70DFF012805D194F86F
:405DC000773013B9A420FBF75FFDFFF78DFFFFF7D1FFE36B05460E461BB10146DB6CD62098472846314670BD508BFF1F10B5FFF7F1FE0128044C05D194F8773013B9A420F3
:405E0000FBF742FDE06A10BD508BFF1F10B5FFF7E1FE0128044C05D194F8773013B9A420FBF732FDE06A10BD508BFF1F70B5154C0546E36B33B1DE6ADB6B9847014640F25B
:405E40001510B047FFF7C6FE012805D194F8773013B9A420FBF718FD0DB9A56885B195F853300F2B02D08020FBF70EFD6D6AE36B23B1DB6C294640F215109847284670BD41
:405E8000014DF4E7508BFF1F9C7F000070B5214C0546E36B33B1DE6ADB6B984701464FF48B70B047FFF796FE012805D194F8773013B9A420FBF7E8FCD5B994F87630012B9F
:405EC00006D013B994F8773013B9E220FBF7DCFC636A2BB194F8773013B9A120FBF7D4FCFFF778FE012802D1A020FBF7CDFCA56895F853300F2B02D08020FBF7C5FCE36B5D
:405F000095F8515023B1DB6C29464FF48B709847284670BD508BFF1F10B5184C237813B99720FBF7B1FC2378013BDBB2237023781BBB63680BB34FF0800080F3118800BF97
:405F400000BF63686BB101232370E36B23B1A0681B6A90F8501098470848FFF7E4FD0023237063780F2B02D99920FBF78DFC63781BB94FF0000080F3118810BD508BFF1F8D
:405F800070B52D4CE36B1BB19B6A4FF491709847FFF720FE012802D0A220FBF775FCFFF719FE012805D194F8773013B9A420FBF76BFC224B1B68012B03D04FF48070FBF791
:405FC00063FC1F4B1B68012B03D04FF48070FBF75BFCA36B6BB1012384F87A306371A56C25BBE36B33B3BDE870409B6C4FF491701847D4E904210132E36A41F10001C4E92C
:406000000421226B0133E3629B1A002BA4BF0123637194F87B30002BE1D0013BDBB284F87B30002BDBD101232371D8E76B6898472D68D5E770BD00BF508BFF1F3C81FF1FE6
:406040003881FF1F70B504460025154E236A0BB9A36221E09968E26A8A1A002A1BDC1A68636222621D749D604FF0000080F31188F36B13B11B6C606A9847636A5B68984784
:40608000F36B0BB15B6C98474FF0800080F3118800BF00BFDAE721630023636270BD00BF508BFF1F70B505464FF0800080F3118800BF00BF1A4C266AFEB963780F2B02D96F
:4060C0009920FBF7E1FB63781BB94FF0000080F31188E26AAB681A4401232B74236AAA6093B92B600F4B2562A362236A9A68236BD31A002BB8BF226370BDAE4202D1AB205F
:40610000FBF7C2FB3668D7E707489968511A002903DD18461B68002BF7D12B600560E4E7508BFF1F45600000708BFF1F2DE9F041284C0646E36B884617463BB15D6BDB6BD0
:4061400098473B46014642466620A847FFF742FD012805D194F8773013B9A420FBF794FB4FF0800080F3118800BF00BF256A3DBB63780F2B02D99920FBF786FB63781BB968
:406180004FF0000080F3118817B9CD20FBF77CFB94F8783013B9A520FBF776FB142200213046FEF792FF33237374E36BC6E90277C6F804805BB1BDE8F0419B6C6620184730
:4061C000B54202D1AB20FBF75FFB2D68CFE7BDE8F08100BF508BFF1F70B5114C0546E36B2BB1DE6ADB6B98470146E620B0476B7C332B02D08120FBF747FBFFF7EBFC01280B
:4062000005D194F8773013B9A420FBF73DFBE36B2D7C1BB1DB6C2946E6209847284670BD508BFF1F70B50446234D00B96C6AEB6B33B1DE6A2046DB6B984701466A20B04766
:40624000FFF7C8FC012805D195F8773013B9A420FBF71AFB637C332B02D08120FBF714FB4FF0800080F3118800BF00BF237C33B12B6A124A1BB1A34219D123681360E36848
:406280002046A360FFF70EFF6B780F2B02D99920FBF7FAFA6B781BB94FF0000080F31188EB6B3BB1BDE870409B6C6A2018471A461B68DFE770BD00BF508BFF1F708BFF1FAB
:4062C00070B5244C0546E36B2BB1DE6ADB6B984701466920B047FFF77DFC012805D194F8773013B9A420FBF7CFFA6B7C332B02D08120FBF7C9FA4FF0800080F3118800BF7D
:4063000000BF2B7C7BB100232B74E26AAB689B1AAB60114A236A1BB1AB4217D11B681360236A03B9A36263780F2B02D99920FBF7ABFA63781BB94FF0000080F31188E36B95
:406340003BB1BDE870409B6C692018471A461B68E1E770BD508BFF1F708BFF1F08B5FFF739FC04280DD8DFE800F0030E080A0A00A320BDE80840FBF787BAA620F9E7A720D6
:40638000F7E7A820F5E708BD10B5184C63780F2B02D99920FBF778FA4FF0800080F3118800BF00BF63780133DBB2637094F879302BB9012384F87930FFF796FC2067E36AEA
:4063C0000B4A03F59C530833136063780F2B02D99920FBF759FA6378013BDBB2637063781BB94FF0000080F3118810BD508BFF1F4C8BFF1F024A13780133DBB213707047C7
:40640000508BFF1F8268D2E9003203B15A601360002383607047000038B5244C0546E36B0BB1DB699847AB6823B1E36A2846EB60FFF7E8FF95F8503003F0030385F850304C
:40644000F3B9E269FAB9E56122780123CAB92370E36B23B1A0681B6A90F8501098471348FFF761FB0023237063780F2B02D99920FBF70AFA63781BB94FF0000080F31188E6
:4064800038BD6371F0E7296913699942DBD89542DAD09942F4D12B461B68002BE4D018698142E1D19A42F7D1CDE700BF508BFF1F38B5036904460D4613B9CB20FBF7E4F92A
:4064C000FFF798FF22694DB91A4D55F8183F33B11869904203D91D461B68F8E72B68236025622C6043B11C621B69934214BF002394F8523084F8513094F85030ABB94FF0F7
:40650000800080F3118800BF00BF2046094CFFF783FF62780F2A02D99920FBF7B5F963781BB94FF0000080F31188BDE83840FFF7F3BC00BF508BFF1F70B500F05FFE0B4E98
:406540000446F3685D6800F05DFEF368421B196B2244914205D32946BDE87040D86AFEF78EBDFB20BDE87040FBF78EB9508BFF1F054BD96E19B19A685164002191649B6EFA
:4065800003B11847704700BF508BFF1F9B20FBF77BB9026A0368136003B11A62704700002DE9F04101230025904C657023704FF0800080F3118800BF00BF626B62B163786F
:4065C0000133DBB2637090476378C4E90D55013BDBB284F87A5063704FF0000080F3118800F00CFE0378CD2B02D07D20FBF74CF9A36833B1DB6A1B78CD2B02D07820FBF7EB
:4066000043F9A36853B15A6C42B1586803F144052B681B6898476D68002DF9D194F87C30002B3CD0A36894F87B2083F851202379002B34D04FF0800080F3118800BF00BFF7
:406640000022A36822714FF0000080F3118813B31A6802B31869116988421CD1116811B10D69A84227D04FF0800080F3118800BF00BFE169186A8B42196808BFE161016001
:40668000086211681A62196001B10B62136092F8523082F851304FF0000080F3118894F87930CBB1D90708D4FFF71EFBA268002A5AD1206710E00A46D0E7FFF797FB4C4BA6
:4066C0001B68181A0028EFDA94F8793003F0FE0384F87930002BE7D1A3682BB193F8502012B95A6B01325A63E369C3B14FF0800080F3118800BF00BFE569B5B195F8506067
:406700009EB172073BD5EB68E26A9A1A002A31DC2846FFF781FE95F85030002B2FD14FF0800080F3118800BF00BF00266FF00047DFF8B880637903F0FF02002B68D06671AE
:40674000E36A3B442363A36A0BB1404698474FF0000080F31188A56935BB4FF0800080F3118800BF00BFE5E7936B216F5B1A034493639EE7226B9A1A002AB8BF236306F018
:40678000FB06102E09D1AB689B685B6893F850201AB91A692B699A42C1D12B68E3614FF0000080F31188A1E74FF0800080F3118800BF00BFE3691BB12A691B699A42B9D30A
:4067C00095F850305B070AD5E26AEB689B1A002B10DDEA68236BD31A002B00DA22634FF0000080F311882D68B6E700BF508BFF1F4C8BFF1F2846FFF70FFE4FF0800080F3BB
:40680000118800BF00BF95F85030002BE1D191E76260E669002E3CD096F8503093B1B3689B685D682846FFF7B4FE33692B61E36B0BB1DB6898470123314628466370FFF723
:4068400037FEE561E369A36093F853300F2B02D08020FBF719F8A3685A6C42B1586803F144052B685B6898476D68002DF9D1A06890F8513084F87B3084F87C30E36B0BB165
:406880005B699847A268136B013313630948BDE8F081E36B0BB15B6A9847002384F87C3084F87B30A36023704FF0000080F31188ECE700BF508BFF1F38B5274B1B681B789B
:4068C000532BFDD1254B9B79002BFDD1244B1A684CF691139A42FDD16FF000430122214C2363214BC3E90622C3E90A22C3E9082294F8763093B193420DD1636A33B194F842
:40690000773073B9A120FAF7BFFF0AE0A36843B194F877302BB9E320FAF7B6FF636A002BEDD1FFF757F9012802D1A020FAF7ACFF00F072FC0123237000F060FC054600F07B
:4069400069FC2038421B03D0CD212846FEF7BDFB012384F8783038BDD87F0000A67F0000D47F0000508BFF1FD08BFF1F38B50D4CE36B1BB19B6A4FF4AC709847FFF72AF9E7
:40698000012805D194F8773013B9A420FAF77CFFE36B94F876501BB19B6C4FF4AC709847284638BD508BFF1F10B50D4C94F8783013B9A520FAF768FF4FF0800080F3118896
:4069C00000BF00BF94F8763013B1E420FAF75CFF012384F87630BDE81040FFF775B800BF508BFF1F70B5304C0546E36B33B1DE6ADB6B9847014640F22710B047FFF7EAF8B3
:406A0000012805D194F8773013B9A420FAF73CFFD5B994F87630012B06D013B994F8773013B9E220FAF730FF636A2BB194F8773013B9A120FAF728FFFFF7CCF8012802D182
:406A4000A020FAF721FFA56895F853300F2B02D08020FAF719FFFFF7CDFCA368AE6BAB4216D14FF0800080F3118800BF00BFFFF73BF9236FF61A637806440F2B02D99920B4
:406A8000FAF702FF63781BB94FF0000080F31188FFF742FAE36B23B1DB6C314640F227109847304670BD00BF508BFF1F10B50D4CE36B1BB19B6A40F23B109847FFF78AF824
:406AC000012805D194F8773013B9A420FAF7DCFEE36B23B1DB6C044940F23B109847024810BD00BF508BFF1FBE7F000010B50D4CE36B1BB19B6A40F23D109847FFF76AF8F8
:406B0000012805D194F8773013B9A420FAF7BCFEE36B23B1DB6C044940F23D109847024810BD00BF508BFF1FCE7F000010B50E4CE36B1BB19B6A40F23F109847FFF74AF8E2
:406B4000012805D194F8773013B9A420FAF79CFEE36B2BB1DB6C4CF6911140F23F1098474CF6911010BD00BF508BFF1F70B5214C0546E36B33B1DE6ADB6B984701464FF4A5
:406B8000A170B047FFF726F8012805D194F8773013B9A420FAF778FED5B994F87630012B06D013B994F8773013B9E220FAF76CFE636A2BB194F8773013B9A120FAF764FEEA
:406BC000FFF708F8012802D1A020FAF75DFEA56895F853300F2B02D08020FAF755FEE36BED6A23B1DB6C29464FF4A1709847284670BD00BF508BFF1F70B5214C0546E36BAA
:406C000033B1DE6ADB6B9847014640F24310B047FEF7E0FF012805D194F8773013B9A420FAF732FED5B994F87630012B06D013B994F8773013B9E220FAF726FE636A2BB13C
:406C400094F8773013B9A120FAF71EFEFEF7C2FF012802D1A020FAF717FEA56895F853300F2B02D08020FAF70FFEE36BAD6A23B1DB6C294640F243109847284670BD00BF5B
:406C8000508BFF1F4F4B70B51A78092A00F29880DFE802F0051A2332378E924B565E4A4A11884A4A21B94A49097801F0FF0039B10121117000228C201970464B1A8070BDEF
:406CC00010704FF0FF30FAE73F4A12881AB102221A70ED20F3E70722FAE73B4A10883E4AEF2889BF03210421000A40F0F0008CBF197019701070E2E704221A70324B18785E
:406D0000DDE7344C35492288334D885C29780132014429702C4992B222800C889442CED105221A7000230B80C9E708221A70284A294913781078013301300B70C0B2BEE7BC
:406D400009221A70244A4320137843331370B6E7204923480A880068845C013292B20A801B49087882421DD105221A704FF0800080F3118800BF00BF00261A4D0E702B688F
:406D80001BB12868FFF748FB2E60174D6A780F2A02D99920FAF778FD6B781BB94FF0000080F311880C4A204613782344137086E706221A70084BA2E700228D201A707EE74B
:406DC00000207CE7148CFF1F128CFF1F118CFF1F108CFF1F168CFF1F048CFF1F208CFF1F0C8CFF1F008CFF1F508BFF1F10B54FF0800080F3118800BF00BF0C4B1B7833B9AC
:406E0000FFF740FF002802DBC0B2FAF703FF084C62780F2A02D99920FAF736FD63781BB94FF0000080F3118810BD00BF118CFF1F508BFF1F0023044A1370044A1370044A47
:406E40001360044A13707047118CFF1F108CFF1F008CFF1F148CFF1F034A1378591C1170024AD05C704700BF088CFF1F188CFF1F10B5FFF7F1FF0446FFF7EEFF40EA0420E4
:406E800080B210BD10B5FFF7F3FF0446FFF7F0FF40EA044010BDFFF7F5BE0000044A1378072B9FBF0349C85401331370704700BF058CFF1F188CFF1F044A1388C72B9FBF6B
:406EC0000349C85401331380704700BF128CFF1F208CFF1FF8B5104D07462B88C3F1C7031E2B28BF1E23A8B904462046FFF7E4FF44B12E8809482246394630443444FEF7C0
:406F0000BEF82C80F8BD01349C42EED03A5D002AF9D1EAE70024F7E7128CFF1F208CFF1F10B50446000AFFF7C7FF2046BDE81040FFF7C2BF10B50446000CFFF7F1FF204677
:406F4000BDE81040FFF7ECBFF8B5FFF785FF432808D1FFF781FF714B1B680BB90020F8BD9847FBE76E4E3388002BF7D1FFF7A4FF6C2800F0AE8004D8632800F0B780308806
:406F8000EDE7732812D07428F9D1FFF77BFF0446644FBA6994424AD0002A46D144F24E10FFF7BEFF5420FFF787FFE8E75D4CFFF7EBF9FEF72BFFFFF7BDFFE069FFF7BAFF07
:406FC000A068FFF7B7FF4CF69110FFF7A9FF0120FFF772FFFFF76AFDFFF77CFFFFF786FDFFF778FFB4F87430FF2B19D9FC20FFF763FFB4F87400FFF793FF00F0FFF8FFF7BB
:4070000099FF00F0FFF8B0F57F4F044604D3000C40F47F40FFF784FF2046FFF781FFAEE7B4F87400FFF748FFE7E71268B2E794F85050FEF759FEFFF77DFF25B9BD68A54242
:407040000CBFFF2500252046FEF7F0FEFFF742FF2769FF2F37D90020FFF72EFF3846FFF769FF2846FFF728FFA06880BBFFF762FFE068FFF75FFF2046FFF778FDFFF75AFFAE
:407080002046FFF7AFFCFFF755FF206BFFF752FF2046FFF7B1FDB0F57F4F054604D3000C40F47F40FFF73CFF2846FFF739FF2046FEF7ECFEFFF700FF94F85200FFF7FCFE3A
:4070C000FEF794FEA9E73846FFF7F6FEC9E78068CCE77420FFF7F0FE124B9C69002C3FF44EAF2046FFF726FF2468F7E7FFF7CAFE0446FFF7BDFE20F0030292B2C0F38F034E
:407100002168B1F1CD3F04D1013B9BB20434002BF6D19B009BB2D01A7FE700BFE88CFF1F128CFF1F508BFF1F70B5274E0546337813B1B420FAF7A8FB0123244C33702278C5
:40714000052A0CD8DFE802F0030E131C2C34ED2D05D1237000231E4A13701E4A13700023337070BD8C2D2CD102232370F7E76B1E072B26D8184B1D70184B1D700323F4E74E
:407180002846FFF78BFE154A13781D441570124A1378013BDBB21370002BE0D10423E4E70E4A13781D44EDB2157055B90523DCE78D2D06D1FFF7C8FE18B1094B1880FFF7B8
:4071C00015FE0023D1E700BF078CFF1F098CFF1F058CFF1F088CFF1F158CFF1F068CFF1F128CFF1F08B5FFF74DFD002804DBC0B2FAF710FD002008BD0120FCE70048704796
:4072000070A7FF1F014B0248C01A704770A7FF1F70ABFF1F6846704707B540F62741144B1A68C2F30B128A420AD11A6812F4700F06D11B6813F00E0F02D1FE20FAF724FBE9
