:400000000080002011000000D1090000D109000080B500AF034A044B1B68136000F0E0FD00F00AFDBC760040FA46004010B5054C237833B9044B13B10448AFF300800123ED
:40004000237010BD4881FF1F00000000A02A0000084B10B51BB108490848AFF300800848036803B910BD074B002BFBD0BDE81040184700BF000000004C81FF1FA02A000074
:40008000C880FF1F0000000080B584B000AF03460A46FB711346BB800123FB73FB790021184601F0BFF9BB881B0A9BB2DBB2184601F092FABB88DBB2184601F08DFAFB79C4
:4000C0000121184601F00AFA002001F0C5FA0346FB7301F055FAFB7B18461037BD4680BD80B582B000AF0346FB710B46BB801346BB71FB790021184601F094F9BB881B0AB4
:400100009BB2DBB2184601F067FABB88DBB2184601F062FABB79184601F05EFA01F030FA052001F03FFC00BF0837BD4680BD00BF80B582B000AF78607B681B68002B13D113
:4001400064220021144802F07AF8144B1B785A1CD1B2124A11701A4611490F4802F078F80D4801F043FF12E07B681B68042B03D10C4801F03BFF0AE07B681B68092B03D123
:40018000094801F033FF02E0084801F02FFF00BF0837BD4680BD00BF8881FF1F6481FF1FA42A0000B82A0000D82A0000F02A000090B5E9B002AF62B601F036FE00F046FF86
:4001C000E14801F013FF0023C7F8943100215220FFF75AFF034687F8833104215220FFF753FF03461C0603215220FFF74DFF03461B041C4302215220FFF746FF03461B02AF
:400200001C4301215220FFF73FFF03462343C7F87C3108215220FFF737FF03461C0607215220FFF731FF03461B041C4306215220FFF72AFF03461B021C4305215220FFF7B8
:4002400023FF03462343C7F8783107F5867364220021184601F0F3FF97F8832107F58670D7F8783100931346D7F87C21B74901F0EFFF07F58673184601F0B8FE97F8833157
:40028000012B40F0B3810023C7F890319FE007F5867364220021184601F0D1FFD7F890319BB21A4692011A44520013445B009BB20A339BB219465220FFF7E6FE03461B02B7
:4002C0001CB2D7F890319BB21A4692011A44520013445B009BB20B339BB219465220FFF7D3FE03461BB223431BB2A7F87631D7F890319BB21A4692011A44520013445B00CD
:400300009BB203F587739BB219465220FFF7BCFE034687F87531B7F8762197F8753107F586708B4901F094FF3B464FF483720021184601F084FF0023C7F88C313DE0D7F846
:4003400090319BB21A4692011A44520013445B009AB2D7F88C319BB213449BB209339BB219465220FFF790FE034619463A46D7F88C3113440A461A70D7F890319BB21A4651
:4003800092011A44520013445B009AB2D7F88C319BB213449BB209339BB219465220FFF773FE03461A46D7F894311344C7F89431D7F88C310133C7F88C31D7F88C31B3F536
:4003C000837FBCD3D7F890310133C7F89031D7F87831604AA2FB03231A0AD7F890319A423FF655AFD7F894315B42C7F8943107F5867364220021184601F021FF07F58670C8
:40040000D7F87C31D7F89421534901F021FF07F58673184601F0EAFDD7F89421D7F87C319A4240F0D4804D4801F0E0FD0023C7F88831B5E0D7F88821464BA3FB02131B0A10
:400440004FF4837101FB03F3D31A002B40F0A380D7F888319BB20A339BB219465220FFF713FE03461B021CB2D7F888319BB20B339BB219465220FFF707FE03461BB22343D5
:400480001BB2A7F87231D7F888319BB209339BB219465220FFF7F8FD034687F87131D7F888319BB203F587739BB219465220FFF7EBFD034687F870313B464FF480720021A6
:4004C000184601F0BCFE0023C7F884311AE0D7F888319AB2D7F884319BB213449BB205339BB219465220FFF7CFFD034619463A46D7F8843113440A461A70D7F8843101336C
:40050000C7F88431D7F88431FF2BE0D94FF0FF33C7F8083101F052F90346002B38D1B7F87231FF2B1CD197F87131032B18D13A46B7F8721197F87131184601F051F9034648
:40054000C7F8083117E000BFFC2A00004C2B0000842B0000F32C23FAAC2B0000D02B00003A46B7F8721197F87131184601F038F90346C7F8083107F584731846FFF7D8FDB3
:40058000B7F87231B3F5807F02D10023A7F87231322001F007FAD7F888310133C7F88831D7F88821D7F878319A42FFF443AF002200215220FFF794FD144801F017FD4FF401
:4005C0007A7001F0EFF9002000F0CAFA0EE0002200215220FFF784FD0D4801F007FD4FF47A7001F0DFF9002000F0BAFA094801F0FDFC4FF47A7001F0D5F9002000F0B0FA65
:400600000023184607F5CE77BD4690BDE02B0000342C0000882C000080B582B000AF786039603A680021786801F009FE00BF0837BD4680BD80B584B000AFF860B9607A60C6
:400640007A68B968F86801F0EFFD00BF1037BD4680BD00BF80B584B000AFF860B9607A607A68B968F86801F0DFFD00BF1037BD4680BD00BF80B483B000AF0346FB71FEE7ED
:4006800080B487B000AF7860396000233B6100237B6127E07B699B007A6813441B68BB60BB68FB73BB6823F0FF03BB6014E03B695B003A6813441B781A46BB6813441946F8
:4006C0003B695B003A6813445B780B703B6901333B61FB7B013BFB73FB7B002BE7D17B6901337B617B691E2BD4D900BF1C37BD4680BC704780B582B000AF344B19221A8087
:40070000334B18221A70334B4FF49C721A80324B18221A70314B02221A704FF0402308221A702F4B03221A702E4B2F4A1278D2B21A702E4B08221A802D4B41F251221A80A5
:400740000023FB7019237B6014E0FB785B00DAB2284B1B78DBB203F00103DBB21343DBB203F00303FB704FF4F07001F021FD7B68013B7B607B68002B02D0FB78032BE4D146
:400780007B68002B02D10320FFF774FF1A4B4FF480721A80184B07221A70184B00221A70174B48221A70144B00221A70154B02221A70154A144B1B78DBB243F00303DBB260
:4007C000137000BF0837BD4680BD00BF804000408240004084400040864000400043004000420040A1460040080100492242004020420040254200400440004006400040F8
:400800000840004001400040A243004080B483B000AF0B4B1B78FB710A4AFB7903F00703DBB21370084AFB791B09DBB21370074B44221A7000BF0C37BD4680BC704700BF57
:40084000CF0100496E5800406F5800407658004080B586B000AF72B64A4A4A4B1B78DBB243F00403DBB213700023FB7513E0FA7D13465B0013445B00434A13443B613B69E8
:400880001A683B699B889BB219461046FFF7C4FEFB7D0133FB75FB7D092BE8D90023FB751CE0FA7D13469B0013445B00374A1344FB60FB681B68BB60FB685B687B60FB6868
:4008C0001A7A5B7A1B0213437B807B881A467968B868FFF7BFFEFB7D0133FB75FB7D012BDFD92B492B48FFF7CBFE2B4A2A4B1B78DBB243F00203DBB21370284A274B1B7823
:40090000DBB243F00203DBB21370254A244B1B78DBB243F04003DBB21370224A214B1B78DBB243F01003DBB213700A221E491F48FFF790FE0A221E491E48FFF78BFE0A22EE
:400940001D491E48FFF786FE1D4A1D4B1B78DBB243F00803DBB213701A4B61221A70FFF7C9FE184B81221A70174B01221A70FFF74DFF0E220A491548FFF75CFE00BF1837A6
:40098000BD4680BDE8460040D42C0000102D0000A02D0000242D00000350014013500140A0430040C243004034330000C051004040330000105100404C3300006051004052
:4009C000224300400048004004000840B043004080B500AF01F0FCFB03461B680C2B00D1FEE7FEE780B584B000AF7860104B1A687B6813441A460F4BD31AB3F5006F09DC37
:400A00000B4B1B68FB600A4B1A687B681344084A136007E001F0DCFB02460C2313604FF0FF33FB60FB6818461037BD4680BD00BFCC80FF1F088BFF1F80B586B000AF224B9E
:400A40007B61224B3B61204B7B6135E03B691B68FB603B695B68BB603B699B683B6000237B600CE0FB681A68BB681A60BB680433BB60FB680433FB607B6804337B607A6842
:400A80003B689A42EED13B69DB683B6000237B6008E0BB6800221A60BB680433BB607B6804337B607A683B689A42F2D13B6910333B617B69013B7B617B69002BC6D101F02D
:400AC0008DFBFFF775FBFEE7010000003834000080B582B000AF184B184A1A60184A184B1B6843F40073136000237B600FE07B68032B04D8134A7B6852F8233000E0124B08
:400B000012497A6841F822307B6801337B607B682F2BECD90E4B1B78DAB20E4B1A700E4B0A4A1A60FFF794FE0C4B00221A6000BF0837BD4680BD00BF0CED00E00004FA0523
:400B400014ED00E000000000D10900000080FF1FBC760040C480FF1F08ED00E0C080FF1F80B584B000AF0346FB71FB79022B03D11A4B00221A702AE0FB79184600F058F8A6
:400B80000346002B20D10023FB7316E0FA7B13461B069B1A1B0203F57F3303F57473F97BFA7991420CBF01220022D2B21146184600F08EF8FB7B0133FB73FB7B002BE5D018
:400BC000064B80221A7002E0044B00221A7000F0D9FE00BF1037BD4680BD00BFFA46004080B582B000AF104B1B78DBB203F0C003802B15D10023FB710B4B00221A70FB7972
:400C00001946022000F0BCF80346002B08D0FB791946022000F0B4F80346184600F006F800BF0837BD4680BDFA460040004700BF90B587B000AF0346FB71FB791946032083
:400C400000F09EF8034601331C02FB791946042000F096F803462344FB600023FB740023BB74FB791946032000F08AF8034601331B027B6111E07B691B78FB72FB7A002B9C
:400C800004D0FB7AFF2B01D00123FB74BA7CFB7A1344BB747B6901337B617A69FB689A42E9D3BB7C5B42BB74BC7CFB791946012000F066F803469C4202D1FB7C002B01D16F
:400CC000062300E0002318461C37BD4690BD00BF80B5C6B000AF3B1D18600A46FB1C1A703B1D1B68C7F81031D7F810311B0C87F80F31D7F810319BB21B0AA7F80C313B1D66
:400D00001B6823F0FF03C7F808310023A7F816310FE0B7F81631B7F81611D7F808210A44117807F10802D154B7F816310133A7F81631B7F81631FF2BEBD93B1D1B68DBB20D
:400D400007F10802D35CFA1C12789A4212D03B1D1B68DBB207F10802F91C0978D15407F10802B7F80C1197F80F31184600F038FD00F04EFE00BF07F58C77BD4680BD00BFA6
:400D800080B586B000AF03460A46FB711346BB710223FB740023FB60FB79013B0B2B00F2AF8001A252F823F0D90D0000F30D00000D0E0000230E00003D0E0000570E000094
:400DC000870E0000710E00009D0E0000B30E0000CD0E0000E70E0000BA7913461B069B1A1B0203F57F3303F570737B610123FB748CE0BA7913461B069B1A1B0203F57F339B
:400E000003F2C1337B610423FB747FE0BA7913461B069B1A1B0203F57F3303F2C5337B6174E0BA7913461B069B1A1B0203F57F3303F2C9337B610423FB7467E0BA79134653
:400E40001B069B1A1B0203F57F3303F574737B610123FB745AE0BA7913461B069B1A1B0203F57F3303F2D1337B610123FB744DE0BA7913461B069B1A1B0203F57F3303F271
:400E8000D6337B6142E0BA7913461B069B1A1B0203F57F3303F2D2337B6137E0BA7913461B069B1A1B0203F57F3303F575737B612CE0BA7913461B069B1A1B0203F57F33FB
:400EC00003F576737B610423FB741FE0BA7913461B069B1A1B0203F57F3303F577737B610123FB7412E0BA7913461B069B1A1B0203F57F3303F578737B610423FB7405E0D1
:400F0000002000F033FD00237B6100BFFB7C012B03D17B691B78DBB2FB60FB7C022B0BD17B691B78DBB2FB607B6901331B78DBB21B02FA681343FB60FB7C042B1BD17B6920
:400F40001B78DBB2FB607B6901331B78DBB21B02FA681343FB607B6902331B78DBB21B04FA681343FB607B6903331B78DBB21B06FA681343FB60FB6818461837BD4680BD65
:400F800080B500AF144B02221A70144B81221A70134B08221A70134B04221A70124B00221A70124B4FF400421A6007210F2000F085FD0F490F2000F059FD0E4B10221A7084
:400FC0000D4B00221A700D4B00221A700C4B00221A7000BF80BD00BFD6490040C8490040CA490040DB490040DC49004080E100E07D100000EC81FF1FF281FF1FFA81FF1FDC
:40100000F081FF1F80B582B000AF01F0D9F80346FB710C4A0B4B1B78DBB243F00403DBB21370094A084B1B78DBB243F00403DBB21370FB79184601F0C7F800BF0837BD46EB
:4010400080BD00BFA5430040B543004080B500AF084B1B78002B04D1FFF792FF054B01221A70FFF7CFFF044B4FF400421A6000BF80BD00BF6581FF1F00E100E080B582B0CD
:4010800000AFA74B1B78FB71A64B1B78DBB203F04003DBB2002B00F0A981FB7903F00103002B00F080819F4B1B78DBB2453B052B00F2758101A252F823F000BFD5100000AA
:4010C000FB1100009F1300009F130000D5100000E7120000FB7923F02003FB71FB7903F00A03DBB2082B46D18E4B1B78DBB2452B3AD18D4B1B78DBB2002B0FD08B4A8C4B1F
:401100001B681B78DBB21370854B04221A70894B01221A70834B46221A7044E1864B1B78DBB203F00203002B0FD0844B1B78DBB243F00A03DAB2814B1A707A4B60221A70CE
:401140007F4B4FF400421A602DE17E4A7D4B1B78DBB243F01003DBB213707B4B10221A706F4B04221A701EE16D4B00221A706D4B4A221A7017E1FB7903F00A03DBB20A2B67
:4011800037D16E4B1B78DBB263F05F03DAB26B4B1A70694B1B78DBB203F00203002B19D0604B1B78DBB203F00803002B01D0092300E00A23DAB2614B1B78DBB21343DAB2B5
:4011C0005E4B1A70574B60221A705D4B4FF400421A60E8E05B4A5B4B1B78DBB243F01003DBB21370584B10221A704D4B04221A70D9E0002000F0BAFBD5E0FB7903F0020398
:40120000002B42D14B4B1B78DAB2474B1B78DBB29A4214D2454A464B1B6846490978C9B20B441B78DBB213703D4B04221A70414B1B78DBB20133DAB23E4B1A70B3E03E4B54
:401240001B78DBB203F00203002B0FD03B4B1B78DBB243F00A03DAB2384B1A70314B60221A70374B4FF400421A609CE0354A354B1B78DBB243F01003DBB21370324B102224
:401280001A70274B04221A708DE02B4B1B78DBB203F00203002B0FD0284B1B78DBB263F06503DAB2254B1A701E4B60221A70244B4FF400421A6076E0224A224B1B78DBB277
:4012C00043F01003DBB213701F4B10221A70144B04221A70194B1B78DBB263F06F03DAB2164B1A705FE0194B1B68194A1278D2B213440E4A1278D2B21A70154B1B78DBB245
:401300000133DAB2124B1A70114B1B78DAB2114B1B78DBB29A421FD2014B10221A7042E0D7490040EC81FF1FF181FF1FD8490040FC81FF1FF081FF1FF881FF1FF281FF1FEA
:4013400080E100E0D6490040D9490040F481FF1FFA81FF1FF981FF1F2C4B1B78DBB203F00203002B0FD02A4B1B78DBB243F00903DAB2274B1A70274B60221A70264B4FF480
:4013800000421A600FE0254A244B1B78DBB243F01003DBB21370224B00221A7003E0002000F0E4FA00BFFB7903F02003002B28D0184B1B78DBB203F00803002B01D0012337
:4013C00000E00223DAB2124B1B78DBB21343DAB20F4B1A70114A114B1B78DBB223F01003DBB213700B4B10221A700AE0094B1B78DBB203F01003DBB2002B02D1054B102289
:401400001A7000BF0837BD4680BD00BFF881FF1FF281FF1FEC81FF1F80E100E0D6490040D749004080B485B000AF03460A46FB711346BB710223FB73234B1B78DBB2102B74
:401440003CD1224B1B78DBB203F00803002B33D11F4B4FF400421A60FB795B00FB71BB79002B07D0FB7943F00103FB71164B49221A7002E0144B45221A70164AFB791370D5
:40148000124B01221A7000BF134B1B78DBB203F00103002BF8D0104B1B78DBB203F00A03DBB20A2B05D1084B10221A700323FB7304E00023FB7301E00123FB73FB7B184689
:4014C0001437BD4680BC7047EC81FF1FD949004080E100E0D8490040D749004080B485B000AF03460A46FB711346BB710223FB731F4B1B78DBB203F00403002B31D0FB7963
:401500005B00FB71BB79002B07D0FB7943F00103FB71184B49221A7002E0164B45221A70154AFB791370124B12221A70134B04221A7000BF114B1B78DBB203F00103002B2F
:40154000F8D00E4B1B78DBB203F00A03DBB20A2B05D1084B10221A700323FB7301E00023FB73FB7B18461437BD4680BC704700BFD9490040EC81FF1FD8490040D7490040FB
:4015800080B483B000AF0223FB71104B1B78DBB203F00403002B12D00C4B10221A700C4B04221A700B4B10221A7000BF084B1B78DBB203F02103002BF8D00023FB71FB7997
:4015C00018460C37BD4680BC704700BFD9490040D7490040EC81FF1F80B485B000AF0346FB710223FB73184B1B78DBB203F00403002B22D0154AFB791370154B04221A70E8
:40160000144B46221A7000BF114B1B78DBB203F00103002BF8D00E4B1B78DBB203F00203002B05D10B4B60221A700023FB7304E0084B60221A700323FB73FB7B18461437D9
:40164000BD4680BC704700BFD9490040D8490040D7490040EC81FF1F80B485B000AF0346FB710023FB73164B1B78DBB203F00403002B1FD0134B1B78DBB2492B05D1124BEF
:4016800000221A700F4B4A221A7000BF0E4B1B78DBB203F00103002BF8D00C4B1B78FB73FB79002B03D0084B10221A7002E0054B60221A70FB7B18461437BD4680BC7047E0
:4016C000D9490040EC81FF1FD7490040D849004080B582B000AF00F015FA4FF0FF337B6000F024FB0346002B24D1012000F0ECFA0346072B1BD10221124800F027FA03462E
:40170000022B0DD100237B6002E0012000F06CF90D4B1B78DBB203F00203002BF5D006E0094B1B78DBB203F00203002BE3D000F031FB01E004237B607B6818460837BD4636
:4017400080BD00BF0082FF1F2247004080B582B000AF00F0D7F900F0E9FA0346002B23D100F040FB78607B68072B1AD102E0012000F03AF9104B1B78DBB203F00203002B4C
:40178000F5D00D4B1B78DBB203F00203002B08D0094B1B78DBB29B08DBB2002B01D100237B6000F0F7FA01E004237B607B6818460837BD4680BD00BF2247004080B582B0FF
:4017C00000AFFFF7C3FF78607B68002B02D1FFF77FFF78607B6818460837BD4680BD00BF80B584B000AF03463A60FB710B46BB80FB793F2B01D9102301E04FF48073FB818D
:40180000FB89B988F8793A6800F006F8B860BB6818461037BD4680BD80B586B000AFBA601A460346FB730B46BB811346FB8000237B61FB7B3F2B04D8FB7B042B01D90123B8
:401840007B6197F90F30002B01DA01237B61FB7B3F2B04D9FB7B412B01D901237B61FB7B3F2B06D8BB89B3F5807F0CD901237B6109E0BB89802B01D901237B61FB88102B40
:4018800001D001237B61BB68002B01D101237B617B69002B60D100F049FA0346002B59D1FB88B989F87BBA6800F07AF978617B69072B4CD102E0012000F096F8294B1B78D5
:4018C000DBB203F00203002BF5D0264B1B78DBB203F00203002B09D0224B1B78DBB29B08DBB2002B02D100237B6102E04FF0FF337B617B69002B2AD11B4B1A781A4B5B78C3
:40190000B989F87B00F094F978617B69072B1ED102E0012000F068F8124B1B78DBB203F00203002BF5D00F4B1B78DBB203F00203002B09D00B4B1B78DBB29B08DBB2002B98
:4019400002D100237B6102E04FF0FF337B6100F021FA01E004237B617B6918461837BD4680BD00BF224700400082FF1F80B483B000AF0346FB7101BE00BF0C37BD4680BCD3
:40198000704700BF80B400AF054A054B1B78DBB243F00103DBB2137000BFBD4680BC7047F646004080B582B000AF786008E00C4B1B68184600F0FCFB7B68A3F500437B6009
:4019C0007B68B3F5004FF2D8064B1B687A6802FB03F3184600F0ECFB00BF0837BD4680BDDC80FF1FD480FF1F80B582B000AF0346FB80FB88054A127802FB03F3184600F0C4
:401A0000D7FB00BF0837BD4680BD00BFD880FF1F80B582B000AF00F0D3FB0346FB7100BF00BF00BF00BF00BF00BF00BF00BF00BF00BF00BF00BF00BF00BF00BF00BF0A4A94
:401A4000094B1B889BB243F004039BB21380064B1B88BFF36F8FFB79184600F0B5FB00BF0837BD4680BD00BF0048004080B584B000AF03463960FB710F4B1B68FB60FB795B
:401A80001F2B02D90020FFF771FFFB7903F01F0310339B00FA6813441B68BB60FB7903F01F0310339B00FA6813443A681A60BB6818461037BD4680BD08ED00E080B582B03D
:401AC00000AF03460A46FB711346BB71BB79072B02D90020FFF74AFFFB791F2B02D90020FFF744FFFB7903F01F0303F1604303F56443BA795201D2B21A7000BF0837BD46C7
:401B000080BD00BF80B582B000AF00F059FB0346FB710C4A0B4B1B78DBB243F00803DBB21370094A084B1B78DBB243F00803DBB21370FB79184600F047FB00BF0837BD4667
:401B400080BD00BFA0430040B043004080B584B000AF78600B46FB700023FB7313E00120FFF742FF0C4B1B78DBB203F00103002BF5D0FB7B7A681344084A1278D2B21A7094
:401B8000FB7B0133FB73FA7BFB789A42EAD3FB7B18461037BD4680BD224700402047004080B487B000AFBA601A460346FB730B46BB811346FB8007237B611B4B1B78DBB2A9
:401BC00003F00203002B26D0184BB6221A70174BD5221A70154B02221A70134B1B78DBB203F00203002B13D1104AFB7B137000237B8208E00D497B8ABA6813441B780B7054
:401C00007B8A01337B827A8AFB889A42F2D304E009237B6101E004237B617B6918461C37BD4680BC704700BF224700402047004090B484B000AF0446084611461A462346FD
:401C4000FB710346BB800B46BB711346FB700723FB601B4B1B78DBB203F00203002B26D0184BB6221A70174BD8221A70154B05221A70134B1B78DBB203F00203002B13D1CE
:401C8000104AFB7913700F4ABB881B0A9BB2DBB213700C4BBA88D2B21A700A4ABB791370084AFB78137004E00923FB6001E00423FB60FB6818461037BD4690BC704700BF20
:401CC000224700402047004080B485B000AF0346FB710723FB60134B1B78DBB203F00203002B16D0104BB6221A700F4BE1221A700D4B0E221A700B4B1B78DBB203F0020397
:401D0000002B03D1084AFB79137004E00923FB6001E00423FB60FB6818461437BD4680BC704700BF224700402047004080B582B000AF04237B6000F043FA0346FB70124B26
:401D40001B78002B16D1104B01221A7000237B600E4B1B6803F00103002B0BD00B4A0B4B1B6823F00103136000BF00BF00BF084B01221A60FB78184600F026FA7B681846D8
:401D80000837BD4680BD00BF6881FF1F040008406C81FF1F80B582B000AF00F011FA0346FB710D4B00221A700C4B1B68012B0BD10B4A0B4B1B6843F00103136000BF00BF85
:401DC00000BF064B00221A60FB79184600F0FCF900BF0837BD4680BD6881FF1F6C81FF1F0400084080B483B000AF07237B600C4B1B78DBB203F00203002B09D0094BB6222A
:401E00001A70084BE0221A70064B0D221A7001E004237B607B6818460C37BD4680BC7047224700402047004080B500AF064B1B78002B04D100F00AF8034B01221A7000F0DD
:401E40003BF800BF80BD00BF7081FF1F80B500AF11490220FFF70AFE07210220FFF72EFE0E4B00221A700E4B72221A700D4B20221A700D490320FFF7F9FD07210320FFF755
:401E80001DFE0A4B06221A70094B47221A70094B02221A7000BF80BD312000007681FF1F8B6400408C640040092100002B6400403B6400408964004080B582B000AF00F0EB
:401EC0007FF90346FB71154A144B1B78DBB243F02003DBB21370124A114B1B78DBB243F01003DBB213700F4B04221A600E4A0E4B1B78DBB243F01003DBB213700B4B0822A2
:401F00001A60084B08221A6000F036F9FB79184600F05AF900BF0837BD4680BD9B6400409C64004000E100E09964004080E200E080B485B000AF0346FB71264B1B88FB81A2
:401F4000254B1B88BB81FA89BB899A4208D2FA89BB89013B9A420CBF01230023DBB209E0FA89BB89D31A40F2FF7293420CBF01230023DBB2002BE0D1BA89FB899A420AD109
:401F8000164B1B78DBB203F00403002B03D1144AFB79137019E0FB89B3F5006F01D30023FB81FB890F49FA79CA54FB890133FB81084AFB891380094B1B78DBB203F00203D5
:401FC000002B02D0084B08221A6000BF1437BD4680BC70477481FF1F7281FF1F696400404D6400400483FF1F00E200E080B584B000AF78600023FB810C4B1B78002B10D0E0
:4020000009E0FB897A6813441B781846FFF790FFFB890133FB81FB897A6813441B78002BEFD100BF1037BD4680BD00BF7081FF1F80B483B000AF0023FB712B4B1B78BB7127
:40204000BB797B71BB7903F01E03002B0CD097F9063003F01E035AB2244B1B785BB213435BB2DAB2214B1A70BB7903F02003002B30D01F4B1B787B711E4B1B889BB2194601
:402080001D4A7B7953540123FB71FB79002B21D01A4B1B78DBB2002B02D0194B01221A70144B1B889BB201339AB2124B1A80114B1B889BB2FF2B02D90E4B00221A800D4BE7
:4020C0001B889AB20F4B1B889BB29A4202D10B4B01221A70BB7903F02003002BADD100BF0C37BD4680BC70476C6400407681FF1F486400407A81FF1F0482FF1F7C81FF1F21
:402100007D81FF1F7881FF1F80B400AF18E0154B1B889BB2B3F5006F02D3124B00221A80114B104A128892B21146104A525CD2B21A700C4B1B889BB201339AB2094B1A8086
:40214000084B1B889AB20A4B1B889A4206D0094B1B78DBB203F00403002BD8D000BFBD4680BC70477281FF1F4D6400400483FF1F7481FF1F6964004080B400AF094A094B2C
:402180001B78DBB243F00203DBB21370064A064B1B78DBB243F00203DBB2137000BFBD4680BC7047A2430040B2430040000000000230800803D000BF01380046FCD1704750
:4021C000EFF3108072B6704780F31088704700BF014B1868704700BF4081FF1F0E4B70B51E460E4C0025E41AA410A54204D056F8253098470135F8E701F00CF9084B094CE9
:402200001E46E41AA4100025A54204D056F8253098470135F8E770BD2034000020340000203400002834000010B5431E0A44914204D011F8014B03F8014FF8E710BD0346DC
:402240000244934202D003F8011BFAE7704700000EB400B54FF402719CB0ADF814106FF00041049107914FF6FF711DAB02900690084853F8042BADF81610006802A90193D2
:4022800000F064F8029B00221A701CB05DF804EB03B070474081FF1F2DE9F0478E6882469E420C46914698463ED88A8912F4906F3AD02568096902236F1A656905EB450551
:4022C00095FBF3F57B1C43449D4238BF1D4653050FD5294600F040FB064698B13A462169FFF7A2FFA38923F4906343F08003A38113E02A4600F08EFB064670B92169504682
:4023000000F0DEFA0C23CAF80030A3894FF0FF3043F04003A381BDE8F08726613E44266046466561ED1BA560464528BF464649463246206800F0A8FAA36800209B1BA36073
:4023400023681E442660BDE8F08700002DE9F04F9DB003938B8980461C060D4616460DD50B695BB9402100F0F7FA2860286118B90C23C8F80030CDE040236B6100230993A3
:4023800020238DF82930DFF89CB130238DF82A3037463C4614F8013B1BB9B7EB060910D003E0252BF9D02746F3E74B46324629464046FFF771FF013000F0A780099B4B44D8
:4023C00009933B78002B00F0A08000234FF0FF3204930793059206938DF853301A930126052221784E4800F041FA671C049B38B14B4A3C46801A06FA00F018430490EFE791
:40240000D90644BF20228DF853201A0744BF2B228DF8532022782A2A03D0079A00210A200BE0039A111D12680391002A10DA524243F00200079204900BE027463B7801345C
:40244000303B092B03D800FB02320121F5E701B107923B782E2B1ED17B782A2B0AD1039B02371A1D1B680392002BB8BF4FF0FF33059310E0002319460593781C0A24074662
:402480003A780130303A092A03D804FB01210123F5E703B1059103223978224800F0E6F940B14023CBEB000003FA00F0049B013718430490397806221B487E1C8DF82810F7
:4024C00000F0D4F988B1194B33B9039B073323F007030833039314E003AB00932A46144B04A94046AFF3008007E003AB00932A460F4B04A9404600F093F8B0F1FF3F824630
:4025000003D0099B5344099342E7AB895B0601D4099801E04FF0FF301DB0BDE8F08F00BFE0330000E6330000EA33000000000000992200002DE9F04791461F460A698B68CB
:4025400006469342B8BF1346C9F8003091F843200C46DDF8208012B10133C9F800302368990642BFD9F800300233C9F80030256815F0060510D104F1190A07E00123524653
:4025800039463046C04701301AD00135E368D9F800209B1A9D42F1DB94F843302268003318BF012392060FD5E118302081F843005A1C94F845102244023382F8431003E058
:4025C0004FF0FF30BDE8F08704F1430239463046C0470130F4D02268D9F80050E36802F00602042A08BF5D1B2269A3680CBF25EAE57500259342C4BF9B1AED184FF0000980
:402600001A344D4509D00123224639463046C0470130D5D009F10109F3E70020BDE8F0872DE9F04317460A7E85B06E2A984606460C460C9B01F1430E00F0AE8011D8632A74
:4026400022D009D8002A00F0BB80582A40F0CA8081F84520834955E0642A1ED0692A1CD0C0E0732A00F0B08009D86F2A2ED0702A40F0B8800A6842F020020A603EE0752A98
:4026800024D0782A3AD0ADE01A6801F14205111D1960136884F84230A8E021681A6811F0800F02D0111D196008E011F0400F02F10401196002D0B2F9003000E01368002BAA
:4026C0003CDA2D225B4284F8432037E021681A6811F0800F02D0111D196007E011F0400F02F10401196001D0138800E01368227E5C496F2A14BF0A2208221BE078225A4920
:4027000084F845202268186812F0800F00F104051D6003D1550601D5038800E00368D00744BF42F0200222601BB9226822F0200222601022002084F8430001E049490A2257
:402740006568002DA56008DB206820F0040020602BB9002D7DD175460CE0002B79D07546B3FBF2F002FB1033CB5C05F8013D03460028F5D1082A0BD12368DA0708D52369DA
:4027800062689A42DEBF302305F8013C05F1FF35C5EB0E0323612EE008681A6810F0800F496903D0101D1860136808E010F0400F02F104001860136801D0198000E01960C2
:4027C00000232361754616E01A68111D1960156800216268284600F049F808B1401B6060636804E004F1420584F8422001232361002384F84330CDF800803B4603AA214620
:402800003046FFF797FE013002D14FF0FF3026E023692A4639463046C0470130F5D023689B0710D5002504F1190907E001234A4639463046C0470130E7D00135E368039A46
:402840009B1A9D42F2DBE068039B9842B8BF184605E00B7804F1420584F842308AE705B0BDE8F083F13300000234000010B5C9B202449042034605D01C7801308C42F8D166
:40288000184610BD002010BD884210B501EB020301D8421E0BE09842FBD28118D21AD34204D013F8014D01F8014DF8E710BD994204D011F8014B02F8014FF8E710BD000001
:4028C00038B50546002944D051F8043C0C1F002BB8BFE41800F0D4F81E4A1368114613B96360146030E0A3420DD92268A018834201BF18685B681218226063600C6023E055
:40290000A24203D813465A68002AF9D118681918A1420BD12168014458188242196013D110685268014419605A600DE002D90C232B6009E021686018824201BF106852682E
:402940000918216062605C602846BDE8384000F098B838BD8481FF1F70B5CD1C25F0030508350C2D38BF0C25002D064601DBA94202D90C23336046E000F082F8234B1C682C
:402980001A462146A1B10B685B1B0ED40B2B03D90B60CC18CD501EE08C420BBF63684B681360636018BF0C4615E00C464968E9E7174C23681BB9304600F052F82060294619
:4029C000304600F04DF8431C18D0C41C24F00304A0420DD12560304600F053F804F10B00231D20F00700C31A0ED05A42E25070BD211A304600F034F80130EBD10C2333606B
:402A0000304600F03EF8002070BD00BF8481FF1F8081FF1FF8B5074615460E4621B91146BDE8F840FFF798BF1AB9FFF749FF2846F8BD00F027F885420ED929463846FFF7D4
:402A40008BFF044650B131462A46FFF7EDFB31463846FFF735FF01E03046F8BD2046F8BD38B5064C0023054608462360FDF7BAFF431C02D1236803B12B6038BD048BFF1FAD
:402A80007047704751F8040C0028BEBF091851F8043CC01804387047C9000000003500000000000077726F746520726F773A20253032640D0A000000466C6173682077723B
:402AC0006974696E6720616C726561647920696E207573650D0A0000436F6D6D616E64206E6F742061636365707465640D0A00004661696C7572650D0A0000000D0A2D2D4E
:402B00002D2D2D2D2D2D2D2D2D2D2D2D2D2D2D2D2D2D0D0A262626262620424F4F544C4F41444552205354415254532026262626260D0A2D2D2D2D2D2D2D2D2D2D2D2D2D4C
:402B40002D2D2D2D2D2D2D0D0A0000004352433A202530386C580D0A426F6F746C6F61646572207374617475733A3078253032580D0A6170702073697A653A20256C640D4A
:402B80000A000000666972737420726F7720616464726573733A253034580D0A726F77204352433A20253032580D0A006E65774352433A2030782530386C580D0A417070E6
:402BC0004352433A2030782530386C580D0A00004352437320617265204F4B210D0A00000D0A2D2D2D2D2D2D2D2D2D2D2D2D2D2D2D2D2D2D2D2D0D0A262626262620424FDD
:402C00004F544C4F414445522050524F4752414D4D45442026262626260D0A2D2D2D2D2D2D2D2D2D2D2D2D2D2D2D2D2D2D2D2D0D0A0000000D0A2D2D2D2D2D2D2D2D2D2DC3
:402C40002D2D2D2D2D2D2D2D2D2D0D0A262626262620424F4F544C4F41444552204641494C45442121212026262626260D0A2D2D2D2D2D2D2D2D2D2D2D2D2D2D2D2D2D2D6B
:402C80002D2D0D0A000000000D0A2D2D2D2D2D2D2D2D2D2D2D2D2D2D2D2D2D2D2D2D0D0A262626262620424F4F544C4F4144455220454E44532026262626260D0A2D2D2D62
:402CC0002D2D2D2D2D2D2D2D2D2D2D2D2D2D2D2D2D0D0A00C84900401900005100401000205100404000F051004010000000014000100014014000048018014080030040ED
:402D00000140000A004C0140000200500140200060520040D83300000600001801405833000080000452004004640040026500400103014001050140010701406A08014034
:402D40004C090140680A0140530B01405F0C0140460D014001150140011701400F18014041190140071B0140054001400641014007420140044301400944014007450140DA
:402D8000024601400447014003480140024901400C4C01400A4D014005500140025101400980300331013404890F8A0F8B728C3888728938E602E204E201010A0351059F04
:402DC00008E70D140F4914441501162A17261C021E152021224A28E7299F2C802D80308031603260338034183507360737183E103F014026410442034401450C470E4811F6
:402E000049FF4AFF4BFF4C624DA04EF04F41500C580459045A045C105D015F016640670269106A306B106D106E106F1282038409850486D08C0C8D018E7194149A209B0184
:402E40009C109EACA010A108A240A4DCA502A622AD01B01FB108B304B503B6E0B920BA80BF05C043C101C6ECC70BC81CC9FFCAFFCBFFCEF0CF44D00CD401D604D804D90483
:402E8000DA04DB04DD10DF01E6C0EA40EB0200080182042008A009080E2210101280155219821B801D261E2220882204254026082744282029822F0A3010370438403B0437
:402EC0003D803E0540E041044380468847484E284F205080510852105504580159205A8862028202842085408840904891089285930498109A889B089D809E109F04A2809B
:402F0000A30AA4A4A504A620A710A880AB10AC01AE10C04DC2A7C4DCCA3BCC44CEDAD0FBD220D60FD801028006C8070509080C130D070EE41013126C19021B041F04200327
:402F4000220424CA26342A352D07300F3104330834F0350339203A223F154002460449FF4A074BFF4C404D204EF04F05500854015604580459045A045B045F01604061A8BC
:402F80006240632082028BC38D3C8E168FC190569110920994689518961399BC9B429E299F04A104A5E7A718A868A908AA15ADFFB01BB120B207B31FB460B598B758B820C2
:402FC000BA0ABB88BE10BF01C002C604C9FFCA07CBFFCC40CD20CEF0CF05D008D602D713D804D904DA04DB04DC11DD11DF01E040E1A8E240E32000080180028006400701D0
:403000000B400C040D0A0F0210981520184019101D2A200422042380240225502601272829822A012D202EC92F1030903110350636403720384039083A103B403D803F206E
:40304000400445204F025008510452805440564058015A085B905E0263806E046F0A7524760583409008912092C1932494029B019C049D049E059F24A240A460A516A6206F
:40308000A711A810AA20B002B308C09DC2B8C44ECAF8CCFCCE3ED024D68FD801000F010202E0040C070808040B0410EF111013011511166318421B041C211E101F0820E3A9
:4030C000220C2463280C29112AE32C083010310432603308340F351036803703388039A03A203F0554185604580459045B045C115D105F0184288503871489138B0C8C20BD
:403100009038910A9204931494019513960697049F08A012A220A420A618A818AA22AF15B23EB401B50FB710BA02BB20BE10BF40C025C106C50EC6B0C70CC819C9FFCAFFC0
:40314000CBFFCEF0CF44D00CD804D904DA04DC11DD01DF01E6C0EA40EB020080021004020504060409020A200C200E410F2010041280130814801601172419101A601D40A8
:403180001E801F1821102240230824A42680270129802B012C04300C31023282354036223708388839203A803D283F024110480849804B04500452105C0266A0674081102E
:4031C000874088808B1092019404A804B201C075C2FCC4FECA28CCFBCEE6D004D20CD680D8B0E404E804EA01E601820183018602A601AE02B101B402B601BE50D418D604AA
:40320000D804D904DB04DF01000203200450052406400E2B1020118015021601172818051C521E0422022540261427542D202E812F1035443602371039023C403E2A400248
:403240004340452246C0470448014B404C204D204F40572058025E0460856C106D50762B77288080942095529904A122A201A804A920B001B304C0FCC2E0C4F5CAF0CCF03E
:40328000CEF1D0E0D230D641D80D89018B1095029720B140B210EA013240330835803704CCF0870896809D809F04A708E6403E10818096809D809F04CE20E220830496903B
:4032C0009F04E28002081101141056205D40C002C40CD402D6048140910195409810AA20B208EE01910198108A0291019810E40482409690E680AA10EA8010401320148080
:40330000620278107D0191019810A202C40ED802DE03101078407C80881098C0AB20C408DC01DE04E20400030C030E0210011C0100FF03C0300040003000300000000000D6
:403340008000008B8B00800000000000010004030300030000000000001063000208000073180C001F1C60E1000000047F4000005C1C23E203FF00000160000004240000CE
:403380000CE70018080000632C600F1F10004C8000800A280000100064030500020CE00009FFFFFF62A0F0410C000000000002120404040400000001000000000000400239
:4033C0000010301000101012000000000000000000000000000000001030000070004300232D302B2000686C4C00656667454647003031323334353637383941424344450D
:403400004600303132333435363738396162636465660000F8B500BFF8BC08BC9E46704751000000D10A0000F8B500BFF8BC08BC9E4670472D00000048340000C880FF1FAB
:4034400080000000C009000000000000088BFF1F00366E01C05D0000180000000000E02E00000000000000000000000000000000000000000000000000000000000000006A
:40348000DE330000000000000000000000000000000000000000000000000000000000000000000000000000000000000000000000000000000000000000000000000000FB
:4034C000E080FF1F0000000000000000000000000000000000000000000000000000000000000000000000000000000000000000000000000000000000000000000000004E
:40350000000000000000000000000000000000000000000000000000000000000000000000000000000000000000000000000000000000000000000000000000000000008B
:40354000000000000000000000000000000000000000000000000000000000000000000000000000000000000000000000000000000000000000000000000000000000004B
:40358000000000000000000000000000000000000000000000000000000000000000000000000000000000000000000000000000000000000000000000000000000000000B
:4035C00000000000000000000000000000000000000000000000000000000000000000000000000000000000000000000000000000000000000000000000000000000000CB
:020000040003F7
:40FFC0000000000000000000000000000000000000000000010000000000000000000000000000000000000000000000000000000000000000000000000000000000000000
:0200000490006A
:040000000000400DAF
:0200000490105A
:04000000BC90ACAF55
:0200000490303A
:020000003601C7
:0200000490402A
:4000000000000000000000000000000000000000000000000000000000000000000000000000000000000000000000000000000000000000000000000000000000000000C0
:400040000000000000000000000000000000000000000000000000000000000000000000000000000000000000000000000000000000000000000000000000000000000080
:400080000000000000000000000000000000000000000000000000000000000000000000000000000000000000000000000000000000000000000000000000000000000040
:4000C0000000000000000000000000000000000000000000000000000000000000000000000000000000000000000000000000000000000000000000000000000000000000
:0200000490501A
:0C00000000012E12306900012E25666AF6
:00000001FF