:4000000050A0FF1F11000000F5130000F5130000034A08B51268034B1A6001F0F3F900BFFA460040BC76004010B5054C237833B9044B13B10448AFF300800123237010BD15
:400040003881FF1F00000000F82E0000084B10B51BB108490848AFF300800848036803B910BD074B002BFBD0BDE81040184700BF000000003C81FF1FF82E0000C880FF1FD6
:400080000000000070B5154CC2B0154802F0D4FC94E80A000131CE18124D0A4621600096114902A8A66001F031FE284601F068FA0E4801F065FA01F055FD02A801F060FAFC
:4000C000284601F05DFA01F04DFD094A002323736373A373137042B070BD00BF5481FF1F9C82FF1F642F0000142F0000842F0000D882FF1F70B5154CC2B0154802F09CFCA7
:400100006168226801318E18124D0B4661600096114902A8A66001F0F9FD284601F030FA0E4801F02DFA01F01DFD02A801F028FA284601F025FA01F015FD094A0023E37390
:4001400023746374137042B070BD00BF5481FF1FC482FF1F642F0000142F0000A42F00008C83FF1F70B5144CC2B0144802F064FC6169A3690131CE18114D0A4661610096EA
:40018000104902A8E66101F0C1FD284601F0F8F90D4801F0F5F901F0E5FC02A801F0F0F9284601F0EDF901F0DDFC084B00221A705A709A7042B070BD5481FF1F3888FF1F9A
:4001C000642F0000C42F0000383000007483FF1F70B5154CC2B0154802F02EFC216A636A0131CE18124D0A4621620096114902A8A66201F08BFD284601F0C2F90E4801F06D
:40020000BFF901F0AFFC02A801F0BAF9284601F0B7F901F0A7FC094A002323736373A373137042B070BD00BF5481FF1F1088FF1F642F00005C300000C0300000D882FF1FF0
:4002400070B5144CC2B0144802F0F6FBA169626901318E18114D0B46A1610096104902A8E66101F053FD284601F08AF90D4801F087F901F077FC02A801F082F9284601F048
:400280007FF901F06FFC084B00221A705A709A7042B070BD5481FF1F2488FF1F642F0000C42F0000E43000007083FF1F70B5154CC2B0154802F0C0FB616A226A01318E18DF
:4002C000124D0B4661620096114902A8A66201F01DFD284601F054F90E4801F051F901F041FC02A801F04CF9284601F049F901F039FC094A0023E37323746374137042B01D
:4003000070BD00BF5481FF1F7883FF1F642F00005C300000083100008C83FF1F10B5054C204602F089FB01F01DFC2046BDE8104002F05ABB5C83FF1F10B5114CC0B01148FA
:4003400002F07AFB94F82D2001239A4284F82C3011D0184684F82D3000F0C8FE94F82C200949684601F0D2FC01F0FCFB684601F007F901F0F7FB034802F036FB40B010BD6B
:400380005481FF1F8882FF1F2C31000030B5144CA1B0144802F050FB236B134D01331A4612496846236301F0B1FC284601F0E8F80F4801F0E5F801F0D5FB684601F0E0F84B
:4003C000284601F0DDF801F0CDFB626B0021094801F093FC01F0C6FB0023636321B030BD5481FF1FB082FF1F642F000058310000743100001084FF1F0138C0B2052819D879
:40040000F0B5604B6049614A1B5CC3B00D5C175C8BB15F4802F0E6FA5E4C002861D0A37B33B9002D00F0A68094F84430594E23B143B0F0BD7047574CF1E7574802F0D2FAA3
:400440000028F5D1737B002B79D0544802F0CCFA002D00F09580337B514A591C3020C9B2D05431732FB14E4A31204B1C5054D9B221734C4B1B7802338B42D9DAA06CE36C28
:400480000130474EC718002501F1010E02460097A064755402A8444984F80CE0276501F035FC424801F06CF8414801F069F801F059FB304601F064F801F054FB3D4801F000
:4004C0005FF802A801F05CF801F04CFB334802F0B3FA0123304825736573A37302F084FAA6E7A16BE36B013101EB030E324E0A46CDF800E0A163C4F840E049214FF0310E7F
:4005000086F801E0B070317002A82C4901F0FEFB264801F035F82A4801F032F801F022FB304601F02DF8234801F02AF802A801F027F801F017FB164802F056FA6FE701238A
:400540001648737302F050FA154A502331205721137003235070917033737DB130210423D17033730521002F3FF462AF31202173D0545DE7002F7FF457AF59E70421F2E7F7
:40058000317B6FE70C2F0000FC2E0000042F00003888FF1F5481FF1F1088FF1F9C82FF1FD882FF1FCC80FF1F1C320000DC3100006C320000802F00007483FF1F903100007E
:4005C0000032000010B54FF0800080F3118800BF00BF114C23780133DBB2237063780133DBB2637001F02AFAFFF706FF6378013BDBB263702378012B08D02378013BDBB276
:4006000023704FF0000080F3118810BD6368002BF3D002F0B2F8F0E7F881FF1F0138C0B2052818D8F0B5604AC3B01318197C155C1F7A89B15D4802F0D5F95D4C002861D057
:40064000637C33B9002D00F0A68094F85430584E23B143B0F0BD7047554CF1E7554802F0C1F90028F5D1337C002B79D0524802F0BBF9002D00F09580F37B504A591C302079
:40068000C9B2D054F1732FB14C4A31204B1C5054D9B2E1734A4B5B7802338B42D9DAE06CA26C0130454E8718002501F1010E03460097E064755402A8424984F80FE027656D
:4006C00001F024FB404800F05BFF404800F058FF01F048FA304600F053FF01F043FA3C4800F04EFF01F03EFA02A800F049FF324802F0A2F901232F48E5732574637402F008
:4007000073F9A6E7E16BA26B013101EB020E314E0B46CDF800E0E163C4F840E049214FF0320E86F801E0B070317002A82A4901F0EDFA254800F024FF284800F021FF01F0B5
:4007400011FA304600F01CFF214800F019FF02A800F016FF01F006FA144802F045F96FE701231548337402F03FF9144A5023322057211370032350709170F3737DB13021BE
:400780000423D170F3730521002F3FF462AF3120E173D0545DE7002F7FF457AF59E70421F2E7F17B6FE700BFFC2E00002488FF1F5481FF1F7883FF1FC482FF1F8C83FF1FCD
:4007C000CC80FF1F1C320000DC31000098320000802F00007083FF1F903100007C32000010B54FF0800080F3118800BF00BF114C23780133DBB2237063780133DBB2637072
:4008000001F024F9FFF70AFF6378013BDBB263702378012B08D02378013BDBB223704FF0000080F3118810BD6368002BF3D001F0A4FFF0E7F881FF1FF0B50B22C3B0B74986
:40084000054601F025FA48B9B54D2B7823B1B54EB37B002B40F0998043B0F0BD0B22B249284601F015FA0446002838D1AF4D2B78002BF1D0AB4E737C002BEDD0284601F093
:4008800069FA411C89B2284600F0F8FFF16DB26D01318F180B46F1650097A54902A8376601F034FAA34800F06BFE284600F068FE01F058F9A04800F063FE02A800F060FE85
:4008C00001F050F99D4802F0B7F89D48F47334742C70747400F054FE01F044F9BCE70C229849284601F0D4F9044650B30C229649284601F0CDF90446002878D1934D2B78B5
:40090000002BA9D0284601F025FA411C89B2284600F0B4FF8E4800F033FE284600F030FE01F020F9844800F02BFE8A4802F084F883482C706C70AC7000F022FE01F012F9CF
:400940008AE7854D2B78002B86D0284601F002FA411C89B2284600F091FF804802F06CF87F4800F00DFE284600F00AFE01F0FAF8714800F005FE794802F05EF870482C70FD
:400980006C70AC7000F0FCFD66E70446284601F0E1F9411C89B2284600F070FFB16DF36D0131CF180A46B1650097614902A8376601F0ACF96B4800F0E3FD284600F0E0FD48
:4009C00001F0D0F85C4800F0DBFD02A800F0D8FD01F0C8F8644802F02FF85948347374732C70B47300F0CCFD01F0BCF834E70B225E49284601F04CF9D0B10C225C49284648
:400A000001F046F9034628BB464C94F8650084F8643040B1574884F8653000F0B1FD01F0A1F894F8640001F019F801F09BF813E73C4C012394F8650084F864309842F2D045
:400A40004D4884F8653000F09BFD01F08BF894F86400E8E70B224949284601F019F9A8B9304C012394F8670084F86630984208D0434884F8673000F083FD01F073F894F837
:400A8000660000F0F7FF01F06DF8E5E60C223D49284601F0FDF8034680B9224C94F8670084F866300028ECD0374884F8673000F067FD01F057F894F86600E2E70B2233495E
:400AC000284601F0E5F880B9164C012294F8683084F8442093423FF4BFAE2D4884F8682000F04EFD01F03EF8B6E60D222949284601F0CEF8002851D10A4B002293F8681082
:400B000083F8442000293FF4A7AE234883F8682000F036FD01F026F89EE600BFA8320000D882FF1F5481FF1F5C3300008C83FF1FB432000068330000802F00007883FF1FF8
:400B40003C3300008C330000C43300007083FF1FD43300002488FF1F7483FF1F3888FF1F9C330000183300001088FF1FFC330000183400002834000008340000383400002C
:400B8000443400005434000064340000743400008034000090340000A03400000B226A49284601F075F880B9684B012293F8691083F8542091423FF44FAE654883F8692047
:400BC00000F0DEFC00F0CEFF46E60D226149284601F05EF8024678B95C4B93F8691083F8540000293FF438AE5B4883F8692000F0C7FC00F0B7FF2FE60D225849284601F03B
:400C000047F818B30D225649284601F041F800283BD007225349284601F03AF80446002852D008225049284601F032F8002800F0858028460A224D4901F02AF8002876D00D
:400C40004B4800F09DFC00F08DFF05E64349284600F06AFA044600F085FF204600F0E8FF444C207000F07EFF2378A2789A423FF4F3AD1A46404902A8A37001F047F802A837
:400C800000F07EFC00F06EFFE6E53549284600F04BFA044600F066FF204600F0C9FF354C607000F05FFF6378E2789A423FF4D4AD1A46324902A8E37001F028F802A800F0DD
:400CC0005FFC00F04FFFC7E52D4801F08DFE2549284600F029FA054600F044FF21460A22284601F0DFF80546184C00F03BFF94F82D20EBB29A4284F82C3013D0062B84F8F5
:400D00002D3004D9012384F82C3084F82D3094F82C201C4902A800F0F9FF02A800F030FC00F020FF94F82C0000F0E0F994E50D21154800F0A3FD00F015FF8DE500F012FF74
:400D400000F0E8FE88E500BFB03400005481FF1FBC340000CC340000DC340000EC3400001035000034350000503500005C35000078350000CC80FF1FFC340000203500001A
:400D80008882FF1F3C35000068350000F8B54FF0800080F3118800BF00BF214C214823780133DBB2237063780133DBB2637001F01BFE00F025FD0546E0B11B4A1B49536B54
:400DC000581C5063CD546378154A013BDBB263702378012B08D02378013BDBB223704FF0000080F31188F8BD5368002BF3D001F0C4FCF0E70C4E0D4F736B38465A1CFD5435
:400E00007263FFF719FD074801F016FE726B2946384600F072FF00F0A5FE7563D3E700BFF881FF1FB082FF1F5481FF1F1084FF1F08B5074800F0C0FE064B04221A600648E9
:400E400000F0D0FEBDE80840044800F01FBE00BF8D0D000000E100E0C5050000E107000008B5642219491A4801F0B1FD4FF47A721849194801F0ABFD64221849184801F07A
:400E8000A6FD64221749184801F0A1FD4FF4FA721649174801F09BFD4FF4FA721549164801F095FD4FF4FA721449154801F08FFD4FF4FA721349144801F089FDBDE8084025
:400EC00064221249124801F082BD00BF8D030000B082FF1F390300008882FF1F850000009C82FF1FF5000000C482FF1F650100003888FF1FD10100001088FF1F410200005B
:400F00002488FF1FAD0200007883FF1F1D0300005C83FF1F38B562B600210C4603201D4D00F000FE00F01EFE01F090FF00F096F800F03CF8204685F82C4085F82D4000F0B8
:400F4000D5F8FFF775FF00F00DFEFFF789FF00F009FE1149114A124B12480C7014701C70047000F0FFFD104800F00AFB00F0FAFD00F0F8F800F0F6FD0123184685F82C3020
:400F800085F82D3000F0B2F8FFF7C8F901F088FF204638BD5481FF1F7483FF1F8C83FF1F7083FF1FD882FF1F8C35000008B500F087FABDE8084000F0C3BB00BF01F0FEBBC2
:400FC00001F010BC094A0346106858B1084903448B4201D813607047064B0C221A604FF0FF307047044908461160EFE7C081FF1F509CFF1F4C98FF1F5098FF1F014B9868F2
:40100000704700BF10E000E0024B586800F08060704700BF00ED00E010B50F4C23780133DBB2237001F05AFC4FF0800080F3118800BF00BF2378012B08D02378013BDBB2A8
:4010400023704FF0000080F3118810BD6368002BF3D001F092FBF0E7F881FF1FF0B587B04FF0800080F3118800BF00BF184E194973780E200133DBB2737000F079FD1649B1
:401080000F2000F075FD4CF24F31144B144AE024144D5960072082F82340C021002701AC9F60186082F823100FCD0FC42B6801A8236001F0A7FB7378013BDBB273707378A6
:4010C0001BB94FF0000080F3118807B0F0BD00BFF881FF1F7D2600001910000010E000E000ED00E0E0350000FEE700BF062805D8DFE800F0040D101316070A00002000F0C8
:40110000DDBC022000F0DABC042000F0D7BC062000F0D4BC052000F0D1BC032000F0CEBC012000F0CBBC00BF2DE9F041804608460F4600F00FFE90B10646444607E0284672
:4011400000F008FE2946421C204600F0BBFD2046394600F007FE044685190028EFD14046BDE8F081084B1B78082B09D0202B04D003B17047054800F003BA054800F000BAEB
:40118000044800F0FDB900BFC080FF1FF83500007836000038360000F8B572B641F25121744B754E754A764861251D70754C33231825754F33801570062603804FF04022AB
:4011C0000820724B3D70267010701B78704E7148DBB284F8A13352276F4B4FF4E26437700480A2F820121C78782004F001041E4600F00EFD01E0032C0CD03378782003F007
:40120000010343EA440400F003FD013D04F00304F1D1FEE7614E624A354662484FF4807717800023604907271770037048200870DFF8BCE15D48022713708EF8003007704E
:401240001C4691F89A33C12743F0030381F89A3380F8FF7792F8E43643F0040382F8E43604EB4403AA8856F813000134002100F044FD072C05F10605F2D180224C494D48DC
:4012800000F015FD4C4E4D4F002556F8043F13F0FF0E23F0FF0413D005F110530EF1FF3E03F12D005FFA8EFE70442C3340005B001A785978023383421155F9D10135754472
:4012C000BE42E2D13E493F4A0B783F4D43F002030B701378A1F5863143F0020313702A78413942F040022A700A78384E42F01002374B0A70374C03CB3060716093E8070030
:4013000003C4354F22800C3303CB1E363860796093E8070003C60C333280983C93E8070003C40C33228003CB2834C6F82A00C6F82E1093E8070003C4284922800B78284857
:4013400043F008030124274A0B700470137801F5AA51DBB2244A03F007000C311B09234C08704427137095E80F0086F84E7707C42380F8BD00480040804000408240004087
:401380008440004000430040864000400F010049004200402242004025420040B836000004400040064000400840004001400040C005004800140140FCFFFF47540000483A
:4013C0000350014013500140A04300400251004040060048C0510040125100402243004004000840CF0100496F580040B04300400940004008B500F01FFC03680C2B00D076
:40140000FEE7FEE780B5134FF7B1134E002556F80C0C56F8084C56F8102C03463CB1043A52F8041F43F8041B191AA142F8D156F8040C1A4620B142F8045BD11A8842FAD1C9
:40144000013F06F11006E2D100F0FCFBFFF762FDFEE700BF01000000843800000E4B0F4A0F491A600B680F4A43F400730E480B600023032B94BF50F823100C490133302B11
:4014800042F8041FF5D10A4B0A4918780A4A0B4B08701A60FFF780BE0CED00E00004FA0514ED00E0FC7FFF1F00000000F5130000BC760040C080FF1F0080FF1F08ED00E060
:4014C000F8B5234D2C780CBB2249204600F05CFB2046072100F066FB1F4B20492022722008701A701E4901206C7000F04DFB0721012000F057FB1B4E1B481C4A06274724D3
:40150000022101233770047011702B7000F088FB0546174C17492378174A43F0200323700B78012043F010030B70106014F8FD3C124843F01003022104F8FD3C01601160E3
:4015400000F0C8FA2846BDE8F84000F06DBB00BFC881FF1F311600008765004084650040D1160000276500403765004087640040946500409765004000E100E080E200E062
:401580002DE9F04F254D2B78002B3DD080460078002839D040F2FF37DFF88890DFF888C0DFF888B04FF0000E4FF0020A69892A890C4692B2561E8B1A761ADB1BB6FA86F6F7
:4015C000B3FA83F376095B098A4288BF3346002BEDD18A421AD0B1F5806F28BF002409F804009CF800303ABF013189B201219B07698148BFCBF800A00EF1010E1FFA8EFE20
:4016000018F80E000028D1D1BDE8F08F9CF800305A07E0D4024B1870EEE700BFC881FF1F476400404C8CFF1F6764004000E200E02DE9F0431E481F491F4F204A204E214C7D
:40164000DFF888C0204D4FF0010E0378DBB213F01E0905D091F8008049EA080881F800809B0601D4BDE8F08397F8008013885FFA88F89BB206F8038023784FF000080BB1C7
:401680008CF800E0138801339BB2138013889BB2B3F5806F28BFA2F80080B2F800802B881FFA88F89BB29845CFD184F800E0CCE767650040C981FF1F44650040CC81FF1F80
:4016C0004C88FF1FCE81FF1FCA81FF1FCF81FF1F164A1748138801889BB2994224D0F0B514490B7803F0040303F0FF06DBB91746114D124C02E00B785B0714D413889BB2FA
:40170000B3F5806F28BF3E8013889BB2EB5CDBB223701388B0F800E001339BB2138013889BB29E45E7D1F0BD704700BFD081FF1FD281FF1F676400404C8CFF1F4764004075
:40174000F8B5234C25780DBB2249022000F01CFA0221084600F026FA1F4B20492022722008701A701E490320657000F00DFA0721032000F017FA1B4E1B481C4A06274725BE
:4017800002210123377005701170237000F048FA0546174C17492378174A43F0200323700B78042043F010030B70106094F80431124843F01003082184F8043101601160A8
:4017C00000F098F92846BDE8F84000F02DBA00BFD681FF1F2D1900008564004082640040CD190000266400403664004086650040926400409564004000E100E080E200E056
:4018000010B4184B184A0421196051889388907989B210B99BB2994213D04B1C9BB2B3F5806F124828BF0023405C538093790E4CC0B20BB10023A3710D4B04221A6010BCC8
:4018400070470C4B1B78DBB203F0200202F0FF00002AF1D0084A13F01E0F107818BF0020EAE700BF80E100E0D681FF1F4C90FF1F00E100E065640040456400402DE9F04F00
:40188000254C2378002B3ED000293CD040F2FF3601F1FF3C1FFA8CFCDFF88490DFF88480DFF884B08444471E4FF0080A17F8015F61892289084692B202F1FF3E8B1AC1EB13
:4018C0000E0E9B1BBEFA8EFEB3FA83F34FEA5E1E5B098A4288BF7346002BEAD18A4214D0B1F5806F28BF002009F8005098F800303ABF013189B201219B07618148BFCBF8B1
:4019000000A0BC45D2D1BDE8F08F98F800305A07E6D4024B1D70F4E7D681FF1F466500404C94FF1F6665004000E200E02DE9F0431E481F491F4F204A204E214CDFF888C09B
:40194000204D4FF0010E0378DBB213F01E0905D091F8008049EA080881F800809B0601D4BDE8F08397F8008013885FFA88F89BB206F8038023784FF000080BB18CF800E07F
:40198000138801339BB2138013889BB2B3F5806F28BFA2F80080B2F800802B881FFA88F89BB29845CFD184F800E0CCE765640040D781FF1F45640040DA81FF1F4C90FF1FCE
:4019C000DC81FF1FD881FF1FDD81FF1F164A1748138801889BB2994224D0F0B514490B7803F0040303F0FF06DBB91746114D124C02E00B785B0714D413889BB2B3F5806F28
:401A000028BF3E8013889BB2EB5CDBB223701388B0F800E001339BB2138013889BB29E45E7D1F0BD704700BFDE81FF1FE081FF1F666500404C94FF1F46650040024B187808
:401A4000C0F34200704700BF82450040024B1878C0F30210704700BF86450040044A8001137800F0400003F0BF0318431070704720510040044A00F00100137803F0FE0391
:401A800018431070704700BF5051004070B4074B074E1D6807494FF480632024064A3360A8660C7070BC1360704700BF08ED00E080E100E00AE400E000E100E0044A000174
:401AC000137800F0700003F08F03184310707047005100400549064A0B7843F002030B70137843F002031370704700BFA2430040B24300400549064A0B7843F001030B7096
:401B0000137843F001031370704700BFA2430040B2430040024A137843F0010313707047F64600400E4B00F003001A78490102F0FC02104318701A7801F0600142F0800241
:401B40001A701A7802F07F021A701A7802F09F02114319701A7842F010021A70704700BF83430040014B01221A70704784430040044B00F00F021B6853F8220043F822100A
:401B8000704700BF08ED00E0054B00F01F001A6800F1100352F8230042F82310704700BF08ED00E000F01F0000F16040490100F56440C9B20170704770B4064B064E1D685C
:401BC000064910234024064A336028650C7070BC1360704708ED00E080E100E004E400E000E100E070B4064B064E1D68064940230024064A3360A8650C7070BC1360704738
:401C000008ED00E080E100E006E400E000E100E00230800803D000BF01380046FCD17047EFF3108072B6704780F31088704700BF0A22002100F036B9014B1868704700BF74
:401C40003081FF1F0E4B70B51E460E4C0025E41AA410A54204D056F8253098470135F8E701F0F6FD084B094C1E46E41AA4100025A54204D056F8253098470135F8E770BDEA
:401C80005C3800005C3800005C3800006438000010B501390244904207D010F8013B11F8014FA342F7D0181B10BD002010BD10B5431E0A44914204D011F8014B03F8014FED
:401CC000F8E710BD884210B501EB020301D8421E0BE09842FBD28118D21AD34204D013F8014D01F8014DF8E710BD994204D011F8014B02F8014FF8E710BD034602449342D5
:401D000002D003F8011BFAE7704700000EB400B54FF402719CB0ADF814106FF00041049107914FF6FF711DAB02900690084853F8042BADF81610006802A9019300F0C0F989
:401D4000029B00221A701CB05DF804EB03B070473081FF1F034613F8012B002AFBD1181A01387047F0B5037863B90B78002B18BF0020F0BD15F8012F62B114F8017F304659
:401D80009742F7D00346461C007810B14D1E5C1EF0E7F0BD1846F0BD2DE9F0470F4680463F48D0F800903D4615F8014B09EB0400407800F0080000F0FF0608B12F46F2E764
:401DC0002D2C03D1BD1C7C78012603E02B2C04BF7C78BD1C13B1102B0AD15BE0302C57D1287800F0DF0058284DD16C7810230235002E14BF4FF0004C6FF0004CBCFBF3FA29
:401E00000027384603FB1ACC09EB040E9EF801E01EF0040F01D0303C0BE01EF0030E1BD0BEF1010F0CBF4FF0370E4FF0570ECEEB0404A34210DDB7F1FF3F0AD0504506D8D1
:401E400001D1644503DC03FB0040012701E04FF0FF3715F8014BD7E77B1C0CD1002E4FF0220314BF4FF000406FF00040C8F800302AB9BDE8F08706B1404272B107B1691EB4
:401E80001160BDE8F0873024002BB1D10823AFE70A23ADE7302CA3D0AAE7BDE8F08700BF3481FF1F13460A46014602480068FFF773BF00BF3081FF1F38B50546002944D037
:401EC00051F8043C0C1F002BB8BFE418FFF776F81E4A1368114613B96360146030E0A3420DD92268A018834201BF18685B681218226063600C6023E0A24203D813465A6852
:401F0000002AF9D118681918A1420BD12168014458188242196013D110685268014419605A600DE002D90C232B6009E021686018824201BF106852680918216062605C60F2
:401F40002846BDE83840FFF73BB838BDE881FF1F70B5CD1C25F0030508350C2D38BF0C25002D064601DBA94202D90C23336046E0FFF724F8234B1C681A462146A1B10B6815
:401F80005B1B0ED40B2B03D90B60CC18CD501EE08C420BBF63684B681360636018BF0C4615E00C464968E9E7174C23681BB9304600F016FB20602946304600F011FB431C17
:401FC00018D0C41C24F00304A0420DD125603046FEF7F6FF04F10B00231D20F00700C31A0ED05A42E25070BD211A304600F0F8FA0130EBD10C2333603046FEF7E1FF00209F
:4020000070BD00BFE881FF1FE481FF1F2DE9F0478E6882469E420C46914698463ED88A8912F4906F3AD02568096902236F1A656905EB450595FBF3F57B1C43449D4238BF5F
:402040001D4653050FD52946FFF782FF064698B13A462169FFF72BFEA38923F4906343F08003A38113E02A4600F0D8FA064670B921695046FFF720FF0C23CAF80030A389F1
:402080004FF0FF3043F04003A381BDE8F08726613E44266046466561ED1BA560464528BF4646494632462068FFF70CFEA36800209B1BA36023681E442660BDE8F08700000E
:4020C0002DE9F04F9DB003938B8980461C060D4616460DD50B695BB94021FFF739FF2860286118B90C23C8F80030CDE040236B610023099320238DF82930DFF89CB13023D0
:402100008DF82A3037463C4614F8013B1BB9B7EB060910D003E0252BF9D02746F3E74B46324629464046FFF771FF013000F0A780099B4B4409933B78002B00F0A080002345
:402140004FF0FF3204930793059206938DF853301A930126052221784E4800F051FA671C049B38B14B4A3C46801A06FA00F018430490EFE7D90644BF20228DF853201A0773
:4021800044BF2B228DF8532022782A2A03D0079A00210A200BE0039A111D12680391002A10DA524243F00200079204900BE027463B780134303B092B03D800FB0232012151
:4021C000F5E701B107923B782E2B1ED17B782A2B0AD1039B02371A1D1B680392002BB8BF4FF0FF33059310E0002319460593781C0A2407463A780130303A092A03D804FB56
:4022000001210123F5E703B1059103223978224800F0F6F940B14023CBEB000003FA00F0049B013718430490397806221B487E1C8DF8281000F0E4F988B1194B33B9039BCF
:40224000073323F007030833039314E003AB00932A46144B04A94046AFF3008007E003AB00932A460F4B04A9404600F093F8B0F1FF3F824603D0099B5344099342E7AB898F
:402280005B0601D4099801E04FF0FF301DB0BDE8F08F00BFE5370000EB370000EF370000000000000D2000002DE9F04791461F460A698B6806469342B8BF1346C9F80030E6
:4022C00091F843200C46DDF8208012B10133C9F800302368990642BFD9F800300233C9F80030256815F0060510D104F1190A07E00123524639463046C04701301AD001356B
:40230000E368D9F800209B1A9D42F1DB94F843302268003318BF012392060FD5E118302081F843005A1C94F845102244023382F8431003E04FF0FF30BDE8F08704F1430263
:4023400039463046C0470130F4D02268D9F80050E36802F00602042A08BF5D1B2269A3680CBF25EAE57500259342C4BF9B1AED184FF000091A344D4509D001232246394602
:402380003046C0470130D5D009F10109F3E70020BDE8F0872DE9F04317460A7E85B06E2A984606460C460C9B01F1430E00F0AE8011D8632A22D009D8002A00F0BB80582A11
:4023C00040F0CA8081F84520834955E0642A1ED0692A1CD0C0E0732A00F0B08009D86F2A2ED0702A40F0B8800A6842F020020A603EE0752A24D0782A3AD0ADE01A6801F124
:402400004205111D1960136884F84230A8E021681A6811F0800F02D0111D196008E011F0400F02F10401196002D0B2F9003000E01368002B3CDA2D225B4284F8432037E0D5
:4024400021681A6811F0800F02D0111D196007E011F0400F02F10401196001D0138800E01368227E5C496F2A14BF0A2208221BE078225A4984F845202268186812F0800F1E
:4024800000F104051D6003D1550601D5038800E00368D00744BF42F0200222601BB9226822F0200222601022002084F8430001E049490A226568002DA56008DB206820F0DC
:4024C000040020602BB9002D7DD175460CE0002B79D07546B3FBF2F002FB1033CB5C05F8013D03460028F5D1082A0BD12368DA0708D5236962689A42DEBF302305F8013C07
:4025000005F1FF35C5EB0E0323612EE008681A6810F0800F496903D0101D1860136808E010F0400F02F104001860136801D0198000E0196000232361754616E01A68111D0C
:402540001960156800216268284600F059F808B1401B6060636804E004F1420584F8422001232361002384F84330CDF800803B4603AA21463046FFF797FE013002D14FF056
:40258000FF3026E023692A4639463046C0470130F5D023689B0710D5002504F1190907E001234A4639463046C0470130E7D00135E368039A9B1A9D42F2DBE068039B9842EC
:4025C000B8BF184605E00B7804F1420584F842308AE705B0BDE8F083F63700000738000038B5064C0023054608462360FEF7EAFC431C02D1236803B12B6038BD4C98FF1F7E
:4026000010B5C9B202449042034605D01C7801308C42F8D1184610BD002010BDF8B5074615460E4621B91146BDE8F840FFF790BC1AB9FFF741FC2846F8BD00F015F88542CA
:402640000ED929463846FFF783FC044650B131462A46FFF72CFB31463846FFF72DFC01E03046F8BD2046F8BD51F8040C0028BEBF091851F8043CC0180438704743488168A0
:40268000002904BF08B007E0EFF30982A2F128024A60036882E8F84F3D498847816899B14A6892E8F84F036002F1280282F3098890693849884202DB374A904203DB4FF08D
:4026C000000181F311887047344835490968401A80F308884FF08071C161324981617FF0060E704701BC30488047204602BC88475DF804EB2D4908472448C068002807D0D9
:40270000EFF314816A46734680E8FE0F28488047284823490968401A20F0070080F308884FF000011948417081F3118862B622494FF080520A60BFF34F8FBFF36F8FFEE7CA
:402740001248C06890E8FE0F81F31488BFF36F8F95469E46704703680CB44FF00001417081F3118814494FF080520A60BFF34F8FBFF36F8F0CBC036070470F494FF0805290
:402780000A60BFF34F8FBFF36F8F7047F881FF1FF12B0000572700007827000030A0FF1FF4350000E9100000C52B0000E12B0000952B000050A0FF1F04ED00E0074A136871
:4027C000591C11604BB9064BEFF3118119604FF0800080F3118800BF00BF7047F081FF1FEC81FF1F054A1368013B13602BB9044B196881F3118800BF00BF7047F081FF1F99
:40280000EC81FF1F70B5204E054634460FCD0FC42B682360B0FBF1F3044673614FF47A713346E0B94FF47A72B2FBF1F2B4FBF1F12046D96115499A61C0B9144AB2FBF1F253
:40284000B4FBF1F11A62124A596210462146A1B9B0FBF2F0B4FBF2F29862DA6270BDB1FBF0F200FB121201461046DAE7B1FBF0F200FB121201461046DEE7B2FBF1F501FBF1
:4028800015250A462946E2E75882FF1F40420F0000CA9A3B38B5104C2378013BDBB22370237803F0FF05ABB963689BB14FF0800080F3118800BF00BF63682BB10123204667
:4028C0002370FFF748FF257063781BB94FF0000080F3118838BD00BFF881FF1F154B10B59A6B32B1012283F85B205A715C6CECB910BDD3E904100131DA6A40F10000C3E9E0
:402900000410196B0132DA62521A002AA4BF01225A7193F85C20002AE8D0013AD2B283F85C20002AE2D101221A71DFE7636898472468DCE7F881FF1F114B8268D96A30B5BB
:402940001144012202741A6A81605AB902600D4A18629A621A6A91681A6B8A1A002AB8BF196330BD03F1200594680C1B002C03DD15461268002AF7D102602860EAE700BF89
:40298000F881FF1F8929000038B504460025236A0BB9A36218E09968E26A8A1A002A12DC1A68636222621D749D604FF0000080F31188636A5B6898474FF0800080F311883D
:4029C00000BF00BFE3E721630023636238BD38B50D46144600211422FFF78FF9C0E90244456038BD007C704710B50346104C00B9636A4FF0800080F3118800BF00BF1A7C34
:402A000032B1226A0B491AB19A420DD11A680A60DA6818469A60FFF78FFF63781BB94FF0000080F3118810BD11461268EBE700BFF881FF1F1882FF1F01464FF0800080F353
:402A4000118800BF00BF0B7C0E4A83B100230B74D06A8B681B1A10468B6050F8203F1BB18B420BD11B680360136A03B9936253781BB94FF0000080F31188704718461B6835
:402A8000EDE700BFF881FF1F024A13780133DBB213707047F881FF1F8268D2E9003203B15A601360002383607047000038B58368014623B11A4BDB6AC360FFF7EDFF91F8E3
:402AC000343003F0030381F834309BB9144CE2699AB9E1612278012302F0FF055AB910482370FFF738FE257063781BB94FF0000080F3118838BD6371F6E70869136998422E
:402B0000E7D89142E6D09842F4D10B461B68002BEAD01D69A842E7D19A42F7D1D9E700BFF881FF1F10B50446FFF7AEFF026949B9174951F8183F33B11869904203D9194682
:402B40001B68F8E70B68236021620C6043B11C621B69934214BF002394F8363084F8353094F834307BB94FF0800080F3118800BF00BF2046FFF79AFF054B5B781BB94FF0E2
:402B8000000080F31188BDE81040FFF783BE00BFF881FF1F70B500F091F9094E0446F3685D6800F08FF9F368421B196B2244914205D32946BDE87040D86AFFF778B870BD09
:402BC000F881FF1F054B596D19B19A6891620021D1621B6D03B11847704700BFF881FF1FFEE7026A0368136003B11A62704700002DE9F04101230025934C657023704FF041
:402C0000800080F3118800BF00BF626B62B163780133DBB2637090476378C4E90D55013BDBB284F85B5063704FF0000080F31188A36853B19A6A42B1586803F128052B68F2
:402C40001B6898476D68002DF9D194F85D30002B3CD0A36894F85C2083F835202379002B34D04FF0800080F3118800BF00BF0022A36822714FF0000080F3118813B31A688C
:402C800002B31869116988421CD1116811B10D69A8425AD04FF0800080F3118800BF00BFE169186A8B42196808BFE1610160086211681A62196001B10B62136092F83630C1
:402CC00082F835304FF0000080F31188E369BBB14FF0800080F3118800BF00BFE569ADB195F8346096B1720736D5EB68E26A9A1A002A2CDC2846FFF7D9FE95F834305BBB4A
:402D00004FF0800080F3118800BF00BF00266FF00047DFF83481637903F0FF02002B5FD06671E36A3B442363A36A0BB1404698474FF0000080F31188A56915BB4FF0800089
:402D400080F3118800BF00BFE5E70A469DE7226B9A1A002AB8BF236306F0FB06102E09D1AB689B685B6893F834201AB91A692B699A42C5D12B68E3614FF0000080F311887C
:402D8000A6E74FF0800080F3118800BF00BFE3691BB12A691B699A42BDD395F834305B070AD5E26AEB689B1A002B0BDDEA68236BD31A002B00DA22634FF0000080F3118867
:402DC0002D68BAE72846FFF771FE4FF0800080F3118800BF00BF95F83430002BE6D19AE76260E16931B391F8343063B18B689B685D682846FFF7F5FE0B692B610123637033
:402E0000FFF790FEE561E3699A6AA36042B1586803F128052B685B6898476D68002DF9D1A36893F8353084F85C3084F85D300648BDE8F081A4F85C10A16021704FF0000057
:402E400080F31188F3E700BFF881FF1F38B50F4B1B681B78532BFDD10D4B9B79002BFDD10C4B1A684CF691139A42FDD16FF000430124094D2B63094BC3E90644C3E90A44B0
:402E8000C3E9084400F026F82C7038BD343800001838000030380000F881FF1F5882FF1F4FF0800080F3118800BF00BF0122024B83F85A20FFF720BCF881FF1F00487047B2
:402EC000509CFF1F014B0248C01A7047509CFF1F50A0FF1F82B001AAEFF31081116072B604490B6843F47F030B60116881F3108802B0704720ED00E00000000001000000E0
:402F00000100000000010000000100000000000101010000726561645F6661696C7572655F706F727431203D20256C752C20726561645F6661696C7572655F706F7274324B
:402F4000203D20256C752C20726561645F6661696C7572655F746F74616C203D20256C750D0A00002A2A2A2A2A2A2A2A2A2A2A2A2A2A2A2A2A2A2A2A2A2A2A2A2A2A2A2AEA
:402F80000D0A000054696D65725F526561645F575F506F7274315F43616C6C6261636B0D0A00000054696D65725F526561645F575F506F7274325F43616C6C6261636B0D6F
:402FC0000A0000006C696E75785F726561645F696E7075745F6661696C7572655F706F727431203D20256C752C206C696E75785F726561645F696E7075745F6661696C7578
:4030000072655F706F727432203D20256C752C206C696E75785F726561645F696E7075745F6661696C7572655F746F74616C203D20256C750D0A000054696D65725F41666F
:40304000746572526561645F496E707574315F43616C6C6261636B0D0A0000006C696E75785F726561645F6661696C7572655F706F727431203D20256C752C206C696E7518
:40308000785F726561645F6661696C7572655F706F727432203D20256C752C206C696E75785F726561645F6661696C7572655F746F74616C203D20256C750D0A00000000A2
:4030C00054696D65725F4166746572526561645F506F7274315F43616C6C6261636B0D0A0000000054696D65725F4166746572526561645F496E707574325F43616C6C629E
:4031000061636B0D0A00000054696D65725F4166746572526561645F506F7274325F43616C6C6261636B0D0A0000000054696D65725F5247425F4C45445F43616C6C6261B5
:40314000636B202D2D3E205247425F436F6C6F72203D2025640D0A006C696E75785F756172745F6661696C757265203D20256C750D0A000054696D65725F526561645F4CA0
:40318000696E75785F43616C6C6261636B0D0A00726561645F696E7075745F706F727431203D20256C752C20726561645F696E7075745F706F727432203D20256C752C2029
:4031C000726561645F696E7075745F746F74616C203D20256C750D0A000000000D0A2D2D2D2D2D2D2D2D2D2D2D2D2D2D2D2D2D2D2D2D2D2D2D2D2D2D2D2D0D0A000000006D
:403200005265616420496E7075742066726F6D20506F727420313A2000000000726561645F636F756E7465725F706F727431203D20256C752C20726561645F636F756E745B
:4032400065725F706F727432203D20256C752C20726561645F636F756E7465725F746F74616C203D20256C750D0A000052656164205720506F727420313A2000526561645B
:4032800020496E7075742066726F6D20506F727420323A200000000052656164205720506F727420323A2000506F727420312052656164006C696E75785F726561645F63B6
:4032C0006F756E7465725F706F727431203D20256C752C206C696E75785F726561645F636F756E7465725F706F727432203D20256C752C206C696E75785F726561645F6371
:403300006F756E7465725F746F74616C203D20256C750D0A0000000052656164204E657720572066726F6D20506F727420312077697468206C696E75783A20002D2D2D2D72
:403340002D2D2D2D2D2D2D2D2D2D2D2D2D2D2D2D2D2D2D2D2D2D2D2D0D0A0000506F7274203220526561640052656164204E657720572066726F6D20506F727420322077AC
:40338000697468206C696E75783A2000506F7274203120496E7075740000000052656164204E657720496E7075742066726F6D20506F727420312077697468206C696E7564
:4033C000783A2000506F7274203220496E7075740000000052656164204E657720496E7075742066726F6D20506F727420322077697468206C696E75783A2000506F7274C8
:403400002031204F70656E00506F72742031204F70656E0D0A000000506F7274203120436C6F736500000000506F7274203120436C6F73650D0A0000506F72742032204F35
:4034400070656E00506F72742032204F70656E0D0A000000506F7274203220436C6F736500000000506F7274203220436C6F73650D0A0000506F72742031204C6F636B0079
:40348000506F72742031204C6F636B0D0A000000506F7274203120556E4C6F636B000000506F7274203120556E4C6F636B0D0A00506F72742032204C6F636B00506F727436
:4034C0002032204C6F636B0D0A000000506F7274203220556E4C6F636B000000506F7274203220556E4C6F636B0D0A00506F727420312057626974733A000000506F7274DF
:403500002031205762697473203D2025640D0A00506F727420322057626974733A000000506F72742032205762697473203D2025640D0A004379205247423A005247425F32
:40354000436F6C6F72203D2025640D0A00000000437920526573657400000000437920436F6E6E6563740000437920436F6E6E65637465640000000057726F6E67204D734E
:40358000672121212121200D0A0000002A2A2A2A2A2A2A2A2A2A2A2A2A2A2A2A2A2A2A2A2A2A2A2A2A2A2A2A2A2A2A2A2A20537461727420437920494F202A2A2A2A2A2A80
:4035C0002A2A2A2A2A2A2A2A2A2A2A2A2A2A2A2A2A2A2A2A2A2A2A2A2A2A2A0D0A00000080F0FA02E803000000000000FD0F0000091000000000000063796D6F6E69746F58
:4036000072696E675F6765745F6C6173745774643A206C6173742072657365742063617573653A2048617264776172652052657365740D0A0000000063796D6F6E69746F43
:4036400072696E675F6765745F6C6173745774643A206C6173742072657365742063617573653A205761746368646F672052657365740D0A0000000063796D6F6E69746F00
:4036800072696E675F6765745F6C6173745774643A206C6173742072657365742063617573653A20536F6674776172652052657365740D0A00000000405100401000F051F6
:4036C0000040100000000140001080140140800700400140000A004C0140000200500140200043000020202020202020202028282828282020202020202020202020202037
:40370000202020202088101010101010101010101010101010040404040404040404041010101010101041414141414101010101010101010101010101010101010101013F
:4037400010101010101042424242424202020202020202020202020202020202020202021010101020000000000000000000000000000000000000000000000000000000D5
:403780000000000000000000000000000000000000000000000000000000000000000000000000000000000000000000000000000000000000000000000000000000000009
:4037C00000000000000000000000000000000000000000000000000000000000000000000000000000232D302B2000686C4C006566674546470030313233343536373839CD
:4038000041424344454600303132333435363738396162636465660008181C20242C00040C1014181C24FFFFFFFFFFFFFF34353691C90000383800005345474745522065B5
:403840006D624F53205635313630317500000000F8B500BFF8BC08BC9E4670474D0000005D140000F8B500BFF8BC08BC9E4670472900000088380000C880FF1F7000000074
:403880001817000000000000000000001A1A1A1A0000000000000000000000000000000000000000000000000000000000000000E236000000000000000000000000000059
:4038C000000000000000000000000000000000000000000000000000000000000000000000000000000000000000000000000000D080FF1FE4360000000000000000000040
:403900000000000000000000000000000000000000000000000000000000000000000000000000000000000000000000000000000000000000000000000000000000000087
:403940000000000000000000000000000000000000000000000000000000000000000000000000000000000000000000000000000000000000000000000000000000000047
:403980000000000000000000000000000000000000000000000000000000000000000000000000000000000000000000000000000000000000000000000000000000000007
:4039C00000000000000000000000000000000000000000000000000000000000000000000000000000000000000000000000000000000000000000000000000000000000C7
:020000040003F7
:0200000480007A
:40000000064500400152004003640040036500402D0201402303014055040140410501405F0601403E070140151401404015014054160140441701400640014004410140DB
:400040000A420140044301400A4801400A4901400950014002510140110212021302340235023602610282728538870F8472860F87380120024004010501080409100C089A
:400080000D700F0F104F1290130B144C150316A318F319301A0C1D7F1EB320422403254F2730280C29782B072CFF2D02308C3104327C3340340F3538370339023AAA3F045B
:4000C00056025712580459045B045F010402060607100D200E62168017641D601E601F282488260427022F2934403540360137643C203D083E425E086D146E146F0174101E
:4001000076067720C0F0C2F0C4F0CA70CCF0CEF0D64003030401050C060E071108010A260C2C0D1C0E030F021510162C170C19091B101D1022082A032C102D14300F311F61
:40014000342A36103A223E40580459045C115F01851F8601891F8A048E04950196019726990A9B51A002A402A802AD14AFC9B001B160B204B318B507B602B780BE05BF0173
:40018000C025C104C203C401C6C0C70EC818C9FFCAFFCBFFCC62CDA0CEF0CF41D00CD418D604D804D904DA04DB04DF01E640E702E910EA30EB10ED10EE10EF1200440308AC
:4001C000048806140A200F201088120215141701184419401E421F84210122022402250427542A402BC02F013080321033083714384439023E1444404520461047404F80B0
:40020000560457105D805E405F0265816748810187409088911492149402970298409B039E809F14A120A504A601C0E7C224C47BCA18CC6ECE6BD0F0D210D680D8B0012097
:40024000050C0711080709090B10100212041510170C180719401B031C081E01251429102D1C2F02320C331F34033520374038283E103F504002464049FF4A074BFF4C40DD
:400280004D204EF04F0550085608580459045A045B045D905F01604061A8624063208403851B860488038A0C8B018C0A8D108E048F03950496089709A403A51BA604AA05AC
:4002C000B101B20FB318B506B928BA08BF05C036C102C5E0C6CBC80EC9FFCAFFCBFFCEF0CF44D00CD401D604D804D904DA04DB04DC11DD11DF01E6C0EA40EB0200440308E5
:40030000051006080A200C400E480F02103819081B081C101D20210122182540272429082E602F2030083604372038643C103E083F014084410143084520480849014B01DB
:400340004F02503052405630589059015B045D406102668067029044962097029EC0A488A708AD40C047C2D4C406CA72CC62CEEED026D204D61FD8118301940A9651980182
:400380009A269C149E49A41FA81FB060B218B407B701BE01D608D804D904DB04DC11DD90DF01004002200388080109400A140E280F0510A812031714184019151A141B80B2
:4003C0001D021E282004210122142302254029152A02301133883410363038A83A013F0140044102420243084810491053105A085C806401670169546B1470FC84808A02BA
:400400008B049556962097209F02A308A410C00FC2EFC46FCA07CC0FCE8FD00FD204D612D810001C020304010506061607280A1C0B10152617181D011E03232A260828018A
:4004400029262A0E2B082D142F28300F3120331E341A35013A223B083F114024410645EC46B0480B49FF4AFF4BFF4EF04F44500C54015604580459045A045B045F0166C0FE
:400480006A406B0283018A028B018C019602A401A801B002B201B501BE01BF10C006C604C9FFCA07CBFFCC40CD20CEF0CF05D008D418D604D804D904DA04DB04DC01DD1110
:4004C000DF01E040E1A8E240E3200020014004100501072008200A200B040C401114161017101B091D111E402004260427A82C402D202E40368439023B203C103F04444036
:4005000047204A084D214E804F045088572059305B125C205D015F886044630267408040854087409010964098409A109D10A140A208A488A604A720B542C073C284C4660A
:40054000CAB0CC50CE65D0A0D224D6F1D88DE840EE103002338037823B20CCF0CE1097209F82A402A78052808002871097209F82A402A780D420E220E6409F82A780AE80A0
:40058000EE108380851087029D029F02A780B502B780E240E660050212205110862091209D02C020C410D420E4400003010108010A030B01100311011A031B0100FF01037B
:4005C0004C03A300013000000010B300F3200C00420200004F00900BFF01000000784007084F00300470000F0C7F0000030000000F048C4000387C030002AA00000000042B
:4006000013060200040CE00009FFFFFF62A0F0410C00000000000212040404041111000100000000000040020010301000101012000000000000000000000000000000005F
:400640000070700000000000020001020200020000000000000B0B00000000000E00004E4000000000000000010002010100010000000000000101000000000070000070F7
:40068000000000000000000000000000000000000000000000000000000000000000000000000000000000000000000000000000000000000000000000000000000000003A
:4006C00000000000000000000000000000000000000000000000000000000000000000000000000000000000000000000000000000000000000000000000000000000000FA
:4007000000000000000000000000000000000000000000000000000000000000000000000000000000000000000000000000000000000000000000000000000000000000B9
:400740000000000000000000000000000000000000000000000000000000000000000000000000000000000000000000000000000000000000000000000000000000000079
:0200000490006A
:0400000000004004B8
:0200000490105A
:04000000BC90ACAF55
:0200000490303A
:0200000047991E
:0200000490402A
:4000000000000000000000000000000000000000000000000000000000000000000000000000000000000000000000000000000000000000000000000000000000000000C0
:400040000000000000000000000000000000000000000000000000000000000000000000000000000000000000000000000000000000000000000000000000000000000080
:400080000000000000000000000000000000000000000000000000000000000000000000000000000000000000000000000000000000000000000000000000000000000040
:4000C0000000000000000000000000000000000000000000000000000000000000000000000000000000000000000000000000000000000000000000000000000000000000
:0200000490501A
:0C00000000012E12306900012E29780248
:00000001FF