:400000000080002011000000A1050000A105000008B5054B1A6803F53F5302331A6000F0C1FB00F0DDFA00BFFA46004010B5054C237833B9044B13B10448AFF30080012307
:40004000237010BD4881FF1F000000006C1E0000084B10B51BB108490848AFF300800848036803B910BD074B002BFBD0BDE81040184700BF000000004C81FF1F6C1E0000F4
:40008000C880FF1F0000000041EA00410B6882B001930198C0B202B0704708B500F08CFFB0FA80F0400908BD08B558B1042801D1054803E009280CBF0448054800F0DEFE0C
:4000C000002008BD012008BD701E00008F1E0000A61E00002DE9F04300240646A0462546C3B0B442A0B200F082802302671C03F580710DF1080C8B425FFA83FE09D29AB20E
:4001000042F40032126801330192019A0CF80E20F1E701F07BF84FF07E5100F0C7FF8146304601F077F80146484601F07BF9324901F0C4F801F012FA1422C0B2B0FBF2F315
:4001400002FB130313F0FF0F19D11FFA80F9C84516D0904201D129480EE0282801D128480AE03C2801D1274806E0502801D1264802E0642804D1254800F080FE00E0C14625
:40018000192000F079FC00F097FBDFF88480F8B9731EA34202AA08D1FF21032000F020FCFFF782FF80B9012513E0B8F8001098F8020000F015FCFFF777FF0028F3D0B8F826
:4001C00000300133A8F800300A2000F055FC00E00225B8F800200E4BB2F5807F04D100221A809A7801329A703C46C84679E7284643B0BDE8F08300BF0000C842B01E0000AA
:40020000BF1E0000CE1E0000DD1E0000EC1E00006481FF1FF7B562B600F0CBFE00F0EEFD5C4800F02BFE5C4B12211878FFF735FF702000F011FF0746742000F00DFF05468C
:40024000732000F009FF000440EA0565722000F003FF0646712000F0FFFE504C284340EA06206060782000F0F7FE0546772000F0F3FE000440EA0565762000F0EDFE064661
:40028000752000F0E9FE284340EA0626792000F0E3FE05467A2000F0DFFE40EA052080B2208001903B4662683D4900963D4801F0B5F93C4800F0E2FD012F57D14FF6FF7752
:4002C000394800F0DBFD00250222B54211D03DB1B5FBF7F3C3EB03439D4204BF0132D2B2A9B21046FFF7D0FEA36801351844A060EBE7A268636852422C492A48A26001F098
:400300008DF9284800F0BAFD294800F0B7FDC5F30F20FFF7DFFE7021034638B9FFF7BDFE13210220FFF7B9FE22481CE0012B4FF0000007D1FFF7B1FE13210D20FFF7ADFE82
:400340001D4810E0022B07D1FFF7A7FE13210D20FFF7A3FE194806E0FFF79FFE13210D20FFF79BFE164800F089FD06E0154800F085FD4FF47A7000F07FFB134800F07EFDE0
:400380004FF47A7000F078FB002000F057FA002003B0F0BDFC1E0000C080FF1F6481FF1F451F00009081FF1FA21F000002200000282000003720000092200000FA20000070
:4003C00071210000D32100001A220000F8B572B65D4A5E4D1378002443F004031370062606FB045300219A881868013401F00DF9092CF5D180225649564801F0FBF8002255
:400400001146554C04F1380554F8210005EB420320F0FF06C0B2024405EB4200013303300233834206D013F8037C13F802EC07F806E0F5E701310E29E6D1484A484C1378A5
:40044000484F43F002031370137C192643F0020313742378A2F5863243F040032370413A1378002543F0100313703F4B02F6FE525968186803C2198911803C4953F80A2FA2
:400480000A605A684A603A4A0321137843F008031370384B61221A70A3F5F06333221A8018229A70022283F8802208224FF040231A7083F80012304B30491B78DBB20B7011
:4004C0002F4B1A8041F2512223F8022C3B784FF4F07003F0010343EA450500F0D1FD013E05F003052FD0032DF0D1264B4FF480721A80254907221A70482000220A708870EE
:400500001A70022203F8032C204A214D137843F001031370174B81221A7003F5F723012204331A701B4B1C4A1B78DBB203F007011B0911705370194B44221A7094E80F0013
:4005400007C52B80F8BDFEE7E8460040642200009A220000801601401C23000003500140A043004025420040AC25000012510040224300400048004008010049A14600402C
:40058000224200400440004006400040A2430040B0430040CF0100496E5800407658004008B500F0FBFF03680C2B00D1FEE7FEE7094908B50B68094A1844821AB2F5006F41
:4005C00001DC086005E000F0E9FF0C2303604FF0FF33184608BD00BFCC80FF1FB086FF1F80B51148114B0025C0B1A3F1100192C922460439161BB74204D051F8046F42F83D
:40060000046BF7E7114653F8046C8C1AA64202D041F8045BF9E701381033E5E700F0C4FFFFF7F8FDFEE700BF0100000028260000104A114B10B41A60104A114C136811482B
:4006400043F4007313600023032B98BF54F823204FEA830188BF0C4A0133302B4250F3D10A4B1A780A4B1A700A4B064A10BC1A60FFF7ACBE0004FA050CED00E014ED00E019
:40068000000000000080FF1FA1050000BC760040C080FF1F08ED00E0004770B5C0B06A4620F0FF035C1E03F1FF05D31A14F8016FAC421E55FAD1C3B2D45C8C4208D0D1543C
:4006C000C0F30721C0F3074000F08AF900F0F2F940B070BD01380B284FD8DFE800F0060C12181E24302A363C42480902C1F57F3101F5707147E00902C1F57F3101F2C131D7
:4007000044E00902C1F57F3101F2C53136E00902C1F57F3101F2C93138E00902C1F57F3101F574712FE00902C1F57F3101F2D13129E00902C1F57F3101F2D6311EE0090271
:40074000C1F57F3101F2D23118E00902C1F57F3101F5757112E00902C1F57F3101F5767114E00902C1F57F3101F577710BE00902C1F57F3101F5787108E000210B784878CE
:4007800043EA002070470878C0B270470B784A788878000440EA02201843CB7840EA03607047000010B50B4A137803F0C003802B0ED10024147021460220FFF78BFF38B196
:4007C00021460220FFF786FFBDE81040FFF764BF10BD00BFFA460040F8B5014606460320FFF778FF314605460420FFF773FF013500EB052531460320FFF76CFF00242746E6
:4008000001300002854209D910F8012B531EDBB2FD2B144498BF0127E4B2F3E731460120FFF758FF6442E4B2844204D1002F0CBF06200020F8BD0620F8BD0000022838B598
:400840000546094C0AD0FFF7C7FF38B9B5FA85F106484909FFF721FF802300E000232370BDE8384000F000B9FA460040D0FF030038B500F059F900F01BFAC0B900F052FA3C
:400880000728044610D10B4D2A780A4B910703D4012000F007F9F7E71A78920704D51B789B0814BF0724002400F022FA00E00424204638BD2247004070B5FFF7D9FF044680
:4008C00010BB00F031F900F0F3F9E0B9012000F0D5F907280AD10D4D02210D4800F036F902280A4E05D02B789B07F5D54FF0FF3406E033789A0703D4012000F0D3F8F8E728
:4009000000F0F6F900E00424204670BD22470040F481FF1F41282DE9F04105460E46174698460AD8441F3A2C8CBF002401243F2804D8B1F5807F30D806E00124812E28BFA7
:400940000124B8F1100F28D13FB334BB00F0B0F928BB43463A463146284600F04BF9072834D1DFF8748098F800201B4B12F0020F1F4603D1012000F095F8F4E71A7890070F
:4009800006D51B789B080CD002E01A78920719D44FF0FF3400F0ACF91AE0012418E0042416E00E4A314653782846127800F046F907280BD13A78084B9107E6D4012000F0E0
:4009C00071F8F7E71B789B08E4D0E1E70446E1E72046BDE8F08100BF22470040F481FF1F3F288CBF10234FF48073FFF793BF000008B500F04DFB0F4A137843F00803137078
:400A0000137C43F0080313740B4BC8221A700B4A137843F010031370137C43F01003137402F5557213789B06FCD5BDE8084000F033BB00BFA043004001470040AC43004074
:400A4000044B1A7842F001021A701A789207FCD5704700BF02470040024A137803F0FE031370704702470040024A137843F0010313707047F646004038B50446084DB4F554
:400A8000004F05D9286800F0FBFAA4F50044F6E7034B58686043BDE8384000F0F1BA00BFD080FF1F024B1B7A584300F0E9BA00BFD080FF1F08B500F0EBFA00BF00BF00BF38
:400AC00000BF00BF00BF00BF00BF00BF00BF00BF00BF00BF00BF00BF00BF064A13889BB243F0040313801388BFF36F8FBDE8084000F0D2BA00480040054A00F01F0012682A
:400B000000F1100352F8230042F82310704700BF08ED00E000F01F0000F16040490100F56440C9B20170704708B500F0B1FA064A137843F008031370137C43F0080313741E
:400B4000BDE8084000F0A8BAA04300402DE9F0410E464B1E0A4FDFF82C80451EC418A5420BD03B78DB0703D40120FFF79BFFF8E798F8003005F8013FF1E73046BDE8F081D5
:400B800022470040204700403E2870B501D81F2B02E03F2823D00F2B21D8144D2C78A6071FD5134CB6262670D4262670012626702D78AD0717D42070C1F300202070104676
:400BC000C9B22170591EC9B22170811AC9B28B4203D910F8011B2170F7E7072070BD012070BD042070BD092070BD00BF224700402047004030B50F4C21788D0715D50E490E
:400C0000B6250D70D5250D7002250D702478A4070DD414460870A01A80B2834203D914F8010B0870F7E7072030BD042030BD092030BD00BF224700402047004070B50D4D83
:400C40002C78A60712D50C4CB6262670D8262670052626702D78AD070AD42070080AC9B22070217022702370072070BD042070BD092070BD22470040204700400A4A137859
:400C800099070CD5094BB6211970E12119700E2119701278920704D4187007207047042070470920704700BF224700402047004038B500F0EDF90C4A147874B901250B4945
:400CC00015700B682B400AD00B6823F001030B6000BF00BF00BF556002E0042400E01C4600F0DAF9204638BD7481FF1F0400084010B500F0CDF9094B00215A681970012AA1
:400D000008D1074C226842F00102226000BF00BF00BF5960BDE8104000F0BEB97481FF1F04000840074B1B789B0708D5064BB6221A70E0221A700D221A7007207047042037
:400D4000704700BF224700402047004008B511490020FFF7D1FE07210020FFF7DBFE0E4B00221A700D4B72221A70202203F8022C0B490120FFF7C0FE07210120FFF7CAFE84
:400D8000084B06221A7047221A74022283F85F2008BD00BF9D0E00007C81FF1F876500403D0F00002565004010B500F071F904460E4A0F49137843F02003137012F8023CC8
:400DC00043F0100302F8023C0A4A012313600B7843F010030B70084902230B60136000F0D5F82046BDE8104000F056B9976500409465004000E100E080E200E010B5054C4D
:400E000063781BB9FFF7A2FF01236370BDE81040FFF7CABF7C81FF1F10B5134C637A227AD2B2934202D2511E994201E0991AC62914BF002101210029F1D193420B4A05D14E
:400E40001178490702D40A4B187010BDC72B094928BF0023C8540133637213789B0742BF054B02221A6010BD7C81FF1F6465004044650040DE85FF1F00E200E038B5064B2F
:400E800005465B783BB10024A3B2E85C013410B1FFF7C2FFF8E738BD7C81FF1F2DE9F0431E491F4C0A4625461E4E1F481F4FDFF884E0DFF884C03378DBB213F01E091EBF23
:400EC00090F8008049EA080880F800809B0623D597F800800B885FFA88F89BB20EF80380237813B101238CF80030138801339BB2138013889BB2B3F57A7F24BF00230B80C5
:400F00000B4BB2F800801B881FFA88F89BB29845D1D101232B70CEE7BDE8F0838081FF1F8281FF1F656500407C81FF1F476500407E81FF1FF681FF1F8381FF1F0E4AF0B57B
:400F400011460E4C0E480F4D0F4E137827789F4211D0037813F004030DD11778C62F88BF13700B78DBB2EB5CDBB233700B780133DBB20B70E9E7F0BD8481FF1F8581FF1F0A
:400F800064650040DE85FF1F44650040044A137843F001031370137C43F0010313747047A243004008B5FFF787FCBDE80840FFF71FBDFFF7F7BF000037B50C468DF8070097
:400FC000FFF7B2FDB4F5006F24D2FFF771FE18BB04F00F0101230DF107024020FFF7D4FD07284FEA141504460FD1194A1378184C13F0020FFAD02378980702D44FF0FF3443
:4010000005E023789B0809D0F8E70128F6D1FFF76FFE1AE0012418E0042416E00D4A2946537840201278FFF709FE0728E6D12278074B9107FBD51A789207DFD51B789B0886
:4010400014BF4FF0FF340024E1E7204603B030BD22470040F481FF1F38B5044600F018F80546FFF7EDFC04F1804303F500431C78FFF7F2FCE4B2284600F00EF8204638BDDC
:401080000230800803D000BF01380046FCD17047EFF3108072B6704780F31088704700BF80F0004002E000BF81F0004142001FBF5FEA410392EA030F7FEA226C7FEA236CE2
:4010C0006AD04FEA1262D2EB1363C1BFD218414048404140B8BF5B42192B88BF704710F0004F40F4000020F07F4018BF404211F0004F41F4000121F07F4118BF494292EAAC
:40110000030F3FD0A2F1010241FA03FC10EB0C00C3F1200301FA03F100F0004302D5494260EB4000B0F5000F13D3B0F1807F06D340084FEA310102F10102FE2A51D2B1F128
:40114000004F40EBC25008BF20F0010040EA03007047490040EB000010F4000FA2F10102EDD1B0FA80FCACF1080CB2EB0C0200FA0CF0AABF00EBC25052421843BCBFD040F4
:401180001843704792F0000F81F4000106BF80F400000132013BB5E74FEA41037FEA226C18BF7FEA236C21D092EA030F04D092F0000F08BF0846704790EA010F1CBF00205A
:4011C000704712F07F4F04D1400028BF40F00040704712F100723CBF00F50000704700F0004343F0FE4040F4000070477FEA226216BF08467FEA23630146420206BF5FEA02
:40120000412390EA010F40F4800070474FF0000304E000BF10F0004348BF40425FEA000C08BF704743F0964301464FF000001CE050EA010208BF70474FF000030AE000BF9D
:4012400050EA010208BF704711F0004302D5404261EB41015FEA010C02BF84460146002043F0B64308BFA3F18053A3F50003BCFA8CF2083AA3EBC25310DB01FA02FC6344A7
:4012800000FA02FCC2F12002BCF1004F20FA02F243EB020008BF20F00100704702F1200201FA02FCC2F1200250EA4C0021FA02F243EB020008BF20EADC7070474FF0FF0CD2
:4012C0001CEAD0521EBF1CEAD15392EA0C0F93EA0C0F6FD01A4480EA010C400218BF5FEA41211ED04FF0006343EA501043EA5111A0FB01310CF00040B1F5000F3EBF490008
:4013000041EAD3715B0040EA010062F17F02FD2A1DD8B3F1004F40EBC25008BF20F00100704790F0000F0CF0004C08BF49024CEA502040EA51207F3AC2BFD2F1FF0340EAB6
:40134000C250704740F400004FF00003013A5DDC12F1190FDCBF00F000407047C2F10002410021FA02F1C2F1200200FA02FC5FEA310040F1000053EA4C0308BF20EADC70E8
:40138000704792F0000F00F0004C02BF400010F4000F013AF9D040EA0C0093F0000F01F0004C02BF490011F4000F013BF9D041EA0C018FE70CEAD15392EA0C0F18BF93EAB6
:4013C0000C0F0AD030F0004C18BF31F0004CD8D180EA010000F00040704790F0000F17BF90F0004F084691F0000F91F0004F14D092EA0C0F01D142020FD193EA0C0F03D18E
:401400004B0218BF084608D180EA010000F0004040F0FE4040F40000704740F0FE4040F4400070474FF0FF0C1CEAD0521EBF1CEAD15392EA0C0F93EA0C0F69D0A2EB030261
:4014400080EA010C49024FEA402037D04FF0805343EA111143EA10130CF000408B4238BF5B0042F17D024FF4000C8B4224BF5B1A40EA0C00B3EB510F24BFA3EB510340EAB5
:401480005C00B3EB910F24BFA3EB910340EA9C00B3EBD10F24BFA3EBD10340EADC001B0118BF5FEA1C1CE0D1FD2A3FF650AF8B4240EBC25008BF20F0010070470CF0004C9D
:4014C0004CEA50207F32C2BFD2F1FF0340EAC250704740F400004FF00003013A37E792F0000F00F0004C02BF400010F4000F013AF9D040EA0C0093F0000F01F0004C02BFE2
:40150000490011F4000F013BF9D041EA0C0195E70CEAD15392EA0C0F08D142027FF47DAF93EA0C0F7FF470AF084676E793EA0C0F04D14B023FF44CAF08466EE730F0004C5C
:4015400018BF31F0004CCAD130F000427FF45CAF31F000437FF43CAF5FE700BF42000ED2B2F1FE4F0BD34FF09E03B3EB126209D44FEA002343F0004323FA02F070474FF04F
:401580000000704712F1610F01D1420202D14FF0FF3070474FF00000704700BF014B1868704700BF4081FF1F0E4B70B51E460E4C0025E41AA410A54204D056F825309847CD
:4015C0000135F8E701F016F8084B094C1E46E41AA4100025A54204D056F8253098470135F8E770BD0026000000260000002600000826000010B5431E0A44914204D011F8B1
:40160000014B03F8014FF8E710BD03460244934202D003F8011BFAE7704700000EB400B54FF402719CB0ADF814106FF00041049107914FF6FF711DAB02900690084853F833
:40164000042BADF81610006802A9019300F064F8029B00221A701CB05DF804EB03B070474081FF1F2DE9F0478E6882469E420C46914698463ED88A8912F4906F3AD0256824
:40168000096902236F1A656905EB450595FBF3F57B1C43449D4238BF1D4653050FD5294600F040FB064698B13A462169FFF7A2FFA38923F4906343F08003A38113E02A46B4
:4016C00000F08EFB064670B92169504600F0DEFA0C23CAF80030A3894FF0FF3043F04003A381BDE8F08726613E44266046466561ED1BA560464528BF464649463246206828
:4017000000F0A8FAA36800209B1BA36023681E442660BDE8F08700002DE9F04F9DB003938B8980461C060D4616460DD50B695BB9402100F0F7FA2860286118B90C23C8F844
:401740000030CDE040236B610023099320238DF82930DFF89CB130238DF82A3037463C4614F8013B1BB9B7EB060910D003E0252BF9D02746F3E74B46324629464046FFF744
:4017800071FF013000F0A780099B4B4409933B78002B00F0A08000234FF0FF3204930793059206938DF853301A930126052221784E4800F041FA671C049B38B14B4A3C4641
:4017C000801A06FA00F018430490EFE7D90644BF20228DF853201A0744BF2B228DF8532022782A2A03D0079A00210A200BE0039A111D12680391002A10DA524243F00200C7
:40180000079204900BE027463B780134303B092B03D800FB02320121F5E701B107923B782E2B1ED17B782A2B0AD1039B02371A1D1B680392002BB8BF4FF0FF33059310E06A
:40184000002319460593781C0A2407463A780130303A092A03D804FB01210123F5E703B1059103223978224800F0E6F940B14023CBEB000003FA00F0049B013718430490AD
:40188000397806221B487E1C8DF8281000F0D4F988B1194B33B9039B073323F007030833039314E003AB00932A46144B04A94046AFF3008007E003AB00932A460F4B04A991
:4018C000404600F093F8B0F1FF3F824603D0099B5344099342E7AB895B0601D4099801E04FF0FF301DB0BDE8F08F00BFC0250000C6250000CA250000000000006516000029
:401900002DE9F04791461F460A698B6806469342B8BF1346C9F8003091F843200C46DDF8208012B10133C9F800302368990642BFD9F800300233C9F80030256815F006054C
:4019400010D104F1190A07E00123524639463046C04701301AD00135E368D9F800209B1A9D42F1DB94F843302268003318BF012392060FD5E118302081F843005A1C94F8A8
:4019800045102244023382F8431003E04FF0FF30BDE8F08704F1430239463046C0470130F4D02268D9F80050E36802F00602042A08BF5D1B2269A3680CBF25EAE575002586
:4019C0009342C4BF9B1AED184FF000091A344D4509D00123224639463046C0470130D5D009F10109F3E70020BDE8F0872DE9F04317460A7E85B06E2A984606460C460C9B3E
:401A000001F1430E00F0AE8011D8632A22D009D8002A00F0BB80582A40F0CA8081F84520834955E0642A1ED0692A1CD0C0E0732A00F0B08009D86F2A2ED0702A40F0B880FA
:401A40000A6842F020020A603EE0752A24D0782A3AD0ADE01A6801F14205111D1960136884F84230A8E021681A6811F0800F02D0111D196008E011F0400F02F1040119603C
:401A800002D0B2F9003000E01368002B3CDA2D225B4284F8432037E021681A6811F0800F02D0111D196007E011F0400F02F10401196001D0138800E01368227E5C496F2A9A
:401AC00014BF0A2208221BE078225A4984F845202268186812F0800F00F104051D6003D1550601D5038800E00368D00744BF42F0200222601BB9226822F0200222601022C1
:401B0000002084F8430001E049490A226568002DA56008DB206820F0040020602BB9002D7DD175460CE0002B79D07546B3FBF2F002FB1033CB5C05F8013D03460028F5D18B
:401B4000082A0BD12368DA0708D5236962689A42DEBF302305F8013C05F1FF35C5EB0E0323612EE008681A6810F0800F496903D0101D1860136808E010F0400F02F10400E1
:401B80001860136801D0198000E0196000232361754616E01A68111D1960156800216268284600F049F808B1401B6060636804E004F1420584F8422001232361002384F803
:401BC0004330CDF800803B4603AA21463046FFF797FE013002D14FF0FF3026E023692A4639463046C0470130F5D023689B0710D5002504F1190907E001234A463946304653
:401C0000C0470130E7D00135E368039A9B1A9D42F2DBE068039B9842B8BF184605E00B7804F1420584F842308AE705B0BDE8F083D1250000E225000010B5C9B2024490427C
:401C4000034605D01C7801308C42F8D1184610BD002010BD884210B501EB020301D8421E0BE09842FBD28118D21AD34204D013F8014D01F8014DF8E710BD994204D011F815
:401C8000014B02F8014FF8E710BD000038B50546002944D051F8043C0C1F002BB8BFE41800F0D4F81E4A1368114613B96360146030E0A3420DD92268A018834201BF186800
:401CC0005B681218226063600C6023E0A24203D813465A68002AF9D118681918A1420BD12168014458188242196013D110685268014419605A600DE002D90C232B6009E091
:401D000021686018824201BF106852680918216062605C602846BDE8384000F098B838BD8C81FF1F70B5CD1C25F0030508350C2D38BF0C25002D064601DBA94202D90C23CE
:401D4000336046E000F082F8234B1C681A462146A1B10B685B1B0ED40B2B03D90B60CC18CD501EE08C420BBF63684B681360636018BF0C4615E00C464968E9E7174C2368C3
:401D80001BB9304600F052F820602946304600F04DF8431C18D0C41C24F00304A0420DD12560304600F053F804F10B00231D20F00700C31A0ED05A42E25070BD211A30460F
:401DC00000F034F80130EBD10C233360304600F03EF8002070BD00BF8C81FF1F8881FF1FF8B5074615460E4621B91146BDE8F840FFF798BF1AB9FFF749FF2846F8BD00F0F6
:401E000027F885420ED929463846FFF78BFF044650B131462A46FFF7EDFB31463846FFF735FF01E03046F8BD2046F8BD38B5064C0023054608462360FEF7BAFB431C02D1B8
:401E4000236803B12B6038BDA886FF1F7047704751F8040C0028BEBF091851F8043CC01804387047002700001100000000000000466C6173682077726974696E6720616C3F
:401E8000726561647920696E207573650D0A00436F6D6D616E64206E6F742061636365707465640D0A004661696C7572650D0A0057726974696E673A203230250D0A0057E0
:401EC000726974696E673A203430250D0A0057726974696E673A203630250D0A0057726974696E673A203830250D0A0057726974696E673A20313030250D0A000D0A2D2D1D
:401F00002D2D2D2D2D2D2D2D2D2D2D2D2D2D2D2D2D2D262626262620426F6F746C6F616465722053746172742026262626262D2D2D2D2D2D2D2D2D2D2D2D2D2D2D2D2D2D58
:401F40002D2D0D0A004170706C69636174696F6E20435243206F6E2045323A2030782530386C580D0A426F6F746C6F61646572205374617475733A3078253032580D0A41BE
:401F800070702053697A653A20256C640D0A666972737420526F7749443A20253034580D0A000D0A2D2D2D2D2D2D2D2D2D2D2D2D2D2D2D2D2D2D2D2D262626262620537481
:401FC0006172742057726974696E67204E65772041707020746F20496E7465726E616C20466C6173682026262626262D2D2D2D2D2D2D2D2D2D2D2D2D2D2D2D2D2D2D2D0D2E
:402000000A000D0A6E65774352433A2030782530386C58202C204170704352433A2030782530386C580D0A004352437320617265204F4B210D0A000D0A2D2D2D2D2D2D2D54
:402040002D2D2D2D2D2D2D2D2D2D2D2D2D262626262620426F6F746C6F616465722050726F6772616D6D6564205375636365737366756C6C792026262626262D2D2D2D2D1C
:402080002D2D2D2D2D2D2D2D2D2D2D2D2D2D2D0D0A000D0A2D2D2D2D2D2D2D2D2D2D2D2D2D2D2D2D2D2D2D2D262626262620426F6F746C6F616465722050726F6772616DEA
:4020C0006D6564204661696C757265202D2D3E20726F77206E6F742077726974652026262626262D2D2D2D2D2D2D2D2D2D2D2D2D2D2D2D2D2D2D2D0D0A000D0A2D2D2D2D92
:402100002D2D2D2D2D2D2D2D2D2D2D2D2D2D2D2D262626262620426F6F746C6F616465722050726F6772616D6D6564204661696C757265202D2D3E20437953657454656DEA
:4021400070282920213D2043595245545F535543434553532026262626262D2D2D2D2D2D2D2D2D2D2D2D2D2D2D2D2D2D2D2D0D0A000D0A2D2D2D2D2D2D2D2D2D2D2D2D2D28
:402180002D2D2D2D2D2D2D262626262620426F6F746C6F616465722050726F6772616D6D6564204661696C757265202D2D3E20556E6B6E6F776E2026262626262D2D2D2D8B
:4021C0002D2D2D2D2D2D2D2D2D2D2D2D2D2D2D2D0D0A000D0A2D2D2D2D2D2D2D2D2D2D2D2D2D2D2D2D2D2D2D2D2626262626204E6F204E65772050726F6772616D20262614
:402200002626262D2D2D2D2D2D2D2D2D2D2D2D2D2D2D2D2D2D2D2D0D0A000D0A2D2D2D2D2D2D2D2D2D2D2D2D2D2D2D2D2D2D2D2D262626262620426F6F746C6F616465720D
:402240002046696E6973682026262626262D2D2D2D2D2D2D2D2D2D2D2D2D2D2D2D2D2D2D2D0D0A00005100401000205100405000F05100401000000001400010001401408B
:40228000800200170140000500400140000A004C014000020050014020000110000073E70C181F0860001C3C63C2020000047FFF000003C0000000442300080000E304182C
:4022C00000000C1C00E100800000101F2C000F3840C080002802000001002403060001E00C0006FFFFFF62A0F0410C00000000000213040404040000000100000000000086
:402300004002001030100010101200000000000000000000000000000000000001520040036500406A140140561501401616014037170140034001400241014002420140AA
:4023400002430140054801400A49014002500140015101406401840F853887720053020C045305080604073409180C0A0E540F01142015181B012208248025102615270C40
:4023800028032A142B02300F3120322033183410350136C0370638803A023E143F504013410245EB46E0470C481B49FF4AFF4BFF4EF04F44500C54015604580459045A0468
:4023C0005B045F0166C06A406B02801082AC830884148A038B138CDC8E229131930696209C109D2C9E409F03A009A2D0A30CA531A70EA80CAA71B21FB4E0B530B70FB920AA
:40240000BA20BB80BF10C003C540C9FFCA07CBFFCC40CD20CEF0CF05D008D418D604D804D904DA04DB04DF01E040E1A8E240E320010203210410050A07010B200F2110285B
:4024400011011320141015091610171019261B801C101F2020012114220126802709281029102D012FA031203204340235023680388039103B083F214002422043304708D2
:4024800049094F0150085310542056205710588059055B205F02620266826704808081208202840185508680870489408B049080911092089411960299109B029D409E10E4
:4024C000A160A401A602B001B210C0FDC2A4C45ECAC6CC96CEAED04ED68FD8B103010408060208100C040E0218021A0C2301240F280F2C013001340E361037013A083E4060
:402500003F40580459045F0100860308041005400610088109080A040E0410A81594180419011B881D181E441F402088212023422540288129042B082F8031583201382496
:402540003A023B403F0140854108424048044B015040590169946A0870B87104720286028B40C0EFC24FC4EECA8FCC0FCE8FD00FD204D601E68031103720CC309D109F208A
:402580009D109F209D109F2087208B109D109F20E240128073108110868093109D10C410DC80E410E62010011A01000F02000102020002000000000B0B00000000004300B0
:4025C000232D302B2000686C4C00656667454647003031323334353637383941424344454600303132333435363738396162636465660000F8B500BFF8BC08BC9E46704769
:402600005100000031060000F8B500BFF8BC08BC9E4670472D00000028260000C880FF1F800000006805000000000000B086FF1F0000E02EC05D00001800000000366E0189
:402640000000000000000000000000000000000000000000000000000000000000000000BE2500000000000000000000000000000000000000000000000000000000000077
:402680000000000000000000000000000000000000000000000000000000000000000000E080FF1F000000000000000000000000000000000000000000000000000000009C
:4026C00000000000000000000000000000000000000000000000000000000000000000000000000000000000000000000000000000000000000000000000000000000000DA
:402700000000000000000000000000000000000000000000000000000000000000000000000000000000000000000000000000000000000000000000000000000000000099
:402740000000000000000000000000000000000000000000000000000000000000000000000000000000000000000000000000000000000000000000000000000000000059
:402780000000000000000000000000000000000000000000000000000000000000000000000000000000000000000000000000000000000000000000000000000000000019
:020000040003F7
:40FFC0000000000000000000000000000000000000000000010000000000000000000000000000000000000000000000000000000000000000000000000000000000000000
:0200000490006A
:040000000000400DAF
:0200000490105A
:04000000BC90ACAF55
:0200000490303A
:02000000C1013C
:0200000490402A
:4000000000000000000000000000000000000000000000000000000000000000000000000000000000000000000000000000000000000000000000000000000000000000C0
:400040000000000000000000000000000000000000000000000000000000000000000000000000000000000000000000000000000000000000000000000000000000000080
:400080000000000000000000000000000000000000000000000000000000000000000000000000000000000000000000000000000000000000000000000000000000000040
:4000C0000000000000000000000000000000000000000000000000000000000000000000000000000000000000000000000000000000000000000000000000000000000000
:0200000490501A
:0C00000000012E12306900012E1FF16A71
:00000001FF